:020000040800F2
:10000000709D0020B9030008990300089B030008B5
:100010009F030008A3030008A703000800000000D6
:10002000000000000000000000000000AB0300081A
:10003000AD0300080000000023BB0008F5B900086C
:10004000D3030008D3030008D3030008D303000838
:10005000D3030008D3030008D3030008B10300084A
:10006000B3030008B5030008D3030008D303000856
:10007000D3030008D3030008D3030008D303000808
:10008000D3030008D3030008D3030008D3030008F8
:10009000D3030008D3030008D3030008AF0300080C
:1000A000D3030008D3030008D3030008D3030008D8
:1000B000D3030008D3030008D3030008D3030008C8
:1000C000D3030008D3030008D3030008D3030008B8
:1000D000D3030008AF120008D3030008D3030008BD
:1000E000D3030008D3030008D3030008D303000898
:1000F000D3030008D3030008D3030008D303000888
:10010000D3030008D3030008D3030008D303000877
:10011000D3030008D3030008D3030008D303000867
:10012000D3030008D3030008D3030008D303000857
:1001300000F002F800F03AF80AA090E8000C8244BF
:100140008344AAF10107DA4501D100F02FF8AFF29C
:10015000090EBAE80F0013F0010F18BFFB1A43F0A5
:1001600001031847C4BD0000E4BD0000103A24BFDD
:1001700078C878C1FAD8520724BF30C830C144BF0C
:1001800004680C607047000000230024002500264E
:10019000103A28BF78C1FBD8520728BF30C148BFEA
:1001A0000B6070471FB51FBD10B510BD0BF079FC7B
:1001B0001146FFF7F7FF00F0AFF80BF097FC03B420
:1001C000FFF7F2FF03BC01F013F800000EB500BF0B
:1001D00010E06348006808B9012000E00020604991
:1001E000086002A80021C8230A46CDE9001008468D
:1001F0000AF057FCEDE7F0B58BB00446002700BFCE
:1002000002F0BAFF01F073F8054656480068B5FBE6
:10021000F0F630460BF00CFC01F0BAF90AA807F032
:1002200079FE03F047F80AAA0121084603F0E1FB32
:1002300000BF00BF00BF03F037F9074600BF02F060
:1002400030FF00BF48480078401C47490870084606
:100250000078012801D103F0DDFA00BF02F002FFAF
:1002600000BF384603F024F900BF00BF00BF0AA852
:10027000032100220592CDE9062108901046802135
:100280000C223A4BCDE90132CDE9031004200023C2
:10029000AFF2C70236A10090384808F072FA0AA9F6
:1002A000374809F07BFF00BF00BF00BF03F0FCF838
:1002B000074600BF02F0F5FE00BF2B480078401E45
:1002C0002949087008460078D0B903F0E5FA2D48AE
:1002D000008800280BDD00BF02F0C4FE00BF3846D6
:1002E00003F0E6F800BF00BF03F076FF11E000BFA7
:1002F00002F0B8FE00BF384603F0DAF800BF08E0AD
:1003000000BF02F0AFFE00BF384603F0D1F800BFD7
:1003100000BF00BF0BB0F0BD8AB000F04FFF09A8CE
:1003200003F02EF909A8032100220592CDE9062148
:10033000089010464FF400713322134BCDE901327F
:10034000CDE9031003200023AFF255120FA1009056
:100350000B4808F016FA09A803F0F5FB00BFFEE70A
:100360008001224278BD0008BC000020B00A0020B5
:100370006C656431207461736B000000E809002033
:100380002001002080000020E801002073746172C9
:1003900074207461736B0000704700BFFEE700BFFC
:1003A000FEE700BFFEE700BFFEE7704770477047FB
:1003B0007047704770470000094880470948004768
:1003C000FEE7FEE7FEE7FEE7FEE7FEE7FEE7FEE705
:1003D000FEE7FEE704480549054A064B7047000062
:1003E000D70400083101000870930020709D0020A0
:1003F00070950020709500200CB5002001900090B1
:100400006C48006840F480306A49086000BF694861
:10041000006800F4003000900198401C01900098A2
:1004200018B90198B0F5A06FF1D16248006800F4E6
:10043000003010B10120009001E0002000900098F1
:10044000012843D15C48006840F010005A49086018
:100450000846006820F0030008600846006840F085
:1004600002000860534840685249486008464068A6
:1004700048600846406840F480604860084640682C
:1004800020F47C1048600846406840F4E81048605A
:100490000846006840F08070086000BF454800686A
:1004A00000F000700028F9D04248406820F00300B6
:1004B000404948600846406840F00200486000BF7C
:1004C0003C48406800F00C000828F9D10CBD10B57C
:1004D000FFF792FF10BD10B53648006840F00100EC
:1004E000344908600846406834490840314948604A
:1004F00008460068324908402E49086008460068EE
:1005000020F4802008600846406820F4FE0048601F
:100510004FF41F008860FFF7DAFF4FF000602949B1
:10052000086010BD10B5002100200022214B5B683F
:1005300003F00C0121B1042906D0082928D107E0D5
:10054000214B224C236027E01F4B204C236023E0EB
:10055000184B5B6803F47010164B5B6803F4803231
:10056000022303EB904022B9194B4343174C2360FD
:100570000DE0104B5B6803F4003323B1144B43438D
:10058000124C236003E0104B4343104C236003E004
:100590000D4B0E4C236000BF00BF064B5B68C3F3DE
:1005A00003130C4CE15C094B1B68CB40074C2360E8
:1005B00010BD000000100240002002400000FFF8C3
:1005C000FFFFF6FE08ED00E000127A0000000020B8
:1005D00000093D000400002031490143314A116007
:1005E000704770B5002100230F22C47804B32D4C4E
:1005F000246804F4E064C4F5E064210AC1F1040352
:10060000CA40447804FA03F1847814402143090174
:10061000254C0678A155047804F01F050124AC4050
:1006200005786D11AD0005F1E025C5F8004109E040
:10063000047804F01F050124AC401C4D06787611A7
:1006400045F8264070BD1A4A0A400243154B1B1F4D
:100650001A60704739B1134A121D12680243114BD8
:100660001B1D1A6006E00F4A121D126882430D4BD3
:100670001B1D1A607047042808D14FF0E02109695A
:1006800041F004014FF0E022116107E04FF0E0215A
:10069000096921F004014FF0E02211617047000068
:1006A0000000FA050CED00E000E400E080E100E06D
:1006B00080FFFF1F10B50446CC48844208D10121B9
:1006C000042000F02DFB0021042000F029FB46E06F
:1006D000C748844208D10121082000F021FB0021F5
:1006E000082000F01DFB3AE0C248844208D10121F5
:1006F000102000F015FB0021102000F011FB2EE06F
:10070000BD48844208D10121202000F009FB0021CE
:10071000202000F005FB22E0B848844208D10121E6
:10072000402000F0FDFA0021402000F0F9FA16E028
:10073000B348844208D10121802000F0F1FA002161
:10074000802000F0EDFA0AE0AE48844207D1012192
:10075000801500F0E5FA0021A01500F0E1FA10BDC7
:1007600010B50121084600F0DBFA0021012000F05D
:10077000D7FA10BD2DE9F0410246002500260020E1
:1007800000230024002791F803C00CF00F0591F816
:1007900003C00CF0100CBCF1000F03D091F802C0A4
:1007A0004CEA050591F800C0BCF1000F31D0146887
:1007B00000202BE04FF0010C0CFA00F3B1F800C060
:1007C0000CEA03069E4220D183004FF00F0C0CFA76
:1007D00003F7BC4305FA03FC4CEA040491F803C098
:1007E000BCF1280F06D14FF0010C0CFA00FCC2F846
:1007F00014C00AE091F803C0BCF1480F05D14FF0D6
:10080000010C0CFA00FCC2F810C0401C0828D1D31F
:100810001460B1F800C0BCF1FF0F34DD5468002053
:100820002EE000F1080C4FF0010808FA0CF3B1F8C3
:1008300000C00CEA03069E4221D183004FF00F0C4A
:100840000CFA03F7BC4305FA03FC4CEA040491F8E4
:1008500003C0BCF1280F05D100F1080C08FA0CF810
:10086000C2F8148091F803C0BCF1480F07D100F121
:10087000080C4FF0010808FA0CF8C2F81080401C70
:100880000828CED35460BDE8F0814FF6FF71018097
:10089000022181700421C1707047024600209368D4
:1008A0000B400BB1012000E0002070470146886832
:1008B00080B2704702460020D3680B400BB1012084
:1008C00000E0002070470146C86880B270470161AF
:1008D0007047416170470AB1016100E041617047B2
:1008E000C16070474FF480320A4382618161826146
:1008F00082698269704702460020434B18684FF6B0
:100900008073184040EA021008433F4B186070475C
:100910003E49C8617047F0B50A4600230024002113
:10092000002500F00046B6F1004F02D1364EF169C5
:1009300001E0354E7168C0F3034583B200F4401600
:10094000B6F5401F08D121F070612F4E766826F071
:1009500070662D4F7E6012E000F48016B6F5801FA1
:1009600006D1032606FA05F4A14341F0706106E0C2
:10097000460D360103FA06F6B14341F0706122B12B
:10098000460D360103FA06F6314300F00046B6F193
:10099000004F02D11C4EF16101E01B4E7160F0BDB1
:1009A00030B500228B071C0F0F2303FA04F2164BFD
:1009B00008338C1053F824309343134C08348D10B3
:1009C00044F8253023468C1053F824308C07240F2C
:1009D00000FA04F423430C4C08348D1044F82530FD
:1009E00030BD0A49DC310860704700000008014052
:1009F000000C0140001001400014014000180140AB
:100A0000001C014000200140000001400000204285
:100A1000DF48006840F00100DD4908600846406892
:100A2000DC490840DA49486008460068DA4908406D
:100A3000D74908600846006820F48020086008460E
:100A4000406820F4FE0048604FF41F008860704743
:100A5000CF49096821F48031CD4A116011460968F7
:100A600021F480211160B0F5803F03D0B0F5802FD4
:100A70000ED106E0C649096841F48031C44A1160CC
:100A800007E0C349096841F4A021C14A116000E0B0
:100A900000BF00BF704710B50146002200230020B0
:100AA0004A11012A02D1BA4C236806E0022A02D177
:100AB000B74C236A01E0B64C636A01F01F020124BF
:100AC00094401C400CB1012000E0002010BD38B55E
:100AD000002000900024002500BF3120FFF7DBFF3D
:100AE00005460098401C00900098B0F5A06F01D01A
:100AF000002DF2D03120FFF7CEFF08B1012400E035
:100B00000024204638BD01460020A14A106820F08C
:100B1000F80040EAC10010607047A04908607047C3
:100B2000024600209A4B586820F47C1042EA0103E8
:100B30001843974B586070479849086670470146BC
:100B40000020934A506820F003000843506070472B
:100B50008F48406800F00C007047014600208C4A26
:100B6000506820F0F00008435060704701460020B4
:100B7000874A506820F4E06008435060704701469F
:100B80000020834A506820F4605040EAC100506061
:100B9000704729B17E4A527A02437D4B5A7204E073
:100BA0007B4A527A82437A4B5A7270477B49D831DA
:100BB0000860704701460020754A506820F44040A4
:100BC0000843506070470021714A20321170704A0A
:100BD00082F82010012802D004280AD104E0012163
:100BE0006B4A2032117005E00521694A20321170EC
:100BF00000E000BF00BF7047694908607047644962
:100C0000096A0143624A11627047654944390860C4
:100C1000704730B500210022002400235C4D6D6830
:100C200005F00C0121B1042905D0082923D105E0E4
:100C30005C4D056022E05B4D05601FE0544D6D6822
:100C400005F47012524D6D6805F48034022505EBF1
:100C500092421CB9544D554305600BE04C4D6D68F4
:100C600005F400351DB1504D5543056002E04D4D72
:100C70005543056002E04B4D056000BF00BF444D89
:100C80006D6805F0F0010909484D6B5C0568DD40B1
:100C900045603F4D6D6805F4E061090A434D6B5CAA
:100CA0004568DD4085603A4D6D6805F46051C90ABC
:100CB0003E4D6B5C4568DD40C560354D6D6805F4A3
:100CC0004041890B3A4D6B5CC568B5FBF3F5056196
:100CD00030BD29B12E4A526902432D4B5A6104E0BE
:100CE0002B4A526982432A4B5A61704729B1284ADC
:100CF00092690243264B9A6104E0254A9269824335
:100D0000234B9A61704729B1214AD2690243204B93
:100D1000DA6104E01E4AD26982431D4BDA617047F2
:100D200029B11B4AD2680243194BDA6004E0184A21
:100D3000D2688243164BDA60704729B1144A1269AF
:100D40000243134B1A6104E0114A12698243104BAB
:100D50001A61704712494039086070470F49C864EA
:100D600070470B49C87170470948406A40F080706D
:100D700007494862704701460020054A92680A40C8
:100D80000AB1012000E000207047014988727047D5
:100D9000001002400000FFF8FFFFF6FE0000424294
:100DA0008004424200127A0000093D001400002035
:100DB0002400002010B50446FB48844209D10121DB
:100DC0008803FFF7ADFF00214FF48040FFF7A8FF35
:100DD00032E0F648844209D101214804FFF7ADFF13
:100DE00000214FF40030FFF7A8FF25E0F0488442CF
:100DF00009D101218804FFF7A0FF00214FF48020D2
:100E0000FFF79BFF18E0EB48844209D10121C80499
:100E1000FFF793FF00214FF40020FFF78EFF0BE058
:100E2000E548844208D101210805FFF786FF00212B
:100E30004FF48010FFF781FF10BD2DE9F04786B019
:100E400005460E460024A24600BFA1460027B089F1
:100E500000B100BF2F462C8A4CF6FF700440F0888A
:100E600004432C82AC894EF6F3100440B0883189DB
:100E70000843718908430443AC81AC8A4FF6FF40B4
:100E80000440B0890443AC8201A8FFF7C2FEC64803
:100E9000874202D1DDF810A001E0DDF80CA0A8899E
:100EA00000F4004040B10AEBCA0000EB0A103168C0
:100EB0004900B0FBF1F807E00AEBCA0000EB0A10AA
:100EC00031688900B0FBF1F86420B8FBF0F0040150
:100ED0002009642101FB1089A88900F4004040B179
:100EE000322000EBC900B0FBF1F000F00700044332
:100EF00008E0322000EB09106421B0FBF1F000F0B3
:100F00000F0004432C8106B0BDE8F0874FF4165162
:100F1000016000218180C18001810C21418100217B
:100F20008181704710B502460020108A4FF2FF03FE
:100F300018400B884C8823438C882343CC88234358
:100F40001843108210BD0021018041808180C18042
:100F5000704721B1828942F40052828104E0828983
:100F60004DF6FF731A4082817047F0B503460024A6
:100F700000260025002040F66A17B94200D100BFC4
:100F80001846C1F3421401F01F06012707FA06F5BF
:100F9000012C01D10C3004E0022C01D1103000E012
:100FA00014301AB107682F43076002E00768AF43A7
:100FB0000760F0BD1AB1838A0B43838202E0838A03
:100FC0008B4383827047028A4FF6F0731A40028285
:100FD000028A0A430282704782894FF2FF731A40E5
:100FE000828182890A438281704721B1828942F0DD
:100FF0000202828104E082894FF6FD731A408281E9
:101000007047028A4FF6DF731A400282028A0A434F
:101010000282704721B1028A42F48042028204E0D7
:10102000028A4BF6FF731A4002827047C1F308022E
:101030008280704701468888C0F308007047818924
:1010400041F0010181817047028BD2B20283028B91
:1010500042EA012202837047028B02F47F4202833C
:10106000028B0A430283704721B1828A42F0200238
:10107000828204E0828A4FF6DF731A4082827047D0
:1010800021B1828A42F01002828204E0828A4FF605
:10109000EF731A408282704721B1828A42F00802BF
:1010A000828204E0828A4FF6F7731A408282704788
:1010B00021B1828942F40042828103E08289C2F335
:1010C0000E028281704721B1828A42F400628282DC
:1010D00004E0828A4FF2FF731A4082827047828A4C
:1010E0004FF6FB731A408282828A0A4382827047DB
:1010F00021B1828A42F00202828204E0828A4FF6A3
:10110000FD731A408282704702460020B1F5007FCD
:1011100000D100BF13880B400BB1012000E000207C
:10112000704701F40072B2F5007F00D100BFCA43DE
:101130000280704770B5024600240023002500207D
:1011400040F66A16B14200D100BFC1F3421501F06A
:101150001F03012606FA03F3012D02D196893340BD
:1011600006E0022D02D1168A334001E0968A334010
:101170000C12012606FA04F41688344013B10CB19F
:10118000012000E0002070BD10B50022002340F6D1
:101190006A14A14200D100BF0A1201249440A3B2F4
:1011A000DC43048010BD00000038014000440040D2
:1011B00000480040004C00400050004008B50121AC
:1011C0001020FFF793FDFF20ADF8000010208DF8F0
:1011D000030003208DF8020069460448FFF7CAFAAD
:1011E000FF210248FFF773FB08BD0000001001401B
:1011F000014600BF704770B504460D46E1B239485C
:10120000FFF714FF00BF80213648FFF77DFF00285D
:10121000F9D0204670BD10B586B00446012144F2D5
:101220000400FFF763FD4FF40070ADF814000320D5
:101230008DF8160018208DF8170005A92A48FFF729
:1012400099FA4FF48060ADF8140004208DF817006F
:1012500005A92548FFF78EFA25208DF80000032008
:101260008DF801008DF8020001208DF8030068461A
:10127000FFF7B7F901940020ADF80800ADF80A00B7
:10128000ADF80C00ADF810000C20ADF80E0001A96F
:101290001448FFF7D2FD012240F225511148FFF713
:1012A00064FE01210F48FFF754FE06B010BD10B5D3
:1012B00040F225510B48FFF73DFF70B10948FFF799
:1012C000B9FEC4B221460748FFF7B0FE00BF402177
:1012D0000448FFF719FF0128F9D140210148FFF721
:1012E00020FF10BD0038014000080140704700B5E4
:1012F00085B06846FFF78DFC019805B000BD10B5BC
:101300000B48006840F080700949086000200949D6
:1013100048600846006840F001000860FFF7E7FFFA
:101320000446204601F0A3FF10BD02484068704704
:10133000FCED00E0001000E00146412903DB5A29E2
:1013400001DC012200E00022012A08D0612903DB30
:101350007A2901DC012200E00022012A01D10122C8
:1013600000E00022104670470146412903DB5A295C
:1013700001DC012200E00022012A08D0612903DB00
:101380007A2901DC012200E00022012A01D1012298
:1013900000E00022012A08D0302903DB392901DCD2
:1013A000012200E00022012A01D1012200E00022F6
:1013B000104670470146612903DB7A2901DC0122CE
:1013C00000E00022104670470146412903DB5A29FC
:1013D00001DC012200E0002210467047014630295E
:1013E00003DB392901DC012200E0002210467047AE
:1013F0000146302903DB372901DC012200E000220D
:10140000104670470146302901DB392907DD4129A3
:1014100001DB462903DD612903DB662901DC0122AA
:1014200000E00022104670470146202901D009291A
:1014300001D1012200E00022104670470146202918
:1014400009D00D2907D00A2905D00C2903D0092974
:1014500001D00B2901D1012200E000221046704783
:101460000146202903DB7E2901DC012200E0002265
:10147000104670470146212903DB7E2901DC012249
:1014800000E00022104670470146202903DB7E2938
:1014900001DC012200E00022012A35D1202909D0F7
:1014A0000D2907D00A2905D00C2903D0092901D01C
:1014B0000B2901D1012200E000222ABB412903DBD4
:1014C0005A2901DC012200E00022012A08D061290A
:1014D00003DB7A2901DC012200E00022012A01D18C
:1014E000012200E00022012A08D0302903DB39293B
:1014F00001DC012200E00022012A01D1012200E0EA
:1015000000220AB9012200E000221046704701467D
:101510004AB2002A01DB1F2901DD7F2901D1012206
:1015200000E00022104670470146412903DB5A299A
:1015300001DC012200E00022012A02D101F1200297
:1015400000E00A46D0B270470146612903DB7A29E0
:1015500001DC012200E00022012A02D1A1F12002D7
:1015600000E00A46D0B27047F0B504460B4620466C
:10157000FFF7EAFF05461846FFF7E6FF0646B542C5
:1015800001D1012000E0002007463846F0BD0000F0
:10159000F748F84901600146416000218160C1605F
:1015A000016141618161C16101620163C1624162A6
:1015B000F1498163C1634FF4D8410164416401463C
:1015C000EE4A116070472DE9F04103460C4617467C
:1015D0000FB9BDE8F08103B9FBE70025002202E066
:1015E0002D022543521C042AFAD3384603F0030C7B
:1015F0001946BCF1000F08D0624603E001F8014B28
:10160000401E521C08B1042AF8D30E4601E020C641
:10161000001F0428FBD2314602E001F8014B401EB6
:101620000028FAD100BFD4E730B505460C46224663
:1016300000212846FFF7C7FF30BD2DE9F04F85B0E8
:10164000074688469146B9F1000F02D105B0BDE8C2
:10165000F08F07B9FAE7B8F1000F00D1F6E7464678
:101660003D46AE4205D94A464146384601F0EAFBBE
:10167000ECE74C463819451E08EB0400461EA81B33
:1016800004900498042834D305F00300029006F077
:1016900003010191DDE90110884201D1012000E040
:1016A000002000900098012823D10298032810D030
:1016B000029840B2039008E016F8010905F8010904
:1016C000641E0398401E40B2039014B10398002892
:1016D000F2DAA5F1030AA6F1030B04E05BF80409B2
:1016E0004AF80409241F042CF8D20AF103050BF16F
:1016F000030604E016F8010905F80109641E002C30
:10170000F8D100BFA2E72DE9F84F8046894615467B
:1017100015B90120BDE8F88FB8F1000F01D1002004
:10172000F8E7B9F1000F01D10020F3E701242946C1
:1017300008EB050209EB050302F0030C03F0030BB1
:10174000DC4501D1012000E0002000900098012834
:1017500029D1BCF1000F12D0E2460AE0521E5B1EF6
:10176000107893F800E0704500D00024491EAAF1DB
:10177000010A012C03D111B1BAF1000FEED1012CF5
:1017800011D116461F4608E0361F3F1F3068D7F8B4
:1017900000E0704500D00024091F012C01D104296C
:1017A000F2D232463B4608E0521E5B1E107893F898
:1017B00000E0704500D00024491E012C01D1002911
:1017C000F2D12046A6E7F0B503460D461646DA6B81
:1017D000B2FBF6F006FB102CBCF1000F02D0A6EB1A
:1017E0000C0400E000246119586C884201D20020EA
:1017F000F0BDA14201D3A94201D20020F8E7571859
:10180000974201D20020F3E72244DF63586C401A6C
:1018100058641046ECE72DE9F04F81468C461C4693
:10182000B9FBF4F004FB109BBBF1000F02D0A4EB5A
:101830000B0600E00026B2FBF4F004FB102BBBF11A
:10184000000F02D0A4EB0B0300E00023D018ACF192
:10185000010E00FB0E60871806EB0208B04501D3AD
:10186000904502D20020BDE8F08FBCF1010F22D9D3
:10187000D5189D4201D3954201D20020F3E7ACF187
:10188000010000FB05F1A94203D3994201D3914223
:1018900001D20020E7E701EB020A8A4501D3924515
:1018A00001D20020DFE7474503D38F4201D35745DC
:1018B00001D20020D7E73846D5E72DE9FE4F07468D
:1018C000884615461C46002000901CB900BF01F058
:1018D0005BFC00BF0DB901AD00BF002028602FB92F
:1018E00042F2747020800020BDE8FE8FB8F1000F36
:1018F00004D142F2757020800020F5E7DFF8709087
:1019000000BF00BF01F0D0FD009000BF01F0C9FB97
:1019100000BFD9F83C000290D9F844B043463A469B
:1019200001210298FFF777FF064676B900BF01F064
:1019300099FB00BF009801F0BBFD00BF00BF2F6006
:1019400042F2E37020800020CEE75E4518D900BF48
:1019500001F088FB00BF009801F0AAFD00BF00BFA6
:10196000A6EB0B00286042F2E27020800020BBE76B
:10197000B00C002048454150F80C00202800002001
:10198000424639464846FFF71EFF8246BAF1000F2D
:101990000ED100BF01F066FB00BF009801F088FD8A
:1019A00000BF00BF2E6042F2E270208000209BE763
:1019B00000BF01F057FB00BF009801F079FD00BFA8
:1019C00000BF42F21070208050468DE72DE9FC5F89
:1019D00006460D461446002000901CB900BF01F0D9
:1019E000D3FB00BF2DB942F2757020800020BDE806
:1019F000FC9FB5F5805F04D942F27570208000200D
:101A0000F5E726B942F2117020800020EFE700BF11
:101A100000BF01F049FD009000BF01F042FB00BF94
:101A2000FC493068084440B1FB49084418B1FB49FF
:101A3000084408B900BF0EE000BF00BF01F012FB70
:101A400000BF009801F034FD00BF00BF42F2887073
:101A500020800020CBE700BFD6F80490D9F83800EA
:101A600008B1484600E0EE488246DAF84470DAF8F9
:101A70003CB000BF01F0F6FA00BF009801F018FD7D
:101A800000BF00BF012D0DD9BBFBF5F005FB10B861
:101A9000B8F1000F02D0A5EB080000E00020019093
:101AA00001983F1A42F21070208038469FE770B5C7
:101AB00004460D462A462146D948FFF787FF0646C9
:101AC000304670BD70B504460D461DB900BF01F02B
:101AD0005BFB00BF1CB942F21170288070BDCD487D
:101AE0004042206000206060A060E0602061606192
:101AF000A061E0612062A06260632063E0626062D6
:101B0000A063E0632064606442F21070288000BF2C
:101B1000E4E72DE9FF4F91B00446DDE92095002070
:101B200000901DB900BF01F02FFB00BFB9F1000FFD
:101B300002D10DF1100900BF0020C9F800002946AC
:101B40002046FFF7BFFF288842F21071884202D07A
:101B500015B0BDE8F08F129828B1139818B942F269
:101B60007E702880F4E7149818B942F292702880A9
:101B7000EEE71E9818B942F293702880E8E71F98A4
:101B800018B942F294702880E2E7A648006818B9B4
:101B900042F2E7702880DBE7A14810904FF0000A7E
:101BA00000BF00BF01F080FC009000BF01F079FA97
:101BB00000BF1298002863D1109E109E0E96109EB2
:101BC0003746109EF06B0B9004231A4614990B981D
:101BD000FFF721FE0390039860B900BF01F042FABD
:101BE00000BF009801F064FC00BF00BF42F2E37048
:101BF0002880ADE703990B9808440A90DDE91E237D
:101C000014990A98FFF707FE8346BBF1000F0CD129
:101C100000BF01F027FA00BF009801F049FC00BFA7
:101C200000BF42F2E370288092E7039800EB0B0AB2
:101C30000398824501D3DA450CD200BF01F012FAB5
:101C400000BF009801F034FC00BF00BF42F2E37017
:101C500028807DE71098D0F84480C2457ED900BF27
:101C600001F000FA00BF009801F022FC00BF00BFA5
:101C7000AAEB0800C9F8000042F2E270288067E78A
:101C800012980990DDE912010844401E0890DDE930
:101C9000081081420CD200BF01F0E4F900BF0098A7
:101CA00001F006FC00BF00BF42F2977028804FE7AA
:101CB000002600200E905B4807683CE0B96B129844
:101CC000814205D1396C1398814201D13E4634E0FE
:101CD000B86B0790396CB86B0844401E0690DDE97C
:101CE0000701814200D228E007990998884203D869
:101CF000DDE9071088420FD207990998884203D37B
:101D000006990898884207D906990998884210D8F8
:101D10000699089888420CD300BF01F0A3F900BFD0
:101D2000009801F0C5FB00BF00BF42F27F70288021
:101D30000EE70E97FF68002FC0D100BF46B92646B8
:101D40001298A0631298E06313982064139860645B
:101D50001098C06B0B9004231A4600E064E01499BD
:101D60000B98FFF758FD0390039860B900BF01F08E
:101D700079F900BF009801F09BFB00BF00BF42F261
:101D8000E3702880E4E61098D0F84480039840453A
:101D900011D900BF01F066F900BF009801F088FB7F
:101DA00000BF00BF0398A0EB0800C9F8000042F292
:101DB000E2702880CCE6F06B0A90DDE91E231499CE
:101DC0000A98FFF728FD8346BBF1000F0CD100BF36
:101DD00001F048F900BF009801F06AFB00BF00BFA6
:101DE00042F2D9702880B3E6D6F84480C3451BD9A7
:101DF00000BF01F037F900BF009801F059FB00BFA8
:101E000000BFABEB0800C9F8000042F2D870288090
:101E10009EE60000B2B0B1BAFEFFFEF8080A0EFC62
:101E2000B00C0020280000201498800002900422AA
:101E300002991098FFF7C7FC0D900D9838BB1098C9
:101E4000D0F8448000BF01F00DF900BF009801F008
:101E50002FFB00BF00BF129848B9C24504D9AAEBB6
:101E60000800C9F800000EE0C9F800A00BE00298D5
:101E7000404505D90298A0EB0800C9F8000002E02F
:101E80000298C9F8000042F2E270288060E6002063
:101E9000019034E03046DDE91E12FFF794FC0C900F
:101EA0000C9820BBF06B0A90D6F8448000BF01F07C
:101EB000D9F800BF009801F0FBFA00BF00BF0199FC
:101EC0001498401A0590DDE91E2305990A98FFF73A
:101ED000A2FC8246C24504D9AAEB0800C9F800005A
:101EE00001E0C9F800A042F2D870288030E6019ADB
:101EF000DDE90C0141F822000198401C0190149981
:101F000001988842C6D3A6420CD10E98A060E76023
:101F10000E9810B10E98C46001E0FB4804605FB1F8
:101F2000BC6009E070690F9026610F986061746170
:101F30000F9808B10F980461F448206066600A9811
:101F4000A0610A985844401EE0610D982062C4F8D0
:101F500028B01F9860631E9820631498E06214985C
:101F6000606200BF01F07EF800BF009801F0A0FAA7
:101F700000BF00BF42F21070288000BFE8E52DE9E5
:101F8000F04105460C4600271CB900BF01F0FCF8E3
:101F900000BF2DB942F2117020800020BDE8F08111
:101FA00000BF00BF01F080FA074600BF01F079F8DA
:101FB00000BFD7492868084440B1D649084418B141
:101FC000D549084408B902E00FE000BF00BF00BFD8
:101FD00001F048F800BF384601F06AFA00BF00BFC0
:101FE00042F2887020800020D8E700BF6E6A00BFF0
:101FF00001F038F800BF384601F05AFA00BF00BFC0
:1020000042F2107020803046C8E72DE9F0410446C6
:102010000E4615464FF000081DB900BF01F0B4F898
:1020200000BF2CB942F2117028800020BDE8F08179
:1020300026B942F2937028800020F7E700BF00BF66
:1020400001F032FA804600BF01F02BF800BFAF4923
:10205000206888420DD000BF01F004F800BF404660
:1020600001F026FA00BF00BF42F2887028800020ED
:10207000DCE7206BB0420DD200BF00F0F3FF00BFE1
:10208000404601F015FA00BF00BF42F2937028806D
:102090000020CBE7606A68B900BF00F0E3FF00BF33
:1020A000404601F005FA00BF00BF42F2DE70288012
:1020B0000020BBE7E16A606A88420DD900BF00F0EA
:1020C000D1FF00BF404601F0F3F900BF00BF42F26C
:1020D000957028800020A9E7606A401E6062D4E9FC
:1020E000080150F8217000BF00F0BCFF00BF40465F
:1020F00001F0DEF900BF00BF42F2107028803846C0
:1021000094E72DE9F04704460F4615464FF00009C5
:102110001DB900BF01F038F800BF2CB942F21170B0
:1021200028800020BDE8F08700BF00BF01F0BCF9A7
:10213000814600BF00F0B5FF00BF744920688842A7
:102140000DD000BF00F08EFF00BF484601F0B0F98F
:1021500000BF00BF42F2887028800020E2E7E16AF9
:10216000606A88420DD300BF00F07CFF00BF484684
:1021700001F09EF900BF00BF42F295702880002058
:10218000D0E7E06AC01B461EE06AB0420DD800BF2F
:1021900000F068FF00BF484601F08AF900BF00BFA9
:1021A00042F2957028800020BCE7606AB0420DD9E9
:1021B00000BF00F057FF00BF484601F079F900BFAB
:1021C00000BF42F2957028800020ABE7206A50F8EB
:1021D000268000BF00F046FF00BF484601F068F9C6
:1021E00000BF00BF42F21070288040469AE72DE9F8
:1021F000F04F02460C469569D2F81CB0AC4201D3B0
:102200005C4502D90020BDE8F08F536BB5FBF3F0BD
:1022100003FB105111B1A3EB010C01E04FF0000CD6
:10222000176BB7FBF3F003FB107109B15E1A00E006
:10223000002605EB0C08A4EB080A07EB0609BAFB1D
:10224000F9F009FB10A008B9012000E00020864643
:102250007046D8E72DE9F04704460F4615464FF083
:10226000000A1DB900BF00F08FFF00BF24B942F281
:1022700011702880BDE8F0871FB942F211702880E4
:10228000F8E700BF00BF01F00FF9824600BF00F081
:1022900008FF00BF1D49206888420CD000BF00F035
:1022A000E1FE00BF504601F003F900BF00BF42F25B
:1022B00088702880DEE739462046FFF798FF804681
:1022C000B8F1010F0CD000BF00F0CCFE00BF5046AB
:1022D00001F0EEF800BF00BF42F297702880C9E716
:1022E00000261CE0206A50F82600B84216D100BF34
:1022F00000F0B8FE00BF504601F0DAF800BF00BFA2
:1023000042F298702880B5E728000020504F4F4CCB
:10231000B2B0B1BAFEFFFEF8080A0EFC761C606A85
:10232000B042DFD8E16A606A88420CD300BF00F097
:1023300099FE00BF504601F0BBF800BF00BF42F25B
:10234000DD70288096E74FF00008666A08E0206A92
:1023500050F82690B94502D14FF0010803E0761CF1
:10236000E06AB042F3D800BFB8F1010F07D1D4E959
:10237000080150F82100216A41F826000CE000BF56
:1023800000F070FE00BF504601F092F800BF00BFA1
:1023900042F2887028806DE7D4E9080140F8217086
:1023A000606A401C606200BF00F05CFE00BF5046E7
:1023B00001F07EF800BF00BF42F21070288000BF1D
:1023C00058E72DE9F84F04460F46154600200090C7
:1023D0004FF0FF3B1DB900BF00F0D6FE00BF2CB987
:1023E00042F2117028805846BDE8F88F27B942F2B2
:1023F000117028805846F7E700BF00BF01F054F87D
:10240000009000BF00F04DFE00BF434920688842A5
:102410000DD000BF00F026FE00BF009801F048F884
:1024200000BF00BF42F2887028805846DCE739467A
:102430002046FFF7DCFE8046B8F1010F0DD000BF4B
:1024400000F010FE00BF009801F032F800BF00BF9E
:1024500042F2977028805846C6E7002613E0206AAB
:1024600050F82600B8420DD100BF00F0FBFD00BFC0
:10247000009801F01DF800BF00BF42F2987028805C
:102480005846B1E7761C606AB042E8D8E16A606AF3
:1024900088420DD300BF00F0E5FD00BF009801F0B9
:1024A00007F800BF00BF42F2DD70288058469BE766
:1024B0004FF00008666A08E0206A50F82690B94597
:1024C00002D14FF0010803E0761CE06AB042F3D875
:1024D00000BFB8F1010F11D1E06A401EA0EB060A5F
:1024E00000BF00F0BFFD00BF009800F0E1FF00BF9B
:1024F00000BF42F210702880504675E700BF00F020
:10250000B1FD00BF009800F0D3FF00BF00BF42F252
:1025100088702880584667E7504F4F4C10B50246E8
:102520000B461146002001E0491C401C19B10C78F3
:102530000CB19842F8D310BD30B504464FF0FF31CE
:102540002046FFF7EBFF0546284630BD70B5044630
:102550000D4616460CB9002070BD0DB90020FBE7F2
:1025600021462A46002304E010780870491C521CBA
:102570005B1C21B11AB1107808B1B342F4D301B198
:102580000AB90020E8E7B34201D2002008702046D3
:10259000E2E770B504460D464FF0FF32294620466B
:1025A000FFF7D4FF0646304670BD70B503460C46B3
:1025B00015460BB9002070BD0CB90020FBE70DB922
:1025C0001846F8E7194600E0491C11B108780028C0
:1025D000FAD109B90020EEE72246002604E010787F
:1025E0000870491C521C761C21B11AB1107808B130
:1025F000AE42F4D301B10AB90020DCE70020087034
:102600001846D8E770B504460D464FF0FF3229460C
:102610002046FFF7CAFF0646304670BD2DE9F0435D
:1026200005460B469446BCF1000F02D10020BDE8E0
:10263000F08335B90BB90020F9E71878424210460B
:10264000F5E713B92A781046F1E729461C460F46EC
:1026500026467F1C761C4FF0000805E0491C641CD0
:102660007F1C761C08F10108087894F80090484512
:1026700005D1087818B117B10EB1E045EED3E045A9
:1026800001D10020D3E7087894F80090484505D0A0
:10269000087894F80090A0EB09020BE0087808B9DC
:1026A000002207E02FB90EB9002203E03078424241
:1026B00000E03A781046BAE770B504460D464FF090
:1026C000FF3229462046FFF7A9FF0646304670BD77
:1026D0002DE9F74F82B080460E46049818B90020C5
:1026E00005B0BDE8F08FB8F1000F09D10EB9002098
:1026F000F6E73078FEF718FF07467C422046EFE702
:102700003EB998F80000FEF70FFF05462C4620461C
:10271000E6E7C146B246C846C3465646CDF804A0D1
:10272000D8460BF1010B019E701C0190C84699F828
:102730000000FEF7F9FE054656469AF80000FEF73F
:10274000F3FE07460020009015E009F101090AF1A7
:10275000010A0BF1010B0198401C01900098401CEC
:10276000009099F80000FEF7DFFE05469AF8000099
:10277000FEF7DAFE0746BD420BD199F8000040B1E2
:10278000BBF1000F05D0019818B104990098884258
:10279000DBD304990098884201D10020A0E7BD4214
:1027A00001D0EC1B16E00DB9002413E0BBF1000FC3
:1027B0000AD1019808B900240CE001990878FEF7C5
:1027C000B3FE07467C4205E09BF80000FEF7ACFE36
:1027D00005462C46204683E770B504460D464FF06B
:1027E000FF3229462046FFF773FF0646304670BD8C
:1027F00030B504460B4615460CB9002030BD0BB968
:102800000020FBE72146002201E0491C521C31B1A7
:10281000087820B10878A84201D09A42F5D309B9C6
:102820000020EBE79A4201D30020E7E70878A842AE
:1028300001D00020E2E70846E0E770B505460C4607
:1028400022464FF0FF312846FFF7D2FF06463046BA
:1028500070BD2DE9F04305460E46174615B9002018
:10286000BDE8F0830EB90020FAE72C46A6F1010975
:1028700049462046FFF752FE804644440CB90020EA
:10288000EEE700E0641EAC4202D02078B842F9D1F5
:102890002078B84201D00020E2E72046E0E770B59A
:1028A00005460C4622464FF0FF312846FFF7D1FF80
:1028B0000646304670BD70B504460D4616460CB946
:1028C000002070BD0BB90020FBE721461A4605E049
:1028D0000878A84200D10E70491C521E19B1087820
:1028E00008B1002AF4D12046EBE7F0B504460D46C6
:1028F00016464FF0FF33324629462046FFF7DBFFEE
:1029000007463846F0BD2DE9FF4F06460F461546EF
:102910001EB9002004B0BDE8F08F0FB90020F9E720
:102920000DB90020F6E7681C00B101E04FF0FF3060
:10293000039029463046FFF7F1FD8046384603995B
:10294000FFF7ECFD04460CB93046E3E7444501D9F6
:102950000020DFE706EB080BBBF1000F01D10020E0
:10296000D8E707EB040BBBF1000F01D10020D1E742
:10297000A8EB040002904FF000090020019000BF76
:1029800006EB09000090224639460098FFF746FE04
:102990008246BAF1000F01D1012000E00020019031
:1029A00009F10109019810B902988145E8D9BAF1F5
:1029B000000F01D00020ADE70098ABE770B50446EA
:1029C0000D464FF0FF3229462046FFF79CFF064692
:1029D000304670BD2DE9FF4F8DB00F4615461A9E4B
:1029E0001D9818B9002011B0BDE8F08F00200390A9
:1029F000012F01DA01200390022D01D3242D01D9EA
:102A00000120039096B33046FEF72AFD029002980B
:102A1000012802D00120039028E0302E26D0A6F114
:102A20003000C0B207901B98012804D0A6F14100E5
:102A3000C0B2069003E0A6F16100C0B206900A2D74
:102A400002D80798A84209DB0A2D09D907980A2855
:102A500004D3A5F10A000699884201D9012000E0BB
:102A6000002005900598012800D103901D9C039833
:102A7000002846D1DDF834A0DDF834A0CDF830A030
:102A800001200B9007E00B98401CC0B20B900C98F3
:102A9000B0FBF5F00C900C98A842F4D210980128E5
:102AA00000D100E0002009900B9909980844B84231
:102AB00025DC002001900B98B84201DA0B9800E069
:102AC00038460A903EB1B8460A98391A0998081A49
:102AD000C0B2089006E0DDE90910084400F0FF08E4
:102AE000002008900898002806DD302E01D1012032
:102AF00000E00020049004E00020049001E00120A8
:102B00000390039800B1B84644441C9808B10020D3
:102B10002070641E4FF0000941E00398A8BBBAF191
:102B2000000F02D1B9F1000F1CD1BAFBF5F005FB83
:102B300010A000F0FF0BBBF10A0F04D20BF1300024
:102B400004F801090BE01B98012804D00BF13700B1
:102B500004F8010903E00BF1570004F80109BAFB7E
:102B6000F5FA1AE01098012810D1049808B90198D4
:102B700028B1049850B1A8F10100484506D12D2094
:102B800004F801090120019007E003E02EB104F8E8
:102B9000016902E03F2004F8010909F10109C1457A
:102BA000BBD3039808B100201DE71D981BE72DE952
:102BB000FF5F05460E4617461C46DDE90F9ADDF815
:102BC000388000233A46314628468DE81007FFF743
:102BD00001FF8346584604B0BDE8F09F2DE9FF4F42
:102BE00085B0044689461F46DDE913AB002C02DAA6
:102BF0006542012601E02546002612983346CDE9BC
:102C000002ABCDE9007049462846079AFFF7E2FE7D
:102C10008046404609B0BDE8F08F2DE9FF4F8BB0EC
:102C2000064689461546B9F1000F02D10DF1240977
:102C300000BFC9F80060189810B907A8189000BF25
:102C40000021189801701EB900200FB0BDE8F08F68
:102C5000012D01D0242D01D90020F6E7344620783B
:102C6000FEF7ECFB039004E0641C2078FEF7E6FB23
:102C7000039003980128F7D020782B2802D02D2824
:102C80000BD103E0641C4FF0000B09E00E98012803
:102C900000D1641C4FF0010B02E04FF0000B00BFAD
:102CA00000BF0A9425B1082D1CD0102D36D11EE08E
:102CB0002078302814D1641C2078582802D0782835
:102CC0000BD100BF102567783846FEF79BFB824684
:102CD000BAF1010F00D1641C01E0082500BF00E03B
:102CE0000A251CE02078302800D1641C17E02078E9
:102CF000302812D1641C2078582802D078280AD1B4
:102D000000BF67783846FEF77DFB8246BAF1010FB7
:102D100000D1641C00E000BF00BF00E000BF00BFA6
:102D20004FF0000800200290019040E027783846DC
:102D3000FEF71AFB05900598012836D13846FEF7B4
:102D40004DFB06900698012804D1A7F13000C0B2CF
:102D500008900FE03846FEF72DFB049004980128F8
:102D600004D1A7F15700C0B2089003E0A7F13700E3
:102D7000C0B208900898A84214DA029880B9304886
:102D800050F82500404509D308FB05F80898804411
:102D90000898804504D20120029001E001200290B1
:102DA000641C04E00120019001E0012001900198E1
:102DB0000028BBD00298012801D14FF0FF380A98B3
:102DC000844202D0C9F8004001E0C9F800601898B8
:102DD00080F800B0404638E7F8B504460D46164680
:102DE000002003463246294600902046FFF715FF93
:102DF00007463846F8BD2DE9FC4105460E46174604
:102E000001A801233A46314600902846FFF705FF06
:102E100004469DF8040040B9B4F1004F02D36FF0AE
:102E2000004000E02046804607E0B4F1004F02D3A6
:102E30004FF0004000E0604280464046BDE8FC8123
:102E400084BB0008002800D17047002900D17047DA
:102E5000002A00D170472DE9F81F00F0030301F0AC
:102E60000304A34211D1C3F1040303F00303012BB4
:102E70001DD3012A00D2F2E011F8014B00F8014BFA
:102E8000A3F10103A2F10102F1E700F0010301F057
:102E90000104A34200D094E0012B44D311F8014B6C
:102EA00000F8014BA3F10103A2F10102F4E7B2F52E
:102EB000B47F26D3B1E8F81FA0E8F81FB1E8F81FE7
:102EC000A0E8F81FB1E8F81FA0E8F81FB1E8F81F64
:102ED000A0E8F81FB1E8F81FA0E8F81FB1E8F81F54
:102EE000A0E8F81FB1E8F81FA0E8F81FB1E8F81F44
:102EF000A0E8F81FB1E8F81FA0E8F81FA2F5B47227
:102F0000D5E7282A06D3B1E8F81FA0E8F81FA2F1F8
:102F10002802F6E7042A06D351F8043B40F8043BA4
:102F2000A2F10402F6E7202A42D331F8023B20F84E
:102F3000023B31F8023B20F8023B31F8023B20F81B
:102F4000023B31F8023B20F8023B31F8023B20F80B
:102F5000023B31F8023B20F8023B31F8023B20F8FB
:102F6000023B31F8023B20F8023B31F8023B20F8EB
:102F7000023B31F8023B20F8023B31F8023B20F8DB
:102F8000023B31F8023B20F8023B31F8023B20F8CB
:102F9000023B31F8023B20F8023B31F8023B20F8BB
:102FA000023B31F8023B20F8023BA2F12002BAE7D3
:102FB000022A06D331F8023B20F8023BA2F10202BA
:102FC000F6E7102A42D311F8013B00F8013B11F853
:102FD000013B00F8013B11F8013B00F8013B11F8FF
:102FE000013B00F8013B11F8013B00F8013B11F8EF
:102FF000013B00F8013B11F8013B00F8013B11F8DF
:10300000013B00F8013B11F8013B00F8013B11F8CE
:10301000013B00F8013B11F8013B00F8013B11F8BE
:10302000013B00F8013B11F8013B00F8013B11F8AE
:10303000013B00F8013B11F8013B00F8013B11F89E
:10304000013B00F8013BA2F11002BAE7012A06D3C6
:1030500011F8013B00F8013BA2F10102F6E7BDE8DF
:10306000F81F704710B5FB480088401EF9490880DA
:1030700008460088A0B9FEF758F9F74908600846E5
:103080000068F6490968441AF5480068A04201D270
:10309000F3480460F3480068A04201D2F14804609C
:1030A00010BD10B5F0480088401CEF490880E94881
:1030B000008818B9FEF739F9E8490860E548008842
:1030C000401CE449088010BD10B5002400BF00BFBB
:1030D00000F0EAF9044600BFFFF7E3FF00BF10214C
:1030E000E248FEF7A1FA00BFFFF7BCFF00BF204691
:1030F00000F0DEF900BF00BF10BD10B5FFF7E4FF20
:1031000010BD70B500260020D7490880D14908803D
:10311000D2490860D0490860D1490860D1490860A7
:10312000D3490860002400BF00F0BEF9064600BF86
:1031300000250BE00020CA490860FFF7B2FFFFF747
:1031400091FFC74800680444681C85B2002DF1D087
:10315000C74804600020C2490860C249086000BF37
:10316000304600F0A5F900BF70BD10B50020C14980
:103170000860FEF7C4F810BD10B5FFF7F6FFFFF7C3
:10318000C0FFFFF7BAFF10BD00BFFEE770B50546F0
:103190000C46002614B900BFFFF7F6FF15B90A2048
:1031A000208070BD00BF00BF00F07EF9064600BF62
:1031B000FFF777FF00BF1022AC492846FFF7C6F99A
:1031C00000BFFFF74FFF00BF304600F071F900BFAE
:1031D00000BF0020208000BFE3E72DE9F041054655
:1031E0000C46002714B900BFFFF7CEFF1DB90A2017
:1031F0002080BDE8F08110212846FFF78FF90646B0
:10320000102E19D200BF00BF00F04EF9074600BFD4
:10321000FFF747FF00BF102229469448FFF796F9B1
:1032200000BFFFF71FFF00BF384600F041F900BFA5
:1032300000BF0020208002E04FF47A70208000BFA1
:10324000D7E710B5FEF771F80446204610BD704769
:1032500000B5014611B900BFFFF796FF854A106817
:1032600008B1002201E04FF4FA620A8000BD8149F2
:1032700008607047014608467D4A1268904203D9AB
:103280007B4A1268801A00E00020704770B5002564
:1032900000BF00F009F9054600BF7148046800BF8F
:1032A000284600F005F900BF2046FFF7E3FF064679
:1032B000304670BD70B50025FFF7E8FF044600BF3B
:1032C00000F0F2F8054600BF00206549086000BF25
:1032D000284600F0EDF800BF204670BD70B500250F
:1032E00000BF00F0E1F8054600BF5E48046800BF7B
:1032F000284600F0DDF800BF2046FFF7BBFF06467A
:10330000304670BD70B50546284600F0D8F8044632
:10331000183C204670BD70B50546284600F0CFF831
:103320000446103C204670BD70B50546284600F0A6
:10333000C6F8044600BF204670BD30B502460B46B5
:103340000024D2F1FF359C4126D24FF6FF74D2F112
:10335000FF359C410FD26FF07F44D2F1FF359C4185
:1033600003D2190E444C605C44E0190C424C645C7E
:1033700004F108003EE0FF24D2F1FF359C4105D264
:10338000190A3D4C645C04F1100033E019463A4CD4
:10339000645C04F118002DE04FF6FF750024AD1AAF
:1033A0009C4115D26FF07F450024AD1A9C4107D295
:1033B000140E44EA0321304C645C04F1200019E04F
:1033C000140C44EA03412C4C645C04F1280011E025
:1033D0000024D2F1FF059C4107D2140A44EA03619C
:1033E000254C645C04F1300004E01146224C645C1E
:1033F00004F1380030BD70B504460CB9082070BD2A
:10340000204600F05FF805462846F8E770B5044608
:103410000CB9102070BD204600F054F8054628462F
:10342000F8E770B504460CB9202070BD204600F0C6
:1034300049F805462846F8E72DE9F04304460D46CD
:10344000002184EA01006940084317D14020BDE80B
:10345000F0830000320000203800002034000020FB
:10346000400000204400002030000020F8780020B8
:103470003C0000202C00002018BC0008E243E84378
:10348000521C40F1000102EA040601EA0507304639
:103490003946FFF752FF8046C8F13F094846D6E754
:1034A00072B6704762B67047EFF3108072B670471D
:1034B00080F31088704730BF704720BF7047B0FA64
:1034C00080F0704790FAA0F0B0FA80F0704790FA60
:1034D000A0F0704770470000002400BF1DE000BF4F
:1034E00000BFFFF7E1FF044600BFFFF7DAFD00BFB2
:1034F000FA480068401CF9490860F9480068401C17
:10350000F749086000BFFFF7ADFD00BF2046FFF799
:10351000CFFF00BF00BF08F07BF9E0E710B58AB02D
:1035200004460020ED4908600B2000210591CDE9FB
:10353000070406910846EB490968EB4A1268EB4B11
:103540001B68CDE90132CDE903101F200023AFF243
:103550007702E7A10090EB4805F013F90AB010BD1F
:1035600000210AE001EB4102E74B03EB820000225D
:103570000281026042604A1CD1B22029F2D3704716
:1035800070B5044608F04CF90020E0490870E049A5
:103590000870E0490870E0490860E0490860E049C7
:1035A0000870E0490870E0490870E0490860E049A7
:1035B0000860E0490860E0490870E04800680A21B6
:1035C000B0FBF1F0DE490860DE48006858B1DE4823
:1035D000056845B1DB48066803E0761E00202860D8
:1035E0002D1D002EF9D10020D8490860D849086067
:1035F000D8490860D8490860D8490860D8490860A7
:10360000D8490860D849087003F00EFAFFF7A8FF00
:10361000204601F054FF208800B170BD204602F022
:10362000BDFA208800B1F8E7204602F0C9FA2088E8
:1036300000B1F2E7204603F0DFF9208800B1ECE7A3
:10364000204603F01BFF208800B1E6E7204604F087
:10365000B3FB208800B1E0E7204606F0C9FE2088D1
:1036600000B1DAE7204602F0BEF8208800B1D4E7C6
:103670002046FFF753FF208800B1CEE7204607F031
:1036800020F8208800B1C8E7204604F0A1FE208879
:1036900000B1C2E7204608F016F8208800B1BCE768
:1036A00000F042FEFFF716FF00BFB6E7984800782B
:1036B000012800D0704795480078FA2800DBF9E728
:1036C00092480078401C9149087000BFF2E710B59D
:1036D00000248F480078012800D010BD00BFFFF7FC
:1036E000E3FE044600BF8948007828B900BF2046A1
:1036F000FFF7DEFE00BFF0E784480078401E8349F4
:10370000087008460078002805DD00BF2046FFF756
:10371000CFFE00BFE1E77F480078002805DD00BF4D
:103720002046FFF7C5FE00BFD7E703F087F97D49C4
:1037300008700846007800EB4000734951F82000FB
:10374000764908600846006873490968884205D1CF
:1037500000BF2046FFF7ACFE00BFBEE76F48006821
:10376000D0F89000401C6D490968C1F890007F486E
:103770000068401C7D4908604FF080507C4908601B
:1037800000BF2046FFF794FE00BF00BFA5E710B5BD
:1037900000245E480078002800DD10BD5D480078F8
:1037A000002800DDF9E700BFFFF77EFE044600BFFA
:1037B00003F044F95B4908700846007800EB4000CC
:1037C000514951F82000554908600846006852499F
:1037D0000968884205D100BF2046FFF769FE00BF97
:1037E000DBE74E480068D0F89000401C4B49096860
:1037F000C1F890005D480068401C5C4908604FF0CB
:1038000080505B49086000BF2046FFF751FE00BFB3
:1038100000BFC2E710B53F480078012803D1FDF78B
:1038200084FD4249086010BD70B504460025374844
:103830000078002803DD46F66250208070BD3448D1
:103840000078012803D045F689602080F6E73148EA
:103850000078FA2803DB45F209202080EEE700BF5C
:1038600000BFFFF721FE054600BFFFF71AFC00BFAF
:1038700028480078401C27490870FFF7CBFF00BF9D
:10388000FFF7F0FB00BF2846FFF712FE00BF00BFA6
:103890000020208000BFD1E710B51E48007880B915
:1038A000FDF743FD21490968441A21480068A042F8
:1038B00001D21F4804601F480068A04201D21D4881
:1038C000046010BD70B5044600251048007800283B
:1038D00050DD46F66550208070BD00006800002075
:1038E000D400002020BD00081CBD000818BD000841
:1038F00075432F4F532D4949492049646C65205425
:1039000061736B00988D0020348F00206C000020C4
:1039100074000020BC0000201401002018010020C9
:10392000A2000020A3000020A4000020B00000207E
:10393000B4000020B8000020C400002078BD0008BA
:10394000C000002048BD000844BD00084C00002015
:103950005000002054000020580000205C0000208F
:103960006000002064000020F2000020E800002039
:1039700004ED00E0FA480078012803D045F689609C
:10398000208070BDF748007818B946F66450208052
:10399000F7E700BF00BFFFF787FD054600BFFFF751
:1039A00080FB00BFEF480078401EEE4908700846D3
:1039B000007800280CDD00BFFFF754FB00BF28464D
:1039C000FFF776FD00BF00BF46F663502080D8E7C2
:1039D000FFF762FF00BFFFF745FB00BF2846FFF778
:1039E00067FD00BF00BFFFF7D2FE0020208000BFB0
:1039F000C7E72DE9F04105460C461646002700BFF3
:103A000000BFFFF751FD074600BFFFF74AFB00BFAD
:103A1000012D03D00020D449087002E00120D249D2
:103A2000087014B1D148046006E0D14800680A214A
:103A3000B0FBF1F0CD49086000BFFFF713FB00BFFA
:103A40003846FFF735FD00BF00BF00203080BDE8DD
:103A5000F08110B501460C8924B1012C03D0022C51
:103A60000CD101E000BF14E008684A68026100243C
:103A7000C4601461D0600A6048600AE008684A685F
:103A8000C36800241C61C4600261D0600B604860A0
:103A900000BF00BF10BD2DE9F04104460027B54826
:103AA0000078002804DD48F2D1402080BDE8F08194
:103AB000AC480078002803DD46F663502080F5E727
:103AC000A9480078012803D046F67B102080EDE756
:103AD00000BF00BFFFF7E8FC074600BFFFF7E1FAB1
:103AE00000BFA548007800EB4000A44901EB800628
:103AF000308902280CDA00BFFFF7B4FA00BF38465D
:103B0000FFF7D6FC00BF00BF46F67A102080CDE755
:103B10003046FFF79EFF3568686D18B99348006816
:103B2000A86501E0686DA86500BFFFF79BFA00BFBC
:103B30003846FFF7BDFC00BF00BFFFF728FE00209E
:103B4000208000BFB2E710B5044685480078E8B988
:103B500002F074FF8A4908700846007886490870A8
:103B60008748007800EB4000844951F820008549DF
:103B70000860084600688449086001207849087098
:103B800007F0BEFF43F69920208002E045F68A60E8
:103B9000208010BD01460020088047F25D6070471C
:103BA00030B548B14568C1F8C45000F10804226836
:103BB00093681D6AC56113E091F83450022D02D05C
:103BC000072D08D103E071A5C1F8C45007E071A525
:103BD000C1F8C45003E072A5C1F8C45000BF00BFD3
:103BE00030BDF0B58E6896F8375007893FB9012788
:103BF000078100274F600F600160416023E0078963
:103C00007F1C0781026806E0946894F83770AF4221
:103C100000DD02E05268002AF6D100BF32B9002769
:103C20004F6043680B60596041600CE017682FB922
:103C3000116000270F604A60016004E013680B60A8
:103C40004A6059601160F0BD10B5C287016300235E
:103C50000AE000244C600C600C614C610C83CC6168
:103C6000886020315C1CA3B29342F2DB10BD2DE9C9
:103C7000F041054695F8370000EB40003F4901EB65
:103C800080042F69EE6887B946B900202081206042
:103C9000606095F8370002F0F3FE0EE02089401EC8
:103CA000208100203061266007E02089401E2081AD
:103CB000FE600EB9676000E0376100202861E860AF
:103CC000BDE8F08138B504460D4685B16B46022249
:103CD0002946204606F036FDBDF8000018B903203D
:103CE00084F8360006E0022084F8360002E0022064
:103CF00084F836002046FFF7BAFF38BD2DE9F041C1
:103D000005460C4616461F461F48006880F834607A
:103D100000201D49096881F8350039461A480068B5
:103D2000FFF7D0FF6CB104F10808EC6001222946CE
:103D300015480068FFF788FF29464046FFF751FF06
:103D400006E0002010490968C8870F490968086320
:103D50000D4801682046FFF723FFBDE8F081000011
:103D600074000020BC000020C4000020C00000201F
:103D700078BD00086C000020A2000020348F0020D5
:103D8000A300002018010020140100205461736B6F
:103D9000205100005461736B2053656D00000000DA
:103DA0002000000010B50489012C03D10024046018
:103DB000446011E00C6824B94A6800241460026071
:103DC0000AE04C6824B90B6800245C60436003E09F
:103DD0000B684A685A6013600489641E04810024D9
:103DE0004C600C6010BD2DE9F0410446256BE68F58
:103DF0000AE0D5F80C8008F1080729463846FFF795
:103E0000D1FF2035701E86B2002EF2DC0020E08744
:103E10002063BDE8F08130B50346086BCC8F08E025
:103E2000C5689D4202D10361C26104E02030651E75
:103E3000ACB2002CF4DC00BF30BD10B590F83730C8
:103E400003EB4303F64C04EB83010B893BB90123DD
:103E50000B810023C36003610860486009E00B899F
:103E60005B1C0B810B68C360002303610A6810614F
:103E7000086010BD10B590F8373003EB4303E84CF1
:103E800004EB83010B893BB901230B810023C36041
:103E900003610860486008E00B895B1C0B8100230C
:103EA000C3604A680261D060486010BD10B5044626
:103EB00094F8370002F0D4FD94F83700D949097816
:103EC000884203D12046FFF7D5FF02E02046FFF7E6
:103ED000B4FF10BD10B50446204606F0AFFA94F8C2
:103EE000360000F0040010B92046FFF7DFFF10BDD8
:103EF00070B505460C46164694F83600082847D299
:103F0000DFE800F0040508090607272800BF00BF06
:103F100000BF3EE000BF94F83400032804D13246CD
:103F200021462846FFF777FF0020E065A4F86000EF
:103F3000266415B12046FFF756FF2046FFF7CAFF5B
:103F400000203434A07001206070002004F834098F
:103F50001FE000BF94F83400032804D13246214604
:103F60002846FFF758FF0020E065A4F860002664AB
:103F700015B12046FFF737FF204606F05FFA042010
:103F80003434A07001206070002004F8340900E08F
:103F900000BF00BF70BD30B5AFF2FC15C1F8C45012
:103FA00000F1080422681AB193681D6AC56102E035
:103FB000AFF21425C56130BD2DE9F04304460F462C
:103FC00084F83770256BB4F83E8013E0D5F80C9078
:103FD00009F108063089012807D929463046FFF73C
:103FE000E1FE29463046FFF7FCFD2035A8F101002F
:103FF0001FFA80F8B8F1000FE8D1BDE8F083002186
:10400000016041600181704703895B1C0381036883
:104010004B6000230B60026802B1116001600389EC
:10402000012B00D14160704730B50346086BCC8F3F
:1040300008E0C5689D4202D10361C26104E02030FE
:10404000651EACB2002CF4DC00BF30BD70B5064676
:104050000C46154694F83600082845D2DFE800F0F3
:10406000040508090607262700BF00BF00BF3CE083
:1040700000BF94F83400032804D12A462146304674
:10408000FFF7D2FF0020E065A4F860002564204619
:10409000FFF7A9FE2046FFF71DFF00203434A07073
:1040A00002206070002004F834091EE000BF94F87C
:1040B0003400032804D12A4621463046FFF7B4FFD6
:1040C0000020E065A4F860002564204606F0B6F9FB
:1040D0002046FFF788FE04203434A0700220607070
:1040E000002004F8340900E000BF00BF70BDF0B547
:1040F0000446059E086BCD8F0AE0C768A74204D12D
:10410000046142610383C66104E020306F1EBDB2CA
:10411000002DF2DC00BFF0BD2DE9F84306460C4649
:1041200017469846089D94F83600082850D2DFE8D4
:1041300000F00405080906072B2C00BF00BF00BFD4
:1041400047E000BF94F83400032807D143463A46BD
:10415000214630460095FFF7CAFF03E0E765A4F863
:104160006080256436B12046FFF73DFE214630468B
:10417000FFF711FF2046FFF7ADFE00203434A0709A
:10418000607004F8340924E000BF94F83400032878
:1041900007D143463A46214630460095FFF7A7FF30
:1041A00003E0E765A4F860802564204606F046F940
:1041B00036B12046FFF717FE21463046FFF7EBFEEB
:1041C00004203434A0700020607004F8340900E04A
:1041D00000BF00BFBDE8F88310B5002400BFFFF7A3
:1041E00063F9044600BF00200F4908700F481049CA
:1041F000086008460068D0F89000401C0968C1F8C3
:1042000090000C480068401C0A4908604FF080503C
:104210000949086000BF2046FFF74AF900BF10BDFA
:10422000348F0020A2000020A3000020608E002018
:1042300018010020E800002004ED00E070B50546FC
:10424000002635480078012800D070BD00BF00BFAF
:10425000FFF72AF9064600BFFEF723FF00BF2C68D0
:104260004CB900BFFEF7FEFE00BF3046FFF720F955
:1042700000BF00BFE9E72948844209D100BFFEF72B
:10428000F1FE00BF3046FFF713F900BF00BFDCE7C7
:10429000A06D10B1A06D401EA065A06D48B100BF1B
:1042A000FEF7E0FE00BF3046FFF702F900BF00BF97
:1042B000CBE72889022809DA00BFFEF7D3FE00BF4A
:1042C0003046FFF7F5F800BF00BFBEE7144800789E
:1042D000002809DD00BFFEF7C5FE00BF3046FFF72E
:1042E000E7F800BF00BFB0E72846FFF7B2FB2C6835
:1042F000606D18B90B480068A06501E0606DA065AD
:1043000000BFFEF7AFFE00BF3046FFF7D1F800BF99
:1043100000BF00BF99E70000C4000020988D002076
:10432000BC000020C0000020254A2649264A274A12
:104330002749284A2848294A294A2A4A2A4A2B48EA
:104340002B482C482C4A2D482D4A2E482E4A2F48BF
:104350002F4830483048314A314A324A3248334A8D
:10436000334A344834483548354836483648374863
:10437000374A384A384A394A39483A483A483B4A2B
:104380003B4A3C4A3C483D483D483E493E483F4AFE
:104390003F4A404A404A414A414A424A4248434AC7
:1043A000434A44484448454A454A4648464A474A9B
:1043B00047484848484800BF00BF00BF704700005A
:1043C000BCBD000824BF0008BDBD0008BEBD00087C
:1043D000C0BD0008C4BD0008C8BD0008C5BD0008B8
:1043E000F0BD0008F1BD0008F2BD0008F4BD0008F2
:1043F000F6BD0008F8BD0008FABD0008FCBD0008C5
:104400001CBE00081EBE000820BE000822BE000818
:1044100024BE000826BE000828BE000854BE0008BE
:1044200055BE000856BE000858BE00085ABE000817
:104430005BBE00085CBE00085EBE000860BE0008EF
:1044400062BE000864BE000866BE000868BE0008C0
:1044500098BE000899BE00089ABE00089BBE0008DE
:104460009CBE00089EBE0008A0BE0008C8BE000892
:10447000C9BE0008CABE0008CBBE0008CCBE0008FA
:10448000CEBE0008D0BE0008D4BE0008D5BE0008CD
:10449000D6BE0008D7BE0008D8BE0008D9BE0008A6
:1044A000DABE0008DBBE0008DCBE0008DEBE000885
:1044B000DFBE0008E0BE0008E2BE0008E4BE00085F
:1044C000E5BE0008E8BE00081CBF00081DBF0008CC
:1044D0001EBF000820BF000822BF0008FCA1C16168
:1044E00000214161FB49096811B90021816105E0A2
:1044F000F84909688161F74909684861F549086028
:1045000070472DE9F04104460E4617461D464FF010
:104510000008F1480078002804DD42F6E1602880B8
:10452000BDE8F0811CB945F6C3502880F8E700BF0C
:1045300000BF00BFFEF7B8FF804600BFFEF7B1FD29
:1045400000BFE6480078401CE4490870084600783F
:10455000012801D1FFF75EF900BFFEF783FD00BF20
:104560004046FEF7A5FF00BF00BF00BFDC4820604B
:10457000666027620020606204F10800FFF73FFDDB
:104580002046FFF7ABFFD7480088401CD54908807C
:1045900000BF00BF00BFFEF787FF804600BFFEF7E9
:1045A00080FD00BFCD480078401ECC490870084609
:1045B000007808B9FFF770F900BFFEF753FD00BFA0
:1045C0004046FEF775FF00BF00BF00BF00202880F7
:1045D00000BFA5E770B50446C3482060C3A0606073
:1045E0000020206204F108052846FFF708FD70BD91
:1045F000426981693AB9B74B196009B100234B612F
:104600000023836109E019B900239361436104E049
:1046100091614A6100238361436170472DE9FC5F2A
:1046200005468846144600200090AB4800780028D4
:1046300005DD43F2C92020800020BDE8FC9F25B99C
:1046400045F6C35020800020F7E7B8F1000F03D0F3
:10465000B8F1010F02D100E000BF04E045F625608B
:1046600020800020E9E700BF9D492868884204D0E7
:1046700045F6C45020800020DFE700BF00BF00BF28
:10468000FEF712FF009000BFFEF70BFD00BF93483E
:104690000078401C9149087008460078012801D133
:1046A000FFF7B8F800BFFEF7DDFC00BF0098FEF78B
:1046B000FFFE00BF00BF00BF05F10809B9F80860A0
:1046C0003746B8F1000F03D0B8F1010F74D182E082
:1046D000002F44D12846FFF78BFF82480088401EF8
:1046E000804908802846FFF775FF00BF00BF00BF64
:1046F000FEF7DAFE009000BFFEF7D3FC00BF77485C
:104700000078401E7549087008460078D0B9FFF758
:10471000C3F87848008800280BDD00BFFEF7A2FC34
:1047200000BF0098FEF7C4FE00BF00BFFFF754FDB6
:1047300011E000BFFEF796FC00BF0098FEF7B8FE40
:1047400000BF08E000BFFEF78DFC00BF0098FEF739
:10475000AFFE00BF00BF00BF002020803AE000BFD6
:1047600000BF00BFFEF7A0FE009000BFFEF799FC5F
:1047700000BF5A480078401E584908700846007823
:10478000D8B9FFF789F85B48008800280BDD00BF27
:10479000FEF768FC00BF0098FEF78AFE00BF00BF6E
:1047A000FFF71AFD12E000BFFEF75CFC00BF0098A7
:1047B000FEF77EFE00BF09E04CE000BFFEF752FCB2
:1047C00000BF0098FEF774FE00BF00BF00BF47F2B5
:1047D0005F10208079E0FCF7A8FD01900AE0D9F88D
:1047E00000A0DAF808B059462846019AFFF72EFCD7
:1047F000701E86B2002EF2D12846FFF7F9FE394826
:104800000088401E374908802846FFF7E3FE00BFB6
:1048100000BF00BFFEF748FE009000BFFEF741FC5E
:1048200000BF2E480078401E2C49087008460078CA
:1048300008B9FFF731F800BFFEF714FC00BF00987D
:10484000FEF736FE00BF00BF00BFFEF7A0FF00204E
:1048500020803AE000BF00BF00BFFEF725FE0090B9
:1048600000BFFEF71EFC00BF1C480078401E1B491D
:10487000087008460078D0B9FFF70EF81D48008888
:1048800000280BDD00BFFEF7EDFB00BF0098FEF730
:104890000FFE00BF00BFFFF79FFC11E000BFFEF757
:1048A000E1FB00BF0098FEF703FE00BF08E000BF79
:1048B000FEF7D8FB00BF0098FEF7FAFD00BF00BF6F
:1048C00000BF45F62560208000BF00BF3846B4E633
:1048D000200000008C0000206C000020BC000020A4
:1048E000464C4147900000204E4F4E453F464C41BC
:1048F00047000000800000202DE9F04106460F46E9
:1049000014461D46DDF81880FE480068C0F8804057
:10491000FC480068A0F888500020FA490968C1F8EE
:1049200084004346012239463046FFF7E7F9BDE8E7
:10493000F0812DE9F04F8BB00546884693469946A5
:10494000DDE9147400200190EF480078002806DDAE
:1049500046F2AE10208000200BB0BDE8F08F25B9E4
:1049600045F6C35020800020F6E748F20101A9EB8C
:104970000100894536D01ADC40F20111A9EB010093
:1049800089452BD00CDCB9F1010F23D0B9F1020F0E
:1049900021D0B9F1040F1FD0B9F1080F2AD11CE0C2
:1049A00001281CD003281BD0072823D119E0B0F51B
:1049B000807F1BD006DC012815D0032814D00728DF
:1049C00018D112E0A0F2011088B1022810D00628F8
:1049D00010D10EE000BF00BF00BF00BF00BF00BF8E
:1049E00000BF00BF00BF00BF00BF00BF00BF00BFCF
:1049F00000BF04E045F6256020800020ACE700BF42
:104A0000C2492868884204D045F6C450208000205E
:104A1000A2E709F4807010B14FF0010A01E04FF0F5
:104A2000000A0FB10020386009F00F000A9000BFA3
:104A300000BFFEF739FD019000BFFEF732FB00BF5B
:104A40000A9801287ED002287DD0042802D00828A8
:104A50007AD182E0286A00EA0806464519D1BAF1FF
:104A6000010F02D1286AB0432862A6480068C0F846
:104A700084600FB1686A386000BFFEF7F3FA00BFC8
:104A80000198FEF715FD00BF00BF002020803046D2
:104A900062E709F4004068B100BFFEF7E3FA00BF27
:104AA0000198FEF705FD00BF00BF46F2B010208060
:104AB000002051E79648007800280DDD00BFFEF782
:104AC000D1FA00BF0198FEF7F3FC00BF00BF46F625
:104AD0006350208000203FE700BF8D480078401CD5
:104AE0008B49087008460078012801D1FEF792FE34
:104AF00000BFFEF7B7FA00BF0198FEF7D9FC00BF70
:104B000000BF00BF4B464246294602A8CDF800B080
:104B1000FFF7F2FE00BF00BF00BFFEF7C5FC01902B
:104B200000BFFEF7BEFA00BF79480078401E784902
:104B300008700846007808B9FEF7AEFE00BFFEF721
:104B400091FA02E087E00EE18BE100BF0198FEF7E9
:104B5000AFFC00BF00BF00BF91E1286A00EA080671
:104B6000CEB1BAF1010F02D1286AB043286265487C
:104B70000068C0F884600FB1686A386000BFFEF753
:104B800071FA00BF0198FEF793FC00BF00BF002040
:104B900020803046E0E609F4004068B100BFFEF72F
:104BA00061FA00BF0198FEF783FC00BF00BF46F228
:104BB000B01020800020CFE65548007800280DDD99
:104BC00000BFFEF74FFA00BF0198FEF771FC00BF6F
:104BD00000BF46F6635020800020BDE600BF4C4871
:104BE0000078401C4A49087008460078012801D125
:104BF000FEF710FE00BFFEF735FA00BF0198FEF782
:104C000057FC00BF00BF00BF4B464246294602A8E2
:104C1000CDF800B0FFF770FE00BF00BF00BFFEF789
:104C200043FC019000BFFEF73CFA00BF3848007813
:104C3000401E374908700846007808B9FEF72CFE78
:104C400000BFFEF70FFA00BF0198FEF731FC00BF6E
:104C500000BF00BF13E1286A28EA0006464519D1C3
:104C6000BAF1010F02D1286A304328622548006852
:104C7000C0F884600FB1686A386000BFFEF7F2F9CF
:104C800000BF0198FEF714FC00BF00BF0020208089
:104C9000304661E609F4004068B100BFFEF7E2F972
:104CA00000BF0198FEF704FC00BF00BF46F2B01041
:104CB0002080002050E61648007800280DDD00BF57
:104CC000FEF7D0F900BF0198FEF7F2FB00BF00BF6E
:104CD00046F66350208000203EE600BF0C48007876
:104CE000401C0B49087008460078012801D1FEF7E6
:104CF00091FD00BFFEF7B6F900BF0198FEF7D8FBA3
:104D000000BF07E0140100206C000020464C414722
:104D1000BC00002000BF00BF4B464246294602A807
:104D2000CDF800B0FFF7E8FD00BF00BF00BFFEF701
:104D3000BBFB019000BFFEF7B4F900BFF848007854
:104D4000401EF74908700846007808B9FEF7A4FD30
:104D500000BFFEF787F900BF0198FEF7A9FB00BF6F
:104D600000BF00BF8BE0286A28EA0006CEB1BAF186
:104D7000010F02D1286A30432862EA480068C0F86F
:104D800084600FB1686A386000BFFEF76BF900BF3E
:104D90000198FEF78DFB00BF00BF00202080304649
:104DA000DAE509F4004068B100BFFEF75BF900BF27
:104DB0000198FEF77DFB00BF00BF46F2B0102080D7
:104DC0000020C9E5D648007800280DDD00BFFEF7B9
:104DD00049F900BF0198FEF76BFB00BF00BF46F624
:104DE000635020800020B7E500BFCD480078401C0C
:104DF000CB49087008460078012801D1FEF70AFD6A
:104E000000BFFEF72FF900BF0198FEF751FB00BF6E
:104E100000BF00BF4B464246294602A8CDF800B06D
:104E2000FFF76AFD00BF00BF00BFFEF73DFB01902A
:104E300000BFFEF736F900BFB9480078401EB849F8
:104E400008700846007808B9FEF726FD00BFFEF797
:104E500009F900BF0198FEF72BFB00BF00BF00BFA0
:104E60000DE000BFFEF7FEF800BF0198FEF720FB43
:104E700000BF00BF45F62560208000206CE500BF24
:104E8000FEF785FC00BF00BFFEF70EFB019000BFE0
:104E9000FEF707F900BFA348006890F8350030B16D
:104EA00001280CD002282CD003283CD119E01FB1D6
:104EB0009C480068006C38600020208040E01FB1F2
:104EC00098480068006C386000BFFEF7CBF800BF60
:104ED0000198FEF7EDFA00BF00BF46F2A91020804E
:104EE0002EE00FB10020386000BFFEF7BBF800BF16
:104EF0000198FEF7DDFA00BF00BF47F2D9202080FD
:104F00001EE01FB187480068006C386000BFFEF7E4
:104F1000A9F800BF0198FEF7CBFA00BF00BF45F625
:104F2000C25020800CE000BFFEF79CF800BF019843
:104F3000FEF7BEFA00BF00BF46F62E60208000BF1D
:104F400000BF208808B1002006E576480068D0F848
:104F50008460BAF1010F22D10A9801280BD00228EF
:104F60000AD0042802D008280AD100E000BF286A2D
:104F7000B043286212E000BF286A304328620DE087
:104F800000BFFEF76FF800BF0198FEF791FA00BF6F
:104F900000BF45F6256020800020DDE400BF00BF93
:104FA000FEF760F800BF0198FEF782FA00BF00BF6D
:104FB000002020803046CFE42DE9F05F05460E4604
:104FC00014464FF0000A58480078002805DD46F2E4
:104FD000AA1020800020BDE8F09F25B945F6C350F7
:104FE00020800020F7E74EB1B6F5807F07D0B6F5F8
:104FF000004F05D0B6F5014F04D102E000BF00BF5D
:1050000000BF04E045F6256020800020E3E700BFF4
:1050100046492868884204D045F6C45020800020C4
:10502000D9E700BF00BFFEF73FFA824600BFFEF798
:1050300038F800BF05F10807388968B900BFFEF7E6
:1050400011F800BF5046FEF733FA00BF00BF46F22A
:10505000AB1020800020BEE700BF31480078401C24
:105060002F49087008460078012801D1FEF7D2FBCD
:1050700000BFFDF7F7FF00BF5046FEF719FA00BF6B
:1050800000BF00BF4FF00008FCF74FF983460FE068
:105090003868D0F808905A4649462846FEF728FF57
:1050A00008F101001FFA80F8B6F5807F00D002E019
:1050B00038890028ECDC00BF00BF00BF00BFFEF74E
:1050C000F3F9824600BFFDF7ECFF00BF14480078FB
:1050D000401E134908700846007808B9FEF7DCFB4B
:1050E00000BFFDF7BFFF00BF5046FEF7E1F900BF6C
:1050F00000BF00BF06F4004008B9FEF748FB0020DF
:105100002080404667E770B50446002606480078D0
:1051100000280DDD46F2AE102080002070BD00009A
:10512000BC000020140100206C000020464C4147C8
:1051300000BF00BFFEF7B8F9064600BFFDF7B1FF9C
:1051400000BFE2480068D0F8845000BFFDF78AFF36
:1051500000BF3046FEF7ACF900BF00BF0020208042
:105160002846DBE770B504460E46154634342665FE
:10517000002060702070E560A078343C082816D2CA
:10518000DFE800F0040508090706101100BF00BFA2
:1051900000BF0DE000BF2046FEF79CFE002084F813
:1051A000360005E000BF042084F8360000E000BFB0
:1051B00000BF2046FEF717FE70BD2DE9F04F85B009
:1051C0000446894692469B46DDF8388000200090D0
:1051D00000BF00BFFEF768F9009000BFFDF761FF58
:1051E00000BFBAF1000F0AD0BAF1010F0DD0BAF525
:1051F000004F05D06FF40040504460B906E000BF96
:10520000206A40EA0900206216E000BF206A20EA16
:105210000900206210E000BFFDF724FF00BF0098E6
:10522000FEF746F900BF00BF45F62560A8F800006C
:10523000002005B0BDE8F08F00BFC4F824B004F131
:10524000080001900198008968B900BFFDF70AFFC6
:1052500000BF0098FEF72CF900BF00BF0020A8F89F
:105260000000206AE5E700BF99480078401C984993
:10527000087008460078012801D1FEF7CBFA00BF7C
:10528000FDF7F0FE00BF0098FEF712F900BF00BF67
:1052900000BF01980768BD6889E07868029095F8BA
:1052A000880000F00F0003900398012821D0022805
:1052B0002ED0042802D0082836D10EE0206AD5F876
:1052C000801000EA0106D5F88000B04204D15A46A9
:1052D00031462846FFF746FF63E0206AD5F8801084
:1052E00000EA010626B15A4631462846FFF73AFF42
:1052F00057E0D5F88000216A20EA0106D5F8800041
:10530000B04204D15A4631462846FFF72BFF48E009
:10531000D5F88000216A20EA010626B15A463146B6
:105320002846FFF71FFF3CE000BF00BF00BFFEF7AD
:10533000BBF8009000BFFDF7B4FE00BF64480078E2
:10534000401E6349087008460078D0B9FEF7A4FAF9
:105350006048008800280BDD00BFFDF783FE00BF1A
:105360000098FEF7A5F800BF00BFFEF735FF11E07B
:1053700000BFFDF777FE00BF0098FEF799F800BF69
:1053800008E000BFFDF76EFE00BF0098FEF790F842
:1053900000BF00BF00BF43F6FF20A8F800000020B8
:1053A00047E700BF029F0FB1BD6800E00025002D58
:1053B0007FF473AF00BF00BF00BFFEF775F8009029
:1053C00000BFFDF76EFE00BF41480078401E404917
:1053D00008700846007808B9FEF75EFA00BFFDF7CE
:1053E00041FE00BF0098FEF763F800BF00BF00BF9A
:1053F0000AF4004008B9FEF7CAF900BF00BFFEF783
:1054000053F8009000BFFDF74CFE00BF206A0490E7
:1054100000BFFDF727FE00BF0098FEF749F800BF68
:1054200000BF0020A8F80000049802E72DE9FF471C
:105430000546884617461C4635B945F6C3502080B8
:10544000002004B0BDE8F0874FB1012F08D0B7F5B8
:10545000004F06D06FF40040384420B902E000BF8E
:1054600000BF00BF04E045F6256020800020E8E78B
:1054700000BF19492868884204D045F6C4502080EE
:105480000020DEE7FBF751FF0646144800780028AD
:105490000BDD00231A4629460F48CDE90087CDE9E8
:1054A000026400F021F80020CBE733463A4641463B
:1054B00028460094FFF781FE81464846C1E7002157
:1054C000074A1160074A11800180704714010020CB
:1054D000BC00002080000020464C41476C000020AA
:1054E0008C000020900000202DE9F84F04460D4666
:1054F00016461F46DDE90BABDDF82890DDF8348059
:105500000020009000BF00BFFDF7CEFF009000BF5D
:10551000FDF7C7FD00BFE8480088E84909888842D0
:105520003EDAE5480088401CE3490880E4480088EA
:105530000988884203DAE0480088E1490880E148A8
:1055400000680460DF4800688560DE480068C66067
:10555000DC4800680782DB480068C0F81490D9482E
:105560000068A0F818A0D7480068C0F81CB0D5485B
:1055700000684068D34908600120D3490881D348B6
:1055800008604860002001F06BFAD148007818B13B
:10559000CF480078CF4908700020A8F8000008E044
:1055A000CD480088401CCC49088044F25360A8F8DC
:1055B000000000BFFDF756FD00BF0098FDF778FF23
:1055C00000BF00BFBDE8F88F3EB5C4480068006862
:1055D000C34A811A904279D00FDCC249084400289E
:1055E0003ED0C1490844A8B1C0490844002860D051
:1055F000BF49084400286AD13FE0BE48084400285B
:1056000050D0BD490844002862D0BC490844002855
:10561000F1D110E002A8B14D00902D68EB69AF4DBB
:105620002D682A8BAD4D2D686969AC4D2D68A86831
:10563000FFF7C3FD7AE002A9A8480068C069A74D3A
:10564000CDE900012D682B8BA44D2D682A8AA34D2E
:105650002D68E968A14D2D68A86801F0EEFD65E0B0
:105660009E4B1B68DA699D4B1B68198B9B4B1B6813
:10567000986802AB02F045FA58E002A99748006822
:10568000C069964DCDE900012D682B8B934D2D6897
:105690002A8A924D2D68E968904D2D68A86803F01C
:1056A0001BFD43E08D490968886802A903F00BFFE0
:1056B0003CE08A4B1B68DA69884B1B68198B874B67
:1056C0001B68986802AB04F0CFF92FE007E02CE0EC
:1056D00082490968886802A904F060FD26E07D49D6
:1056E000097801EB4101784A02EB8100FEF7A6FD43
:1056F0007A48006802AB0021C269814804F0B4F91D
:1057000080480068401E7F4908600846006858B914
:105710007D4800680860FBF708FE044602AB22469D
:1057200000217A4804F0A0F900E000BF00BF3EBDB0
:10573000002700BF56E0002652E000BF00BFFDF783
:10574000B3FE074600BFFDF7ACFC00BF5A48008817
:1057500098B900205C4908810860486001F090F920
:1057600000BFFDF77FFC00BF3846FDF7A1FE00BF7C
:1057700000BFFEF70CF8012632E000BFFDF772FC17
:1057800000BF3846FDF794FE00BF00BFFBF7CDFD1C
:105790000546FFF719FFFBF7C8FD441B5C4800688E
:1057A000A04201D25A48046000BF00BFFDF77CFE52
:1057B000074600BFFDF775FC00BF48480068406819
:1057C000464908603C480088401E3B49088000BFAD
:1057D000FDF748FC00BF3846FDF76AFE00BF00BF7A
:1057E000002EAAD0A7E7F0B589B0054600203A49B7
:1057F00008804848006820B944F25260288009B007
:10580000F0BD2E480088022803DA44F25460288054
:10581000F5E700203E4908603E48046826462036E9
:1058200000270CE03C4820600020A060E06020825F
:1058300060612083666020342036781C87B21F4860
:1058400000888742EEDB203C3248066866601D48CF
:105850000660224806600020174908801849088021
:105860002E48006818B944F255602880C7E72C48D4
:1058700000682C490968884203D244F256602880A7
:10588000BDE7032000210591CDE9070506912448D5
:105890000068254A1268214B1B68CDE90301CDE958
:1058A000013200910B46AFF2771220A1074802F0B7
:1058B00068FF00BFA3E70000800000202CBD0008A7
:1058C0008200002078000020348F0020608E0020AD
:1058D000A2000020A4000020840000207C00002002
:1058E0005449434BADBAB2BE0DF90BFAF2F8F7FFCB
:1058F0000006F6FF00F7FDF700FFEFFF03FE0FFEC7
:105900007C910020100100200C0100204492002016
:105910008800002028BD00084E4F4E4534BD0008C9
:105920003CBD000874BD000838BD000875432F4F0A
:10593000532D4949492049535220517565756520B9
:105940005461736B00000000002181619749096870
:1059500011B90021C16105E094490968C161934909
:10596000096888619149086070472DE9FF4F83B04D
:10597000044615461F46DDE91096002000908C482D
:105980000078002805DD45F2B960308007B0BDE839
:10599000F08F1DB945F2BB603080F7E7022F03DAC4
:1059A00045F2BC603080F1E7B9F1040F03D245F253
:1059B000C1603080EAE74FF0030ABAF1000F0DD062
:1059C00005EA0A0018B145F2BB603080DEE709EA5B
:1059D0000A0018B145F2C1603080D7E7AB46A8464F
:1059E000781E80B201900020029007E0C844CBF8F6
:1059F0000080C3460298401C80B20290DDE901108D
:105A00008842F3DB0020CBF8000000BF00BF00BFDE
:105A1000FDF74AFD009000BFFDF743FB00BF65485E
:105A20000078401C6349087008460078012801D1BD
:105A3000FDF7F0FE00BFFDF715FB00BF0098FDF776
:105A400037FD00BF00BF00BF5B4820600498A06026
:105A50006560E560A7826782A4F810902046FFF792
:105A600073FF56480088401C5449088000BF00BF9F
:105A700000BFFDF719FD009000BFFDF712FB00BF4E
:105A80004C480078401E4B4908700846007808B919
:105A9000FDF702FF00BFFDF7E5FA00BF0098FDF734
:105AA00007FD00BF00BF00BF0020308000BF6DE7D2
:105AB0002DE9F04104460D4600272CB945F2BF60A0
:105AC00028800020BDE8F08100BF00BFFDF7ECFC9E
:105AD000074600BFFDF7E5FA00BFA08A68B900BF1E
