:020000040800F2
:100000000804002045010008D50500087704000811
:10001000F90400088D010008350800080000000000
:100020000000000000000000000000008106000841
:1000300091010008000000005D0600089507000817
:100040005F0100085F0100085F0100085F01000810
:100050005F0100085F010008950100085F010008CA
:10006000C5010008F5010008250200085F0100082D
:100070005F0100085F0100085F0100085F010008E0
:100080005F0100085F0100085F0100085F010008D0
:100090005F0100085F0100085F0100085F010008C0
:1000A0005F0100085F0100085F0100085F010008B0
:1000B0005F0100085F0100085F0100085F010008A0
:1000C0005F0100085F0100085F0100085F01000890
:1000D0005F0100085F0100085F0100085F01000880
:1000E0005F0100085F0100085F0100085F01000870
:1000F0005F0100085F0100085F0100085F01000860
:100100005F0100085F0100085F0100085F0100084F
:100110005F0100085F0100085F0100085F0100083F
:100120005F0100085F0100085F0100085F0100082F
:10013000DFF80CD000F018F800480047A5080008C8
:10014000080400200648804706480047FEE7FEE70F
:10015000FEE7FEE7FEE7FEE7FEE7FEE7FEE7FEE777
:10016000D507000831010008064C074D06E0E0689D
:1001700040F0010394E8070098471034AC42F6D3EE
:10018000FFF7DAFFEC0800080C09000800BFFEE7E3
:100190007047000010B5012000F062F8012809D175
:1001A0000A2000F059FB05480068012802D1002010
:1001B00003490860012000F04DF810BD0001214204
:1001C0008401224210B5042000F04AF8012808D129
:1001D0000A2000F041FB0548006810B901200449DD
:1001E0000860042000F036F810BD0000080123422A
:1001F0008801224210B5082000F032F8012808D109
:100200000A2000F029FB0548006810B901200449C4
:100210000860082000F01EF810BD00000C01234209
:100220008401224210B5102000F01AF8012808D1EC
:100230000A2000F011FB0548006810B900200449AD
:100240000860102000F006F810BD000010012342E5
:1002500088012242014908607047000014040140EF
:10026000014600200022074B1B6803EA0102054BF0
:1002700014331B680B4013B10AB1012000E00020C9
:100280007047000000040140002123498279002AC0
:100290003AD00A46126803689A430B461A600A1D50
:1002A000126803689A430B1D1A60027911440A68A8
:1002B00003681A430A60184A0832126803689A43AE
:1002C000154B08331A601A1D126803689A43124BC3
:1002D0000C331A604279102A0ED11A1F1268036873
:1002E0001A430D4B08331A601A1D126803681A432B
:1002F000094B0C331A600DE00749427911440A6832
:1003000003681A430A6005E0027911440A68036829
:100310009A430A60704700000004014030B5002293
:100320008B071C0F0F2303FA04F20B4B8C1053F8AE
:1003300024309343084C8D1044F8253023468C100C
:1003400053F824308C07240F00FA04F42343024CA2
:100350008D1044F8253030BD080001402DE9F041F2
:10036000024600250026002000230024002791F8E3
:1003700003C00CF00F0591F803C00CF0100CBCF199
:10038000000F03D091F802C04CEA050591F800C0B7
:10039000BCF1000F31D0146800202BE04FF0010CAD
:1003A0000CFA00F3B1F800C00CEA03069E4220D11B
:1003B00083004FF00F0C0CFA03F7BC4305FA03FC63
:1003C0004CEA040491F803C0BCF1280F06D14FF0A9
:1003D000010C0CFA00FCC2F814C00AE091F803C04A
:1003E000BCF1480F05D14FF0010C0CFA00FCC2F82B
:1003F00010C0401C0828D1D31460B1F800C0BCF173
:10040000FF0F34DD546800202EE000F1080C4FF09F
:10041000010808FA0CF3B1F800C00CEA03069E428A
:1004200021D183004FF00F0C0CFA03F7BC4305FAFF
:1004300003FC4CEA040491F803C0BCF1280F05D179
:1004400000F1080C08FA0CF8C2F8148091F803C007
:10045000BCF1480F07D100F1080C4FF0010808FA71
:100460000CF8C2F81080401C0828CED35460BDE8B8
:10047000F0810161704700BFFEE7000008B501216F
:10048000442000F0EDF80120ADF8000028208DF8A0
:10049000030003208DF8020069460848FFF75EFF5D
:1004A0001C20ADF8000048208DF8030003208DF8D3
:1004B000020069460248FFF751FF08BD00080140ED
:1004C0000018014008B50121102000F0C9F8FF20F4
:1004D000ADF8000010208DF8030003208DF8020015
:1004E00069460448FFF73AFFFF210248FFF7C1FFC2
:1004F00008BD00000010014000BFFEE70EB501215D
:10050000084600F0ADF802210420FFF707FF0321A1
:100510000420FFF703FF04210846FFF7FFFE002138
:100520000846FFF7FBFE06208DF8080002208DF834
:10053000090003208DF80A0001208DF80B0002A8A5
:1005400000F04AF808208DF8080002208DF8090014
:100550008DF80A0001208DF80B0002A800F03CF88D
:1005600009208DF8080002208DF8090001208DF87F
:100570000A008DF80B0002A800F02EF80A208DF872
:10058000080002208DF8090000208DF80A000120E3
:100590008DF80B0002A800F01FF801200090002049
:1005A0008DF8040008208DF8050001208DF8060064
:1005B0006846FFF769FE1C20009000208DF80400BB
:1005C0000C208DF8050001208DF806006846FFF725
:1005D0005BFE0EBD7047000070B5002100230F22A6
:1005E000C47804B3154C246804F4E064C4F5E064F2
:1005F000210AC1F10403CA40447804FA03F1847863
:100600001440214309010E4C0678A155047804F0EA
:100610001F050124AC4005786D11AD0005F1E02502
:10062000C5F8004109E0047804F01F050124AC403E
:10063000044D0678761145F8264070BD0CED00E0BB
:1006400000E400E080E100E002490143024A116059
:10065000704700000000FA050CED00E07047000054
:1006600029B1064A92690243044B9A6104E0034AA5
:1006700092698243014B9A6170470000001002406A
:10068000704710B500F002F810BD00000CB5002056
:10069000019000903348006840F480303149086090
:1006A00000BF3048006800F4003000900198401C02
:1006B0000190009818B90198B0F5A06FF1D12948C0
:1006C000006800F4003010B10120009001E000202B
:1006D00000900098012843D12348006840F01000A2
:1006E000214908600846006820F0030008600846B9
:1006F000006840F0020008601A48406819494860E4
:100700000846406848600846406840F48060486099
:100710000846406820F47C1048600846406840F471
:10072000E81048600846006840F08070086000BF2C
:100730000C48006800F000700028F9D009484068B3
:1007400020F00300074948600846406840F0020076
:10075000486000BF0348406800F00C000828F9D149
:100760000CBD00000010024000200240042808D107
:100770004FF0E021096941F004014FF0E0221161DE
:1007800007E04FF0E021096921F004014FF0E02279
:10079000116170477047000010B504466FF0040007
:1007A000FFF7E4FFE11704EB5171C1F3C701074AFA
:1007B00011701046007800EB4001C1EBC0104FF6FD
:1007C000FF7101EAC0000249088010BD000000204E
:1007D0000200002010B51348006840F001001149E4
:1007E000086008464068104908400E4948600846BD
:1007F00000680E4908400B4908600846006820F46C
:10080000802008600846406820F4FE0048604FF4ED
:100810001F008860FFF735FF4FF000600449086053
:1008200010BD0000001002400000FFF8FFFFF6FEC0
:1008300008ED00E000BFFEE702E008C8121F08C193
:10084000002AFAD170477047002001E001C1121F51
:10085000002AFBD1704700000146114A12884A4322
:100860004FF0E0235A6100229A611A46126942F061
:1008700001021A6100BF4FF0E022106900F001028E
:100880001AB100F48032002AF5D04FF0E02212694C
:1008900022F001024FF0E0231A6100229A617047B2
:1008A000020000204820FFF777FF4FF4A060FFF719
:1008B000CBFEFFF707FEFFF7E1FDFFF71FFE12E09B
:1008C000601CC4B2142094FBF0F100FB114038B955
:1008D0000548006808B9012000E0002002490860CE
:1008E0000A20FFF7B9FFEBE7800122420C0900085C
:1008F000000000200400000038080008100900086B
:100900000400002004040000480800080000000063
:0400000508000131BD
:00000001FF
