:020000040800F2
:1000000030040020450100082918000831110008BB
:1000100025180008F50E0008BB22000800000000AB
:10002000000000000000000000000000091A0008A5
:10003000F90E000800000000B11800081D1B0008A0
:100040005F0100085F0100085F0100085F01000810
:100050005F0100085F0100085F0100085F01000800
:100060005F0100085F0100085F0100085F010008F0
:100070005F0100085F0100085F0100085F010008E0
:100080005F0100085F0100085F0100085F010008D0
:100090005F0100085F0100085F0100085F010008C0
:1000A0005F0100085F0100085F0100085F010008B0
:1000B0005F0100085F0100085F0100085F010008A0
:1000C0005F0100085F0100085F0100085F01000890
:1000D0005F010008F91F00085F0100085F010008C8
:1000E0005F0100085F0100085F0100085F01000870
:1000F0005F0100085F0100085F0100085F01000860
:100100005F0100085F0100085F0100085F0100084F
:100110005F0100085F0100085F0100085F0100083F
:100120005F0100085F0100085F0100085F0100082F
:10013000DFF80CD000F0BEFB004800479D2A000805
:10014000300400200648804706480047FEE7FEE7E7
:10015000FEE7FEE7FEE7FEE7FEE7FEE7FEE7FEE777
:100160005D1B000831010008F0B480EA0102D40FE1
:100170004200B2EB410F02D20246084611464A0045
:1001800042D0C30DDDB2C1F3C752AD1A202D35DA0E
:10019000C1F3160141F4000204B15242C5F1200638
:1001A00002FA06F12A411044B3EBD05F23D0C4B168
:1001B000012DA0EBC35009DCF0BC4FF0004202EA75
:1001C000C352DBB200F5000000F068B9400000F156
:1001D000807000EBC350A0F1807040EAD1704900FC
:1001E00009E0490841EAC071A0EBC35000F50000E6
:1001F000400800EBC350F0BC00F047B96142012257
:1002000002EB4101001BF6E7F0BC704781F00041B2
:10021000AAE780F00040A7E780EA010210B502F0EB
:100220000043400022D04A001FD0010E01EB1261B2
:10023000C0F35600C2F3560240F4000042F400023C
:10024000A0FB022000047F39140400D0401C50EAB7
:10025000124001D44000491EC2B20C0604EBD0107B
:10026000401C4008802A02D003E0002010BD20F08E
:100270000100002900DA0020184310BD2DE9F04DDF
:1002800081EA030404F0004B21F0004514464FF0CE
:10029000000A23F0004150EA050220D054EA01028E
:1002A0001DD0C5F30A570246C5F31303C1F313006B
:1002B000C1F30A5640F4801543F48013A7EB0608F7
:1002C000101BD64608F2FD3873EB050002D308F187
:1002D000010801E092185B41B8F1000F03DA002039
:1002E0000146BDE8F08D00204FF48011064684469B
:1002F0000EE0171B73EB050705D3121B63EB050319
:1003000006434CEA010C49084FEA300092185B4161
:1003100050EA0107EDD152EA030012D082EA04004C
:1003200083EA0501084305D0101BAB4106D2012228
:10033000002306E000224FF0004302E06FF00102CC
:1003400053101AEB06004CEB085110EB0A0041EB7E
:100350000B01BDE8F04D00F0CFB8C10F80EAE070AE
:100360000844CA079623002100F098B870B5C1F37D
:100370000A5201F000450024C1F3130140F2FF339B
:1003800041F480119A4201DA002070BD40F23343FB
:100390009A42A2F2334203DC524200F066F800E0D7
:1003A00090402C43F1D0404270BD00F0004230F04C
:1003B00000400AD0C10D01F56071C0F3160042EA99
:1003C0000151C208400711437047002001467047A1
:1003D00001F0004330B421F0004150EA010206D0A0
:1003E0000A0DA2F56072C1F31301002A02DC30BCD1
:1003F00000207047440F44EAC104C100E01830BC3B
:1004000000EBC25000F041B82DE9F05F0546002036
:1004100092469B4688460646814640241BE0284675
:1004200041464746224600F020F853465A46C01A35
:10043000914110D311461846224600F04DFA2D1A6C
:1004400067EB01084F4622460120002100F044FAE4
:1004500017EB00094E41201EA4F10104DFDC4846E1
:1004600031462A464346BDE8F09F202A04DB203A65
:1004700021FA02F00021704721FA02F3D040C2F1C4
:10048000200291400843194670470029A8BF7047D1
:10049000401C490008BF20F00100704710B4B0FABA
:1004A00080FC00FA0CF050EA010404BF10BC704755
:1004B00049B1CCF1200421FA04F411FA0CF118BF6F
:1004C000012121430843A3EB0C01CB1D4FEA00613E
:1004D0004FEA102042BF002010BC704700EBC35011
:1004E00010440029A4BF10BC7047401C490008BF3D
:1004F00020F0010010BC704710B5141E73F1000409
:1005000008DA401C41F1000192185B411A4301D105
:1005100020F0010010BD2DE9F04D92469B4611B12F
:10052000B1FA81F202E0B0FA80F22032904600F097
:10053000D3F904460F4640EA0A0041EA0B0153464C
:100540005A46084313D0114653EA010019D0C8F1A6
:1005500040025046FFF789FF05460E465046594671
:10056000424600F0B9F9084305D0012004E02046D6
:100570003946BDE8F08D0020054346EAE0762C437D
:1005800037430A986305E40AA0EB08000022FD0A3D
:1005900044EA47540A3002D500200146E9E7010544
:1005A00010196941DDE9084500196941BDE8F04DC0
:1005B000A2E72DE9FE4F804681EA0300C00F0C46FA
:1005C000009021F0004123F00045B8EB0200A94162
:1005D00005D24046214690461C460B46024623F073
:1005E0000040104347D0270DC7F30A00C3F30A5158
:1005F0000290401A019040286BDAC3F3130040F4D4
:10060000801B0098924620B10023D2EB030A63EBD3
:100610000B0B01985946C0F14002504600F05CF9BE
:1006200006460D4650465946019A00F064F910EB13
:1006300008006141002487EA115284EAE7731A43F3
:1006400040D0009A62B3019A012A4FEA075215DCA2
:10065000001B61EB02014FF0004202EA0752CDE9B4
:100660000042001C41F5801132462B46FFF753FF34
:1006700003B0BDE8F08F40462146F9E7001B61EB6F
:100680000201001C41F5801300185B412018A2F5FF
:10069000001747EB030140EAD570B6196D4111E030
:1006A0006D084FEA360645EAC0754FEA0752001B4F
:1006B00061EB0201001C41F5801149084FEA30004E
:1006C0000019514132462B4603B0BDE8F04FFFF709
:1006D00013BF0098012240000023D0EB020263EB1D
:1006E000E073009821464FEAE074B8EB000061EB3C
:1006F0000401E9E783F000435BE781F0004158E73C
:100700002DE9FE4F81EA030404F0004421F000418A
:1007100000944FF0000B23F0004350EA01045ED038
:1007200052EA03045BD0C3F30A54C1F30A552C44C4
:10073000A4F2F3340194A0FB0254C1F3130141F479
:100740008011C3F3130343F4801301FB024400FB45
:10075000034E840A970A44EA815447EA8357A4FB6C
:10076000076802958D0A05FB07854FEA932C04FB69
:100770000C542705029D4FEA065847EA1637B5EB99
:1007800008056EEB070C870E920E47EA811742EAC6
:100790008312A7FB0201B6EB0B0164EB00042B0DE7
:1007A00043EA0C335E1844EB1C50DA465146E7FB33
:1007B0000201C5F313044FEA0B3343EA14534FEA23
:1007C0000432019C43EA0603A4F10C040294009C49
:1007D000CDE900B4FFF79FFE03B0BDE8F08F002025
:1007E0000146F9E770B521F0004303430CD0C1F393
:1007F0000A550024D5EB040564EB0403D617AD1AA3
:10080000B34102DB0020014670BD201841EB0251CC
:1008100070BD2DE9F04D00231A461B1A8A4103DBF7
:1008200000200146BDE8F08DC1F30A52C1F3130167
:1008300041F480154FF0000BD10702D100186D4133
:10084000521E0027044640F2FF11384601EB620AAF
:100850003E468046024600204FF48011FFF705FE19
:10086000C2197141BB1846EB0100B4EB030C75EBE8
:10087000000C04D3E41A65EB000517460E46241954
:1008800008F101006D4180463428E3DDF91946EB9B
:100890000600091BA84103D24FF0FF32134601E0C6
:1008A000002213461BEB070046EB0A51BDE8F04D52
:1008B000FFF722BE064C074D06E0E06840F001035A
:1008C00094E8070098471034AC42F6D3FFF734FCA5
:1008D000A8490008C8490008202A04DB203A00FA89
:1008E00002F1002070479140C2F1200320FA03F387
:1008F000194390407047202A06DBCB17203A41FA73
:1009000002F043EAE07306E041FA02F3D040C2F19C
:10091000200291400843194670472DE9FE4F0446D6
:100920000D4616460027B846B94600212D2000F096
:1009300035FA642002F054F82B21312000F02EFA11
:100940000A212C2000F02AFA28212D2000F026FA76
:1009500000212E2000F022FA00211E2000F01EFAB5
:1009600000211F2000F01AFA0021202000F016FAC2
:100970000C2002F035F8BA4616E06A4601A902A832
:1009800000F02EF9BDF80800384407B2BDF80400A5
:1009900040440FFA80F8BDF8000048440FFA80F98F
:1009A0000AF1010000F0FF0ABAF10A0FE5DB0A20A4
:1009B00097FBF0F007B20A2098FBF0F00FFA80F8EE
:1009C0000A2099FBF0F00FFA80F97842C11700EB8A
:1009D0009171C1F387012170C8F10000C11700EBCC
:1009E0009171C1F387012970C9F58070C11700EBBF
:1009F0009171C1F38701317021781E2000F0CEF98A
:100A000029781F2000F0CAF93178202000F0C6F9BB
:100A1000BDE8FE8F2DE9F04F89B0064689461546A0
:100A20009A4600200890BAF1000F06D0BAF1010FE3
:100A300032D0BAF1020F2ED15EE02846FFF7B5FCA6
:100A4000CDE9060149464846FFF7E6FB31460190ED
:100A50003046FFF7E1FB00900199FFF785FB8346E5
:100A6000FFF7A3FCCDE9020102F036F9CDE904015C
:100A7000DDE90623FFF702FC0746FFF7A9FC044661
:100A80002046FFF792FCCDE9060101F013FE074670
:100A9000FFF79EFC08905FE029462846FFF7BCFB65
:100AA000494601904846FFF7B7FB00900199FFF7D0
:100AB0005BFB8346FFF779FCCDE9020102F00CF9FC
:100AC000074688463046FFF770FC3A464346CDE974
:100AD0000401FFF7D3FBCDE90601FFF779FC0446DB
:100AE0002046FFF762FCCDE9060101F0E3FD074671
:100AF000FFF76EFC08902FE029462846FFF78CFB95
:100B0000314601903046FFF787FB00900199FFF7CF
:100B10002BFB8346FFF749FCCDE9020102F0DCF82C
:100B2000074688464846FFF740FC3A464346CDE92B
:100B30000401FFF7A3FBCDE90601FFF749FC0446DA
:100B40002046FFF732FCCDE9060101F0B3FD074670
:100B5000FFF73EFC089000BF00BF0A490898FFF766
:100B60005BFB8346FFF721FC0746074A074BFFF76D
:100B700085FBCDE90601FFF7F9FB00B209B0BDE83E
:100B8000F08F0000000034431F85EB51B81E094070
:100B900010B500F0EBFA002000F057F8E5281DD161
:100BA0002B21312000F0FAF80A212C2000F0F6F871
:100BB00028212D2000F0F2F800212E2000F0EEF880
:100BC00000211E2000F0EAF800211F2000F0E6F8C6
:100BD0000021202000F0E2F8002010BD0120FCE7F9
:100BE0002DE9F04704460D4616460027B846B9469B
:100BF000BA4616E032462946204600F047F80A2059
:100C000001F0EEFE2088384407B2288840440FFAED
:100C100080F8308848440FFA80F90AF1010000F0AA
:100C2000FF0ABAF10A0FE5DB0A2097FBF0F000B2E9
:100C300020800A2098FBF0F000B228800A2099FB5F
:100C4000F0F000B23080BDE8F08770B504460025B2
:100C500000F02CFB3A2000F0F7FA00F05FFB0546AD
:100C6000204600F0F1FA00F059FB054600F01EFBAB
:100C70003B2000F0E9FA00F051FB0546002000F0AF
:100C8000B7FA054600F02EFB284670BD2DE9FC4161
:100C900005460E46174600F009FB3A2000F0D4FA4C
:100CA00000F03CFB322000F0CFFA00F037FB00F000
:100CB000FDFA3B2000F0C8FA00F030FB00240EE003
:100CC000052C05D1002000F093FA0DF8040004E093
:100CD000012000F08DFA0DF80400601CC4B2062C4F
:100CE000EEDB00F0FFFA9DF800009DF8011000EB2C
:100CF000012000B228809DF802009DF8031000EB4F
:100D0000012000B230809DF804009DF8051000EB32
:100D1000012000B23880BDE8FC812DE9FE43044685
:100D20000D4616461F4600202080288030809FB345
:100D300080461DE06A4601A902A8FFF7A7FF2088A8
:100D4000BDF80810084400B220802888BDF80410BF
:100D5000084400B228803088BDF80010084400B272
:100D60003080052001F03CFE08F1010000F0FF0892
:100D7000B845DFDBB4F9000090FBF7F000B220804B
:100D8000B5F9000090FBF7F000B22880B6F900003A
:100D900090FBF7F000B23080BDE8FE8370B50546E9
:100DA0000C4600F083FA3A2000F04EFA00F0B6FA52
:100DB000284600F049FA00F0B1FA204600F044FA63
:100DC00000F0ACFA00F08EFA70BD0000FEB50546EA
:100DD0000F4614461E46002E49D1002C0DDA604203
:100DE00004B241A01021CDE9001040484388028898
:100DF0003946284600F0A4FC0AE03DA01021CDE9C8
:100E000000103A48438802883946284600F098FC8A
:100E1000642094FBF0F03030C0B28DF808006420FC
:100E200094FBF0F100FB11400A2190FBF1F030300F
:100E3000C0B28DF80900642094FBF0F100FB114072
:100E40000A2190FBF1F201FB12003030C0B28DF8A4
:100E50000A0002A81021CDE9001024494B880A8815
:100E600005F10A0188B2394600F06AFC3AE0002C2C
:100E70000DDA604204B21CA01021CDE900101B481D
:100E8000438802883946284600F05AFC0AE018A038
:100E90001021CDE9001015484388028839462846BC
:100EA00000F04EFC0A2094FBF0F03030C0B28DF818
:100EB00008002E208DF809000A2094FBF0F100FBB9
:100EC00011403030C0B28DF80A0002A81021CDE9DF
:100ED000001006494B880A8805F10A0188B2394694
:100EE00000F02EFCFEBD00002D00000018000020C8
:100EF0002000000000BFFEE77047000051B18200F3
:100F0000A2F1C042126842F001038200A2F1C04285
:100F1000136009E08200A2F1C0421268034B1A403C
:100F20008300A3F1C0431A6070470000FEFF0F006A
:100F3000D0E901121143C2681143026911434269A9
:100F4000114382691143C2691143026A1143426A23
:100F50001143826A1143C26A1143026B1143026852
:100F60009200A2F1C0421160816808290BD101688A
:100F70008900A1F1C041096841F04002016889007F
:100F8000A1F1C0410A60416B0968426B526841EAB5
:100F90000211426B926841EA0221426B928941EA56
:100FA0000241426B128A41EA0251426B127D41EAD0
:100FB0000261426B926911430268521C9200A2F1D5
:100FC000C0421160C16AB1F5804F1BD1816B0968C5
:100FD000826B526841EA0211826B926841EA0221F7
:100FE000826B128A41EA0251826B127D41EA0261F0
:100FF000826B9269114302689200A2F1C042C2F86A
:10100000041107E06FF0704201688900A1F1C0414E
:10101000C1F8042170472DE9F04102460025002661
:10102000002000230024002791F803C00CF00F05D6
:1010300091F803C00CF0100CBCF1000F03D091F834
:1010400002C04CEA050591F800C0BCF1000F31D098
:10105000146800202BE04FF0010C0CFA00F3B1F8FB
:1010600000C00CEA03069E4220D183004FF00F0C13
:101070000CFA03F7BC4305FA03FC4CEA040491F8AC
:1010800003C0BCF1280F06D14FF0010C0CFA00FC94
:10109000C2F814C00AE091F803C0BCF1480F05D1B2
:1010A0004FF0010C0CFA00FCC2F810C0401C0828DC
:1010B000D1D31460B1F800C0BCF1FF0F34DD546827
:1010C00000202EE000F1080C4FF0010808FA0CF3A4
:1010D000B1F800C00CEA03069E4221D183004FF014
:1010E0000F0C0CFA03F7BC4305FA03FC4CEA0404AA
:1010F00091F803C0BCF1280F05D100F1080C08FAE3
:101100000CF8C2F8148091F803C0BCF1480F07D165
:1011100000F1080C4FF0010808FA0CF8C2F8108032
:10112000401C0828CED35460BDE8F08101617047AF
:1011300000BFFEE710B500200A49086000F052FC2D
:1011400000200949C1F89C01022001F06FFC012038
:1011500004490860052001F069FC00200249C1F83B
:10116000980110BD988121420080214208B50121DB
:10117000082000F0AFFB4020ADF8000003208DF800
:10118000020010208DF8030069460848FFF743FF6E
:101190008020ADF8000069460448FFF73CFF0120BD
:1011A000034908600349C1F89C0108BD000C0140D7
:1011B000988121420080214210B500200A49086030
:1011C00000F010FC01200949C1F89C01022001F047
:1011D0002DFC012004490860052001F027FC0020B7
:1011E0000249C1F8980110BD988121420080214236
:1011F00070B50546002400F0E7FB002616E000204D
:101200000F490860022001F011FC01200D49C1F8CE
:1012100098016006040E0A487C38006808B1601C1A
:10122000C4B2012001F002FC701CC6B2082EE6DB3D
:1012300015B9FFF7C1FF01E0FFF77CFF204670BD45
:10124000988121420080214270B5044600F0CAFB1B
:10125000002014490860002520E004F080000028E8
:1012600004DD01200F49091D086003E000200D493D
:10127000091D08606006040E022001F0D7FB012062
:1012800008490860022001F0D1FB00200649C1F89E
:101290009801022001F0CAFB681CC5B2082DDCDBF6
:1012A00070BD0000988121420080214210B500F0FD
:1012B00099FB0120094908600949C1F898010520F6
:1012C00001F0B4FB002005490860062001F0AEFBE8
:1012D00000200349C1F8980110BD00009C81214203
:1012E0000080214210B500F07DFB00200949086014
:1012F0000949C1F89C01012006490860062001F057
:1013000095FB01200449C1F89C01062001F08EFBE9
:1013100010BD0000988121420080214210B50024B8
:1013200000F052FB01200E49086001F07FFB012014
:101330000C49C1F8980101F079FB07E0601CC4B2C8
:10134000FA2C03DDFFF7CEFF012010BD04488038E2
:1013500000680028F2D10249091F086000BFF4E7C5
:101360009C8121420080214208B50121442000F0E7
:10137000B1FA0120ADF8000028208DF80300032009
:101380008DF8020069460848FFF745FE1C20ADF8BD
:10139000000048208DF8030003208DF80200694604
:1013A0000248FFF738FE08BD000801400018014060
:1013B00010B5044622480078012826D1214800684B
:1013C00001280AD02048006838B11F48001F006873
:1013D00018B11D48001D0068B8B90A2001F000FBD3
:1013E00000201749087017480068012800D110BD77
:1013F0001548006808B90220F9E71348001F006883
:1014000008B90320F3E70420F1E70E48006878B933
:101410000D48006801280BD10B48001F0068012807
:1014200006D10948001D0068012801D1044908704F
:10143000012C02D10120024908700020D7E70000EA
:1014400020000020000121420C01234270B5064615
:101450000F484088401E83B20D480088401E82B26B
:101460000021084600F074F800240CE0002504E098
:10147000304600F0ADF9681C85B205484088A842A6
:10148000F6DC601C84B202480088A042EEDC70BD2D
:101490001800002000B50346B3B9012000F084F91C
:1014A0004FF4807000F08AF9032000F07DF941F2DA
:1014B000300000F083F94FF4C8700F494880F020E5
:1014C00008800020887115E0012000F06DF94FF4CC
:1014D000807000F073F9032000F066F941F23800E3
:1014E00000F06CF9F020044948804FF4C87008807F
:1014F0000120887100BD00001800002070B504466E
:101500000D4616462B4622462946204600F020F876
:10151000304600F05DF970BD10B501460023CA0ADF
:10152000C1F3451401F01F03500340EA841040EA60
:10153000430010BD0549098848104FF6FF7101EAC4
:1015400000200249098840EA610070470008006CE9
:1015500070B506460C4615462E48807950BB4FF4B0
:10156000047000F021F9304600F028F940F2112013
:1015700000F01AF9284600F021F940F2122000F09C
:1015800013F9204600F01AF940F2132000F00CF98C
:10159000184600F013F94FF4007000F005F93046DA
:1015A00000F00CF940F2012000F0FEF8204600F0B7
:1015B00005F929E040F2122000F0F6F8304600F07C
:1015C000FDF840F2132000F0EFF8284600F0F6F89E
:1015D0004FF4047000F0E8F8204600F0EFF840F215
:1015E000112000F0E1F8184600F0E8F840F2012080
:1015F00000F0DAF8304600F0E1F84FF4007000F047
:10160000D3F8204600F0DAF840F2022000F0CCF8DF
:1016100070BD0000180000202DE9F84F80460E46EE
:1016200017461C46B3462046E31704EB5373DB1002
:1016300021464FEAE47C04EB5C7C4FEAEC0CA4EB23
:10164000CC0CBCF1000F02D04FF0010C01E04FF0C8
:10165000000C6344224604EBD27C4FEA6C0C03FB83
:101660000CF3DBB20093A7F12000C7B2002556E0CF
:101670000C2C07D107EB47002B4901EB800010F839
:10168000059013E0102C05D1284800EB071010F846
:1016900005900BE0182C07D107EBC700244901EB9C
:1016A000800010F8059001E0BDE8F88F4FF0000AC7
:1016B0002FE009F0800030B11E48028831464046D4
:1016C000FFF71CFF07E00A9828B91B48028831463B
:1016D0004046FFF713FF4FEA49604FEA1069701C5C
:1016E00086B216484088B04200DCDDE7A6EB0B006E
:1016F000A0420AD15E4608F101001FFA80F80F48A7
:101700000088404500DCCFE706E00AF1010000F068
:10171000FF0ABAF1080FCCDB00BF681CC5B2009805
:101720008542A5DB00BFBFE7242D000898310008E3
:101730008837000814000020160000201800002040
:101740002DE9F84704460D4690469946DDE90967BC
:1017500004F0FF0A08EB04001FFA80F809EB05000B
:101760001FFA80F916E0444502DB5446A81985B2F9
:101770004D4500DB14E0002000903A7833462946BE
:101780002046FFF749FF304606EBD07104EB6101BC
:101790008CB27F1C38787E2802DC38782028E2DA88
:1017A00000BFBDE8F887000001124900024A11801D
:1017B0000106C90D11807047FE07006C0112490037
:1017C000024A11800106C90D118070470008006CA3
:1017D00030B5054600242846FFF79EFE0446C4F3B4
:1017E0004F20024908800C8030BD00000008006CCA
:1017F00008B50121102000F06DF8FF20ADF80000C1
:1018000010208DF8030003208DF80200694604487B
:10181000FFF701FCFF210248FFF788FC08BD00002C
:101820000010014000BFFEE77047000070B50021C6
:1018300000230F22C47804B3154C246804F4E06438
:10184000C4F5E064210AC1F10403CA40447804FAF3
:1018500003F184781440214309010E4C0678A15508
:10186000047804F01F050124AC4005786D11AD002B
:1018700005F1E025C5F8004109E0047804F01F05F2
:101880000124AC40044D0678761145F8264070BD21
:101890000CED00E000E400E080E100E002490143DB
:1018A000024A1160704700000000FA050CED00E0EC
:1018B0007047000029B1064A52690243044B5A613D
:1018C00004E0034A52698243014B5A6170470000A9
:1018D0000010024029B1064A92690243044B9A6102
:1018E00004E0034A92698243014B9A617047000009
:1018F0000010024030B500210022002400232D4DAD
:101900006D6805F00C0121B1042905D0082923D107
:1019100005E0294D056022E0274D05601FE0254DBB
:101920006D6805F47012234D6D6805F4803402254E
:1019300005EB92421CB9214D554305600BE01D4D4E
:101940006D6805F400351DB11C4D5543056002E07E
:10195000194D5543056002E0174D056000BF00BFFB
:10196000144D6D6805F0F0010909154D6B5C0568B3
:10197000DD4045600F4D6D6805F4E061090A104DCA
:101980006B5C4568DD4085600A4D6D6805F460510B
:10199000C90A0B4D6B5C4568DD40C560054D6D683F
:1019A00005F44041890B074D6B5CC568B5FBF3F549
:1019B000056130BD0010024000127A0000093D00B0
:1019C000000000201000002008B58020ADF80000C5
:1019D00048208DF8030069460148FFF71CFB08BD4D
:1019E000000C014008B58020ADF8000003208DF800
:1019F000020010208DF8030069460248FFF70BFB38
:101A000008BD0000000C0140704710B500F002F85E
:101A100010BD00000CB50020019000903348006814
:101A200040F480303149086000BF3048006800F45D
:101A3000003000900198401C0190009818B901985E
:101A4000B0F5A06FF1D12948006800F4003010B162
:101A50000120009001E0002000900098012843D16F
:101A60002348006840F010002149086008460068DB
:101A700020F0030008600846006840F0020008609B
:101A80001A48406819494860084640684860084656
:101A9000406840F4806048600846406820F47C104C
:101AA00048600846406840F4E8104860084600680E
:101AB00040F08070086000BF0C48006800F00070C3
:101AC0000028F9D00948406820F003000749486021
:101AD0000846406840F00200486000BF0348406884
:101AE00000F00C000828F9D10CBD000000100240E5
:101AF00000200240042808D14FF0E021096941F09C
:101B000004014FF0E022116107E04FF0E021096984
:101B100021F004014FF0E02211617047704700008E
:101B200010B504466FF00400FFF7E4FFE11704EB83
:101B30005171C1F3C701074A11701046007800EBDC
:101B40004001C1EBC0104FF6FF7101EAC00002492D
:101B5000088010BD220000202400002010B513488A
:101B6000006840F0010011490860084640681049CB
:101B700008400E494860084600680E4908400B4975
:101B800008600846006820F4802008600846406825
:101B900020F4FE0048604FF41F008860FFF735FF17
:101BA0004FF000600449086010BD000000100240C2
:101BB0000000FFF8FFFFF6FE08ED00E000B59DB065
:101BC00001210802FFF776FE01200790002008900F
:101BD0000F20099000200A900B900C900D9015207A
:101BE0000090019005200290002003900490059041
:101BF000069006200E9000200F901090102011905B
:101C00000020129014901390159016904FF480506D
:101C10001790002018904FF48040199000201A90DF
:101C200007A81B90CDF870D00EA8FFF781F901210D
:101C30000620FFF763F91DB000BD000008B50121C3
:101C40004FF4B070FFF746FE4CF23370ADF8000071
:101C500018208DF8030003208DF802006946104813
:101C6000FFF7D9F94FF68070ADF8000018208DF815
:101C7000030003208DF8020069460A48FFF7CBF9FC
:101C800041F20100ADF8000018208DF80300032098
:101C90008DF8020069460448FFF7BDF908BD000051
:101CA00000140140001801400020014010B5FFF76A
:101CB000C5FFFFF783FF322000F092FE0020FFF700
:101CC00073FDFFF737FCC749888008468188C6A0A6
:101CD00000F0F6FA0020FFF767FD0020FFF764FD33
:101CE0000A2000F07DFE0020FFF75EFD0020FFF7D8
:101CF0005BFD0020FFF758FD0020FFF755FDA420F5
:101D0000FFF752FD0120FFF759FD0A2000F068FEA1
:101D10006020FFF749FD4FF41C50FFF74FFD0820EE
:101D2000FFF742FD40F60800FFF748FD4FF4407012
:101D3000FFF73AFD40F20910FFF740FD40F2013095
:101D4000FFF732FD47F60A60FFF738FD40F2023038
:101D5000FFF72AFD40F20470FFF730FD40F2033038
:101D6000FFF722FD40F61110FFF728FD4FF44170F8
:101D7000FFF71AFD4FF40450FFF720FD40F2053045
:101D8000FFF712FD41F20910FFF718FD40F206308F
:101D9000FFF70AFD47F20740FFF710FD40F207305A
:101DA000FFF702FD40F60E20FFF708FD4FF44270EA
:101DB000FFF7FAFC40F60110FFF700FD40F2093092
:101DC000FFF7F2FC2120FFF7F9FC1020FFF7ECFCF5
:101DD0001020FFF7F3FC1120FFF7E6FC40F2022091
:101DE000FFF7ECFC1220FFF7DFFC4FF44070FFF729
:101DF000E5FC1320FFF7D8FC0720FFF7DFFC0A20E3
:101E000000F0EEFD4FF48070FFF7CEFC0020FFF7EE
:101E1000D5FC40F20110FFF7C7FC0720FFF7CEFC0E
:101E20004FF48170FFF7C0FC0020FFF7C7FC40F2C1
:101E30000310FFF7B9FC0020FFF7C0FC4FF420703F
:101E4000FFF7B2FC0020FFF7B9FCC82000F0C8FD86
:101E50004FF48070FFF7A8FC4FF44C70FFF7AEFC16
:101E600040F20110FFF7A0FC40F24720FFF7A6FC6C
:101E7000322000F0B5FD4FF48170FFF795FC4DF274
:101E8000B010FFF79BFC322000F0AAFD40F20310D7
:101E9000FFF78AFC4FF48050FFF790FC4FF420705E
:101EA000FFF782FC4FF44640FFF788FCC82000F0A3
:101EB00097FD0120FFF778FC4FF48070FFF77EFC60
:101EC0000220FFF771FC4FF40070FFF777FC03204E
:101ED000FFF76AFC41F23000FFF770FC0920FFF7C2
:101EE00063FC0120FFF76AFC0A20FFF75DFC082075
:101EF000FFF764FC0C20FFF757FC0020FFF75EFCA7
:101F00000D20FFF751FC0020FFF758FC0E20FFF7D3
:101F10004BFC3020FFF752FC2020FFF745FC00204F
:101F2000FFF74CFC2120FFF73FFC0020FFF746FCA9
:101F30002920FFF739FC5220FFF740FC5020FFF723
:101F400033FC0020FFF73AFC5120FFF72DFCEF2077
:101F5000FFF734FC5220FFF727FC0020FFF72EFC90
:101F60005320FFF721FC40F23F10FFF727FC6120D0
:101F7000FFF71AFC0020FFF721FC6A20FFF714FC92
:101F80000020FFF71BFC8020FFF70EFC0020FFF76E
:101F900015FC8120FFF708FC0020FFF70FFC8220D2
:101FA000FFF702FC5F20FFF709FC9320FFF7FCFB23
:101FB00040F20750FFF702FC0720FFF7F5FB4FF454
:101FC0008070FFF7FBFB322000F00AFD2220FFF7B4
:101FD000EBFB0020FFF75EFA4FF6FF70FFF736FAD3
:101FE00010BD000018000020204C43442049443A12
:101FF00025780D0A0000000010B540F225510C486C
:1020000000F096F870B10A4800F04EF9C4B22146CB
:10201000074800F04EF900BF4021054800F07BF86A
:102020000128F9D14021024800F060F810BD0000FD
:102030000038014010B586B0044601210420FFF7A6
:1020400049FC01218803FFF745FC01210846FFF701
:1020500041FC4FF40070ADF8140003208DF8160019
:1020600018208DF8170005A91E48FEF7D4FF4FF47D
:102070008060ADF8140004208DF8170005A91948F8
:10208000FEF7C9FF01940020ADF80800ADF80A0082
:10209000ADF80C00ADF810000C20ADF80E0001A951
:1020A000114800F095F801210F4800F028F8402170
:1020B0000D4800F01BF8012240F225510A4800F0BB
:1020C00061F825208DF8000003208DF801008DF8BF
:1020D000020001208DF803006846FFF7A7FB06B059
:1020E00010BD0000000801400038014001F40072FA
:1020F000B2F5007F00D100BFCA430280704721B112
:10210000828942F40052828104E082894DF6FF7395
:102110001A408281704702460020B1F5007F00D14D
:1021200000BF13880B400BB1012000E00020704776
:1021300070B50246002400230025002040F66A16F0
:10214000B14200D100BFC1F3421501F01F030126C7
:1021500006FA03F3012D02D19689334006E0022DE1
:1021600002D1168A334001E0968A33400C120126D0
:1021700006FA04F41688344013B10CB1012000E0D3
:10218000002070BDF0B50346002400260025002085
:1021900040F66A17B94200D100BF1846C1F3421495
:1021A00001F01F06012707FA06F5012C01D10C30BA
:1021B00004E0022C01D1103000E014301AB107689D
:1021C0002F43076002E00768AF430760F0BD0000DF
:1021D0002DE9F04786B005460E460024A24600BF12
:1021E000A1460027B08900B100BF2F462C8A4CF6CB
:1021F000FF700440F08804432C82AC894EF6F31043
:102200000440B08831890843718908430443AC8194
:10221000AC8A4FF6FF400440B0890443AC8201A869
:10222000FFF768FB1F48874202D1DDF810A001E0EC
:10223000DDF80CA0A88900F4004040B10AEBCA0008
:1022400000EB0A1031684900B0FBF1F807E00AEB37
:10225000CA0000EB0A1031688900B0FBF1F8642075
:10226000B8FBF0F004012009642101FB1089A88962
:1022700000F4004040B1322000EBC900B0FBF1F0A7
:1022800000F00700044308E0322000EB091064214D
:10229000B0FBF1F000F00F0004432C8106B0BDE864
:1022A000F08700000038014001468888C0F308002C
:1022B0007047C1F308028280704700BFFEE700004C
:1022C0000FB4054B10B503A9044A029800F092F828
:1022D00010BC5DF814FB0000792A000828000020DB
:1022E000490050EAC12018BF04204A0D18BF40F031
:1022F000010040F2FF72B2EB515F08BF40F00200F4
:10230000012808BF052070472DE9F0414F1E00EB62
:10231000C7010446D1E9000115461E4637F0060202
:102320000DD02A463346FEF7EBF97F1E04EBC703B8
:10233000D3E90023FEF73DF937F00602F1D1022F71
:1023400025D0042F13D0062F18BFBDE8F0812A46F0
:102350003346FEF7D5F9D4E90A23FEF72AF92A46CF
:102360003346FEF7CDF9D4E90823FEF722F92A46D1
:102370003346FEF7C5F9D4E90623FEF71AF92A46D3
:102380003346FEF7BDF9D4E90423FEF712F92A46D5
:102390003346FEF7B5F9D4E90223FEF70AF92A46D7
:1023A0003346FEF7ADF9D4E90023BDE8F041FEF76E
:1023B00000B90122FEF716BA024A00201107FEF703
:1023C00011BA000001FDFFFF02E008C8121F08C19A
:1023D000002AFAD170477047002001E001C1121FA6
:1023E000002AFBD1704700000149086070470000D7
:1023F0002C0000202DE9FF4F8DB09B460F46044670
:10240000002606E025280BD05A460F999047641CF9
:10241000761C20780028F5D111B03046BDE8F08F49
:102420000025A8460122984900E0054314F8013F21
:10243000203B02FA03F00842F7D120782E2817D16A
:1024400014F8010F45F004052A280ED06FF02F0272
:102450002078A0F1300109290AD808EB880102EBA5
:10246000410100EB0108641CF2E757F8048B641C7F
:1024700020786C280DD004DC4C2812D06A2811D1A9
:1024800004E074280DD07A280CD10AE045F4001538
:1024900007E0617845F48015814202D1641C05F59E
:1024A0008015641C2278692A45D008DC002AB3D044
:1024B000582A69D0632A10D0642A08D13BE0702AD8
:1024C00067D0732A13D0752A5CD0782A5CD0104666
:1024D0005A460F999047761CD3E017F8040B8DF8F5
:1024E000000000208DF80100E946012003E057F8C4
:1024F000049B4FF0FF3069074FF0000501D40AE05C
:102500006D1C45450DDA8542FADB19F805100029E6
:10251000F6D106E06D1C8542FCDB19F80510002998
:10252000F8D12E4404E019F8010B5A460F99904750
:102530006D1EF8D2A5E00A200021CDE90801C5F3FF
:10254000025002280DD001CFC117031E71F1000304
:102550000DDA4FF0000CD0EB0C006CEB01012D23D9
:1025600008E0FF1D27F00707F7E80201EDE72B055C
:1025700004D52B238DF8283001233BE0EB0739D01D
:102580002023F7E70A2000E010200021CDE9080110
:1025900007E01020002145F00405CDE908014FF0C7
:1025A0000808C5F3025002280FD001CF00214FF0D8
:1025B000000A2B071FD5702A0DD0DDE908C38CF067
:1025C000100C5CEA030C0CD015E0FF1D27F0070788
:1025D000F7E80201EBE740228DF828204FF0010ACE
:1025E0000BE050EA010306D030238DF828308DF837
:1025F000292002239A46582A04D024A20DF120094A
:102600000B9209E026A2F9E7DDE90823FDF7FCFEBD
:102610000B9B9B5C09F8013D50EA0102F4D1ADEB44
:10262000090020300890680701D44FF0010808998C
:10263000884502DDA8EB010000E00020804600256F
:1026400006E00AA85A46405D0F9990476D1C761C1B
:102650005545F6DB04E030205A460F999047761C2A
:10266000B8F10001A8F10108F5DC05E019F8010B4B
:102670005A460F999047761C0899481E08900029E1
:10268000F4DC641CC5E60000092801003031323357
:10269000343536373839616263646566000000009E
:1026A0003031323334353637383941424344454688
:1026B000000000002DE9F84F04460D4621F00040CF
:1026C00000917349814211DC7249884201DC06D1D4
:1026D0002CB120462946BDE8F84FFFF76ABE6E4888
:1026E000002DCCBF6D496E49BDE8F88F6D49814220
:1026F00011DD6D498142D8BF4FF0FF366DDD2046B8
:102700002946FFF7EDFD042808BFFFF755FE2046D8
:102710002946BDE8F88F6549654F25F0004581429F
:1027200033DD6449814219DD002632464FF0804393
:1027300020462946FDF73DFF80468A460122204675
:102740002946FEF74FF800223B46FDF7D3FF4246ED
:102750005346FDF793FD04460D463EE00126002258
:10276000BA463B4620462946FDF723FF80460F46E2
:102770000022534620462946FDF7BCFF42463B4611
:10278000FDF77CFD04460D4627E04B4981421BDDE9
:10279000DFF828A102260022534620462946FDF7ED
:1027A000AFFF00223B46FDF704FF80460F460022A4
:1027B000534620462946FDF79DFF42463B46FDF71E
:1027C0005DFD04460D4608E0032622462B46002008
:1027D0003B49FDF753FD04460D4622462B46104665
:1027E0001946FDF78DFF8B46824602460B46FDF7E4
:1027F00087FF07460246334888460B460621784441
:10280000FFF782FD52465B46FDF77AFF82462E486F
:102810008B463A46434605217844FFF775FD3A4614
:102820004346FDF76DFF02460B46002E50465946C3
:102830000CDAFDF7BEFE22462B46FDF761FF01B024
:1028400022462B46BDE8F04FFDF757BFFDF7B1FE1E
:1028500022462B46FDF754FF1C4A7A4402EBC6037E
:10286000D3E90023FDF746FF22462B46FDF742FF42
:10287000174A7A4402EBC603D3E90023FDF73DFF74
:10288000009A002AB8BF81F00041BDE8F88F00002F
:10289000000010440000F07F182D4454FB21F93F44
:1028A000FB21F9BF0000DC3F0000203E0000F33FA9
:1028B0000000F03F0000E63F008003400000F83FCA
:1028C0000000F0BF7621000034210000D22000007B
:1028D0009A2000002DE9FE4F0A236A4601A902A8AA
:1028E000FEF71BFA0023BDF9082078213C20FEF7F3
:1028F0006DFA0023BDF904208C213C20FEF766FA16
:102900000023BDF90020A0213C20FEF75FFABDF9AD
:102910000000FDF722FD8046BDF90400FDF71DFD16
:102920008146BDF90800FDF718FD824601234246A5
:102930004946FEF76FF80446BDF90000FDF70DFDAE
:102940008046BDF90400FDF708FD8146BDF9080089
:10295000FDF703FD8246022342464946FEF75AF838
:102960000546BDF90000FDF7F8FC8046BDF90400FE
:10297000FDF7F3FC8146BDF90800FDF7EEFC824649
:10298000002342464946FEF745F806460123224603
:10299000B4213C20FEF71AFA01232A46C8213C2024
:1029A000FEF714FA01233246DC213C20FEF70EFA32
:1029B0000020FEF7FDFC0746012F0BD10020064941
:1029C00008606A4601A902A8FDF7A7FF0120034994
:1029D000C1F88401BDE8FE8F84012242000022423A
:1029E0000146114A12884A434FF0E0235A610022FF
:1029F0009A611A46126942F001021A6100BF4FF053
:102A0000E022106900F001021AB100F48032002ABD
:102A1000F5D04FF0E022126922F001024FF0E023DE
:102A20001A6100229A617047240000200146114A71
:102A300012784A434FF0E0235A6100229A611A4605
:102A4000126942F001021A6100BF4FF0E0221069E2
:102A500000F001021AB100F48032002AF5D04FF0E4
:102A6000E022126922F001024FF0E0231A610022F5
:102A70009A6170472200002070B504460D46E1B20D
:102A80000548FFF716FC00BF80210348FFF743FB12
:102A90000028F9D0204670BD003801401CB5002444
:102AA0004820FFF73DF84FF4A060FEF7F7FEFEF771
:102AB0009FFE4FF41650FFF7BDFAFFF7F7F8FEF749
:102AC00053FC00205749088057A01021CDE9001081
:102AD0005948438802880A210846FEF731FE57A06C
:102AE0001021CDE900105448438802881E210A2095
:102AF000FEF726FE55A01021CDE900104E48438870
:102B0000028832210A20FEF71BFE54A01021CDE9D5
:102B100000104948438802885A210A20FEF710FE17
:102B200053A01021CDE90010434843880288782142
:102B30000A20FEF705FE50A01021CDE900103E4806
:102B4000438802888C210A20FEF7FAFD4CA0102150
:102B5000CDE90010384843880288A0210A20FEF7FA
:102B6000EFFD49A01021CDE90010334843880288C9
:102B7000B4210A20FEF7E4FD45A01021CDE90010A4
:102B80002D4843880288C8210A20FEF7D9FD42A0BB
:102B90001021CDE90010284843880288DC210A2052
:102BA000FEF7CEFD4FF478401E49088010E03CA0AF
:102BB000FFF786FB3FA01021CDE900101E48438897
:102BC000028832218220FEF7BBFDC820FFF708FFF4
:102BD000FDF7DEFF0028EAD138A0FFF771FB3BA02C
:102BE0001021CDE900101448438802883221822048
:102BF000FEF7A6FD14E0601CC4B2142094FBF0F1B3
:102C000000FB114048B93348006808B9012000E0D2
:102C1000002030490860FFF75DFE0A20FFF7E0FE64
:102C2000E9E70000140000205052454348494E2077
:102C300053544D3332463100180000207777772EF9
:102C40007072656368696E2E6E6574004144584CFD
:102C50003334352054657374000000004B5F5550C9
:102C60003A4144584C3334352041646A75737400DA
:102C7000582056616C3A0000592056616C3A0000A9
:102C80005A2056616C3A00005820416E673A0000A5
:102C90005920416E673A00005A20416E673A0000A1
:102CA0004144584C333435204572726F72210D0AFD
:102CB000000000004572726F722020004144584CA1
:102CC000333435204F4B210D0A00000053756363E8
:102CD00065737300800122422DE9F04106460F46DC
:102CE000FDF797FD04000D4618BF0120284320F092
:102CF0000040C0F17F6000F1E040C00F0ED0301CFA
:102D000018BF0120384320F00040C0F17F6000F17F
:102D1000E040C00F04BF0120FFF766FB20462946B4
:102D2000BDE8F0810000000000000000000000008D
:102D3000000000003F4000000000000000003000E4
:102D4000400030004000000009000BC03D000BC0F7
:102D50003D00090018C024407FE02240318000007F
:102D6000180024C01B000D803240018003801C40ED
:102D700027401C8007400040100060000000000059
:102D8000000000000000000000001F8020404020E4
:102D90000000402020401F800000000009000600C5
:102DA0001F80060009000000040004003F800400AA
:102DB000040000000010006000000000000000009F
:102DC00004000400040004000400000000000040AF
:102DD0000000000000000000002001C006003800D4
:102DE000400000001F802040204020401F80000045
:102DF000000010403FC000400000000018C021400B
:102E000022402440184000001080204024402440EC
:102E10001B80000002000D0011003FC001400000B7
:102E20003C80244024402440238000001F80244014
:102E300024403440038000003000200027C03800C8
:102E4000200000001B802440244024401B80000000
:102E50001C0022C0224022401F8000000000000011
:102E600008400000000000000000000004600000B6
:102E700000000000000004000A0011002080404013
:102E80000900090009000900090000000000404095
:102E9000208011000A0004001800200023402400B4
:102EA000180000001F802040274029401F400000DC
:102EB000004007C039000F0001C0004020403FC063
:102EC000244024401B8000001F80204020402040E0
:102ED0003080000020403FC0204020401F80000084
:102EE00020403FC024402E4030C0000020403FC062
:102EF00024402E00300000000F00108020402240AF
:102F00003380020020403FC0040004003FC0204046
:102F1000204020403FC02040204000000060202092
:102F200020203FC02000200020403FC024400B0054
:102F300030C0204020403FC020400040004000C042
:102F40003FC03C0003C03C003FC0000020403FC0E9
:102F50000C4023003FC020001F8020402040204024
:102F60001F80000020403FC02440240018000000C3
:102F70001F802140214020E01FA0000020403FC0D2
:102F80002440260019C0004018C02440244022409C
:102F900031800000300020403FC020403000000061
:102FA00020003F80004000403F80200020003E0085
:102FB00001C0070038002000380007C03C0007C0EF
:102FC00038000000204039C0060039C02040000011
:102FD0002000384007C0384020000000304021C0A9
:102FE0002640384020C00000000000007FE0402064
:102FF00040200000000070000C0003800040000032
:103000000000402040207FE0000000000000200081
:103010004000200000000000001000100010001010
:103020000010001000000000400000000000000040
:10303000000002800540054003C0004020003FC062
:10304000044004400380000000000380044004406A
:103050000640000000000380044024403FC00040C0
:1030600000000380054005400340000000000440CC
:103070001FC0244024402000000002E005500550FD
:103080000650042020403FC00440040003C000401C
:103090000000044027C000400000000000100010A5
:1030A000041027E00000000020403FC0014007005E
:1030B00004C00440204020403FC0004000400000C9
:1030C00007C0040007C0040003C00000044007C09C
:1030D0000440040003C0004000000380044004409A
:1030E00003800000041007F0045004400380000037
:1030F000000003800440045007F00010044007C0A3
:1031000002400400040000000000064005400540A5
:1031100004C00000000004001F80044000400000C4
:10312000040007800040044007C00040040007007E
:1031300004C0018006000400060001C0070001C0B1
:1031400006000000044006C0010006C00440000064
:103150000410071004E00180060004000000044091
:1031600005C00640044000000000000004007BE0B1
:1031700040200000000000000000FFF00000000000
:10318000000040207BE004000000000040008000C0
:10319000400020002000400000000000000000006F
:1031A00000000000000000000000000000001FCC34
:1031B000000C00000000000000000800300060006B
:1031C0000800300060000000022003FC1E200220E6
:1031D00003FC1E200220000000000E1811043FFF17
:1031E00010840C78000000000F0010840F3800C01D
:1031F000077818840078000000780F8410C4112428
:103200000E9800E4008400080800680070000000C8
:10321000000000000000000000000000000007E0C7
:103220001818200440020000000040022004181872
:1032300007E00000000000000240024001800FF0A3
:1032400001800240024000000080008000800FF8F2
:1032500000800080008000000001000D000E0000D2
:1032600000000000000000000000008000800080DE
:1032700000800080008000800000000C000C000036
:1032800000000000000000000000000600180060C0
:103290000180060018002000000007F00808100454
:1032A0001004080807F000000000080408041FFCD0
:1032B000000400040000000000000E0C1014102494
:1032C000104411840E0C000000000C1810041104AE
:1032D000110412880C700000000000E00320042498
:1032E00008241FFC0024000000001F981084110413
:1032F0001104108810700000000007F00888110405
:10330000110418880070000000001C00100010FC60
:1033100013001C001000000000000E38114410843F
:10332000108411440E38000000000700088C10447F
:103330001044088807F00000000000000000030CA3
:10334000030C000000000000000000000001010666
:10335000000000000000000000000080014002208A
:10336000041008081004000002200220022002209D
:1033700002200220022000000000100408080410AF
:10338000022001400080000000000E001200100C1E
:10339000106C10800F00000003E00C1813E41424DC
:1033A00017C4082807D000000004003C03C41C40D8
:1033B000074000E4001C000410041FFC1104110469
:1033C00011040E880070000003E00C1810041004B3
:1033D000100410081C10000010041FFC100410043E
:1033E0001004080807F0000010041FFC1104110469
:1033F00017C410040818000010041FFC1104110069
:1034000017C010000800000003E00C18100410049E
:1034100010441C780040000010041FFC1084008041
:10342000008010841FFC10040000100410041FFC16
:10343000100410040000000000030001100110013E
:103440001FFE10001000000010041FFC1104038078
:103450001464181C1004000010041FFC1004000465
:1034600000040004000C000010041FFC1F0000FCFE
:103470001F001FFC1004000010041FFC0C040300BC
:1034800000E010181FFC100007F0080810041004DA
:103490001004080807F0000010041FFC10841080BE
:1034A000108010800F00000007F00818102410246E
:1034B000101C080A07F2000010041FFC1104110080
:1034C00011C011300E0C000400000E1C11041084F9
:1034D000108410441C3800001800100010041FFC59
:1034E000100410001800000010001FF81004000461
:1034F000000410041FF8100010001E0011E0001C52
:10350000007013801C0010001FC0103C00E01F0062
:1035100000E0103C1FC000001004180C163401C05D
:1035200001C01634180C100410001C00130400FC19
:1035300013041C00100000000804101C1064108408
:1035400013041C04101800000000000000007FFE9F
:103550004002400240020000000030000C000380E6
:103560000060001C00030000000040024002400216
:103570007FFE00000000000000000000200040006E
:103580004000400020000000000100010001000197
:103590000001000100010001000040004000200087
:1035A0000000000000000000000000980124014419
:1035B0000144014400FC000410001FFC00880104C9
:1035C0000104008800700000000000700088010401
:1035D000010401040088000000000070008801045C
:1035E000010411081FFC0004000000F8014401441C
:1035F0000144014400C800000000010401040FFC64
:103600001104110411001800000000D6012901293D
:10361000012901C90106000010041FFC00840100FB
:103620000100010400FC000400000104190419FC5D
:10363000000400040000000000000003000101017C
:10364000190119FE0000000010041FFC00240040B6
:1036500001B4010C010400000000100410041FFC60
:103660000004000400000000010401FC010401004A
:1036700001FC0104010000FC010401FC00840100C4
:103680000100010400FC0004000000F80104010432
:103690000104010400F80000010101FF008501049C
:1036A0000104008800700000000000700088010420
:1036B0000104010501FF00010104010401FC008473
:1036C0000104010001800000000000CC012401245D
:1036D000012401240198000000000100010007F806
:1036E0000104010400000000010001F800040004CE
:1036F0000004010801FC0004010001800170000CBD
:10370000001001600180010001F0010C003001C0D7
:103710000030010C01F0010000000104018C007474
:103720000170018C01040000010101810171000E92
:10373000001801600180010000000184010C0134C7
:1037400001440184010C00000000000000000000A2
:1037500001003EFC400240020000000000000000AA
:10376000FFFF0000000000000000400240023EFC9D
:1037700001000000000000000000600080008000E8
:103780004000400020002000000000000000000079
:103790000000000000000000000000000000000029
:1037A0000000000000000000000000000000000019
:1037B00000000000000000000000000F80380FFE35
:1037C000380F8038000000000000000000000000FA
:1037D0000000000000000100000600000C0000389E
:1037E00000003100000600000C000038000030002E
:1037F000000000000000000061800067F807F98009
:103800000061800061800061800061800067F807CE
:10381000F98000618000000000000000000001C08D
:10382000E003E0F00630080418081FFFFE040E084D
:103830000787F00381E000000000000001F00006AF
:103840000C00040408060C7001F9C0000E00003BD7
:10385000E000EC18070808040C180003E000000062
:103860000001E00007F003F818041C08041708071B
:10387000E1D003C0E00023B0003C080020080000B5
:1038800010000000000000010000310000320000C4
:103890001C0000000000000000000000000000000C
:1038A0000000000000000000000000000000000018
:1038B00000000000000000007F0001FFC00780F052
:1038C0000C0018100004200002000000000000207E
:1038D00000021000040C00180780F001FFC0007FF8
:1038E00000000000000000000000000000000000D8
:1038F000000000004200006600006600003C00007E
:10390000180003FFC0001800003C000066000066BD
:10391000000042000000000008000008000008004D
:1039200000080000080001FFC000080000080000B7
:10393000080000080000080000000000000100006E
:103940003100003200001C000000000000000000F8
:103950000000000000000000000000000000000067
:103960000800000800000800000800000800000827
:103970000000080000080000080000080000000027
:10398000000000000000000038000038000038008F
:103990000000000000000000000000000000000027
:1039A0000000000000000000000600001C00007085
:1039B000000180000E0000380000C0000700001C5D
:1039C0000000300000000000000000007F8001FFC8
:1039D000E0038070060018040008040008060018C0
:1039E00003807001FFE0007F800000000000000005
:1039F000000001000801000801000803FFF807FFAC
:103A0000F8000008000008000008000000000000A6
:103A100000000001C03802C05804009804011804D6
:103A20000218040418061C1803F81801E0F8000036
:103A30000000000000000001C0E003C0F004000826
:103A400004080804080806180803F41801E7F00041
:103A500001E0000000000000000000000300000D75
:103A60000000110000610000810803010807FFF851
:103A70000FFFF8000108000108000000000000002E
:103A800000E007FCD006080806100806100806101B
:103A900008061838060FF00607C0000000000000F6
:103AA000000000003F8001FFE0038430020818049A
:103AB0001008041008041008071810030FF000077E
:103AC000C000000000000000000003C0000700006C
:103AD0000600000600F80607F806180006E00007D2
:103AE000000006000000000000000001E1E003F714
:103AF000F0063410041808041808040C08040C0814
:103B000006161803F3F001C1E000000000000000F9
:103B1000F80003FC3003063804020804020804021B
:103B2000080404100308F001FFC0007F000000003B
:103B30000000000000000000000000000000000085
:103B4000703800703800703800000000000000007D
:103B50000000000000000000000000000000000065
:103B600000000000301A00301C00000000000000BF
:103B7000000000000000000000000000000000083D
:103B8000000014000022000041000080800100407D
:103B900002002004001008000800000000000000DF
:103BA000210000210000210000210000210000214F
:103BB0000000210000210000210000210000000081
:103BC00000000000000008000804001002002001AE
:103BD0000040008080004100002200001400000826
:103BE0000000000000000003C00004C0000400004A
:103BF000080038080F380808380810000C30000793
:103C0000E00003C000000000000000003F8000FF53
:103C1000E0038070020F1006708804C088048308D7
:103C2000047F8802C09003012000FE4000000800CD
:103C300000180001F8003E0801C20007020007E278
:103C40000000FE00001FC80001F800003800000856
:103C500004000807FFF807FFF80408080408080430
:103C6000080804080806180803F41801E7F0000122
:103C7000E0000000000000003F8001FFE0038070D2
:103C800002001804000804000804000804001006DC
:103C900000200780C000000004000807FFF807FFAD
:103CA000F8040008040008040008040018020010CA
:103CB00003807001FFE0007F80000000040008071F
:103CC000FFF807FFF80408080408080408080408B7
:103CD00008043E0804000806001801006000000007
:103CE00004000807FFF807FFF804080804080004A8
:103CF0000800040800043E000600000600000180E1
:103D000000000000000000003F8001FFE003807021
:103D10000600180400080402080402080203F00761
:103D200083F000020000020004000807FFF807FF0C
:103D3000F804080800080000080000080000080057
:103D400004080807FFF807FFF80400080000000057
:103D5000000004000804000804000807FFF807FF3B
:103D6000F804000804000804000800000000000037
:103D7000000000000006000007000001040001042C
:103D8000000104000307FFFE07FFFC04000004001D
:103D90000004000004000807FFF807FFF8040C08FF
:103DA000001800003E0004C7800503C80600F804A0
:103DB000003804001800000804000807FFF807FF97
:103DC000F8040008000008000008000008000008CF
:103DD0000000080000180000600000000400080750
:103DE000FFF807800807FC00007FC00003F8000709
:103DF000C000780007800807FFF807FFF8040008F4
:103E000004000807FFF807000803C00000E00000F6
:103E10003800001E000007000001C00400F007FF8A
:103E2000F8040000000000007F8001FFE0038070C4
:103E300006001804000804000806001803003001FA
:103E4000FFE0007F8000000004000807FFF807FF84
:103E5000F80404080404000404000404000404003A
:103E6000060C0003F80001F0000000000000000054
:103E70007F8001FFE0038070060088040088040052
:103E8000C806003C03003E01FFE6007F84000000FE
:103E900004000807FFF807FFF804080804080004F6
:103EA0000C00040F00040BC00610F003F03801E012
:103EB0000800000800000001E0F803F030063010B0
:103EC000041808041808040C08040C080206180258
:103ED00007F00781E00000000180000600000400F8
:103EE0000004000004000807FFF807FFF8040008BA
:103EF0000400000400000600000180000400000728
:103F0000FFE007FFF00400180000080000080000B0
:103F10000800000800000804001007FFE00400008B
:103F200004000006000007E00007FE00041FE00098
:103F300001F80000380001E0043E0007C000060060
:103F40000004000004000007E00007FFC0041FF8A1
:103F50000007C007F80007FF80043FF80007C0040F
:103F6000F80007000004000000000004000806003C
:103F70001807C07805F1C8003E00001F800463E800
:103F80000780F8060018040008000000040000067E
:103F9000000007800007E008047C08001FF8000705
:103FA000F800180804E008070000060000040000FC
:103FB0000000000100080600380400F80403E804CB
:103FC0000F08047C0805F00807C008070018040063
:103FD0006000000000000000000000000000000081
:103FE0000000003FFFFE200002200002200002200F
:103FF0000002200002000000000000000000080095
:104000000007000000C0000038000006000001C0EA
:1040100000003000000E0000010000000000000061
:1040200000002000022000022000022000022000E8
:10403000023FFFFE00000000000000000000000042
:104040000000000000000000000800001000003028
:1040500000002000003000001000000800000000F8
:10406000000000000000010000010000010000014C
:10407000000001000001000001000001000001003B
:10408000000100000100000100000000000000002D
:1040900000200000200000100000100000000000C0
:1040A0000000000000000000000000000000000010
:1040B00000F00019F8001B18002208002608002450
:1040C00008002410003FF8001FF800000800001846
:1040D00000000004000007FFF80FFFF000181800B0
:1040E0001008002008002008003018001FF0000F02
:1040F000C00000000000000007C0001FF0001830E2
:10410000002008002008002008003C08001C1000C7
:1041100000600000000000000000000007C0001F59
:10412000F0003818002008002008002008041010B3
:1041300007FFF80FFFF00000100000000000000073
:1041400000000007C0001FF00012300022180022FB
:1041500008002208003208001E10000E2000000097
:1041600000000000200000200800200801FFF803E4
:10417000FFF8062008042008042008072000030098
:104180000000000000000000000E000E6E001FF393
:104190000031B10020B10020B1003191001F1300A7
:1041A0002E1E00200E00300000000004000807FF53
:1041B000F80FFFF800100800200000200000200881
:1041C000003FF8001FF80000080000000000000099
:1041D0000000002008002008002008063FF8063FE5
:1041E000F8000008000008000008000000000000BF
:1041F0000000000000000000030000030020010098
:104200002001002003063FFE063FFC0000000000E6
:104210000000000000000004000807FFF80FFFF88E
:10422000000188000300002FC00038F8002038008B
:10423000200800000800000000000000000004004A
:104240000804000804000807FFF80FFFF800000842
:104250000000080000080000000000000020080026
:104260003FF8003FF8001008002000003FF8003F32
:10427000F8001008002000003FF8003FF800000898
:10428000000000002008003FF8003FF80010080080
:104290001000002000002008003FF8001FF8000078
:1042A000080000000000000007C0000FF0001830F8
:1042B00000300800200800200800300800183000F6
:1042C0000FF00007C0000000000000002001003FC8
:1042D000FF003FFF00101100200900200800200807
:1042E000003038001FF0000FC00000000000000088
:1042F00007C0001FF0003818002008002008002028
:1043000009001011001FFF003FFF00000100000026
:10431000002008002008002008003FF8003FF800B7
:1043200008080010080020080020000030000030BD
:1043300000000000000000000000000C78001E18C3
:10434000003308002308002108002188002198007C
:1043500030F0003860000000000000002000002065
:104360000000200000FFF003FFF8002008002008F4
:1043700000200800003000000000000000000000E5
:104380002000003FF0007FF8000018000008000047
:1043900008002010003FF8007FF00000100000002F
:1043A000000000002000003000003C00003F8000C2
:1043B00023F0000078000070002380003C000030F3
:1043C00000002000002000003C00003FE00023F837
:1043D0000000E0002700003E00003FE00021F80060
:1043E00001E0003E00002000000000002008002046
:1043F00008003838003E680027800003C8002CF809
:1044000000383800201800200800000000000000DC
:104410002000003003003C01003F830023EC00003B
:1044200070002380003C00002000002000000000FD
:104430000000000000000038080020380020F800CC
:1044400023E8002F88003E080038080020180000EC
:1044500070000000000000000000000000000000EC
:104460000000000008000014001FF7FC30000620C8
:10447000000200000000000000000000000000003A
:1044800000000000000000000000FFFFFF0000002F
:10449000000000000000000000000000000000001C
:1044A00000002000023000061FF7FC001400000886
:1044B00000000000000000000000000000000000FC
:1044C00000000018000060000040000040000020D4
:1044D00000001000000800000400000400000C00B0
:1044E00000100000C6D50000000000E03800007891
:1044F0003C00003C7800003C70C0001CE1E01FFF65
:10450000FFF0001CE3000E1CE7C0079CE78003DC03
:10451000EF0003DCEE0001DCFC60009CF9F07FFFA3
:10452000FFF80000000001C00E0001FFFF0001C005
:104530000E0001C00E0001C00E0001FFFE0001C010
:104540000E0001C00E0001C00E0001FFFE0001C000
:104550000E0001C00E0000000000D6D000000000D8
:1045600000070000000780000007000000070000AF
:1045700000070000000701801FFFFFE01FFFFFE0B2
:104580001E0701C01E0701C01E0701C01E0701C093
:104590001E0701C01E0701C01FFFFFC01FFFFFC095
:1045A0001E0701C01C070180000700000007000073
:1045B00000070000000700000007000000070000DF
:1045C00000070000000700000007000000000000D6
:1045D000BFC60000000000000780003C07C001FCCF
:1045E00007803FE0078039C1C78001C0E78001C074
:1045F000F78001C0778001DE77807FFE078001C0F1
:10460000078003C3C78003E1E78003F8F78007FC56
:10461000E7F00FDE67F80FDC07F81FC0FF801DDF33
:10462000E78039CC078071C0078061C0078001C076
:10463000078001C0078001E0078001E0078001C01A
:10464000070000000000BCBC000000000380300038
:1046500003C03C0003C03C0003C0380003C0380066
:1046600003C0386003F838F07FFFFFF003C0380064
:1046700003C0380003C0380003DC39C003FFFFE08B
:1046800007E383C03FC183C07FC1C3803BC1C780F4
:1046900003C0EF0003C0EF0003C07E0003C07C0036
:1046A00003C07C0003C0FE003BC3EF803F8787F858
:1046B0000FBF03F8077800E000000000C4EA000024
:1046C000000000C0000001F0000001E0000003C095
:1046D00000C003C001E007FFFFF00703C0000E03A6
:1046E000C0001E03C0003C03C3007303C78063FF08
:1046F000FFC00383C0000383C0000383C0000383A3
:10470000C0000383C0600383C0F07FFFFFF8000395
:10471000C0000003C0000003C0000003C00000038D
:10472000C0000003C0000003C0000003C000000080
:104730000000D4C2000000000000000000E00700FC
:1047400000FFFF8000F0078000F0070000F0070086
:1047500000F0070000F0070000FFFF0000FFFF006F
:1047600000F0070000F0070000F0070000F007006D
:1047700000E0070000FFFF0000E0070000E0070086
:1047800000E0070001E0070001C0070001C00700CA
:10479000038007000780F7000F007F001E001F0046
:1047A00038001C0000000000C8D500000000000018
:1047B00000000300030003FFFF8003FFFF8003806E
:1047C00007000380070003800700038007000380C1
:1047D000070003800700038007000380070003FF32
:1047E000FF000380070003800700038007000380A9
:1047F0000700038007000380070003800700038091
:1048000007000380070003FFFF0003800700038009
:104810000700038007000300000000000000D0C76D
:1048200000000000000000000380070003FFFF807D
:1048300003800700038007000380070003FFFF00D9
:10484000038007000380070003FFFF0003FFFF0052
:10485000038707000387C00003C7810003C7838065
:1048600007FFFFC0070780000F0780001E078600B4
:104870001C078F003BFFFF8070078000000780004F
:10488000000780E0000781F07FFFFFF800000000D4
:1048900000000000C6DA0000000006000000079ECD
:1048A0000000079E7FF0079E7FF0079FF8F03FFF14
:1048B000F8F01F9E78F0079E78F0079E78F007FECC
:1048C0007FF0079E78F0079E78F0079E70F007FE55
:1048D00070F0079E70F0079E7FF0079FFFF03FFF8C
:1048E000F0F0119070F003DCF0F003DEE0F0078FE1
:1048F000E0F00F0FE0F00E07C0F01C038FF0380F50
:1049000003E0201C01C000000000000000000000C7
:104910004FBB610567ACDD3F182D4454FB21E93FD7
:104920009BF681D20B73EF3F182D4454FB21F93FC6
:10493000E2652F227F2B7A3C075C143326A6813C4C
:10494000BDCBF07A8807703C075C143326A6913CF7
:10495000C4EB98999999C9BF711623FEC671BCBF63
:104960006D9A74AFF2B0B3BF9AFDDE522DDEADBFCB
:104970002F6C6A2C44B4A2BF0D5555555555D53FE3
:10498000FF8300922449C23F6E204CC5CD45B73FFE
:10499000513DD0A0660DB13FEB0D76244B7BA93F76
:1049A00011DA22E33AAD903FC84900080000002028
:1049B00030000000C8230008F8490008300000203B
:1049C00000040000D82300080000000001020304D6
:1049D0000102030406070809020406080000FFFF9D
:1049E00000000000000000000100000000000000C6
:0849F0000000000000000000BF
:0400000508000131BD
:00000001FF
