:020000040800F2
:10000000300400209D010008550E0008C5090008B5
:10001000510E000887020008CB18000800000000FD
:100020000000000000000000000000003110000887
:10003000F904000800000000E50E0008491100085E
:10004000B7010008B7010008B7010008B7010008B0
:10005000B7010008B7010008B7010008B7010008A0
:10006000B7010008B7010008B7010008B701000890
:10007000B7010008B7010008B7010008B701000880
:10008000B7010008B7010008B7010008B701000870
:10009000B7010008B7010008B7010008B701000860
:1000A000B7010008B7010008B7010008B701000850
:1000B000B7010008B7010008B7010008B701000840
:1000C000B7010008B7010008B7010008B701000830
:1000D000B701000811160008B7010008B7010008B1
:1000E000B7010008B7010008B7010008B701000810
:1000F000B7010008B7010008B7010008B701000800
:10010000B7010008B7010008B7010008B7010008EF
:10011000B7010008B7010008B7010008B7010008DF
:10012000B7010008B7010008B7010008B7010008CF
:10013000B7010008B7010008B7010008B7010008BF
:10014000B7010008B7010008B7010008B7010008AF
:10015000B7010008B7010008B7010008B70100089F
:10016000B7010008B7010008B7010008B70100088F
:10017000B7010008B7010008B7010008B70100087F
:10018000B7010008B7010008DFF80CD000F04AF80A
:1001900000480047011E0008300400200648804740
:1001A00006480047FEE7FEE7FEE7FEE7FEE7FEE75C
:1001B000FEE7FEE7FEE7FEE7891100088901000877
:1001C0002DE9F05F0546002092469B46884606468C
:1001D000814640241BE0284641464746224600F01F
:1001E00042F853465A46C01A914110D31146184658
:1001F000224600F029F82D1A67EB01084F462246E7
:100200000120002100F020F817EB00094E41201ECC
:10021000A4F10104DFDC484631462A464346BDE8E6
:10022000F09F0000064C074D06E0E06840F0010337
:1002300094E8070098471034AC42F6D3FFF7A8FFC4
:10024000583B0008783B0008202A04DB203A00FADB
:1002500002F1002070479140C2F1200320FA03F31D
:10026000194390407047202A04DB203A21FA02F01B
:100270000021704721FA02F3D040C2F120029140E0
:1002800008431946704700BFFEE710B5052001F08E
:10029000E1FC10BD10B500200A49086000F016F915
:1002A000FFF7F3FF00200849C1F8AC02FFF7EDFFAC
:1002B000012004490860FFF7E8FF00200349C1F866
:1002C000800210BD80824042008042420080404255
:1002D0001CB50121222000F007FE012000908DF8BE
:1002E000040000208DF8060001208DF80700694603
:1002F000064800F0FAFA4FF40060009001208DF8F3
:1003000004006946024800F0F0FA1CBD00040240F7
:100310000014024010B500200A49086000F0D6F829
:10032000FFF7B3FF01200849C1F8AC02FFF7ADFFAA
:10033000012004490860FFF7A8FF00200349C1F825
:10034000800210BD808240420080424200804042D4
:1003500070B50546002400F0A7F81E2001F07AFCD5
:10036000002611E000200D490860FFF78EFF0120F4
:100370000B49C1F880026006040E0A48006808B103
:10038000601CC4B2701CC6B2082EEBDB15B9FFF7B7
:10039000C1FF01E0FFF77EFF204670BD8082404232
:1003A000008040422C82424270B5044600F08EF834
:1003B00000200D490860FFF768FF002511E0E00903
:1003C0000A4908606006040E01200949C1F880024C
:1003D000FFF75BFF002004490860FFF756FF681C29
:1003E000C5B2082DEBDB70BD80824042AC82424238
:1003F0000080404210B500F069F80120084908600B
:100400000849C1F880021E2001F024FC00200449A4
:100410000860FFF73AFF00200249C1F8800210BDD2
:10042000AC8242420080404210B500F04FF80120FB
:10043000074908601E2001F00DFC00200549C1F8A5
:10044000AC02FFF722FF01200349086010BD000045
:100450008082404200804242AC82424210B5002479
:1004600000F022F801200D4908600D49C1F8800212
:10047000FFF70BFF09E0601CC4B2FA2C03DDFFF7A5
:10048000D3FF012010BDFFF700FF0448803800684B
:100490000028F0D10349086000BFF3E7AC82424274
:1004A00000804042808240421CB500208DF804004C
:1004B0004FF40060009001208DF807006946024863
:1004C00000F013FA1CBD0000001402401CB501200E
:1004D0008DF80400C002009003208DF80500002074
:1004E0008DF8060001208DF807006946014800F0EC
:1004F000FCF91CBD001402407047000051B182009D
:10050000A2F1C042126842F001038200A2F1C0428F
:10051000136009E08200A2F1C0421268034B1A4046
:100520008300A3F1C0431A6070470000FEFF0F0074
:1005300030B50021002200230468A400A4F1C044C7
:100540002168444C2140D0E901452C43C5682C4327
:1005500005692C4345692C4385692C43C5692C43A7
:10056000056A2C43456A2C43856A2C43C56A2C4393
:10057000056B2C4321430468A400A4F1C04421600E
:100580008468082C0BD10468A400A4F1C04424683A
:1005900044F040050468A400A4F1C0442560046848
:1005A000641CA400A4F1C044226802F04042446BE1
:1005B0002468456B6D6844EA0514456BAD6844EAF0
:1005C0000524456BAD8944EA0544456B2D8A44EA10
:1005D0000554456B2D7D44EA0564456BAD692C439C
:1005E00022430468641CA400A4F1C0442260C46ACD
:1005F000B4F5804F24D10468A400A4F1C044D4F819
:10060000043103F04043846B2468856B6D6844EAD1
:100610000514856BAD6844EA0524856B2D8A44EA90
:100620000554856B2D7D44EA0564856BAD692C43CB
:1006300023430468A400A4F1C044C4F8043107E0D3
:100640006FF070450468A400A4F1C044C4F80451DC
:1006500030BD00008000F7FF0EB50121062000F03C
:1006600043FC0220009000208DF804008DF8060065
:1006700003208DF8050001208DF807006946294800
:1006800000F033F94FF40050009001208DF8040081
:100690006946254800F029F9FFF71AFE0020234992
:1006A0000860142001F094FA01202149C1F8B40235
:1006B000322001F08DFA00208DF80800012202A9F5
:1006C00000F0EAF8012202A9A42000F0E5F81620C3
:1006D0008DF80800012202A9802000F0DDF80C202E
:1006E0008DF80800012202A9882000F0D5F8022226
:1006F00002A9A12000F024F89DF8080030280ED1AE
:100700009DF8090003280AD19DF809009DF80820EA
:1007100000EB022107A001F0DBF800200EBD012054
:10072000FCE700000004024000080240B40241421D
:10073000000041424354502049443A25780D0A00B4
:100740002DE9F04106460F461546FFF753FE70208F
:10075000FFF72AFEFFF782FEF0B2FFF725FEFFF754
:100760007DFEFFF747FE7120FFF71EFEFFF776FEC6
:1007700000240BE0691EA14201D0012100E000210C
:100780000846FFF7E5FD3855601CC4B2AC42F1DB0A
:10079000FFF74AFEBDE8F081F1B582B000240127E1
:1007A000012202A90220FFF7CBFF9DF8080000F00C
:1007B0000F0000285DD09DF8080000F00F0006280B
:1007C00057DA9DF8080000F00F01FF208840C5B2FD
:1007D000E843C6B200BF41E00120A040304010B362
:1007E0002A4931F81400042201A9FFF7A9FF28487B
:1007F0008079012818D19DF805009DF8041001F0BA
:100800000F0100EB0120C0F5A0702249C8809DF8BF
:1008100007009DF8061001F00F0100EB0120C0F564
:10082000F0701C49888017E09DF807009DF80610BD
:1008300001F00F0100EB0120C0F5F0701549C880F0
:100840009DF805009DF8041001F00F0100EB012058
:10085000C0F5A0700F498880601CC4B2022CBBDBBD
:1008600000270C48808820B90A48C08808B90020B1
:1008700002909DF8080000F01F0028B900264FF6EE
:10088000FF7004498880C8803846FEBD4E3B000892
:1008900018000020220000202DE9F04105460E46F8
:1008A00017464FF00008FFF7A5FD7020FFF77CFD0D
:1008B000FFF7D4FDE8B2FFF777FDFFF7CFFD002487
:1008C0000BE0305DFFF770FDFFF7C8FD8046B8F123
:1008D000000F00D003E0601CC4B2BC42F1DB00BFDB
:1008E000FFF7A2FD4046BDE8F081F0B50A460021C1
:1008F0000023002400BF3DE0012505FA01F315683F
:1009000005EA03049C4234D105684F000326BE402B
:10091000B543056015794E00B5400668354305605E
:100920001579012D02D01579022D16D185684F0059
:100930000326BE40B543856055794E00B5408668B4
:1009400035438560456801268E40B543456045685E
:1009500096798E40B6B235434560C5684F00032690
:10096000BE40B543C560D5794E00B540C668354335
:10097000C560491C1029BFD3F0BDF0B50023002489
:100980004D07ED0E02FA05F3CE1000F1200555F8E3
:1009900026504E07F70E0F26BE40B543CF1000F18C
:1009A000200646F82750CE1000F1200555F82650B5
:1009B00045EA0304CE1000F1200545F82640F0BDBD
:1009C0000183704700BFFEE71CB50121112000F034
:1009D0008BFA00208DF804001C20009001208DF877
:1009E000070069460748FFF780FF00208DF80400E4
:1009F0000120009002208DF8070069460248FFF7A9
:100A000074FF1CBD001002400000024010B50446F7
:100A100022480078012826D12148006801280AD000
:100A20002048006838B11F48001D006818B11D48F3
:100A3000001F0068B8B90A2001F0CAF80020174961
:100A4000087017480068012800D110BD15480068DB
:100A500008B90220F9E71348001D006808B903200F
:100A6000F3E70420F1E70E48006878B90D48006804
:100A700001280BD10B48001D0068012806D1094848
:100A8000001F0068012801D104490870012C02D11F
:100A90000120024908700020D7E700002000002054
:100AA000000240420C02424270B506460F484088A0
:100AB000401E83B20D480088401E82B200210846C5
:100AC00000F078F800240CE0002504E0304600F047
:100AD00099F9681C85B205484088A842F6DC601C7C
:100AE00084B202480088A042EEDC70BD18000020ED
:100AF00000B502467AB9362000F078F9482000F0B7
:100B00007BF94FF4F0700C4948804FF4A0700880D6
:100B1000002088710EE0362000F068F9382000F0DF
:100B20006BF94FF4A070044948804FF4F0700880CE
:100B30000120887100BD00001800002070B5044637
:100B40000D4616462B4622462946204600F032F82E
:100B5000304600F057F970BD2DE9F04304460D46CC
:100B600016461F46DDF81C80B44201DCBD4201DDA3
:100B7000BDE8F0833B4632462946204600F01AF88D
:100B8000301B401C84B2781B401C85B20BE0A94688
:100B900002E0404600F036F95FEA0900A9F10101E0
:100BA0001FFA81F9F5D12000A4F101018CB2EED138
:100BB00000BFDDE770B504460D462A2000F016F9A7
:100BC0002646E11704EB1161C1F30F2000F014F980
:100BD000E11704EB11610912A4EB012188B200F0C6
:100BE0000BF91646D11702EB1161C1F30F2000F08B
:100BF00003F91646D11702EB11610912A2EB01218C
:100C000088B200F0F9F82B2000F0F0F82E46E91732
:100C100005EB1161C1F30F2000F0EEF8E91705EBC9
:100C200011610912A5EB012188B200F0E5F81E461A
:100C3000D91703EB1161C1F30F2000F0DDF81E4658
:100C4000D91703EB11610912A3EB012188B200F05F
:100C5000D3F82C2000F0CAF870BD00002DE9F84F41
:100C600080460E4617461C46B3462046E31704EB63
:100C70005373DB1021464FEAE47C04EB5C7C4FEAC3
:100C8000EC0CA4EBCC0CBCF1000F02D04FF0010C2B
:100C900001E04FF0000C6344224604EBD27C4FEAA3
:100CA0006C0C03FB0CF3DBB20093A7F12000C7B27E
:100CB000002556E00C2C07D107EB47002B4901EB30
:100CC000800010F8059013E0102C05D1284800EBA7
:100CD000071010F805900BE0182C07D107EBC700A0
:100CE000244901EB800010F8059001E0BDE8F88F81
:100CF0004FF0000A2FE009F0800030B11E48028852
:100D000031464046FFF71AFF07E00A9828B91B480A
:100D1000028831464046FFF711FF4FEA49604FEA2B
:100D20001069701C86B216484088B04200DCDDE7CE
:100D3000A6EB0B00A0420AD15E4608F101001FFAA3
:100D400080F80F480088404500DCCFE706E00AF154
:100D5000010000F0FF0ABAF1080FCCDB00BF681CED
:100D6000C5B200988542A5DB00BFBFE7681F000839
:100D7000DC230008CC290008140000201600002005
:100D8000180000202DE9F84704460D469046994684
:100D9000DDE9096704F0FF0A08EB04001FFA80F898
:100DA00009EB05001FFA80F916E0444502DB5446C2
:100DB000A81985B24D4500DB14E0002000903A7878
:100DC000334629462046FFF749FF304606EBD071EF
:100DD00004EB61018CB27F1C38787E2802DC387805
:100DE0002028E2DA00BFBDE8F8870000014908804A
:100DF000704700007E00006C0149088070470000C9
:100E00008000006C01490880704700008000006C81
:100E10001CB50121202000F067F801208DF80400A6
:100E20004FF4C060009003208DF8050000208DF87D
:100E3000060001208DF8070069460448FFF755FDBC
:100E40004FF4C0610148FFF7BBFD1CBD0014024018
:100E500000BFFEE77047000070B5002100230F229D
:100E6000C4781CB3174C246804F4E064C4F5E0644F
:100E7000C4F30721C1F10404E3B20A4144789C4061
:100E8000E1B28478144021430C07210E0E4C057802
:100E90006155047804F01F050124AC4005786D11FC
:100EA000AD0005F1E025C5F8004109E0047804F043
:100EB0001F050124AC40054D0678761145F8264003
:100EC00070BD00000CED00E000E400E080E100E017
:100ED00002490143024A1160704700000000FA0510
:100EE0000CED00E07047000029B1064A1268024389
:100EF000044B1A6004E0034A12688243014B1A60F3
:100F0000704700003038024029B1064A1268024397
:100F1000044B1A6004E0034A12688243014B1A60D2
:100F2000704700003838024029B1064A126802436F
:100F3000044B1A6004E0034A12688243014B1A60B2
:100F40007047000044380240F0B500210022002420
:100F5000022500260223324F3F6807F00C0121B121
:100F6000042905D0082937D105E02E4F076036E067
:100F70002D4F076033E02A4F3F1F3F68C7F380566D
:100F8000274F3F1F3F6807F03F036EB1264FB7FB67
:100F9000F3F7DFF88CC0ACF1040CDCF800C0CCF344
:100FA000881C07FB0CF40CE01E4FB7FBF3F7DFF8CF
:100FB00070C0ACF1040CDCF800C0CCF3881C07FB5B
:100FC0000CF4174F3F1F3F68C7F301477F1C7D009C
:100FD000B4FBF5F7076002E0124F076000BF00BFE7
:100FE0000F4F3F6807F0F0010909104F7A5C07685E
:100FF000D74047600A4F3F6807F4E051890A0B4F1A
:101000007A5C4768D7408760054F3F6807F46041C6
:10101000490B064F7A5C4768D740C760F0BD0000B7
:10102000083802400024F40000127A00000000207A
:10103000704700000CB50020019000903448006813
:1010400040F480303249086000BF3148006800F445
:10105000003000900198401C0190009818B9019848
:10106000B0F5A04FF1D12A48006800F4003010B16B
:101070000120009001E0002000900098012846D156
:1010800023484030006840F08050214940310860DA
:101090002048006840F440401E4908601C48083061
:1010A00000681B49083108600846006840F40040A9
:1010B00008600846006840F4A05008601648091F00
:1010C0000860081F006840F08070091F086000BFBA
:1010D0000F48006800F000700028F9D040F2057059
:1010E0000E4908600A480830006820F003000849EB
:1010F000083108600846006840F00200086000BF40
:1011000003480830006800F00C000828F8D10CBD36
:10111000003802400070004008544007003C024084
:10112000042808D14FF0E021096941F004014FF093
:10113000E022116107E04FF0E021096921F004018C
:101140004FF0E022116170477047000010B504466F
:101150006FF00400FFF7E4FFE11704EB5171C1F3F6
:10116000C701074A11701046007800EB4001C1EB3F
:10117000C0104FF6FF7101EAC0000249088010BD9F
:10118000100000201200002010B51548006840F43F
:101190007000134908601348006840F001001149CD
:1011A000086000200F49083108600E4800680E49A9
:1011B00008400C4908600D48091D0860081F0068B8
:1011C00020F48020091F0860002006490C310860C7
:1011D000FFF730FF4FF0006001498039086010BD13
:1011E00088ED00E000380240FFFFF6FE10300024DA
:1011F00000B59DB001210846FFF786FE012007904B
:10120000002008900F20099000200A900B900C906D
:101210000D90102000900190182002900020039063
:1012200004900590069006200E9000200F901090DC
:101230001020119000201290149013901590169089
:101240004FF480501790002018904FF48040199070
:1012500000201A9007A81B90CDF870D00EA8FFF7B9
:1012600067F901210620FFF749F91DB000BD000014
:101270001CB501217820FFF737FE0C220E215748BC
:10128000FFF77BFB0C220F215448FFF776FB0C2263
:1012900000215248FFF771FB0C2201214F48FFF754
:1012A0006CFB0C2207214E48FFF767FB0C2208213C
:1012B0004B48FFF762FB0C2209214948FFF75DFB11
:1012C0000C220A214648FFF758FB0C220B21444808
:1012D000FFF753FB0C2211464148FFF74EFB0C224F
:1012E0000D213F48FFF749FB0C220E213C48FFF738
:1012F00044FB0C220F213A48FFF73FFB0C22082148
:101300003648FFF73AFB0C2209213448FFF735FB3A
:101310000C220A213148FFF730FB0C2204212F4810
:10132000FFF72BFB0C2205212C48FFF726FB0C2294
:1013300011462C48FFF721FB0C2211462A48FFF7E3
:101340001CFB4CF23370009002208DF8040000204A
:101350008DF8060003208DF8050001208DF80700A8
:1013600069461E48FFF7C1FA4FF6807000900220D0
:101370008DF8040000208DF8060003208DF805008C
:1013800001208DF8070069461548FFF7AEFA4FF4C3
:101390008050009002208DF8040000208DF8060097
:1013A00003208DF8050001208DF8070069460D48DF
:1013B000FFF79BFA4FF48050009002208DF8040054
:1013C00000208DF8060003208DF8050001208DF81F
:1013D000070069460448FFF788FA1CBD000C02406C
:1013E00000100240001402400018024010B5FFF740
:1013F0003FFFFFF7FDFE322000F0EAFBD320FFF7AE
:10140000F5FC78480088784988807648008888808C
:10141000744800888880084680884FF6FF7101EA8A
:10142000002071498880084680884FF0D841B1F883
:10143000801008436C498880084681886BA000F0C2
:1014400047FAE020FFF7D2FC0020FFF7D5FC072089
:10145000FFF7D2FC0F20FFF7CFFC0D20FFF7CCFCED
:101460001B20FFF7C9FC0A20FFF7C6FC3C20FFF752
:10147000C3FC7820FFF7C0FC4A20FFF7BDFC072023
:10148000FFF7BAFC0E20FFF7B7FC0920FFF7B4FC0A
:101490001B20FFF7B1FC1E20FFF7AEFC0F20FFF76B
:1014A000ABFCE120FFF7A2FC0020FFF7A5FC222007
:1014B000FFF7A2FC2420FFF79FFC0620FFF79CFC0F
:1014C0001220FFF799FC0720FFF796FC3620FFF764
:1014D00093FC4720FFF790FC4720FFF78DFC062088
:1014E000FFF78AFC0A20FFF787FC0720FFF784FC40
:1014F0003020FFF781FC3720FFF77EFC0F20FFF73D
:101500007BFCC020FFF772FC1020FFF775FC102059
:10151000FFF772FCC120FFF769FC4120FFF76CFC6C
:10152000C520FFF763FC0020FFF766FC2220FFF7D1
:1015300063FC8020FFF760FC3620FFF757FC00209B
:10154000FFF75AFC3A20FFF751FC5520FFF754FCF7
:10155000B020FFF74BFC0020FFF74EFCB120FFF757
:1015600045FCB020FFF748FC1120FFF745FCB420F4
:10157000FFF73CFC0220FFF73FFCB620FFF736FCEC
:101580000220FFF739FC0220FFF736FCB720FFF7F7
:101590002DFCC620FFF730FCE920FFF727FC0020D8
:1015A000FFF72AFCF720FFF721FCA920FFF724FC16
:1015B0005120FFF721FC2C20FFF71EFC8220FFF7B3
:1015C0001BFC1120FFF712FC782000F001FB292002
:1015D000FFF70CFC0020FFF78BFA4FF6FF70FFF7C8
:1015E00063FA10BD8000006C18000020204C4344BA
:1015F0002049443A25780D0A00000000704710B5D4
:10160000FFF72AF810BD10B50020FFF7C5F810BD90
:1016100010B540F225510C4800F094F870B10A481A
:1016200000F04AF9C4B22146074800F04AF900BF69
:101630004021054800F079F80128F9D140210248FD
:1016400000F05EF810BD00000010014010B588B039
:10165000044601210846FFF747FC01211020FFF74F
:1016600063FC072209212448FFF787F907220A2192
:101670002148FFF782F94FF4C060069002208DF8F0
:101680001C008DF81D0000208DF81E0001208DF833
:101690001F0006A91848FFF728F902940020ADF8AA
:1016A0000C00ADF80E00ADF81000ADF814000C20E1
:1016B000ADF8120002A9114800F094F801210F487A
:1016C00000F027F840210D4800F01AF8012240F2FE
:1016D00025510A4800F060F825208DF80400032009
:1016E0008DF805008DF8060001208DF8070001A88F
:1016F000FFF7B2FB08B010BD00000240001001402F
:1017000001F40072B2F5007F00D100BFCA4302802D
:10171000704721B1828942F40052828104E08289BB
:101720004DF6FF731A408281704702460020B1F5E2
:10173000007F00D100BF13880B400BB1012000E0F7
:101740000020704770B502460024002300250020C9
:1017500040F66A16B14200D100BFC1F3421501F054
:101760001F03012606FA03F3012D02D196893340A7
:1017700006E0022D02D1168A334001E0968A3340FA
:101780000C12012606FA04F41688344013B10CB189
:10179000012000E0002070BDF0B5034600240026C3
:1017A0000025002040F66A17B94200D100BF184654
:1017B000C1F3421401F01F06012707FA06F5012CB8
:1017C00001D10C3004E0022C01D1103000E01430C3
:1017D0001AB107682F43076002E00768AF4307604C
:1017E000F0BD00002DE9FF4705460E460024A14646
:1017F00000BFA046B08900B100BF2C8A24F4405439
:10180000F08804432C82AC8941F20C608443B08898
:1018100031890843718908430443AC81AC8A24F4BC
:101820004074B0890443AC826846FFF78DFB2048C2
:10183000854202D01F48854202D1DDF80C9001E0BC
:10184000DDF80890A88900F4004040B109EBC90018
:1018500000EB091031684900B0FBF1F707E009EB34
:10186000C90000EB091031688900B0FBF1F7642072
:10187000B7FBF0F004012009642101FB1078A8896E
:1018800000F4004040B1322000EBC800B0FBF1F0A2
:1018900000F00700044308E0322000EB0810642148
:1018A000B0FBF1F000F00F0004432C81BDE8FF878E
:1018B000001001400014014001468888C0F3080070
:1018C0007047C1F308028280704700BFFEE7000046
:1018D0000FB4054B10B503A9044A029800F018F89C
:1018E00010BC5DF814FB0000611D00082C000020F6
:1018F00002E008C8121F08C1002AFAD170477047D9
:10190000002001E001C1121F002AFBD17047000036
:101910002DE9FF4F8DB09B460F460446002606E09A
:1019200025280BD05A460F999047641C761C2078C6
:101930000028F5D111B03046BDE8F08F0025A8464B
:101940000122984900E0054314F8013F203B02FAC8
:1019500003F00842F7D120782E2817D114F8010F90
:1019600045F004052A280ED06FF02F022078A0F150
:10197000300109290AD808EB880102EB410100EB8C
:101980000108641CF2E757F8048B641C20786C286B
:101990000DD004DC4C2812D06A2811D104E0742840
:1019A0000DD07A280CD10AE045F4001507E06178E3
:1019B00045F48015814202D1641C05F58015641C34
:1019C0002278692A45D008DC002AB3D0582A69D089
:1019D000632A10D0642A08D13BE0702A67D0732AAA
:1019E00013D0752A5CD0782A5CD010465A460F99DD
:1019F0009047761CD3E017F8040B8DF80000002008
:101A00008DF80100E946012003E057F8049B4FF0F0
:101A1000FF3069074FF0000501D40AE06D1C454511
:101A20000DDA8542FADB19F805100029F6D106E037
:101A30006D1C8542FCDB19F805100029F8D12E44F5
:101A400004E019F8010B5A460F9990476D1EF8D221
:101A5000A5E00A200021CDE90801C5F302500228C3
:101A60000DD001CFC117031E71F100030DDA4FF045
:101A7000000CD0EB0C006CEB01012D2308E0FF1DE6
:101A800027F00707F7E80201EDE72B0504D52B2324
:101A90008DF8283001233BE0EB0739D02023F7E70E
:101AA0000A2000E010200021CDE9080107E0102005
:101AB000002145F00405CDE908014FF00808C5F301
:101AC000025002280FD001CF00214FF0000A2B074F
:101AD0001FD5702A0DD0DDE908C38CF0100C5CEA2C
:101AE000030C0CD015E0FF1D27F00707F7E80201F3
:101AF000EBE740228DF828204FF0010A0BE050EA76
:101B0000010306D030238DF828308DF829200223D8
:101B10009A46582A04D024A20DF120090B9209E01C
:101B200026A2F9E7DDE90823FEF74AFB0B9B9B5C45
:101B300009F8013D50EA0102F4D1ADEB0900203073
:101B40000890680701D44FF001080899884502DD24
:101B5000A8EB010000E000208046002506E00AA86E
:101B60005A46405D0F9990476D1C761C5545F6DB33
:101B700004E030205A460F999047761CB8F10001D6
:101B8000A8F10108F5DC05E019F8010B5A460F9998
:101B90009047761C0899481E08900029F4DC641CC4
:101BA000C5E60000092801003031323334353637BC
:101BB0003839616263646566000000003031323399
:101BC0003435363738394142434445460000000039
:101BD00070B504464FF4077094FBF0F0C6B24FF4B2
:101BE000077094FBF0F100FB114085B205E04FF463
:101BF000077000F009F8701EC6B2002EF7D115B1BB
:101C0000284600F001F870BD0146114A12884A4387
:101C10004FF0E0235A6100229A611A46126942F09D
:101C200001021A6100BF4FF0E022106900F00102CA
:101C30001AB100F48032002AF5D04FF0E022126988
:101C400022F001024FF0E0231A6100229A617047EE
:101C5000120000200146114A12784A434FF0E02357
:101C60005A6100229A611A46126942F001021A6111
:101C700000BF4FF0E022106900F001021AB100F439
:101C80008032002AF5D04FF0E022126922F00102E2
:101C90004FF0E0231A6100229A6170471000002083
:101CA0001CB54FF478402B4908802BA01021CDE9BA
:101CB00000102A494B880A880988203988B20021F7
:101CC000FFF760F81F2000902448438840881038B0
:101CD00081B28B227820FEF73FFF4FF478400090CE
:101CE0001E4843884088103881B29F228C20FEF71E
:101CF00033FF4FF61F000090184843884088103883
:101D000081B2B322A020FEF727FF4FF4FC600090C1
:101D1000124843884088103881B2C722B420FEF7A9
:101D20001BFF47F6FF7000900C484388408810382E
:101D300081B2DB22C820FEF70FFF4FF6E070009063
:101D4000064843884088103881B2EF22DC20FEF735
:101D500003FF1CBD14000020525354001800002043
:101D600070B504460D46E1B20548FFF7AAFD00BF75
:101D700080210348FFF7D9FC0028F9D0204670BD28
:101D8000001001401CB500201149088011A010214D
:101D9000CDE900101248438802880A210846FEF760
:101DA000F1FF10A01021CDE900100D4843880288F2
:101DB0001E210A20FEF7E6FF0EA01021CDE900103B
:101DC00007484388028832210A20FEF7DBFF1CBD4A
:101DD00014000020546F756368205465737400000C
:101DE000180000207777772E7072656368696E2E11
:101DF0006E6574004B5F55503A41646A75737400A8
:101E00001CB500251F26A820FFF7A0F94FF4A060FD
:101E1000FFF75EF8FEF7FCFF4FF41650FFF716FCD5
:101E2000FFF7E4FAFEF7D0FDFFF7ACFF4FF4FA60DE
:101E3000FFF7CEFE4FF6FF70FEF736FEFFF7DFFB33
:101E4000FFF72EFF85E00020FEF7E0FD0446012CA1
:101E500003D1FFF7D3FBFFF723FFFFF7D4FB0028E5
:101E600067D13C48C1883C4840881238814228DD0F
:101E700038488088DC2802DD4FF6E07634E03548CB
:101E80008088C82802DD47F6FF762DE0314880883B
:101E9000B42802DD4FF4FC6626E02E488088A02896
:101EA00002DD4FF61F061FE02A4880888C2802DDDD
:101EB0004FF4784618E027488088782814DD1F26DC
:101EC00012E0244F0096FF88BF1CBBB2214FBF8891
:101ED000BF1CBAB21F4FFF887F1EB9B21D4FBF880B
:101EE0007F1EB8B2FEF738FE1A4881881A4800886B
:101EF000203881421DDD1748C088102819DA17489C
:101F00000088009014484088103883B21248028834
:101F100000210846FEF720FE11A01021CDE9001097
:101F20000D494B880A880988203988B20021FEF7BC
:101F300029FF681CC5B2C82095FBF0F100FB1150C9
:101F400038B90848006808B9012000E000200549B8
:101F5000086078E72200002018000020160000200A
:101F600052535400A48242420000000000000000CE
:101F700000000000000000003F40000000000000E2
:101F800000003000400030004000000009000BC09D
:101F90003D000BC03D00090018C024407FE02240F6
:101FA00031800000180024C01B000D8032400180E9
:101FB00003801C4027401C80074000401000600048
:101FC00000000000000000000000000000001F8072
:101FD000204040200000402020401F8000000000E2
:101FE000090006001F80060009000000040004002C
:101FF0003F800400040000000010006000000000AA
:1020000000000000040004000400040004000000BC
:10201000000000400000000000000000002001C09F
:1020200006003800400000001F8020402040204073
:102030001F800000000010403FC000400000000072
:1020400018C0214022402440184000001080204049
:10205000244024401B80000002000D0011003FC0FE
:10206000014000003C8024402440244023800000A4
:102070001F802440244034400380000030002000B2
:1020800027C03800200000001B802440244024404A
:102090001B8000001C0022C0224022401F80000044
:1020A00000000000084000000000000000000000E8
:1020B0000460000000000000000004000A0011009D
:1020C00020804040090009000900090009000000C3
:1020D00000004040208011000A0004001800200089
:1020E00023402400180000001F8020402740294082
:1020F0001F400000004007C039000F0001C0004031
:1021000020403FC0244024401B8000001F8020400E
:10211000204020403080000020403FC02040204030
:102120001F80000020403FC024402E4030C00000EF
:1021300020403FC024402E00300000000F001080DF
:10214000204022403380020020403FC004000400B1
:102150003FC02040204020403FC0204020400000A1
:102160000060202020203FC02000200020403FC0F1
:1021700024400B0030C0204020403FC020400040A1
:10218000004000C03FC03C0003C03C003FC0000016
:1021900020403FC00C4023003FC020001F80204053
:1021A000204020401F80000020403FC024402400E9
:1021B000180000001F802140214020E01FA00000E7
:1021C00020403FC02440260019C0004018C02440D1
:1021D0002440224031800000300020403FC0204099
:1021E0003000000020003F80004000403F80200081
:1021F00020003E0001C0070038002000380007C062
:102200003C0007C038000000204039C0060039C03B
:10221000204000002000384007C038402000000067
:10222000304021C02640384020C00000000000009F
:102230007FE0402040200000000070000C00038080
:10224000004000000000402040207FE0000000002F
:1022500000002000400020000000000000100010DE
:1022600000100010001000100000000040000000EE
:1022700000000000000002800540054003C000404F
:1022800020003FC0044004400380000000000380A1
:102290000440044006400000000003800440244045
:1022A0003FC000400000038005400540034000009F
:1022B000000004401FC0244024402000000002E031
:1022C000055005500650042020403FC00440040043
:1022D00003C000400000044027C000400000000090
:1022E00000100010041027E00000000020403FC054
:1022F0000140070004C00440204020403FC000408F
:102300000040000007C0040007C0040003C0000034
:10231000044007C00440040003C0004000000380E4
:102320000440044003800000041007F004500440FF
:1023300003800000000003800440045007F00010F8
:10234000044007C0024004000400000000000640F2
:102350000540054004C00000000004001F80044048
:1023600000400000040007800040044007C0004017
:102370000400070004C0018006000400060001C03C
:10238000070001C006000000044006C0010006C0AE
:10239000044000000410071004E00180060004005F
:1023A0000000044005C0064004400000000000009A
:1023B00004007BE040200000000000000000FFF06F
:1023C00000000000000040207BE00400000000004E
:1023D000400080004000200020004000000000007D
:1023E00000000000000000000000000000000000ED
:1023F00000001FCC000C00000000000000000800DE
:10240000300060000800300060000000022003FC83
:102410001E20022003FC1E200220000000000E18D7
:1024200011043FFF10840C78000000000F0010849E
:102430000F3800C0077818840078000000780F84F7
:1024400010C411240E9800E40084000808006800FD
:10245000700000000000000000000000000000000C
:10246000000007E0181820044002000000004002AD
:102470002004181807E0000000000000024002409D
:1024800001800FF0018002400240000000800080C7
:1024900000800FF800800080008000000001000D27
:1024A000000E00000000000000000000000000809E
:1024B0000080008000800080008000800000000C10
:1024C000000C0000000000000000000000000006FA
:1024D000001800600180060018002000000007F0CE
:1024E000080810041004080807F0000000000804A1
:1024F00008041FFC000400040000000000000E0C93
:1025000010141024104411840E0C000000000C184C
:1025100010041104110412880C700000000000E087
:102520000320042408241FFC0024000000001F983E
:10253000108411041104108810700000000007F0CE
:1025400008881104110418880070000000001C00A5
:10255000100010FC13001C001000000000000E38DA
:1025600011441084108411440E380000000007004C
:10257000088C10441044088807F000000000000098
:102580000000030C030C000000000000000000002D
:1025900000010106000000000000000000000080B3
:1025A000014002200410080810040000022002204C
:1025B000022002200220022002200000000010045D
:1025C00008080410022001400080000000000E00F6
:1025D0001200100C106C10800F00000003E00C18AB
:1025E00013E4142417C4082807D000000004003C9A
:1025F00003C41C40074000E4001C000410041FFC3E
:102600001104110411040E880070000003E00C187E
:1026100010041004100410081C10000010041FFC0B
:10262000100410041004080807F0000010041FFC38
:102630001104110417C410040818000010041FFC32
:102640001104110017C010000800000003E00C186E
:102650001004100410441C780040000010041FFCFB
:1026600010840080008010841FFC100400001004FF
:1026700010041FFC100410040000000000030001FF
:10268000100110011FFE10001000000010041FFCBC
:10269000110403801464181C1004000010041FFCB3
:1026A0001004000400040004000C000010041FFCCF
:1026B0001F0000FC1F001FFC1004000010041FFC82
:1026C0000C04030000E010181FFC100007F00808BD
:1026D000100410041004080807F0000010041FFC88
:1026E00010841080108010800F00000007F0081880
:1026F00010241024101C080A07F2000010041FFC0C
:102700001104110011C011300E0C000400000E1C49
:1027100011041084108410441C38000018001000AC
:1027200010041FFC100410001800000010001FF817
:1027300010040004000410041FF8100010001E0014
:1027400011E0001C007013801C0010001FC0103C22
:1027500000E01F0000E0103C1FC000001004180C37
:10276000163401C001C01634180C100410001C00EF
:10277000130400FC13041C00100000000804101CCB
:102780001064108413041C041018000000000000E2
:1027900000007FFE400240024002000000003000C6
:1027A0000C0003800060001C0003000000004002D9
:1027B000400240027FFE0000000000000000000018
:1027C0002000400040004000200000000001000107
:1027D00000010001000100010001000100004000B3
:1027E00040002000000000000000000000000098F1
:1027F000012401440144014400FC000410001FFCBA
:1028000000880104010400880070000000000070CE
:102810000088010401040104008800000000007029
:1028200000880104010411081FFC0004000000F8E6
:10283000014401440144014400C8000000000104B7
:1028400001040FFC1104110411001800000000D64F
:1028500001290129012901C90106000010041FFCFA
:10286000008401000100010400FC000400000104D8
:10287000190419FC0004000400000000000000031B
:1028800000010101190119FE0000000010041FFCE5
:102890000024004001B4010C0104000000001004F9
:1028A00010041FFC0004000400000000010401FCEF
:1028B0000104010001FC0104010000FC010401FC11
:1028C000008401000100010400FC0004000000F885
:1028D000010401040104010400F80000010101FFEA
:1028E00000850104010400880070000000000070F1
:1028F000008801040104010501FF00010104010435
:1029000001FC00840104010001800000000000CCF3
:102910000124012401240124019800000000010089
:10292000010007F80104010400000000010001F8A3
:10293000000400040004010801FC000401000180FF
:102940000170000C001001600180010001F0010C19
:10295000003001C00030010C01F001000000010452
:10296000018C00740170018C0104000001010181DF
:102970000171000E00180160018001000000018457
:10298000010C013401440184010C0000000000002E
:102990000000000001003EFC400240020000000078
:1029A00000000000FFFF00000000000000004002E7
:1029B00040023EFC0100000000000000000060003A
:1029C0008000800040004000200020000000000047
:1029D00000000000000000000000000000000000F7
:1029E00000000000000000000000000000000000E7
:1029F0000000000000000000000000000000000FC8
:102A000080380FFE380F8038000000000000000002
:102A100000000000000000000000010000060000AF
:102A20000C00003800003100000600000C000038E7
:102A3000000030000000000000000000618000671E
:102A4000F807F9800061800061800061800061808A
:102A50000067F807F98000618000000000000000B6
:102A6000000001C0E003E0F00630080418081FFF72
:102A7000FE040E080787F00381E00000000000005C
:102A800001F000060C00040408060C7001F9C000F7
:102A90000E00003BE000EC18070808040C180003C7
:102AA000E00000000001E00007F003F818041C0833
:102AB00004170807E1D003C0E00023B0003C080081
:102AC000200800001000000000000001000031009C
:102AD000003200001C0000000000000000000000A8
:102AE00000000000000000000000000000000000E6
:102AF0000000000000000000000000007F0001FF57
:102B0000C00780F00C001810000420000200000034
:102B10000000002000021000040C00180780F001E3
:102B2000FFC0007F00000000000000000000000067
:102B30000000000000000000420000660000660087
:102B4000003C0000180003FFC0001800003C00001B
:102B50006600006600004200000000000800000857
:102B60000000080000080000080001FFC000080085
:102B70000008000008000008000008000000000035
:102B8000000100003100003200001C0000000000C5
:102B90000000000000000000000000000000000035
:102BA0000000000008000008000008000008000005
:102BB00008000008000008000008000008000008E5
:102BC0000000000000000000000000003800003895
:102BD00000003800000000000000000000000000BD
:102BE00000000000000000000000000000060000DF
:102BF0001C000070000180000E0000380000C000C2
:102C00000700001C00003000000000000000000071
:102C10007F8001FFE00380700600180400080400B4
:102C20000806001803807001FFE0007F80000000AC
:102C30000000000000000100080100080100080376
:102C4000FFF807FFF8000008000008000008000077
:102C50000000000000000001C03802C058040098C5
:102C6000040118040218040418061C1803F81801BB
:102C7000E0F800000000000000000001C0E003C018
:102C8000F004000804080804080806180803F418EB
:102C900001E7F00001E0000000000000000000007B
:102CA0000300000D00001100006100008108030115
:102CB0000807FFF80FFFF8000108000108000000F6
:102CC0000000000000E007FCD00608080610080617
:102CD0001008061008061838060FF00607C0000096
:102CE00000000000000000003F8001FFE00384308E
:102CF000020818041008041008041008071810032C
:102D00000FF00007C000000000000000000003C03A
:102D1000000700000600000600F80607F806180085
:102D200006E00007000006000000000000000001AF
:102D3000E1E003F7F0063410041808041808040C46
:102D400008040C0806161803F3F001C1E0000000A7
:102D500000000000F80003FC3003063804020804F9
:102D600002080402080404100308F001FFC0007FF9
:102D70000000000000000000000000000000000053
:102D8000000000007038007038007038000000004B
:102D90000000000000000000000000000000000033
:102DA0000000000000000000301A00301C0000008D
:102DB0000000000000000000000000000000000013
:102DC0000000000800001400002200004100008004
:102DD00080010040020020040010080008000000EC
:102DE000000000002100002100002100002100005F
:102DF000210000210000210000210000210000210D
:102E0000000000000000000000000800080400109E
:102E100002002001004000808000410000220000EC
:102E2000140000080000000000000003C00004C0FF
:102E300000040000080038080F380808380810009F
:102E40000C300007E00003C000000000000000009C
:102E50003F8000FFE0038070020F1006708804C0FE
:102E600088048308047F8802C09003012000FE408C
:102E70000000080000180001F8003E0801C2000729
:102E8000020007E20000FE00001FC80001F8000079
:102E90003800000804000807FFF807FFF8040808D6
:102EA00004080804080804080806180803F41801B0
:102EB000E7F00001E0000000000000003F8001FF9B
:102EC000E0038070020018040008040008040008F1
:102ED0000400100600200780C0000000040008075E
:102EE000FFF807FFF80400080400080400080400C5
:102EF0001802001003807001FFE0007F80000000D6
:102F000004000807FFF807FFF8040808040808048D
:102F10000808040808043E08040008060018010018
:102F20006000000004000807FFF807FFF804080825
:102F3000040800040800040800043E00060000061F
:102F40000000018000000000000000003F8001FF41
:102F5000E003807006001804000804020804020858
:102F60000203F00783F000020000020004000807DB
:102F7000FFF807FFF8040808000800000800000830
:102F80000000080004080807FFF807FFF80400081D
:102F90000000000000000400080400080400080706
:102FA000FFF807FFF8040008040008040008000008
:102FB0000000000000000000000600000700000103
:102FC00004000104000104000307FFFE07FFFC04E6
:102FD000000004000004000004000807FFF807FFD9
:102FE000F8040C08001800003E0004C7800503C860
:102FF0000600F80400380400180000080400080760
:10300000FFF807FFF80400080000080000080000AF
:103010000800000800000800001800006000000020
:1030200004000807FFF807800807FC00007FC000C5
:1030300003F80007C000780007800807FFF807FFC3
:10304000F804000804000807FFF807000803C000A0
:1030500000E000003800001E000007000001C0046E
:1030600000F007FFF8040000000000007F8001FF6F
:10307000E003807006001804000804000806001829
:1030800003003001FFE0007F80000000040008071B
:10309000FFF807FFF8040408040400040400040413
:1030A00000040400060C0003F80001F0000000001A
:1030B000000000007F8001FFE003807006008804AC
:1030C00000880400C806003C03003E01FFE6007FC4
:1030D0008400000004000807FFF807FFF804080850
:1030E000040800040C00040F00040BC00610F003D9
:1030F000F03801E00800000800000001E0F803F0EB
:1031000030063010041808041808040C08040C08D1
:103110000206180207F00781E000000001800006A7
:10312000000004000004000004000807FFF807FF87
:10313000F8040008040000040000060000018000FC
:1031400004000007FFE007FFF0040018000008007B
:10315000000800000800000800000804001007FF35
:10316000E004000004000006000007E00007FE0085
:10317000041FE00001F80000380001E0043E0007F1
:10318000C00006000004000004000007E00007FF84
:10319000C0041FF80007C007F80007FF80043FF8CD
:1031A0000007C004F800070000040000000000044D
:1031B000000806001807C07805F1C8003E00001F8F
:1031C000800463E80780F806001804000800000087
:1031D00004000006000007800007E008047C0800E7
:1031E0001FF80007F800180804E0080700000600B0
:1031F000000400000000000100080600380400F888
:103200000403E8040F08047C0805F00807C0080759
:103210000018040060000000000000000000000032
:10322000000000000000003FFFFE2000022000021E
:103230002000022000022000020000000000000028
:10324000000008000007000000C000003800000671
:10325000000001C000003000000E0000010000006E
:1032600000000000000020000220000220000220D8
:1032700000022000023FFFFE0000000000000000EE
:103280000000000000000000000000000008000036
:103290001000003000002000003000001000000886
:1032A000000000000000000000000100000100001C
:1032B0000100000100000100000100000100000108
:1032C00000000100000100000100000100000000FA
:1032D000000000000020000020000010000010008E
:1032E00000000000000000000000000000000000DE
:1032F0000000000000F00019F8001B180022080070
:103300002608002408002410003FF8001FF80000E1
:103310000800001800000004000007FFF80FFFF08D
:1033200000181800100800200800200800301800BD
:103330001FF0000FC00000000000000007C0001FC9
:10334000F0001830002008002008002008003C0889
:10335000001C1000006000000000000000000000E1
:1033600007C0001FF00038180020080020080020C7
:103370000804101007FFF80FFFF000001000000015
:103380000000000000000007C0001FF00012300025
:103390002218002208002208003208001E10000E29
:1033A000200000000000000020000020080020088D
:1033B00001FFF803FFF8062008042008042008078E
:1033C000200003000000000000000000000E000EBE
:1033D0006E001FF30031B10020B10020B100319127
:1033E000001F13002E1E00200E00300000000004FD
:1033F000000807FFF80FFFF8001008002000002069
:1034000000002008003FF8001FF80000080000003E
:10341000000000000000002008002008002008062E
:103420003FF8063FF8000008000008000008000010
:103430000000000000000000000000000300000386
:10344000002001002001002003063FFE063FFC0093
:10345000000000000000000000000004000807FF5A
:10346000F80FFFF8000188000300002FC00038F8B3
:1034700000203800200800000800000000000000C4
:10348000000004000804000804000807FFF80FFF0C
:10349000F80000080000080000080000000000001C
:1034A000002008003FF8003FF8001008002000004E
:1034B0003FF8003FF8001008002000003FF8003FF0
:1034C000F8000008000000002008003FF8003FF866
:1034D000001008001000002000002008003FF80045
:1034E0001FF80000080000000000000007C0000FE7
:1034F000F0001830003008002008002008003008D4
:10350000001830000FF00007C000000000000000AD
:103510002001003FFF003FFF0010110020090020A4
:1035200008002008003038001FF0000FC000000025
:103530000000000007C0001FF0003818002008003D
:103540002008002009001011001FFF003FFF0000AD
:1035500001000000002008002008002008003FF8BB
:10356000003FF800080800100800200800200000B4
:103570003000003000000000000000000000000CDF
:1035800078001E1800330800230800210800218855
:103590000021980030F000386000000000000000BA
:1035A000200000200000200000FFF003FFF80020B2
:1035B0000800200800200800003000000000000083
:1035C000000000002000003FF0007FF8000018001D
:1035D0000008000008002010003FF8007FF0000005
:1035E00010000000000000002000003000003C003F
:1035F000003F800023F0000078000070002380006E
:103600003C00003000002000002000003C00003F93
:10361000E00023F80000E0002700003E00003FE04B
:103620000021F80001E0003E000020000000000042
:103630002008002008003838003E6800278000037A
:10364000C8002CF8003838002018002008000000BE
:10365000000000002000003003003C01003F830018
:1036600023EC000070002380003C000020000020BC
:1036700000000000000000000000003808002038B2
:103680000020F80023E8002F88003E0800380800DA
:103690002018000070000000000000000000000082
:1036A000000000000000000008000014001FF7FCEC
:1036B00030000620000200000000000000000000B2
:1036C0000000000000000000000000000000FFFFFC
:1036D000FF000000000000000000000000000000EB
:1036E0000000000000002000023000061FF7FC0070
:1036F00014000008000000000000000000000000AE
:103700000000000000000018000060000040000001
:103710004000002000001000000800000400000429
:1037200000000C0000100000C6D50000000000E002
:10373000380000783C00003C7800003C70C0001C61
:10374000E1E01FFFFFF0001CE3000E1CE7C0079C38
:10375000E78003DCEF0003DCEE0001DCFC60009C92
:10376000F9F07FFFFFF80000000001C00E0001FF2C
:10377000FF0001C00E0001C00E0001C00E0001FFDD
:10378000FE0001C00E0001C00E0001C00E0001FFCE
:10379000FE0001C00E0001C00E0000000000D6D0E7
:1037A0000000000000070000000780000007000084
:1037B0000007000000070000000701801FFFFFE076
:1037C0001FFFFFE01E0701C01E0701C01E0701C04A
:1037D0001E0701C01E0701C01E0701C01FFFFFC05A
:1037E0001FFFFFC01E0701C01C070180000700006B
:1037F00000070000000700000007000000070000AD
:10380000000700000007000000070000000700009C
:1038100000000000BFC60000000000000780003C60
:1038200007C001FC07803FE0078039C1C78001C0A5
:10383000E78001C0F78001C0778001DE77807FFEDE
:10384000078001C0078003C3C78003E1E78003F856
:10385000F78007FCE7F00FDE67F80FDC07F81FC002
:10386000FF801DDFE78039CC078071C0078061C011
:10387000078001C0078001C0078001E0078001E0E8
:10388000078001C0070000000000BCBC0000000071
:103890000380300003C03C0003C03C0003C038007C
:1038A00003C0380003C0386003F838F07FFFFFF032
:1038B00003C0380003C0380003C0380003DC39C03F
:1038C00003FFFFE007E383C03FC183C07FC1C38024
:1038D0003BC1C78003C0EF0003C0EF0003C07E0000
:1038E00003C07C0003C07C0003C0FE003BC3EF802C
:1038F0003F8787F80FBF03F8077800E0000000005B
:10390000C4EA0000000000C0000001F0000001E077
:10391000000003C000C003C001E007FFFFF0070381
:10392000C0000E03C0001E03C0003C03C3007303AD
:10393000C78063FFFFC00383C0000383C00003830D
:10394000C0000383C0000383C0600383C0F07FFF17
:10395000FFF80003C0000003C0000003C000000324
:10396000C0000003C0000003C0000003C00000034B
:10397000C00000000000D4C20000000000000000F1
:1039800000E0070000FFFF8000F0078000F0070064
:1039900000F0070000F0070000F0070000FFFF0044
:1039A00000FFFF0000F0070000F0070000F0070034
:1039B00000F0070000E0070000FFFF0000E0070044
:1039C00000E0070000E0070001E0070001C0070079
:1039D00001C00700038007000780F7000F007F0089
:1039E0001E001F0038001C0000000000C8D50000A9
:1039F0000000000000000300030003FFFF8003FF3E
:103A0000FF80038007000380070003800700038016
:103A1000070003800700038007000380070003807E
:103A2000070003FFFF0003800700038007000380F7
:103A3000070003800700038007000380070003805E
:103A40000700038007000380070003FFFF000380D7
:103A50000700038007000380070003000000000048
:103A60000000D0C700000000000000000380070035
:103A700003FFFF8003800700038007000380070027
:103A800003FFFF00038007000380070003FFFF0020
:103A900003FFFF00038707000387C00003C78100FF
:103AA00003C7838007FFFFC0070780000F07800060
:103AB0001E0786001C078F003BFFFF8070078000F9
:103AC00000078000000780E0000781F07FFFFFF81B
:103AD0000000000000000000C6DA00000000060040
:103AE0000000079E0000079E7FF0079E7FF0079F63
:103AF000F8F03FFFF8F01F9E78F0079E78F0079EE1
:103B000078F007FE7FF0079E78F0079E78F0079E1A
:103B100070F007FE70F0079E70F0079E7FF0079F21
:103B2000FFF03FFFF0F0119070F003DCF0F003DEE7
:103B3000E0F0078FE0F00F0FE0F00E07C0F01C037D
:103B40008FF0380F03E0201C01C0000000000300CC
:103B500009000F0015001B00783B00080000002042
:103B600030000000F0180008A83B000830000020DA
:103B70000004000000190008000000000102030416
:103B80000102030406070809000000000000FFFF0F
:103B90000000000000000000010000000000000024
:083BA00000000000000000001D
:040000050800018965
:00000001FF
