:020000040800F2
:1000000060B90120A5010008B91F0008F317000816
:10001000B51F0008710700081F4900080000000014
:100020000000000000000000000000002D3D00085E
:10003000D90D00080000000049200008453E0008D6
:10004000BF010008BF010008BF010008BF01000890
:10005000BF010008BF010008BF010008BF01000880
:10006000BF010008BF010008BF010008BF01000870
:10007000BF010008BF010008BF010008BF01000860
:10008000BF010008BF010008BF010008BF01000850
:10009000BF010008BF010008BF010008BF01000840
:1000A000BF010008BF010008BF010008BF01000830
:1000B000F94200080D43000825430008BF0100086D
:1000C000BF010008BF010008BF010008BF01000810
:1000D000BF01000825450008BF01000815460008BB
:1000E000BF010008BF010008BF010008BF010008F0
:1000F000BF010008BF010008BF010008BF010008E0
:10010000BF010008FD220008BF010008BF01000870
:10011000BF010008BF010008BF0100083D430008FF
:10012000BF010008BF010008BF010008BF010008AF
:10013000BF010008BF010008BF010008BF0100089F
:10014000BF010008BF010008BF010008BF0100088F
:10015000BF010008BF010008BF010008BF0100087F
:10016000BF010008BF010008BF010008BF0100086F
:10017000BF010008BF010008BF010008BF0100085F
:10018000BF010008BF010008DFF80CD000F050FAF2
:1001900000480047B95C000860B9012072B670479A
:1001A00062B670470648804706480047FEE7FEE70C
:1001B000FEE7FEE7FEE7FEE7FEE7FEE7FEE7FEE717
:1001C000853E00088901000840EA01039B0703D02F
:1001D00009E008C9121F08C0042AFAD203E011F886
:1001E000013B00F8013B521EF9D2704730B505467D
:1001F0002A460B4612F8010B13F8014B08B1A04236
:10020000F8D01CB1002802D06D1CF1E7284630BDA3
:10021000421C10F8011B0029FBD1801A70470346CD
:1002200011F8012B00F8012B002AF9D1184670476C
:1002300030B50B46014600202022012409E021FAB6
:1002400002F59D4205D303FA02F5491B04FA02F5B3
:100250002844151EA2F10102F1DC30BD2DE9F05F4A
:100260000546002092469B46884606468146402425
:100270001BE0284641464746224600F0FAF953461D
:100280005A46C01A914110D311461846224600F032
:10029000E1F92D1A67EB01084F46224601200021A3
:1002A00000F0D8F917EB00094E41201EA4F101041B
:1002B000DFDC484631462A464346BDE8F09F2DE93B
:1002C000FE4F804681EA0300C00F0C46009021F0EB
:1002D000004123F00045B8EB0200A94105D2404699
:1002E000214690461C460B46024623F00040104330
:1002F00047D0270DC7F30A00C3F30A510290401AF2
:10030000019040286BDAC3F3130040F4801B00987F
:10031000924620B10023D2EB030A63EB0B0B01984A
:100320005946C0F14002504600F094F906460D4689
:1003300050465946019A00F0ACF910EB08006141B3
:10034000002487EA115284EAE7731A4340D0009AE6
:1003500062B3019A012A4FEA075215DC001B61EBD8
:1003600002014FF0004202EA0752CDE90042001CB0
:1003700041F5801132462B4600F0ACF903B0BDE8E0
:10038000F08F40462146F9E7001B61EB0201001C9B
:1003900041F5801300185B412018A2F5001747EBC8
:1003A000030140EAD570B6196D4111E06D084FEABE
:1003B000360645EAC0754FEA0752001B61EB0201A1
:1003C000001C41F5801149084FEA300000195141E5
:1003D00032462B4603B0BDE8F04F00F06CB90098F0
:1003E000012240000023D0EB020263EBE07300988F
:1003F00021464FEAE074B8EB000061EB0401E9E745
:1004000083F000435BE781F0004158E72DE9FE4FA0
:1004100081EA030404F0004421F0004100944FF00D
:10042000000B23F0004350EA01045ED052EA0304BB
:100430005BD0C3F30A54C1F30A552C44A4F2F3343D
:100440000194A0FB0254C1F3130141F48011C3F3E2
:10045000130343F4801301FB024400FB034E840AA0
:10046000970A44EA815447EA8357A4FB0768029538
:100470008D0A05FB07854FEA932C04FB0C542705D6
:10048000029D4FEA065847EA1637B5EB08056EEBB2
:10049000070C870E920E47EA811742EA8312A7FBE8
:1004A0000201B6EB0B0164EB00042B0D43EA0C33A5
:1004B0005E1844EB1C50DA465146E7FB0201C5F3D7
:1004C00013044FEA0B3343EA14534FEA0432019CFE
:1004D00043EA0603A4F10C040294009CCDE900B4A5
:1004E00000F0F8F803B0BDE8F08F00200146F9E70E
:1004F0002DE9F04D81EA030404F0004B21F00045A2
:1005000014464FF0000A23F0004150EA050220D0C3
:1005100054EA01021DD0C5F30A570246C5F313037E
:10052000C1F31300C1F30A5640F4801543F480135D
:10053000A7EB0608101BD64608F2FD3873EB050042
:1005400002D308F1010801E092185B41B8F1000FF5
:1005500003DA00200146BDE8F08D00204FF4801141
:10056000064684460EE0171B73EB050705D3121BE6
:1005700063EB050306434CEA010C49084FEA3000DF
:1005800092185B4150EA0107EDD152EA030012D004
:1005900082EA040083EA0501084305D0101BAB4141
:1005A00006D20122002306E000224FF0004302E0C1
:1005B0006FF0010253101AEB06004CEB085110EBE0
:1005C0000A0041EB0B01BDE8F04D00F074B8C1F337
:1005D0000A52C1F3130140F2FF3341F480119A42F1
:1005E00002DA00200146704740F233439A42A2F2F9
:1005F000334202DC524200F03CB800F02BB800005D
:1006000030B5041E71F1000404DB4FF00044404299
:1006100064EB0101141E73F1000405DB1C464FF06E
:100620000043524263EB0403994208BF904230BD3D
:10063000064C074D06E0E06840F0010394E807002F
:1006400098471034AC42F6D3FFF7A2FD00570308D9
:1006500020570308202A04DB203A00FA02F1002088
:1006600070479140C2F1200320FA03F319439040F0
:100670007047202A04DB203A21FA02F0002170475B
:1006800021FA02F3D040C2F12002914008431946FA
:100690007047202A06DBCB17203A41FA02F043EAE2
:1006A000E07306E041FA02F3D040C2F1200291402B
:1006B00008431946704710B5141E73F1000408DA98
:1006C000401C41F1000192185B411A4301D120F016
:1006D000010010BD2DE9F04D92469B4611B1B1FAD3
:1006E00081F202E0B0FA80F220329046FFF7B2FFCA
:1006F00004460F4640EA0A0041EA0B0153465A46B7
:10070000084313D0114653EA010019D0C8F1400242
:100710005046FFF7AEFF05460E4650465946424644
:10072000FFF798FF084305D0012004E02046394632
:10073000BDE8F08D0020054346EAE0762C433743C0
:100740000A986305E40AA0EB08000022FD0A44EAC7
:1007500047540A3002D500200146E9E70105101987
:100760006941DDE9084500196941BDE8F04DA2E79E
:1007700000BFFEE710B5052004F062FF10BD0000C9
:1007800010B500200A49086000F016F9FFF7F2FFE3
:1007900000200849C1F8AC02FFF7ECFF0120044932
:1007A0000860FFF7E7FF00200349C1F8800210BD91
:1007B0008082404200804242008040421CB50121BC
:1007C000222001F043FC012000908DF8040000205D
:1007D0008DF8060001208DF807006946064800F0F4
:1007E0009BFF4FF40060009001208DF804006946E3
:1007F000024800F091FF1CBD0004024000140240BA
:1008000010B500200A49086000F0D6F8FFF7B2FFE3
:1008100001200849C1F8AC02FFF7ACFF01200449F0
:100820000860FFF7A7FF00200349C1F8800210BD50
:1008300080824042008042420080404270B50546BE
:10084000002400F0A7F81E2004F0FAFE002611E0B4
:1008500000200D490860FFF78DFF01200B49C1F80A
:1008600080026006040E0A48006808B1601CC4B229
:10087000701CC6B2082EEBDB15B9FFF7C1FF01E013
:10088000FFF77EFF204670BD8082404200804042DC
:100890002C82424270B5044600F08EF800200D49CB
:1008A0000860FFF767FF002511E0E0090A490860CA
:1008B0006006040E01200949C1F88002FFF75AFFC3
:1008C000002004490860FFF755FF681CC5B2082DD9
:1008D000EBDB70BD80824042AC82424200804042ED
:1008E00010B500F069F80120084908600849C1F80E
:1008F00080021E2004F0A4FE002004490860FFF7D7
:1009000039FF00200249C1F8800210BDAC8242428A
:100910000080404210B500F04FF801200749086000
:100920001E2004F08DFE00200549C1F8AC02FFF73F
:1009300021FF01200349086010BD00008082404271
:1009400000804242AC82424210B5002400F022F8FE
:1009500001200D4908600D49C1F88002FFF70AFF28
:1009600009E0601CC4B2FA2C03DDFFF7D3FF0120BD
:1009700010BDFFF7FFFE0448803800680028F0D162
:100980000349086000BFF3E7AC8242420080404266
:10099000808240421CB500208DF804004FF40060B6
:1009A000009001208DF807006946024800F0B4FE6F
:1009B0001CBD0000001402401CB501208DF804008D
:1009C000C002009003208DF8050000208DF806007D
:1009D00001208DF807006946014800F09DFE1CBD0E
:1009E0000014024070B500254FF4803404E08020EC
:1009F00001F070FC00B103E02000A4F10104F6D185
:100A000000BF0CB9032070BD40F2FF5001F038FC6C
:100A10002846F8E770B5044605E01648056805F075
:100A2000450000B100E0F8E700BF042001F052FCEF
:100A300020B1042001F024FC032070BD012001F04E
:100A400049FC20B1012001F01BFC0120F5E7094819
:100A500024380068A04201D01020EEE740F2FF5099
:100A600001F00EFC03482038006808210840C0B29D
:100A7000E3E70000342C014070B500264FF48035C8
:100A800005E01148046804F0450000B103E02800C7
:100A9000A5F10105F5D100BF15B104F0040028B19E
:100AA0000326042001F0ECFB304670BD012001F06C
:100AB00011FC18B10126012001F0E2FB40F2FF50C9
:100AC00001F0DEFB3046F0E7342C014010B505E0C4
:100AD0000B48046804F0450000B100E0F8E700BFEF
:100AE000042001F0F7FB20B1042001F0C9FB032032
:100AF00010BD40F2FF5001F0C3FB0020F8E70000FA
:100B0000342C01402DE9F04105460E464FF0000817
:100B100005E02048076807F0450000B100E0F8E76D
:100B200000BF042001F0D6FB28B1042001F0A8FB8F
:100B30000320BDE8F081012001F0CCFB20B10120B1
:100B400001F09EFB0120F4E7124824380068A84217
:100B500001D01020EDE740F2FF5001F091FB0D486D
:100B60002038046804F4604018B9200C30804046F6
:100B7000DFE704F4005008B11320DAE704F4804002
:100B800008B11020D5E704F4004008B10F20D0E7E9
:100B90004046CEE7342C014070B500264FF4803536
:100BA00005E00F48046804F0450000B103E02800A8
:100BB000A5F10105F5D100BF15B104F0040028B17D
:100BC0000326042001F05CFB304670BD04F04000B9
:100BD00018B10026402001F053FB3046F5E7000035
:100BE000342C014021B1026842F00102026003E0AE
:100BF000026822F00102026070470000016821F0E3
:100C0000010101600021016041608160C1600161FA
:100C1000212141614A49884204D13D21484A103A84
:100C200091608CE046491831884205D14FF47461D7
:100C3000434A103A916082E041493031884205D1FF
:100C40004FF474113E4A103A916078E03C494831C3
:100C5000884205D14FF07461394A103A91606EE0D4
:100C600037496031884204D13649354A103AD1605B
:100C700065E033497831884204D13349304A103A2B
:100C8000D1605CE02E499031884204D12F492C4A32
:100C9000103AD16053E02A49A831884205D14FF07B
:100CA0003D51274A103AD16049E02949884204D190
:100CB0003D21274A083A116041E025491831884210
:100CC00005D14FF47461224A083A116037E0204997
:100CD0003031884205D14FF474111D4A083A116031
:100CE0002DE01B494831884205D14FF07461184A04
:100CF000083A116023E016496031884204D1114955
:100D0000134A121F11601AE011497831884204D148
:100D10000D490F4A121F116011E00D4990318842B0
:100D200004D10A490A4A121F116008E00849A83193
:100D3000884204D14FF03D51054A121F116070479F
:100D4000106002403D000020400F002000003D20C8
:100D50001064024021B1026842F02002026003E008
:100D6000026822F0200202607047014600200A68F3
:100D700002F001020AB1012000E0002070470000EB
:100D800010B500220268134B1A40CC680B6823434D
:100D90004C6923438C692343CC6923430C6A234366
:100DA0004C6A23438C6A23434C6B23438C6B234351
:100DB0001A430260426922F00702D1E90B3423434F
:100DC0001A4342610B6943604B6883608B68C36060
:100DD00010BD00003F801CF07047000010B50446B5
:100DE000214610A003F09EFD240300F033F900F02B
:100DF000C1F800200D490860202002F02FFFC4F345
:100E0000074002F02BFFC4F3072002F027FFE0B2F7
:100E100002F024FF01200649C1F8B80200F0AAF848
:100E200010BD000066653A25780D0A00B882404280
:100E3000008040421CB50121022001F007F9012188
:100E4000402001F003F94FF48040009001208DF81C
:100E5000040000208DF8060003208DF80500012015
:100E60008DF8070069460D4800F056FC8020009080
:100E700069460B4800F050FC8021094800F0B7FC9F
:100E800001200849086002F087FE382002F002FFC6
:100E900000F036F8044908801CBD00000004024040
:100EA00000180240B8824042300000202DE9F04195
:100EB00006460C46174600201049086002F0EAFE7C
:100EC000032002F0CBFEC4F3074002F0C7FEC4F3D8
:100ED000072002F0C3FEE0B202F0C0FE002505E0EC
:100EE000FF2002F0BBFE7055681C85B2BD42F7DBE7
:100EF000012002490860BDE8F0810000B88240424C
:100F000010B5002400200E490860902002F0A6FED3
:100F1000002002F0A3FE002002F0A0FE002002F05C
:100F20009DFEFF2002F09AFE44EA0024FF2002F01A
:100F300095FE044301200349C1F8B802204610BDC4
:100F4000B88240420080404210B50024002007498A
:100F50000860052002F082FEFF2002F07FFE0446BA
:100F600001200349C1F8B802204610BDB8824042B2
:100F70000080404210B500BFFFF7E6FF00F001001F
:100F80000028F9D110BD2DE9F05F83468946164649
:100F90004FF48051002004F0E1FF8046B8F1000FCB
:100FA00001D1BDE8F09F002002F074FE4FEA19372E
:100FB000C9F30B0ACAF58054A64200DC344641E06E
:100FC00039034FF480524046FFF770FF002508E0D8
:100FD0000AEB050018F80000FF2800D003E0681CA9
:100FE00085B2A542F4DB00BFA54215DA3846FFF70B
:100FF000F5FE002507E01BF8050005EB0A0108F8DF
:101000000100681C85B2A542F5DB39034FF480521C
:10101000404600F02FF804E022464946584600F0CA
:1010200029F8A64200D10EE07F1C4FF0000AA3442D
:10103000A144301B86B2B6F5805F02DD4FF48054C8
:1010400000E03446BCE700BF4146002004F074FFD6
:1010500000BFA6E710B5002004490860062002F092
:10106000FDFD01200249C1F8B80210BDB88240421E
:10107000008040422DE9F04107460E461446F0B28A
:10108000C0F58075AC4200DC254612E02A463146A8
:10109000384600F013F8AC4200D10BE02F442E4448
:1010A000601B84B2B4F5807F02DD4FF4807500E0F0
:1010B0002546EBE700BFBDE8F08100002DE9F041D7
:1010C00006460C461746FFF7C5FF00200F4908608B
:1010D000022002F0C3FDC4F3074002F0BFFDC4F3D9
:1010E000072002F0BBFDE0B202F0B8FD002504E0ED
:1010F000705D02F0B3FD681C85B2BD42F8DB0120D3
:1011000002490860FFF736FFBDE8F081B88240422F
:1011100010B500240EE04FF40C71002004F01EFF07
:10112000184941F82400084650F8240000B903E0AB
:10113000601CC4B2032CEEDB00BF4FF40A71002028
:1011400004F00CFF104908604FF40A71002004F00D
:1011500005FF0E4908604FF40071002004F0FEFE08
:101160000B490860032C0AD10748006838B10748CA
:10117000006820B10846006808B1002010BD0120B9
:10118000FCE700000CB00120F0000020F40000207B
:101190000001002051B18200A2F1C042126842F069
:1011A00001038200A2F1C042136009E08200A2F1B3
:1011B000C0421268034B1A408300A3F1C0431A6077
:1011C00070470000FEFF0F0030B500210022002311
:1011D0000468A400A4F1C0442168444C2140D0E933
:1011E00001452C43C5682C4305692C4345692C43B4
:1011F00085692C43C5692C43056A2C43456A2C43F9
:10120000856A2C43C56A2C43056B2C432143046833
:10121000A400A4F1C04421608468082C0BD10468A8
:10122000A400A4F1C044246844F040050468A4006C
:10123000A4F1C04425600468641CA400A4F1C04467
:10124000226802F04042446B2468456B6D6844EAB2
:101250000514456BAD6844EA0524456BAD8944EA45
:101260000544456B2D8A44EA0554456B2D7D44EABF
:101270000564456BAD692C4322430468641CA400DB
:10128000A4F1C0442260C46AB4F5804F24D104683C
:10129000A400A4F1C044D4F8043103F04043846BAB
:1012A0002468856B6D6844EA0514856BAD6844EA73
:1012B0000524856B2D8A44EA0554856B2D7D44EA0F
:1012C0000564856BAD692C4323430468A400A4F135
:1012D000C044C4F8043107E06FF070450468A4000E
:1012E000A4F1C044C4F8045130BD00008000F7FFF1
:1012F0000EB50121062000F0A9FE0220009000207A
:101300008DF804008DF8060003208DF805000120FB
:101310008DF807006946294800F0FEF94FF40050A7
:10132000009001208DF804006946254800F0F4F98A
:10133000FFF744FA002023490860142004F03DF927
:1013400001202149C1F8B402322004F036F900200E
:101350008DF80800012202A900F0EAF8012202A992
:10136000A42000F0E5F816208DF80800012202A95B
:10137000802000F0DDF80C208DF80800012202A981
:10138000882000F0D5F8022202A9A12000F024F85C
:101390009DF8080030280ED19DF8090003280AD1D5
:1013A0009DF809009DF8082000EB022107A003F03A
:1013B000B9FA00200EBD0120FCE700000004024045
:1013C00000080240B4024142000041424354502010
:1013D00049443A25780D0A002DE9F04106460F46AA
:1013E0001546FFF77DFA7020FFF754FAFFF7ACFAC5
:1013F000F0B2FFF74FFAFFF7A7FAFFF771FA712083
:10140000FFF748FAFFF7A0FA00240BE0691EA1429B
:1014100001D0012100E000210846FFF70FFA3855FE
:10142000601CC4B2AC42F1DBFFF774FABDE8F08196
:10143000F1B582B000240127012202A90220FFF7A2
:10144000CBFF9DF8080000F00F0000285DD09DF84C
:10145000080000F00F00062857DA9DF8080000F099
:101460000F01FF208840C5B2E843C6B200BF41E08B
:101470000120A040304010B32A4931F81400042262
:1014800001A9FFF7A9FF28488079012818D19DF804
:1014900005009DF8041001F00F0100EB0120C0F5DC
:1014A000A0702249C8809DF807009DF8061001F041
:1014B0000F0100EB0120C0F5F0701C49888017E097
:1014C0009DF807009DF8061001F00F0100EB0120C8
:1014D000C0F5F0701549C8809DF805009DF804100E
:1014E00001F00F0100EB0120C0F5A0700F498880CA
:1014F000601CC4B2022CBBDB00270C48808820B9DA
:101500000A48C08808B9002002909DF8080000F041
:101510001F0028B900264FF6FF7004498880C88054
:101520003846FEBD74A500081800002034000020D5
:101530002DE9F04105460E4617464FF00008FFF72B
:10154000CFF97020FFF7A6F9FFF7FEF9E8B2FFF731
:10155000A1F9FFF7F9F900240BE0305DFFF79AF9E4
:10156000FFF7F2F98046B8F1000F00D003E0601CED
:10157000C4B2BC42F1DB00BFFFF7CCF94046BDE886
:10158000F08100002DE9FC4107460D4600260024AD
:1015900000200090019008205B49086010204860FE
:1015A000402088600020C8604FF4806008610846D1
:1015B00000F0DCFE1020FFF72DFA044614B120469F
:1015C000BDE8FC815148008800044F49086037207D
:1015D0004860402088600020C8604FF48060086147
:1015E000084600F0C3FE3720FFF714FA04460CB19A
:1015F0002046E5E74FF0FF30454908600820486085
:10160000302088600220C860002008610120486105
:10161000084600F045FE00203B4908603320486042
:10162000402088600020C8604FF480600861084650
:1016300000F09CFE3320FFF7EDF904460CB1204684
:10164000BEE70CE04FF4001000F044FE38B1314822
:1016500000684DF82600761C022E00D307E02D48C6
:101660004C38006840F22A6108400028EAD000BFE8
:10167000082000F02FFE20B1082000F001FE042019
:101680009EE7022000F026FE20B1022000F0F8FDC7
:10169000022095E7202000F01DFE20B1202000F060
:1016A000EFFD06208CE74FF4007000F013FE28B128
:1016B0004FF4007000F0E4FD072081E740F2FF5096
:1016C00000F0DEFD00980006009901F47F4140EA39
:1016D0000120009901F47F0140EA1120009940EABD
:1016E0001160686001980006019901F47F4140EAA9
:1016F0000120019901F47F0140EA1120019940EA9B
:101700001160286020465BE72001002024000020B3
:1017100034010020802C0140F0B50A46002100234E
:10172000002400BF3DE0012505FA01F3156805EA34
:1017300003049C4234D105684F000326BE40B543E4
:10174000056015794E00B54006683543056015798A
:10175000012D02D01579022D16D185684F00032680
:10176000BE40B543856055794E00B5408668354327
:101770008560456801268E40B54345604568967989
:101780008E40B6B235434560C5684F000326BE4063
:10179000B543C560D5794E00B540C6683543C560D0
:1017A000491C1029BFD3F0BDF0B5002300244D071C
:1017B000ED0E02FA05F3CE1000F1200555F8265083
:1017C0004E07F70E0F26BE40B543CF1000F120069E
:1017D00046F82750CE1000F1200555F8265045EA6E
:1017E0000304CE1000F1200545F82640F0BD01832A
:1017F000704700BFFEE700001CB5044600200190C2
:101800000090224800880004214908600D204860AB
:10181000402088600020C8604FF48060086108465E
:1018200000F0A4FD1B480068009002E01948006821
:101830000090009800F045000028F7D0012000F04B
:1018400049FD20B1012000F01BFD01201CBD04203A
:1018500000F040FD20B1042000F012FD0320F5E768
:101860000C48243800680D2801D01020EEE740F223
:10187000FF5000F005FD07482038006801900198EE
:10188000C0F3432020700020E0E700002400002087
:1018900020010020342C01401CB50121112000F052
:1018A000D5FB00208DF804001C20009001208DF84D
:1018B000070069460748FFF72FFF00208DF8040056
:1018C0000120009002208DF8070069460248FFF7CA
:1018D00023FF1CBD001002400000024010B504466A
:1018E00022480078012826D12148006801280AD022
:1018F0002048006838B11F48001D006818B11D4815
:10190000001F0068B8B90A2003F057FE00201749ED
:10191000087017480068012800D110BD15480068FC
:1019200008B90220F9E71348001D006808B9032030
:10193000F3E70420F1E70E48006878B90D48006825
:1019400001280BD10B48001D0068012806D1094869
:10195000001F0068012801D104490870012C02D140
:101960000120024908700020D7E700003200002063
:10197000000240420C02424270B506460F484088C1
:10198000401E83B20D480088401E82B200210846E6
:1019900000F0FEF800240CE0002504E0304600F0E2
:1019A000E3FA681C85B205484088A842F6DC601C52
:1019B00084B202480088A042EEDC70BD180000200E
:1019C00000B502467AB9362000F0C2FA482000F08D
:1019D000C5FA4FF4F0700C4948804FF4A0700880AD
:1019E000002088710EE0362000F0B2FA382000F0B6
:1019F000B5FA4FF4A070044948804FF4F0700880A5
:101A00000120887100BD00001800002070B5044658
:101A10000D4616462B4622462946204600F0B8F8C9
:101A2000304600F0A1FA70BD2DE9FF4F84B0814629
:101A30008A460020039002900698A0EB09050798BB
:101A4000A0EB0A06CDF80490CDF800A0002D01DD32
:101A5000012705E00DB9002702E04FF0FF376D4286
:101A6000002E02DD4FF0010806E016B94FF0000825
:101A700002E04FF0FF387642B54201DD2C4600E02F
:101A800034464FF0000B21E0009A91B2019A90B2D7
:101A900000F022F803982844039002983044029002
:101AA0000398A04205DD0398001B03900198384479
:101AB00001900298A04205DD0298001B0290009858
:101AC000404400900BF101001FFA80FB601C83452D
:101AD000DADD08B0BDE8F08F30B504460D462B4680
:101AE00022462946204600F053F80248008800F0BC
:101AF0003BFA30BD14000020F0B504460D461646F2
:101B00001F462B46324629462046FFF78DFF3B46AF
:101B1000224629462046FFF787FF3B463246394694
:101B20002046FFF781FF3B46324629463046FFF705
:101B30007BFFF0BD2DE9F04304460D4616461F46D7
:101B4000DDF81C80B44201DCBD4201DDBDE8F0835C
:101B50003B4632462946204600F01AF8301B401C0E
:101B600084B2781B401C85B20BE0A94602E04046D7
:101B700000F0FAF95FEA0900A9F101011FFA81F901
:101B8000F5D12000A4F101018CB2EED100BFDDE758
:101B900070B504460D462A2000F0DAF92646E11712
:101BA00004EB1161C1F30F2000F0D8F9E11704EB49
:101BB00011610912A4EB012188B200F0CFF9164699
:101BC000D11702EB1161C1F30F2000F0C7F91646DF
:101BD000D11702EB11610912A2EB012188B200F0CA
:101BE000BDF92B2000F0B4F92E46E91705EB116181
:101BF000C1F30F2000F0B2F9E91705EB11610912EA
:101C0000A5EB012188B200F0A9F91E46D91703EB14
:101C10001161C1F30F2000F0A1F91E46D91703EBA3
:101C200011610912A3EB012188B200F097F92C2071
:101C300000F08EF970BD00002DE9F84F80460E4689
:101C400017461C46B3462046E31704EB5373DB10DC
:101C500021464FEAE47C04EB5C7C4FEAEC0CA4EBFD
:101C6000CC0CBCF1000F02D04FF0010C01E04FF0A2
:101C7000000C6344224604EBD27C4FEA6C0C03FB5D
:101C80000CF3DBB20093A7F12000C7B2002556E0A9
:101C90000C2C07D107EB47002B4901EB800010F813
:101CA000059013E0102C05D1284800EB071010F820
:101CB00005900BE0182C07D107EBC700244901EB76
:101CC000800010F8059001E0BDE8F88F4FF0000AA1
:101CD0002FE009F0800030B11E48028831464046AE
:101CE000FFF794FE07E00A9828B91B48028831469E
:101CF0004046FFF78BFE4FEA49604FEA1069701CBF
:101D000086B216484088B04200DCDDE7A6EB0B0047
:101D1000A0420AD15E4608F101001FFA80F80F4880
:101D20000088404500DCCFE706E00AF1010000F042
:101D3000FF0ABAF1080FCCDB00BF681CC5B20098DF
:101D40008542A5DB00BFBFE780890008F48D00084D
:101D5000E493000814000020160000201800002062
:101D60002DE9F04F89B005460F4614460026A9E03C
:101D70002078802849DA2078A0F1200636015548DD
:101D800006441022314601A8FFF790F807F10F0032
:101D900083B2E81D82B239462846FFF7F9FE4FF0BC
:101DA000000921E001A810F809B04FF0000814E084
:101DB0000BF08000802804D14748008800F0D4F858
:101DC00003E04648008800F0CFF84FEA4B604FEA46
:101DD000106B08F1010000F0FF08B8F1080FE7DB15
:101DE00009F1010000F0FF09B9F1100FDADB641C02
:101DF00005F1080085B23A4800880838A84261DA3F
:101E0000002507F1100087B25CE0207881381FFAC6
:101E100080FABE200AFB00F694F801A0BAF17F0F09
:101E200004DAAAF140001FFA80FA03E0AAF14100A7
:101E30001FFA80FA564476012A4806442022314689
:101E400001A8FFF733F807F10F0083B205F10F0087
:101E500082B239462846FFF79BFE4FF0000821E08A
:101E600001A810F808B04FF0000914E00BF0800052
:101E7000802804D11848008800F076F803E017485D
:101E8000008800F071F84FEA4B604FEA106B09F1DF
:101E9000010000F0FF09B9F1080FE7DB08F10100CC
:101EA00000F0FF08B8F1200FDADB05F1100085B271
:101EB0000B4800880F38A84203DA002507F110000C
:101EC00087B2A41C207800287FF452AF09B0BDE887
:101ED000F08F00004E46DD001400002016000020A8
:101EE00018000020004CDD002DE9F84704460D469F
:101EF00090469946DDE9096704F0FF0A08EB040003
:101F00001FFA80F809EB05001FFA80F916E0444536
:101F100002DB5446A81985B24D4500DB14E00020D1
:101F200000903A78334629462046FFF785FE304632
:101F300006EBD07104EB61018CB27F1C38787E28EF
:101F400002DC38782028E2DA00BFBDE8F88700001C
:101F500001490880704700007E00006C014908803C
:101F6000704700008000006C014908807047000045
:101F70008000006C1CB50121202000F067F80120D2
:101F80008DF804004FF4C060009003208DF8050028
:101F900000208DF8060001208DF8070069460448EE
:101FA000FFF7BAFB4FF4C0610148FFF720FC1CBDEE
:101FB0000014024000BFFEE77047000070B500212A
:101FC00000230F22C4781CB3174C246804F4E06487
:101FD000C4F5E064C4F30721C1F10404E3B20A418B
:101FE00044789C40E1B28478144021430C07210ED0
:101FF0000E4C05786155047804F01F050124AC40AF
:1020000005786D11AD0005F1E025C5F8004109E046
:10201000047804F01F050124AC40054D06787611C4
:1020200045F8264070BD00000CED00E000E400E043
:1020300080E100E002490143024A1160704700005C
:102040000000FA050CED00E07047000029B1064AD7
:1020500012680243044B1A6004E0034A1268824388
:10206000014B1A60704700003038024029B1064A1F
:1020700012680243044B1A6004E0034A1268824368
:10208000014B1A60704700003838024029B1064AF7
:1020900012680243044B1A6004E0034A1268824348
:1020A000014B1A60704700004038024029B1064ACF
:1020B00012680243044B1A6004E0034A1268824328
:1020C000014B1A60704700004438024029B1064AAB
:1020D00012680243044B1A6004E0034A1268824308
:1020E000014B1A607047000024380240F0B500210F
:1020F00000220024022500260223324F3F6807F009
:102100000C0121B1042905D0082937D105E02E4F53
:10211000076036E02D4F076033E02A4F3F1F3F68CE
:10212000C7F38056274F3F1F3F6807F03F036EB14C
:10213000264FB7FBF3F7DFF88CC0ACF1040CDCF8EA
:1021400000C0CCF3881C07FB0CF40CE01E4FB7FB5F
:10215000F3F7DFF870C0ACF1040CDCF800C0CCF38E
:10216000881C07FB0CF4174F3F1F3F68C7F301475C
:102170007F1C7D00B4FBF5F7076002E0124F07609B
:1021800000BF00BF0F4F3F6807F0F0010909104F73
:102190007A5C0768D74047600A4F3F6807F4E05110
:1021A000890A0B4F7A5C4768D7408760054F3F68C4
:1021B00007F46041490B064F7A5C4768D740C76017
:1021C000F0BD0000083802400024F40000127A003C
:1021D000000000207CB505460024002000900190FE
:1021E00000260DB1022600E000262248006800F01B
:1021F000007008B10E207CBD1F49098888B269466D
:10220000FFF7C0F904460CB12046F4E7019800F44A
:10221000802060B3184800880004184908603720FF
:102220004860402088600020C8604FF480600861EA
:10223000084600F09BF83720FEF7ECFB04460CB193
:102240002046D8E70D48066006200C49486040202B
:1022500088600020C8604FF480600861084600F084
:1022600085F80620FEF7D6FB04462046C3E7252066
:10227000C1E70000142C01402400002020010020B0
:102280000149086070470000382C01400146034AAC
:10229000106820F0FF00084310607047042C0140D4
:1022A00000210B4B02681A601B1D42681A601A1D40
:1022B000116821F0F701D0E902231A4303691A4398
:1022C00043691A431143024A083211607047000003
:1022D000242C014001460020034A12680A400AB13A
:1022E000012000E000207047342C014002480068C3
:1022F00000F0030070470000002C014010B500F012
:102300008BFC10BD00210A4A116847F6FF62914319
:10231000027D83681A4343681A43C3681A430368FB
:102320001A4303691A431143014A116070470000C0
:10233000042C014000200B490860091D0860091D9C
:102340000860091D0860074924310860091D0860FC
:10235000091D086004480349383108600020091D40
:1023600008607047002C0140FF07C0000021094BA6
:1023700002681A601A1D11686FF30A01D0E901237F
:102380001A43C3681A4303691A431143014A121DD1
:1023900011607047082C0140014908607047000037
:1023A000002C014070B590B004460E46154600BFA3
:1023B0001A48FEF7DAFC0028FAD11848FEF71EFC8E
:1023C0004FF000600190164802900394049500209D
:1023D000059006904FF48060079080000890800080
:1023E000099000200A904FF440300B9004200C908C
:1023F00003200D904FF400000E9080100F9001A963
:102400000648FEF7BDFC20210448FEF7A3FC01218D
:102410000248FEF7E7FB10B070BD000058640240B0
:10242000802C014070B5044600251648007803282A
:1024300002D12725284670BD1248007838B11148CE
:102440000078012803D00F480078022817D1B4F58E
:10245000805F02D127252846EDE7E0B2FFF7BAFEFC
:10246000054665B90848006820F4C0500649086070
:10247000084600682043086008460068086028464F
:10248000D9E7000020000020042C0140F0B50146EF
:1024900000200022BE4B1B7881F85630BD4B1B88B4
:1024A000A1F85430BC4B1B681A0E93090B70C2F391
:1024B00083034B7002F003038B70B74B1B68C3F3AD
:1024C0000742CA70B44B1B88C3F307220A71B24B90
:1024D0001A784A715B681A0E1301CB80AE4B5B68A9
:1024E000C3F30742CB8843EA1213CB8002F00F03F9
:1024F0000B72A94B9B88C3F30722D3094B72C2F31B
:1025000080138B72C2F34013CB72C2F300130B73B0
:1025100000234B739E4B1B783BB19D4B1B78012BCB
:1025200003D09B4B1B78032B4FD193071B0D0B61E3
:10253000994B1A790B6943EA82030B61964B9B68AE
:102540001A0E0B6943EA92130B61C2F3C2030B75B7
:1025500002F007034B75904B9B68C3F30742530986
:102560008B75C2F38203CB7593075B0F0B768A4B97
:102570001B89C3F307220B7E43EAD2130B760B6948
:102580005B1C0024C1E912340B7E9B1C012404FA5D
:1025900003F3DC17D1E91256A5FB037C06FB03C34A
:1025A00005FB0433C1E912730C7A0123A3400B65C8
:1025B0000024D1E912650B6DA6FB037C05FB03C368
:1025C00006FB0433C1E912732EE0714B1B78022B1A
:1025D0002AD1714B1A7993069B0A0B616E4B9B684B
:1025E0001A0E0B6943EA02230B616B4B9B68C3F322
:1025F00007420B6913430B61674B1B89C3F3072227
:102600000B695B1C4FF40074A3FB04464FF480631A
:102610000025A4FB037C06FB03C304FB0533C1E9CF
:1026200012734FF400730B65C2F3801301F8193F66
:1026300093065B0E4B70584B1A7A4B7843EAD213D1
:102640004B7002F07F038B70534BDB681A0ED3097B
:10265000CB70C2F341130B71C2F382034B7193072A
:102660001B0F8B714C4BDB68C3F307428B7943EA3A
:1026700092138B71C2F34013CB7100230B7202F0E3
:1026800001034B72444B9B89C3F30722D3098B721E
:10269000C2F38013CB72C2F340130B73C2F3001367
:1026A0004B73C2F381038B7302F00303CB733A4B7A
:1026B0001A7B53080B7401234B74384B1B681A0E9A
:1026C000CA741939354B1B68C3F307421402CC8511
:1026D000324B1B88C3F30722CB8D1343CB852F4B83
:1026E0001A7814060C635B681A0E0B6B43EA0244FB
:1026F0000C632A4B5B68C3F307420B6B43EA02246B
:102700000C63264B9B88C3F307220B6B13430B63AD
:10271000224B1A7934235A54204B9B681A0E3523C6
:102720005A541E4B9B68C3F3074214068C631B4B21
:102730001B89C3F307228B6B43EA02448C63174B5C
:102740001A7A8B6B43EA02248C63144BDB681A0EF3
:102750008B6B13438B63114BDB68C3F307423C2342
:102760005B5C43EA12143C235C5413071C0DCC87BA
:102770000A4B9B89C3F30722CB8F1343CB87074BAD
:102780001A7B540840235C54012441235C54F0BD5F
:1027900020000020240000204C0100205C010020CB
:1027A0003EB50024002501214448FFF74FFC0121DC
:1027B000C802FFF77BFC0121C802FFF787FC4FF43A
:1027C000F850019002208DF808008DF809000020D3
:1027D0008DF80A0001208DF80B0001A93848FEF79A
:1027E0009BFF0420019001A93648FEF795FF0C22BB
:1027F00008213348FEF7D8FF0C2209213048FEF7A4
:10280000D3FF0C220A212E48FEF7CEFF0C220B210B
:102810002B48FEF7C9FF0C2211462948FEF7C4FFDA
:102820000C2202212748FEF7BFFF00214FF4006071
:10283000FFF74CFCFFF77EFD31208DF800000020F3
:102840008DF801008DF8020001208DF80300684624
:10285000FFF7B4FB00F0EEF8044614B900F038F8C6
:1028600004461CB91848FFF711FE044634B916494E
:10287000B1F85410080400F073FD044624B94FF475
:102880000060FFF7CFFD04461CB110480078032814
:1028900012D10D4890F8560020B10B4890F8560020
:1028A000012801D1022500E000252846FFF7EEFCB3
:1028B000002000F06DFD044620463EBD0C004000A7
:1028C00000080240000C024070010020200000209F
:1028D00038B5002401200090FFF708FD10B9252429
:1028E000204638BD4D480078042824D000204C49AB
:1028F000086002204860C02088600020C8604FF453
:10290000806008610846FFF731FDFEF7B5F8044620
:102910000CB12046E5E74348006843490860414858
:10292000001D006848603F480830006888603D48E6
:102930000C300068C8603948007858B137480078D2
:10294000012807D035480078062803D0334800789E
:10295000022816D100203249086003204860402038
:1029600088600020C8604FF4806008610846FFF767
:10297000FDFC69460320FEF7C5F804460CB120466D
:10298000AFE726480078032816D1BDF80000000400
:102990002349086003204860402088600020C86008
:1029A0004FF4806008610846FFF7E0FCFEF764F82A
:1029B00004460CB1204694E71848007804282AD031
:1029C000BDF8000019490860BDF800000004144972
:1029D000086009204860C02088600020C8604FF46B
:1029E000806008610846FFF7C1FCFEF745F8044621
:1029F0000CB1204675E70B4800680D49086009488E
:102A0000001D006848600748083000688860054875
:102A10000C300068C860002063E700002000002040
:102A200020010020142C01405C0100202400002023
:102A30004C0100202DE9F047002700240026002546
:102A4000A046A14676206E490875002008604860BF
:102A50008860C86008610846FFF754FC0320FFF750
:102A60009BFC6848006840F480706649086000BFBD
:102A700012E000206449086048608860C8604FF434
:102A8000806008610846FFF771FCFDF7ABFF044664
:102A900004B903E0781CC7B24A2FEADB00BF14B1C7
:102AA0002046BDE8F0874FF4D570574908600820EC
:102AB0004860402088600020C8604FF48060086152
:102AC0000846FFF753FCFEF767F8044624B90120D7
:102AD0004E4908704FF0804900204B49086037206C
:102AE0004860402088600020C8604FF48060086122
:102AF0000846FFF73BFC3720FDF78CFF0446002C0F
:102B00004CD135E000204049086037204860402023
:102B100088600020C8604FF4806008610846FFF7B5
:102B200025FC3720FDF776FF04460CB12046B8E7B8
:102B3000374849EA000034490860292048604020AD
:102B400088600020C8604FF4806008610846FFF785
:102B50000DFCFDF7BBFF04460CB12046A1E7294858
:102B600010300668012080EAD67080F001086D1CE4
:102B7000B8F1000F03D14FF6FF708542C2D34FF674
:102B8000FF70854202D31B2420468AE706F080406E
:102B9000060033D002201D4908702FE01DE01D48BB
:102BA0001949086001204860402088600020C86002
:102BB0004FF4806008610846FFF7D8FBFDF786FFF9
:102BC00004460CB120466CE70E4810300668012020
:102BD00080EAD67080F001086D1CB8F1000F03D1B7
:102BE0004FF6FF708542DAD34FF6FF70854202D36D
:102BF0001B24204655E7032004490870204650E76F
:102C000008010020042C01402001002020000020A9
:102C1000000010800080FF8010B54FF48070FFF737
:102C200059FB78B34C480078012814D100204B4957
:102C300008600C204860402088600020C8604FF485
:102C4000806008610846FFF791FB0C20FDF7E2FE6B
:102C50004349087002E0002041490870414800687B
:102C600040F480703F490860081D00684CF23A311A
:102C700088433C49091D086001203B4908703848D9
:102C8000007810BDFFE70220FFF724FB78B1022097
:102C9000FFF7F6FA3348001D00684CF23A318843DA
:102CA0003049091D086002202D490870E9E7082015
:102CB000FFF710FB78B10820FFF7E2FA2948001D62
:102CC00000684CF23A3188432649091D0860042007
:102CD00023490870D5E72020FFF7FCFA78B12020BF
:102CE000FFF7CEFA1F48001D00684CF23A318843C6
:102CF0001C49091D0860062019490870C1E7102009
:102D0000FFF7E8FA78B11020FFF7BAFA1548001D6E
:102D100000684CF23A3188431249091D08600520C9
:102D20000F490870ADE74FF40070FFF7D3FA80B198
:102D30004FF40070FFF7A4FA0A48001D00684CF237
:102D40003A3188430749091D086007200449087083
:102D500097E7002095E700002900002020010020CF
:102D60002A000020382C01402B0000202DE9F84FCC
:102D70008146174698460A9C4FF0000AD3464D46B6
:102D80004FF0FF36B9F1000F02D12620BDE8F88FD1
:102D900000208649086086480078022805D1040290
:102DA000780A40EAC8574FEA6828002081498860BD
:102DB0004860401E0860012048610020C86008612A
:102DC0000846FFF76DFA79481838006800F000707F
:102DD00008B10E20DAE7002C21DDB4F5006F1EDC0F
:102DE000601E2040D8B9204602F0DEFB00907248F9
:102DF0000460102070494860402088600020C8604E
:102E00004FF4806008610846FFF7B0FA1020FDF724
:102E100001FE8246BAF1000F03D05046B6E72620E5
:102E2000B4E70098000163498860084644604FF0A9
:102E3000FF300860012048610220C860002008615E
:102E40000846FFF72DFA5C48076011205A49486090
:102E5000402088600020C8604FF480600861084608
:102E6000FFF784FA1120FDF7D5FD8246BAF1000F75
:102E700001D050468AE75148007800285CD1FDF720
:102E80008DF918E04FF40040FFF724FA78B14FF0C5
:102E9000000B06E045485430006845F82B000BF164
:102EA000010BBBF1080FF5D32035454E03E00EB9F9
:102EB00004206BE7761E3D480830006840F22A6126
:102EC00008400028DED00820FFF704FA20B10820CF
:102ED000FFF7D6F9042059E70220FFF7FBF920B1EC
:102EE0000220FFF7CDF9022050E72020FFF7F2F98A
:102EF00020B12020FFF7C4F9062047E74FF4007007
:102F0000FFF7E8F928B14FF40070FFF7B9F907208F
:102F10003CE704E025485430006828602D1D4FF43C
:102F20000010FFF7D7F90028F4D1FDF739F940F286
:102F3000FF50FFF7A5F936E020480078012832D18C
:102F4000002020490870204908702049087017485F
:102F50001030006840F22A310843144910310860EB
:102F60001248006840F0080010490860002221461D
:102F70004846FFF717FA00E0761E1548006800F093
:102F8000006038B91148007820B90E48007808B9B7
:102F9000002EF1D10EB90420F8E60A48007810B1ED
:102FA000084890F800A05046F0E600002C2C0140A4
:102FB00020000020340100202001002028000020F3
:102FC000FFFF7F002A000020290000202B000020A6
:102FD000006402402DE9FE4F83460C4691460020D6
:102FE0000290002625462C46700240EAD5566D0216
:102FF0000BF00300F0B14FF0000A18E04FF400703E
:1030000000904FEA4A20471946EBE0733A461648CB
:10301000FFF7ACFE02904FF4007213495846FDF7DB
:10302000D3F80BF5007B0AF1010000F0FF0ACA4556
:10303000E4DB16E0B9F1010F09D14FF400702A4624
:10304000334600905846FFF791FE029009E04FF496
:1030500000702A463346CDE90009584600F006F8CC
:1030600002900298BDE8FE8FC80100202DE9FF5FA5
:1030700017469846DDE90E464FF00009CA464FF064
:10308000FF35AC49009808600020AB490860AB48A8
:103090000078022805D10402780A40EAC8574FEAAE
:1030A00068280020A64988604860401E086001200A
:1030B00048610020C86008610846FFF7F1F89E48A3
:1030C0001838006800F0007018B10E2004B0BDE898
:1030D000F09F002C21DDB4F5006F1EDC601E204047
:1030E000D8B9204602F060FA834696480460102062
:1030F00094494860402088600020C8604FF4806098
:1031000008610846FFF732F91020FDF783FC81467D
:10311000B9F1000F03D04846D8E72620D6E7012EA4
:1031200071D906FB04F0B0F1007F01D32620CDE772
:103130004FEA0B108249886006FB04F048604FF0AC
:10314000FF300860012048610220C860002008614B
:103150000846FFF7A5F87B480760122079494860C8
:10316000402088600020C8604FF4806008610846F5
:10317000FFF7FCF81220FDF74DFC8146B9F1000F76
:1031800001D04846A2E77048007800287ED1FDF7BC
:1031900005F81EE04FF40040FFF79CF8A8B14FF08F
:1031A000000A08E06448543000686249096841F840
:1031B0002A000AF1010ABAF1080FF3D35D4800684A
:1031C00020305C490860614D03E00DB904207DE7C3
:1031D0006D1E59480830006840F22A310840002826
:1031E000D8D00820FFF776F820B10820FFF748F87C
:1031F00004206BE70220FFF76DF828B10220FFF7EB
:103200003FF8022062E792E02020FFF763F820B148
:103210002020FFF735F8062058E74FF40070FFF73D
:1032200059F828B14FF40070FFF72AF807204DE74E
:103230000AE04148543000683E49096808603D484A
:103240000068001D3B4908604FF40010FFF742F88A
:103250000028EED14FF48070FFF73CF820B33748D8
:10326000007838B135480078012803D03348007819
:10327000022819D10020334908600C204860402002
:1032800088600020C8604FF4806000E013E00861AF
:103290000846FFF76BF80C20FDF7BCFB8146B9F13F
:1032A000000F01D0484611E7FCF77AFF40F2FF50CB
:1032B000FEF7E6FF3BE024480078012837D10020E4
:1032C0002349087001202349087000202249087012
:1032D00019481030006840F22A310843164910316D
:1032E00008601548006840F008001349086006FBB4
:1032F00004F100220098FFF755F800E06D1E174812
:10330000006800F0006008B9002DF7D10DB9042065
:10331000DCE600BF1048007818B90D480078002896
:10332000F8D00B48007810B1094890F80090484652
:10333000CCE600002C0000202C2C014020000020B6
:10334000340100202001002028000020FFFF7F0022
:103350002A000020290000202B00002000640240E9
:1033600010B5044609480460072008494860402019
:1033700088600020C8604FF4806008610846FEF74E
:10338000F5FF0720FDF746FB10BD000020010020DF
:1033900001460020012900D011B9024B197000E04C
:1033A00026207047280000202DE9FF5F86B01746D1
:1033B0009846149D00260020059004900024814624
:1033C0000390824602900195DDF818B0DDF818B040
:1033D000BBF1000F03D126200AB0BDE8F09F00200A
:1033E000C9490860C94988604860401E08600120DA
:1033F00048610020C86008610846FEF751FFC248D6
:103400001838006800F0007008B10E20E4E7C048EA
:103410000078022805D10502780A40EAC8574FEA29
:103420006828002D1FDDB5F5006F1CDC681E2840E4
:10343000C8B9284602F0B8F80590B64805601020D3
:10344000B4494860402088600020C8604FF4806024
:1034500008610846FEF78AFF1020FDF7DBFA0646F2
:103460001EB13046B8E72620B6E7AB480088000416
:10347000A84908600D204860402088600020C8608E
:103480004FF4806008610846FEF770FF0D20FDF7DD
:10349000C1FA06460EB130469EE79B4818380068D0
:1034A00003904FF0FF341CE0641E9B48008800042A
:1034B000984908600D204860402088600020C8605E
:1034C0004FF4806008610846FEF750FF0D20FDF7BD
:1034D000A1FA06460EB130467EE78B4818380068E0
:1034E0000390039800F4807008B9002CDCD10CB96B
:1034F000292071E7874807601820864948604020E6
:1035000088600020C8604FF4806008610846FEF7BC
:103510002DFF1820FDF77EFA06460EB130465BE718
:1035200000207E49087005980001784988600846A7
:1035300045604FF0FF300860012048610020C860FE
:1035400008610846FEF7ACFE4FF0FF34744800787F
:1035500000287ED1FCF722FE45E04FF48040FEF7C4
:10356000B9FED8B30198A0EB0900202822D2019817
:10357000A0EB090000F0030020B90198A0EB0900BE
:10358000800804E00198A0EB09008008401C02902C
:103590004FF0000A0AE05C495431DBF80000086093
:1035A0000AF1010A0BF1040B09F1040902988245A2
:1035B000F1D310E04FF0000A06E05BF82A00524910
:1035C000543108600AF1010ABAF1080FF5D30BF182
:1035D000200B09F120096FF0404404E0FFE70CB92B
:1035E0000420F9E6641E48480830006840F21A6179
:1035F00008400028B1D00820FEF76CFE20B108205A
:10360000FEF73EFE0420E7E60220FEF763FE20B14F
:103610000220FEF735FE0220DEE61020FEF75AFEFD
:1036200020B11020FEF72CFE0520D5E64FF40070E7
:10363000FEF750FE30B14FF40070FEF721FE072078
:10364000CAE606E0FCF7ACFD40F2FF50FEF718FEBC
:1036500041E03348007801283DD10020314908700D
:103660002E4908703049087027481030006840F231
:103670001A3108432449103108604022294606982F
:10368000FEF790FE2048006840F008001E490860E0
:1036900000E0641E2548006800F0006008B9002CB6
:1036A000F7D11CB9FFF77CF8042095E64FF0FF3402
:1036B00000E0641E1C48007820B91A48007808B958
:1036C000002CF6D10CB9042086E61648007810B11B
:1036D0001448007880E640F2FF50FEF7D1FD04A8C0
:1036E000FEF78AF8064603E004A8FEF785F80646CA
:1036F0003EB99DF810000728F6D09DF81000062866
:10370000F2D0304668E600002C2C01403401002045
:10371000200000202001002024000020290000209B
:10372000280000202A0000202B0000200064024016
:103730002DE9FE4F81460C4692460020029000265D
:1037400025462C46700240EAD5566D0209F003006A
:10375000F0B14FF0000B18E04FF4007249461948E1
:10376000FCF732FD4FF4007000904FEA4B204719F0
:1037700046EBE0733A461348FFF716FE029009F550
:1037800000790BF1010000F0FF0BD345E4DB16E0FC
:10379000BAF1010F09D14FF400702A463346009068
:1037A0004846FFF701FE029009E04FF400702A46F8
:1037B0003346CDE9000A484600F006F80290029828
:1037C000BDE8FE8FC80100202DE9FF5F84B0DDE970
:1037D0001247002600200390029000258046814673
:1037E000019007FB04FBDDF810A0DDF810A0BAF192
:1037F000000F03D1262008B0BDE8F09F0020DC496F
:103800000860DC4988604860401E0860012048610B
:103810000020C86008610846FEF742FDD448183809
:10382000006800F0007008B10E20E4E7D24800788C
:10383000022808D10402DDE90601400A40EAC1502D
:103840004912CDE90601002C1FDDB4F5006F1CDC28
:10385000601E2040C8B9204601F0A6FE0390C7486C
:1038600004601020C5494860402088600020C8607E
:103870004FF4806008610846FEF778FD1020FDF7E0
:10388000C9F806461EB13046B5E72620B3E7012F3A
:103890006FD907FB04F0B0F1007F01D32620AAE71F
:1038A000B548007838B1B4480078012803D0B24850
:1038B000007802282DD1B24800880004AF49086082
:1038C00037204860402088600020C8604FF4806046
:1038D00008610846FEF74AFD3720FDF79BF80646CB
:1038E0000EB1304687E7A54807601720A349486016
:1038F000402088600020C8604FF48060086108465E
:10390000FEF734FD1720FDF785F806460EB1304668
:1039100071E79A490698086019204860402088603D
:103920000020C8604FF4806008610846FEF71EFD65
:103930001920FDF76FF806460EB130465BE7039895
:1039400000018C49886007FB04F048604FF0FF30AD
:103950000860012048610020C86008610846FEF741
:103960009FFC88480078002874D1451EFCF716FC9F
:1039700042E0E4E04FF48040FEF7ACFCB8B3ABEBC0
:10398000080020281FD2ABEB080000F0030018B994
:10399000ABEB0800800803E0ABEB08008008401C9C
:1039A00001904FF000090AE071495431DAF8000043
:1039B000086009F101090AF1040A08F104080198F4
:1039C0008145F1D310E04FF0000906E05AF82900D4
:1039D00067495431086009F10109B9F1080FF5D3BD
:1039E0000AF1200A08F120086FF0404504E0FFE7E3
:1039F0000DB90420FFE66D1E5D480830006840F2F6
:103A00001A3108400028B5D00820FEF763FC20B129
:103A10000820FEF735FC0420EDE60220FEF75AFCF4
:103A200020B10220FEF72CFC0220E4E61020FEF775
:103A300051FC20B11020FEF723FC0520DBE64FF4FB
:103A40000070FEF747FC30B14FF40070FEF718FC31
:103A50000720D0E62CE04FF48070FEF73BFC00B36B
:103A60004548007838B144480078012803D04248DE
:103A70000078022815D10020404908600C204860D9
:103A8000402088600020C8604FF4806008610846CC
:103A9000FEF76CFC0C20FCF7BDFF06460EB130466D
:103AA000A9E6FCF77DFB40F2FF50FEF7E9FB46E09C
:103AB00034480078012842D10020334908700120A1
:103AC00032490870002032490870294810300068D7
:103AD00040F21A31084326491031086007FB04F10F
:103AE00040220498FEF75EFC2148006840F0080080
:103AF0001F4908604FF0FF3500E06D1E2548006843
:103B000000F0006008B9002DF7D11DB9FEF748FE9E
:103B1000042070E64FF0FF3500E06D1E1C48007871
:103B200020B91948007808B9002DF6D10DB9042044
:103B300061E61548007810B1134800785BE640F262
:103B4000FF50FEF79DFB02A8FDF756FE064603E078
:103B500002A8FDF751FE06463EB99DF80800072869
:103B6000F6D09DF808000628F2D0304643E6000063
:103B70002C2C0140340100202000002020010020D6
:103B800024000020280000202A0000202900002016
:103B90002B0000200064024000B587B00121022004
:103BA000FEF754FA01210803FEF780FA05220321EB
:103BB0002848FDF7F9FD052204212648FDF7F4FD0C
:103BC000052211462348FDF7EFFD3820059002201D
:103BD0008DF8180000208DF81A0003208DF81900C8
:103BE00001208DF81B0005A91A48FDF795FD01215C
:103BF0000803FEF76BFA00214FF48050FEF766FAD7
:103C00000020ADF800004FF48270ADF802000020F3
:103C1000ADF804000220ADF806000120ADF8080060
:103C20004002ADF80A003820ADF80C000020ADF8D5
:103C30000E000720ADF810006946074800F058F85C
:103C40000121054800F03AF8FF2000F007F807B01E
:103C500000BD0000000402400030014010B50446E1
:103C600000BF02210A4800F035F80028F9D02146AB
:103C7000074800F03BF800BF0121054800F02AF892
:103C80000028F9D0024800F02EF8C0B210BD0000A4
:103C90000030014010B50446074800884FF6C77150
:103CA0000840054908800846008820430880012113
:103CB000014800F003F810BD0030014021B1028836
:103CC00042F04002028004E002884FF6BF731A40BF
:103CD000028070470246002013890B400BB101207F
:103CE00000E0002070470146888970478181704755
:103CF00010B50022028802F441520B884C882343FD
:103D00008C882343CC8823430C8923434C89234349
:103D10008C892343CC8923431A430280838B4FF23F
:103D2000FF74234083830B8A038210BD7047000019
:103D30000CB50020019000903448006840F48030B9
:103D40003249086000BF3148006800F4003000903C
:103D50000198401C0190009818B90198B0F5A04F47
:103D6000F1D12A48006800F4003010B10120009021
:103D700001E0002000900098012846D123484030FF
:103D8000006840F0805021494031086020480068B8
:103D900040F440401E4908601C48083000681B4938
:103DA000083108600846006840F400400860084692
:103DB000006840F4A05008601648091F0860081FFA
:103DC000006840F08070091F086000BF0F4800685D
:103DD00000F000700028F9D040F205700E4908602C
:103DE0000A480830006820F00300084908310860DC
:103DF0000846006840F00200086000BF0348083031
:103E0000006800F00C000828F8D10CBD0038024012
:103E10000070004008544007003C0240042808D1CC
:103E20004FF0E021096941F004014FF0E0221161F7
:103E300007E04FF0E021096921F004014FF0E02292
:103E4000116170477047000010B504466FF0040020
:103E5000FFF7E4FFE11704EB5171C1F3C701074A13
:103E600011701046007800EB4001C1EBC0104FF616
:103E7000FF7101EAC0000249088010BD1000002057
:103E80001200002010B51548006840F47000134976
:103E900008601348006840F00100114908600020E4
:103EA0000F49083108600E4800680E4908400C4967
:103EB00008600D48091D0860081F006820F4802074
:103EC000091F0860002006490C310860FFF730FF29
:103ED0004FF0006001498039086010BD88ED00E0B6
:103EE00000380240FFFFF6FE1030002400B59DB000
:103EF00001210846FEF7BAF801200790002008903B
:103F00000F20099000200A900B900C900D9010202B
:103F100000900190182002900020039004900590DA
:103F2000069006200E9000200F9010901020119007
:103F30000020129014901390159016904FF480501A
:103F40001790002018904FF48040199000201A908C
:103F500007A81B90CDF870D00EA8FDF735F9012108
:103F60000620FDF717F91DB000BD00001CB50121AA
:103F70007820FEF76BF80C220E215748FDF714FC51
:103F80000C220F215448FDF70FFC0C22002152484F
:103F9000FDF70AFC0C2201214F48FDF705FC0C221D
:103FA00007214E48FDF700FC0C2208214B48FDF785
:103FB000FBFB0C2209214948FDF7F6FB0C220A21E4
:103FC0004648FDF7F1FB0C220B214448FDF7ECFBC2
:103FD0000C2211464148FDF7E7FB0C220D213F481A
:103FE000FDF7E2FB0C220E213C48FDF7DDFB0C2225
:103FF0000F213A48FDF7D8FB0C2208213648FDF77F
:10400000D3FB0C2209213448FDF7CEFB0C220A21F8
:104010003148FDF7C9FB0C2204212F48FDF7C4FBF2
:104020000C2205212C48FDF7BFFB0C2211462C4821
:10403000FDF7BAFB0C2211462A48FDF7B5FB4CF2FE
:104040003370009002208DF8040000208DF80600E7
:1040500003208DF8050001208DF8070069461E48F1
:10406000FDF75AFB4FF68070009002208DF8040097
:1040700000208DF8060003208DF8050001208DF842
:10408000070069461548FDF747FB4FF48050009044
:1040900002208DF8040000208DF8060003208DF822
:1040A000050001208DF8070069460D48FDF734FB37
:1040B0004FF48050009002208DF8040000208DF80D
:1040C000060003208DF8050001208DF807006946E1
:1040D0000448FDF721FB1CBD000C0240001002400B
:1040E000001402400018024010B5FFF73FFFFFF731
:1040F000FDFE322001F061FAD320FDF729FF784858
:1041000000887849888076480088888074480088CC
:104110008880084680884FF6FF7101EA00207149C7
:104120008880084680884FF0D841B1F88010084355
:104130006C498880084681886BA000F0F3FBE02082
:10414000FDF706FF0020FDF709FF0720FDF706FF3A
:104150000F20FDF703FF0D20FDF700FF1B20FDF7EB
:10416000FDFE0A20FDF7FAFE3C20FDF7F7FE782061
:10417000FDF7F4FE4A20FDF7F1FE0720FDF7EEFE05
:104180000E20FDF7EBFE0920FDF7E8FE1B20FDF7F2
:10419000E5FE1E20FDF7E2FE0F20FDF7DFFEE12029
:1041A000FDF7D6FE0020FDF7D9FE2220FDF7D6FE52
:1041B0002420FDF7D3FE0620FDF7D0FE1220FDF7E8
:1041C000CDFE0720FDF7CAFE3620FDF7C7FE4720CB
:1041D000FDF7C4FE4720FDF7C1FE0620FDF7BEFE39
:1041E0000A20FDF7BBFE0720FDF7B8FE3020FDF7E3
:1041F000B5FE3720FDF7B2FE0F20FDF7AFFEC02061
:10420000FDF7A6FE1020FDF7A9FE1020FDF7A6FE83
:10421000C120FDF79DFE4120FDF7A0FEC520FDF762
:1042200097FE0020FDF79AFE2220FDF797FE8020E2
:10423000FDF794FE3620FDF78BFE0020FDF78EFE85
:104240003A20FDF785FE5520FDF788FEB020FDF7EA
:104250007FFE0020FDF782FEB120FDF779FEB02041
:10426000FDF77CFE1120FDF779FEB420FDF770FE0E
:104270000220FDF773FEB620FDF76AFE0220FDF76F
:104280006DFE0220FDF76AFEB720FDF761FEC62035
:10429000FDF764FEE920FDF75BFE0020FDF75EFE02
:1042A000F720FDF755FEA920FDF758FE5120FDF738
:1042B00055FE2C20FDF752FE8220FDF74FFE112007
:1042C000FDF746FE782001F078F92920FDF740FE41
:1042D0000020FDF775FB4FF6FF70FDF74DFB10BD9D
:1042E0008000006C18000020204C43442049443AD0
:1042F00025780D0A0000000010B50121880700F0A4
:10430000A8F80121880700F095F810BD10B501212B
:10431000034800F09EF80121014800F08BF810BD21
:104320000004004010B50121034800F092F801217B
:10433000014800F07FF810BD0008004010B50121D1
:10434000194800F086F818B30121174800F072F8F8
:1043500016480078E8B116480078401C14490870E7
:10436000084600781149097888421CD1002010497C
:1043700008700E4908700F48008840F400400D494D
:1043800008800021084800F058F8632000F03EF84B
:1043900009E00848008840F40040064908800021F0
:1043A000014800F04AF810BD001400404000002011
:1043B0003E0000203C0000207FB505460C46012150
:1043C0002020FDF763FE0195ADF800400020ADF818
:1043D0000800ADF8020069460B4800F057F80122CA
:1043E0001146094800F046F837208DF80C000020EF
:1043F0008DF80D0001208DF80E008DF80F0003A838
:10440000FDF7DCFD7FBD00000014004010B5044640
:104410000021074800F037F805482C3000680020DC
:1044200003492C310860084600682043086010BD2D
:1044300000140040CA430282704721B1028842F052
:104440000102028004E002884FF6FE731A400280E7
:10445000704730B50246002000230024158A05EA83
:104460000103958905EA010413B10CB1012000E0B4
:10447000002030BD1AB183890B43838102E0838918
:104480008B4383817047416270470000002202889D
:10449000184B98420ED0184B98420BD0B0F1804F79
:1044A00008D0164B984205D0154B984202D0154BB8
:1044B000984204D14FF68F731A404B881A43124B1F
:1044C000984207D0114B984204D04FF6FF431A4050
:1044D0000B891A4302804B68C3620B880385054B26
:1044E000984202D0044B984201D18B7A0386012373
:1044F0008382704700000140000401400004004036
:1045000000080040000C0040001000400014004073
:10451000704710B5FCF7ECFE10BD10B50020FCF79D
:1045200087FF10BD10B540F225510C4800F034F95A
:1045300070B10A4800F0EAF9C4B22146074800F019
:10454000EAF900BF4021054800F019F90128F9D126
:104550004021024800F0FEF810BD000000100140AC
:1045600010B588B0044601210846FDF76FFD012112
:104570001020FDF79BFD072209212448FDF714F9BF
:1045800007220A212148FDF70FF94FF4C060069079
:1045900002208DF81C008DF81D0000208DF81E00F3
:1045A00001208DF81F0006A91848FDF7B5F8029400
:1045B0000020ADF80C00ADF80E00ADF81000ADF81D
:1045C00014000C20ADF8120002A9114800F034F9D3
:1045D00001210F4800F0C7F840210D4800F0BAF85B
:1045E000012240F225510A4800F000F925208DF8FB
:1045F000040003208DF805008DF8060001208DF8D9
:10460000070001A8FDF7DAFC08B010BD0000024069
:104610000010014010B540F22551164800F0BCF8DA
:1046200000B3144800F072F9C4B21348008800F4D3
:104630000040B8B910480088B0F5C87F13DA0021EF
:104640000E48FFF720FF0C48008818B901210B48DD
:10465000FFF7F3FE084801880088401C064A1080D6
:104660000748445405E00448008840F400400249EB
:10467000088010BD004800403C00002000140040AD
:10468000C803002010B588B0044601210220FDF7C0
:10469000DDFC01218804FDF7F9FC07220A212948E5
:1046A000FDF782F807220B212648FDF77DF84FF42D
:1046B0004060069002208DF81C008DF81D0000203F
:1046C0008DF81E0001208DF81F0006A91D48FDF77A
:1046D00023F827208DF8040002208DF80500032020
:1046E0008DF8060001208DF8070001A8FDF766FC93
:1046F00002940020ADF80C00ADF80E00ADF81000EB
:10470000ADF814000C20ADF8120002A90E4800F01C
:1047100093F8012240F225510B4800F067F801217F
:10472000094800F020F842F2CF016320FFF744FE71
:1047300000200649088000210548FFF77EFE08B0EA
:1047400010BD000000040240004800403C00002072
:104750000014004001F40072B2F5007F00D100BFE8
:10476000CA430280704721B1828942F4005282819B
:1047700004E082894DF6FF731A4082817047024639
:104780000020B1F5007F00D100BF13880B400BB1B2
:10479000012000E00020704770B50246002400238D
:1047A0000025002040F66A16B14200D100BFC1F3D7
:1047B000421501F01F03012606FA03F3012D02D171
:1047C0009689334006E0022D02D1168A334001E07B
:1047D000968A33400C12012606FA04F416883440F7
:1047E00013B10CB1012000E0002070BDF0B503460C
:1047F000002400260025002040F66A17B94200D1A7
:1048000000BF1846C1F3421401F01F06012707FA42
:1048100006F5012C01D10C3004E0022C01D110303E
:1048200000E014301AB107682F43076002E0076800
:10483000AF430760F0BD00002DE9FF4705460E4677
:104840000024A14600BFA046B08900B100BF2C8A59
:1048500024F44054F08804432C82AC8941F20C606B
:104860008443B08831890843718908430443AC818B
:10487000AC8A24F44074B0890443AC826846FDF7E6
:1048800035FC2048854202D01F48854202D1DDF820
:104890000C9001E0DDF80890A88900F4004040B1D8
:1048A00009EBC90000EB091031684900B0FBF1F7D2
:1048B00007E009EBC90000EB091031688900B0FB83
:1048C000F1F76420B7FBF0F004012009642101FB3B
:1048D0001078A88900F4004040B1322000EBC800F5
:1048E000B0FBF1F000F00700044308E0322000EBD9
:1048F00008106421B0FBF1F000F00F0004432C819C
:10490000BDE8FF870010014000140140014688887F
:10491000C0F308007047C1F308028280704700BFEF
:10492000FEE700000FB4054B10B503A9044A029836
:1049300000F0F0F810BC5DF814FB0000495C0008C2
:10494000040100200FB4084B10B504A902AA039873
:1049500000F0E0F8044602A9002000F0D2FD204655
:1049600010BC5DF814FB00000355000837B5144671
:104970000846064B6A46214600F02CFA0446694672
:10498000002000F0C3FD20463EBD00000D5500088C
:1049900002E008C8121F08C1002AFAD17047704708
:1049A000002001E001C1121F002AFBD17047000066
:1049B0002DE9FF5FDDE90220010DDDF838B002438B
:1049C00018D044F61050A1F2FF3141430D140F9856
:1049D000012820D0A5EB0B00401C5FEA000A4FF035
:1049E0000004474EDFF81C91A046504616D5CAF188
:1049F000000728E00F98012443A2012808D00021D5
:104A000000980F9BC0E90021C0E90243BDE8FF9F69
:104A10006FEA0B01F4E7CBF10000DEE7074612E096
:104A2000F80707D02246334640464946FBF7EEFCDE
:104A3000804689462246334610461946FBF7E6FC77
:104A400004460E467F10002FEAD1DDE90201BAF1DB
:104A5000000F42464B4602DAFBF7D8FC01E0FBF7B9
:104A600047FD04460E460022284BFBF7C9FD03D83C
:104A70004FF0FF30014607E00022254B204631462B
:104A8000FBF71DFCFBF7A3FD102409E0002C0ADB5B
:104A90000A220023FBF7E2FB019B30321A55641E09
:104AA00050EA0102F2D1641C019AC4F111031444CA
:104AB0000F9A012A03D0012208430DD10AE00843CE
:104AC00004D000204FF0110B0F9080E7A3EB0B05F3
:104AD0006D1E0DE05B4504DD4FF0000205F10105A0
:104AE00004E003DA4FF00002A5F10105002AECD042
:104AF00000980F99C0E90231C0E9004586E700003F
:104B0000000024400000F03F300000000000F043AF
:104B10000000E03F2DE9FF4F8DB09B460F46044655
:104B2000002606E025280BD05A460F999047641CB2
:104B3000761C20780028F5D111B03046BDE8F08F02
:104B40000025A8460122984900E0054314F8013FDA
:104B5000203B02FA03F00842F7D120782E2817D123
:104B600014F8010F45F004052A280ED06FF02F022B
:104B70002078A0F1300109290AD808EB880102EB5E
:104B8000410100EB0108641CF2E757F8048B641C38
:104B900020786C280DD004DC4C2812D06A2811D162
:104BA00004E074280DD07A280CD10AE045F40015F1
:104BB00007E0617845F48015814202D1641C05F557
:104BC0008015641C2278692A45D008DC002AB3D0FD
:104BD000582A69D0632A10D0642A08D13BE0702A91
:104BE00067D0732A13D0752A5CD0782A5CD010461F
:104BF0005A460F999047761CD3E017F8040B8DF8AE
:104C0000000000208DF80100E946012003E057F87C
:104C1000049B4FF0FF3069074FF0000501D40AE014
:104C20006D1C45450DDA8542FADB19F8051000299F
:104C3000F6D106E06D1C8542FCDB19F80510002951
:104C4000F8D12E4404E019F8010B5A460F99904709
:104C50006D1EF8D2A5E00A200021CDE90801C5F3B8
:104C6000025002280DD001CFC117031E71F10003BD
:104C70000DDA4FF0000CD0EB0C006CEB01012D2392
:104C800008E0FF1D27F00707F7E80201EDE72B0515
:104C900004D52B238DF8283001233BE0EB0739D0D6
:104CA0002023F7E70A2000E010200021CDE90801C9
:104CB00007E01020002145F00405CDE908014FF080
:104CC0000808C5F3025002280FD001CF00214FF091
:104CD000000A2B071FD5702A0DD0DDE908C38CF020
:104CE000100C5CEA030C0CD015E0FF1D27F0070741
:104CF000F7E80201EBE740228DF828204FF0010A87
:104D00000BE050EA010306D030238DF828308DF8EF
:104D1000292002239A46582A04D024A20DF1200902
:104D20000B9209E026A2F9E7DDE90823FBF796FAE2
:104D30000B9B9B5C09F8013D50EA0102F4D1ADEBFD
:104D4000090020300890680701D44FF00108089945
:104D5000884502DDA8EB010000E000208046002528
:104D600006E00AA85A46405D0F9990476D1C761CD4
:104D70005545F6DB04E030205A460F999047761CE3
:104D8000B8F10001A8F10108F5DC05E019F8010B04
:104D90005A460F999047761C0899481E089000299A
:104DA000F4DC641CC5E60000092801003031323310
:104DB0003435363738396162636465660000000057
:104DC0003031323334353637383941424344454641
:104DD000000000002DE9FF4F95B09B46894606462E
:104DE00000250FE2252877D100242746F84A012123
:104DF000059400E0044316F8013F203B01FA03F05C
:104E00001042F7D130782A2811D06FF02F03307874
:104E1000A0F13002092A16D8059A44F0020402EBE8
:104E2000820203EB42021044761C0590EFE759F82A
:104E3000042B0592002A03DA504244F400540590F2
:104E400044F00204761C30782E2816D116F8010F93
:104E500044F004042A280DD06FF02F023078A0F11E
:104E60003003092B09D807EB870302EB4303C7186C
:104E7000761CF3E759F8047B761C30786C280FD049
:104E800006DC4C2817D068280DD06A2814D104E01D
:104E9000742810D07A280FD10DE044F400140AE0F1
:104EA00044F4801401E044F440147278824202D148
:104EB00004F58014761C761C307866280BD013DC41
:104EC000582877D009DC002875D04528F6D0462828
:104ED000F4D047281AD19DE118E0632835D0642822
:104EE00079D0652812D195E1702873D008DC672845
:104EF000F1D069286FD06E280DD06F2806D1B5E0AB
:104F000073282CD0752875D0782874D05A461799F4
:104F100090476D1C75E1C4F30250022809D00328A4
:104F20000DD0D9F8001004280DD00D6009F1040946
:104F300067E1D9F80010EA17C1E90052F6E7D9F89D
:104F400000100D80F2E70D70F0E719F8041B8DF8E2
:104F5000001000208DF80100EA46012003E059F816
:104F600004AB4FF0FF3061074FF0000102D40DE0B9
:104F700008F101018846B9420FDA8045F8DB1AF8DA
:104F800008100029F4D108E008F1010188468142A7
:104F9000FADB1AF808100029F6D105985B46A0EB59
:104FA000080721463846179A00F094FA284400EB87
:104FB000080507E04DE029E10DE01AF8010B5A461B
:104FC00017999047B8F10108F7D25B462146384659
:104FD000179A13E142E00A220092C4F302524FF002
:104FE000000A022A08D059F804CB032A4FEAEC71D0
:104FF0000AD00DE029E02AE009F1070121F00702BB
:10500000F2E802C1914609E00FFA8CFC4FEAEC711C
:10501000042A03D14FFA8CFC4FEAEC71002907DA1D
:105020000A460021DCF1000C61EB02012D2202E0B6
:10503000220504D52B228DF80420012203E0E2078B
:1050400001D02022F7E7904659E00A2102E0102221
:105050000DE010214FF0000A00910BE010224FF0FC
:10506000000A44F004040827009203E008224FF0ED
:10507000000A0092C4F30252022A05D059F804CB68
:105080000021032A08D009E009F1070121F00702F5
:10509000F2E802C1914605E01FFA8CFC042A01D116
:1050A0000CF0FF0C4FF00008220728D5702806D01E
:1050B000009B83F0100353EA0A0305D00EE0402260
:1050C0008DF80420012208E05CEA010206D03022BB
:1050D0008DF804208DF8050002229046009B83F095
:1050E000080353EA0A030AD15CEA010201D162070C
:1050F00005D530228DF804204FF001087F1E582876
:1051000004D034A003900EA802900DE036A0F9E779
:1051100053466046009AFBF7A1F884460398825CE8
:105120000298401E029002705CEA0100F0D10298E1
:1051300006A9081A00F1200A600702D524F4803479
:1051400000E00127574502DDA7EB0A0000E0002040
:1051500000EB0A01009005984144401A0590E003D5
:1051600006D45B462146179A059800F0B3F905442A
:10517000002706E001A85A46C05D179990476D1CAC
:105180007F1C4745F6DBE0030CD55B462146179AAA
:10519000059800F09FF9054404E030205A4617991D
:1051A00090476D1C0099481E00900029F5DC08E02E
:1051B000029802995A460078491C02911799904723
:1051C0006D1CBAF10001AAF1010AF1DC65E10000F1
:1051D00009280100303132333435363738396162CD
:1051E0006364656600000000303132333435363791
:1051F00038394142434445460000000000F058F968
:105200000544761C307800287FF4ECAD19B02846B0
:10521000BDE8F08F620700D4062709F1070222F0EB
:10522000070CFCE80223E14603F000485FEA080CA3
:1052300002D00FF2702C0DE05FEA045C02D50FF291
:10524000682C07E05FEAC47C02D00FF2602C01E01A
:10525000AFF2700C4FF0FF3823F00043CDF850C090
:1052600065280CD006DC452809D046281DD04728E3
:105270003DD13DE0662818D067287ED138E0002176
:10528000112F01DB112000E0781CCDE9000106A9F7
:105290000EA8FFF78DFBDDE90F010E9A03910021A7
:1052A000009207F1010A04914DE04FF00040009791
:1052B000CDE9011006A90EA8FFF77AFBDDE90F0280
:1052C00003920E9B11990022DDF80CA0009304922A
:1052D00011B9791C00EB010AB7EB0A0004D4C0F144
:1052E000FF3007F1010A0490AAEB0700019044E0A7
:1052F000012F00DA01270021112F01DD112000E02C
:105300003846CDE9000106A90EA8FFF751FBDDE9FB
:105310000F010E9A0391002104910092BA462107D1
:105320000CD40399514500DA8A46BAF1010F05DD24
:10533000009AAAF10101515C302908D0B84202DA82
:1053400010F1040F06DA0121CDE9011015E0AAF1F0
:105350000101E9E7002805DC049901440491AAEB66
:10536000000102E0411C514500DD8A460499401AC3
:10537000401C01904FF000400290200704D4019897
:10538000504501DBCDF8048000208DF84F000298D5
:105390000DF14F07B0F1004F25D02B200E90029851
:1053A0004FF0020800280CDA404202902D200E90A7
:1053B00007E00A210298FAF73BFF3031029007F824
:1053C000011DB8F10001A8F10108F2DC02980028E3
:1053D000EFD1791E0E980870307800F0200040F070
:1053E000450007F8020D12A8C01B00F10708149829
:1053F000007800B1012000EB0A01019801EBE07197
:1054000005984144401A401E0590E00306D45B46CF
:105410002146179A059800F05DF805441498007825
:1054200018B15A46179990476D1CE00324D55B4686
:105430002146179A059800F04DF805441CE00498A1
:10544000002807DBDDE90301884203DD0098405CAA
:10545000179901E0179930205A469047049805F1B2
:105460000105401C04900198401E019004D12E209B
:105470005A46179990476D1CBAF10001AAF1010A2A
:10548000DDDC05E017F8010B5A46179990476D1CB3
:10549000B8F10001A8F10108F4DC5B462146179A37
:1054A0000598ABE62D0000002B0000002000000056
:1054B0002DE9F041044600251E461746880404D411
:1054C00005E039462020B0476D1C641EF9D52846FA
:1054D000BDE8F0812DE9F041044600251E469046C6
:1054E000C80301D5302700E02027880404D505E053
:1054F00041463846B0476D1C641EF9D52846BDE8C4
:10550000F0810A68531C0B60107070470A68531CC6
:105510000B6010707047000070B504460D46002007
:105520002071401EE0622946204600F015FC08B1BB
:10553000032070BD94F82E1294F82F0241EA002047
:105540004AF65521884201D00220F2E794F869001A
:10555000010694F8680041EA004194F8670041EAC6
:10556000002094F86610084320F07F400D498842DF
:1055700001D10020DDE794F88500010694F884004D
:1055800041EA004194F8830041EA002094F8821037
:10559000084320F07F400349884201D10020C8E73A
:1055A0000120C6E7464154000146002002E04910B0
:1055B000421CD0B20129FAD1704770B504464FF4AD
:1055C000077094FBF0F0C6B24FF4077094FBF0F153
:1055D00000FB114085B205E04FF4077000F00AF8B7
:1055E000701EC6B2002EF7D115B1284600F002F8A1
:1055F00070BD00000146114A12884A434FF0E02373
:105600005A6100229A611A46126942F001021A6137
:1056100000BF4FF0E022106900F001021AB100F45F
:105620008032002AF5D04FF0E022126922F0010208
:105630004FF0E0231A6100229A61704712000020A7
:105640000146114A12784A434FF0E0235A61002282
:105650009A611A46126942F001021A6100BF4FF0C6
:10566000E022106900F001021AB100F48032002A31
:10567000F5D04FF0E022126922F001024FF0E02352
:105680001A6100229A6170471000002070B505462B
:1056900025B1012D06D0022D0CD10AE0FDF780F8CE
:1056A000044609E0FBF7C6FB4FF4C04005490880FB
:1056B00002E001E0012400BF00BF0CB1012070BD79
:1056C0000020FCE7EC0000202DE9F04180460F4669
:1056D00016461C4614B90420BDE8F081B8F1000F4D
:1056E00006D0B8F1010F15D0B8F1020F22D120E099
:1056F000E2B231463846FDF76DFC054607E0FDF79E
:105700004FF8E2B231463846FDF764FC0546002DFD
:10571000F5D111E009E071024FF400723846FBF751
:10572000C5FB761C07F50077641E002CF3D100251D
:1057300002E001E0012500BF00BF0DB90020CBE76A
:105740000120C9E7014621B1012904D0022906D16F
:1057500003E0104670471046FCE71046FAE70120C8
:10576000F8E72DE9F04180460F4616461C4614B96D
:105770000420BDE8F081B8F1000F06D0B8F1010FA8
:1057800015D0B8F1020F22D120E0E2B231463846FE
:10579000FDF7CEFF054607E0FDF702F8E2B231461D
:1057A0003846FDF7C5FF0546002DF5D10FE009E0AD
:1057B00071024FF400723846FBF7E5FB761C07F5E3
:1057C0000077641E002CF3D1002500E000BF00BF6D
:1057D0000DB90020CDE70120CBE70000F7B582B07E
:1057E00016460398019001A800F040FA0546002DE6
:1057F00002DA0B2005B0F0BD0E4850F825400CB180
:1058000000202070029810B1002002990870094908
:10581000029841F82500029808B1012E01D000201D
:10582000E8E7002203A902A800F044F8074638463A
:10583000E0E7000000B001202DE9F04102460F46EC
:10584000802A01DA10462FE01FB1184B45F220568E
:1058500002E0174B45F220560025102416E0A6EB77
:10586000050C0CEBDC7805EB68014FEA410C33F8D2
:105870001CC0944500D10BE04FEA410C33F81CC02A
:10588000944501DA0D4600E00E46641E002CE6D178
:1058900000BF34B14FF0010C0CEB410C33F81CC0CD
:1058A00001E04FF0000C6046BDE8F08128FA0108E5
:1058B000A4A500082DE9F74F8AB000210A980160DD
:1058C0000B9800F0D3F909900998002803DA0B200F
:1058D0000DB0BDE8F08FD849099851F820400CB9B7
:1058E0000C20F5E70A980460207878B16078FFF71B
:1058F00029FF814609F0010040B90C9820B109F058
:10590000040008B10A20E3E70020E1E7002020704E
:10591000099860706078FFF7B9FE814609F00100D0
:1059200008B10320D4E70C9820B109F0040008B1B5
:105930000A20CDE7002739462046FFF7EDFD054652
:10594000012D01D09DBB32E000261AE004F5F7706E
:1059500000EB061898F8040070B198F80B000106E7
:1059600098F80A0041EA004198F8090041EA00204D
:1059700098F80810084300E0002002A941F826002A
:10598000761C042EE2D3002606B1761E00BF02A8C4
:1059900050F8267027B139462046FFF7BDFD00E0DC
:1059A000022005461DB1701C06460428EFD3032DC6
:1059B00001D101208CE70DB10D2089E73B20015D6D
:1059C00094F83C0041EA0020B0F5007F01D00D20A2
:1059D0007EE74620015D94F8470041EA002ABAF1CB
:1059E000000F0ED194F85700010694F8560041EAD2
:1059F000004194F8550041EA002094F8541040EA20
:105A0000010AC4F818A04020005DE070E078012889
:105A100004D0E078022801D00D2059E7E0780AFB95
:105A200000FA3D20005DA070A07818B1A078411E5A
:105A3000084008B10D204BE74120015D94F8420079
:105A400041EA00202081207A00F00F0008B10D20EB
:105A50003EE74320015D94F8440041EA00200890AD
:105A6000089870B994F85300010694F8520041EA7E
:105A7000004194F8510041EA002094F85010084386
:105A800008903E20015D94F83F0041EA002001901B
:105A9000019808B90D201BE701985044218900EBBB
:105AA00011100790DDE90701814201D20D200FE7B7
:105AB000DDE90710401AA178B0FBF1FBBBF1000F44
:105AC00001D10D2004E7012540F6F670834500D38F
:105AD00002254FF6F670834500D303250BF1020033
