:020000040800F2
:10000000980E0020E5010008C90C0008410800080E
:10001000C50C0008F1040008CB1700080000000020
:100020000000000000000000000000009F0F00081A
:10003000F504000800000000510D0008B110000890
:10004000FF010008FF010008FF010008FF01000890
:10005000FF010008FF010008FF010008FF01000880
:10006000FF010008FF010008FF010008FF01000870
:10007000FF010008FF010008FF010008FF01000860
:10008000FF010008FF010008FF010008FF01000850
:10009000FF010008FF010008FF010008FF01000840
:1000A000FF010008FF010008FF010008FF01000830
:1000B000FF010008FF010008FF010008FF01000820
:1000C000FF010008FF010008FF010008FF01000810
:1000D000FF010008FD140008FF010008FF010008EF
:1000E000FF010008FF010008FF010008FF010008F0
:1000F000FF010008FF010008FF010008FF010008E0
:10010000FF010008FF010008FF010008FF010008CF
:10011000FF010008FF010008FF010008FF010008BF
:10012000FF010008FF010008FF010008FF010008AF
:1001300000F002F800F042F80AA090E8000C8244B7
:100140008344AAF10107DA4501D100F037F8AFF294
:10015000090EBAE80F0013F0010F18BFFB1A43F0A5
:10016000010318475C3800007C380000103A24BFB7
:1001700078C878C1FAD8520724BF30C830C144BF0C
:1001800004680C607047000000230024002500264E
:10019000103A28BF78C1FBD8520728BF30C148BFEA
:1001A0000B607047642900F07F80782900F0B880E8
:1001B000002070471FB51FBD10B510BD00F068F9D5
:1001C0001146FFF7F7FF01F087FB00F086F903B453
:1001D000FFF7F2FF03BC01F0FAFA000080F3088891
:1001E000704700000948804709480047FEE7FEE7DE
:1001F000FEE7FEE7FEE7FEE7FEE7FEE7FEE7FEE7D7
:1002000004480549054A064B70470000F1100008F4
:100210003101000898080020980E0020980A00205C
:10022000980A0020704700000FB4044910B503AAD3
:10023000029800F0FFF810BC5DF814FB2C000020C1
:100240002DE9F0410E460446002020622046E16878
:10025000884730B3252805D0D4E901219047206A8A
:10026000401CF2E7E168204600278847050018D0C7
:10027000A5F14100192802D820354FF40067324615
:10028000294620462760FFF78DFF40B1012804D0A2
:10029000F61D26F007060836D8E7361DD6E72846AD
:1002A000DAE7206ABDE8F0812DE9F0410646002436
:1002B00010687529314616A510D0AFF300800028CC
:1002C00002DA404213A507E031688A0701D512A57A
:1002D00002E0490704D511A5012401E0AFF3008035
:1002E00000210A2206F1240709E0B0FBF2FCB0FB72
:1002F000F2F302FB1C00303078541846491C0028E9
:10030000F3D123462A463046BDE8F04100F038B824
:10031000000000002D0000002B0000002000000065
:1003200070B504460D4621461068AFF30080218861
:10033000090502D50F4A7A4402E00E4A7A440E3289
:10034000002104F1240305E000F00F060009965D8A
:100350005E54491C0028F7D120780023000704D5FB
:10036000702D02D009B1022311322046BDE8704041
:1003700000F006B85C360000704770477047704761
:100380002DE9F0470D4699469246044600F12408AF
:100390000168880604D5E06921F01001216000E0C1
:1003A0000120A84201DD471B00E00027A1697A195E
:1003B00002EB0900081AA0612078C00602D420468A
:1003C000AFF30080002608E0D4E901211AF8060006
:1003D0009047206A401C761C20624E45F4DB207852
:1003E000C0060AD52046AFF3008006E0D4E901211B
:1003F00030209047206A401C2062381EA7F1010778
:10040000F4DC07E0D4E9012118F805009047206AE0
:10041000401C2062281EA5F10105F3DC2046AFF345
:1004200000802078000602D50220BDE8F087012078
:10043000FBE70000074B70B50D467B4400F011F858
:100440000446284600F020F810B14FF0FF3070BD90
:10045000204670BDE313000001694A1C0261087860
:10046000704700B58FB0CDE90131002105910549F4
:100470007944CDE9031011466846FFF7E1FE0FB05D
:1004800000BD0000E5FFFFFF007B00F0800070472B
:10049000754600F029F8AE4605006946534620F03F
:1004A0000700854618B020B5FFF7AAFEBDE820403A
:1004B0004FF000064FF000074FF000084FF0000B20
:1004C00021F00701AC46ACE8C009ACE8C009ACE8D3
:1004D000C009ACE8C0098D4670470446AFF3008000
:1004E0002046FFF774FE00000048704734080020E3
:1004F00000BFFEE77047000030B5044604254FF406
:10050000302000F06FF80546042D17D10C48006923
:1005100040F002000A49086108464461006940F061
:10052000400008614FF4302000F05CF805460448B4
:10053000006941F6FD71084001490861284630BD57
:100540000020024004200B49C96801F0010109B1F3
:1005500001200EE00749C96801F0040109B1022039
:1005600007E00449C96801F0100109B1032000E067
:1005700004207047002002400348006940F08000DA
:1005800001490861704700000020024070B5044630
:100590000D460426F00200F025F80646042E11D17F
:1005A0000948006940F00100074908612580F00210
:1005B00000F018F806460448006941F6FE7108404C
:1005C00001490861304670BD0020024002480349DD
:1005D0004860034848607047230167450020024097
:1005E000AB89EFCD00B502460423FFF7ABFF03460E
:1005F00003E0FFF7A7FF0346521E012B01D1002A9B
:10060000F7D102B90523184600BD000051B18200A0
:10061000A2F1C042126842F001038200A2F1C0427E
:10062000136009E08200A2F1C0421268034B1A4035
:100630008300A3F1C0431A6070470000FEFF0F0063
:10064000D0E901121143C2681143026911434269A2
:10065000114382691143C2691143026A1143426A1C
:100660001143826A1143C26A1143026B114302684B
:100670009200A2F1C0421160816808290BD1016883
:100680008900A1F1C041096841F040020168890078
:10069000A1F1C0410A60416B0968426B526841EAAE
:1006A0000211426B926841EA0221426B928941EA4F
:1006B0000241426B128A41EA0251426B127D41EAC9
:1006C0000261426B926911430268521C9200A2F1CE
:1006D000C0421160C16AB1F5804F1BD1816B0968BE
:1006E000826B526841EA0211826B926841EA0221F0
:1006F000826B128A41EA0251826B127D41EA0261E9
:10070000826B9269114302689200A2F1C042C2F862
:10071000041107E06FF0704201688900A1F1C04147
:10072000C1F8042170472DE9F0410246002500265A
:10073000002000230024002791F803C00CF00F05CF
:1007400091F803C00CF0100CBCF1000F03D091F82D
:1007500002C04CEA050591F800C0BCF1000F31D091
:10076000146800202BE04FF0010C0CFA00F3B1F8F4
:1007700000C00CEA03069E4220D183004FF00F0C0C
:100780000CFA03F7BC4305FA03FC4CEA040491F8A5
:1007900003C0BCF1280F06D14FF0010C0CFA00FC8D
:1007A000C2F814C00AE091F803C0BCF1480F05D1AB
:1007B0004FF0010C0CFA00FCC2F810C0401C0828D5
:1007C000D1D31460B1F800C0BCF1FF0F34DD546820
:1007D00000202EE000F1080C4FF0010808FA0CF39D
:1007E000B1F800C00CEA03069E4221D183004FF00D
:1007F0000F0C0CFA03F7BC4305FA03FC4CEA0404A3
:1008000091F803C0BCF1280F05D100F1080C08FADB
:100810000CF8C2F8148091F803C0BCF1480F07D15E
:1008200000F1080C4FF0010808FA0CF8C2F810802B
:10083000401C0828CED35460BDE8F08101617047A8
:1008400000BFFEE708B50121442000F093FA012023
:10085000ADF8000028208DF8030003208DF8020079
:1008600069460848FFF75FFF1C20ADF800004820EC
:100870008DF8030003208DF8020069460248FFF757
:1008800052FF08BD000801400018014010B50446A1
:1008900022480078012826D12148006801280AD082
:1008A0002048006838B11F48001F006818B11D4873
:1008B000001D0068B8B90A2000F08CFF002017491D
:1008C000087017480068012800D110BD154800685D
:1008D00008B90220F9E71348001F006808B903208F
:1008E000F3E70420F1E70E48006878B90D48006886
:1008F00001280BD10B48001F0068012806D10948C8
:10090000001D0068012801D104490870012C02D1A2
:100910000120024908700020D7E7000020000020D5
:10092000000121420C01234270B506460F48408861
:10093000401E83B20D480088401E82B20021084646
:1009400000F078F800240CE0002504E0304600F0C8
:1009500099F9681C85B205484088A842F6DC601CFD
:1009600084B202480088A042EEDC70BD180000206E
:1009700000B502467AB9362000F078F9002000F080
:100980007BF94FF4F0700C4948804FF4A070088058
:10099000002088710EE0362000F068F9602000F039
:1009A0006BF94FF4A070044948804FF4F070088050
:1009B0000120887100BD00001800002070B50446B9
:1009C0000D4616462B4622462946204600F032F8B0
:1009D000304600F057F970BD2DE9F04304460D464E
:1009E00016461F46DDF81C80B44201DCBD4201DD25
:1009F000BDE8F0833B4632462946204600F01AF80F
:100A0000301B401C84B2781B401C85B20BE0A94609
:100A100002E0404600F036F95FEA0900A9F1010161
:100A20001FFA81F9F5D12000A4F101018CB2EED1B9
:100A300000BFDDE770B504460D462A2000F016F928
:100A40002646E11704EB1161C1F30F2000F014F901
:100A5000E11704EB11610912A4EB012188B200F047
:100A60000BF91646D11702EB1161C1F30F2000F00C
:100A700003F91646D11702EB11610912A2EB01210D
:100A800088B200F0F9F82B2000F0F0F82E46E917B4
:100A900005EB1161C1F30F2000F0EEF8E91705EB4B
:100AA00011610912A5EB012188B200F0E5F81E469C
:100AB000D91703EB1161C1F30F2000F0DDF81E46DA
:100AC000D91703EB11610912A3EB012188B200F0E1
:100AD000D3F82C2000F0CAF870BD00002DE9F84FC3
:100AE00080460E4617461C46B3462046E31704EBE5
:100AF0005373DB1021464FEAE47C04EB5C7C4FEA45
:100B0000EC0CA4EBCC0CBCF1000F02D04FF0010CAC
:100B100001E04FF0000C6344224604EBD27C4FEA24
:100B20006C0C03FB0CF3DBB20093A7F12000C7B2FF
:100B3000002556E00C2C07D107EB47002B4901EBB1
:100B4000800010F8059013E0102C05D1284800EB28
:100B5000071010F805900BE0182C07D107EBC70021
:100B6000244901EB800010F8059001E0BDE8F88F02
:100B70004FF0000A2FE009F0800030B11E480288D3
:100B800031464046FFF71AFF07E00A9828B91B488C
:100B9000028831464046FFF711FF4FEA49604FEAAD
:100BA0001069701C86B216484088B04200DCDDE750
:100BB000A6EB0B00A0420AD15E4608F101001FFA25
:100BC00080F80F480088404500DCCFE706E00AF1D6
:100BD000010000F0FF0ABAF1080FCCDB00BF681C6F
:100BE000C5B200988542A5DB00BFBFE7B01D000875
:100BF00024220008142800081400002016000020F9
:100C0000180000202DE9F84704460D469046994605
:100C1000DDE9096704F0FF0A08EB04001FFA80F819
:100C200009EB05001FFA80F916E0444502DB544643
:100C3000A81985B24D4500DB14E0002000903A78F9
:100C4000334629462046FFF749FF304606EBD07170
:100C500004EB61018CB27F1C38787E2802DC387886
:100C60002028E2DA00BFBDE8F887000001490880CB
:100C700070470000FE07006C0149088070470000C3
:100C80000008006C01490880704700000008006CF3
:100C900008B50121102000F06DF8FF20ADF800002C
:100CA00010208DF8030003208DF8020069460448E7
:100CB000FFF739FDFF210248FFF7C0FD08BD000026
:100CC0000010014000BFFEE77047000070B5002132
:100CD00000230F22C47804B3154C246804F4E064A4
:100CE000C4F5E064210AC1F10403CA40447804FA5F
:100CF00003F184781440214309010E4C0678A15574
:100D0000047804F01F050124AC4005786D11AD0096
:100D100005F1E025C5F8004109E0047804F01F055D
:100D20000124AC40044D0678761145F8264070BD8C
:100D30000CED00E000E400E080E100E00249014346
:100D4000024A1160704700000000FA050CED00E057
:100D50007047000029B1064A52690243044B5A61A8
:100D600004E0034A52698243014B5A617047000014
:100D70000010024029B1064A92690243044B9A616D
:100D800004E0034A92698243014B9A617047000074
:100D90000010024030B500210022002400232D4D18
:100DA0006D6805F00C0121B1042905D0082923D173
:100DB00005E0294D056022E0274D05601FE0254D27
:100DC0006D6805F47012234D6D6805F480340225BA
:100DD00005EB92421CB9214D554305600BE01D4DBA
:100DE0006D6805F400351DB11C4D5543056002E0EA
:100DF000194D5543056002E0174D056000BF00BF67
:100E0000144D6D6805F0F0010909154D6B5C05681E
:100E1000DD4045600F4D6D6805F4E061090A104D35
:100E20006B5C4568DD4085600A4D6D6805F4605176
:100E3000C90A0B4D6B5C4568DD40C560054D6D68AA
:100E400005F44041890B074D6B5CC568B5FBF3F5B4
:100E5000056130BD0010024000127A0000093D001B
:100E6000000000201000002030B503460C46154657
:100E7000002207E0184600F008F824F812009B1C36
:100E8000501C82B2AA42F5DB30BD0146088870478B
:100E90002DE9F05F80468A461746B8F1006F02D30D
:100EA0003348804501D3BDE8F09FFFF78FFBA8F1E1
:100EB000006B4FEADB25CBF34909C9F58064A742F3
:100EC00000DC3C464DE04FF0006101EBC5204A14C8
:100ED0002849FFF7C9FF00260BE009EB060025496A
:100EE00031F810004FF6FF71884200D003E0701C0B
:100EF00086B2A642F1DB00BFA6421BDA4FF00061CA
:100F000001EBC520FFF7F8FA002608E03AF81600D2
:100F100006EB0901174A22F81100701C86B2A6429E
:100F2000F4DB4FF0006101EBC5204A14114900F0D9
:100F300023F804E022465146404600F01DF8A7423F
:100F400000D10FE06D1C4FF000090AEB440AA044E9
:100F5000381B87B2B7F5806F02DD4FF4806400E084
:100F60003C46B0E700BFFFF707FB00BF9BE7000070
:100F700000000808340000202DE9F04105460E4627
:100F80001746002407E036F814102846FFF7FEFA4B
:100F9000AD1C601C84B2BC42F5DBBDE8F08170473B
:100FA00010B500F001F810BD0CB5002001900090C4
:100FB0003348006840F480303149086000BF304851
:100FC000006800F4003000900198401C01900098E7
:100FD00018B90198B0F5A06FF1D12948006800F464
:100FE000003010B10120009001E000200090009836
:100FF000012843D12348006840F0100021490860CF
:101000000846006820F0030008600846006840F0C9
:10101000020008601A48406819494860084640685C
:1010200048600846406840F4806048600846406870
:1010300020F47C1048600846406840F4E81048609E
:101040000846006840F08070086000BF0C480068E7
:1010500000F000700028F9D00948406820F0030033
:10106000074948600846406840F00200486000BFF9
:101070000348406800F00C000828F9D10CBD0000BE
:101080000010024000200240042808D14FF0E02167
:10109000096941F004014FF0E022116107E04FF0CF
:1010A000E021096921F004014FF0E022116170474D
:1010B0007047000010B504466FF00400FFF7E4FF2E
:1010C000E11704EB5171C1F3C701074A11701046D3
:1010D000007800EB4001C1EBC0104FF6FF7101EA50
:1010E000C0000249088010BD280000202A0000200E
:1010F00010B51348006840F0010011490860084627
:101100004068104908400E494860084600680E498A
:1011100008400B4908600846006820F480200860F9
:101120000846406820F4FE0048604FF41F008860C5
:10113000FFF736FF4FF000600449086010BD000063
:10114000001002400000FFF8FFFFF6FE08ED00E08F
:1011500000B59DB001210802FFF7FCFD01200790BA
:10116000002008900F20099000200A900B900C900E
:101170000D90152000900190052002900020039012
:1011800004900590069006200E9000200F9010907D
:10119000102011900020129014901390159016902A
:1011A0004FF480501790002018904FF48040199011
:1011B00000201A9007A81B90CDF870D00EA8FFF75A
:1011C0003FFA01210620FFF721FA1DB000BD000003
:1011D00008B501214FF4B070FFF7CCFD4CF233702D
:1011E000ADF8000018208DF8030003208DF80200F0
:1011F00069461048FFF797FA4FF68070ADF8000087
:1012000018208DF8030003208DF8020069460A4873
:10121000FFF789FA41F20100ADF8000018208DF8BF
:10122000030003208DF8020069460448FFF77BFAAB
:1012300008BD0000001401400018014000200140DA
:1012400010B5FFF7C5FFFFF783FF322000F0C2FAA9
:10125000D320FFF70BFDA3480088A3498880A1484D
:10126000008888809F4800888880084680884FF6DC
:10127000FF7101EA00209C498880084680889949CE
:1012800009880843984988800846818897A0FEF716
:10129000CBFFFF20FFF7EAFCFF20FFF7E7FC05206C
:1012A00000F098FAFF20FFF7E1FCFF20FFF7DEFCDB
:1012B000FF20FFF7DBFCFF20FFF7D8FC0A2000F03F
:1012C00089FAB020FFF7D2FC0020FFF7D5FCB3204D
:1012D000FFF7CCFC0220FFF7CFFC0020FFF7CCFC8F
:1012E0000020FFF7C9FC0020FFF7C6FCC020FFF775
:1012F000BDFC1320FFF7C0FC3B20FFF7BDFC002026
:10130000FFF7BAFC0020FFF7B7FC0020FFF7B4FCA2
:101310000120FFF7B1FC0020FFF7AEFC4320FFF7F0
:10132000ABFCC120FFF7A2FC0820FFF7A5FC1B20A7
:10133000FFF7A2FC0820FFF79FFC0820FFF79CFCAA
:10134000C420FFF793FC1120FFF796FC0120FFF764
:1013500093FC7320FFF790FC0120FFF78DFCC62063
:10136000FFF784FC0020FFF787FCC820FFF77EFC16
:101370000F20FFF781FC0520FFF77EFC1420FFF70C
:101380007BFC5C20FFF778FC0320FFF775FC07204F
:10139000FFF772FC0720FFF76FFC1020FFF76CFCD3
:1013A0000020FFF769FC2320FFF766FC1020FFF701
:1013B00063FC0720FFF760FC0720FFF75DFC53206C
:1013C000FFF75AFC0C20FFF757FC1420FFF754FCE2
:1013D0000520FFF751FC0F20FFF74EFC2320FFF7FD
:1013E0004BFC0020FFF748FC3520FFF73FFC0020B6
:1013F000FFF742FC4420FFF739FC0020FFF73CFCDC
:101400000120FFF739FCD020FFF730FC0720FFF761
:1014100033FC0720FFF730FC1D20FFF72DFC0320D5
:10142000FFF72AFCD120FFF721FC0320FFF724FC63
:101430005B20FFF721FC1020FFF71EFCD220FFF7F6
:1014400015FC0320FFF718FC2420FFF715FC0420EF
:10145000FFF712FC2A20FFF709FC0020FFF70CFC25
:101460000020FFF709FC0120FFF706FC3F20FFF7F3
:1014700003FC2B20FFF7FAFB0020FFF7FDFB002009
:10148000FFF7FAFB0120FFF7F7FBDF20FFF7F4FB84
:101490003620FFF7EBFB0020FFF7EEFBC020FFF745
:1014A000E5FB1320FFF7E8FB3A20FFF7DFFB5520B1
:1014B000FFF7E2FB1120FFF7D9FB962000F08AF935
:1014C0002920FFF7D3FB1E2000F084F92C20FFF722
:1014D000CDFB0020FFF74CFA4FF6FF70FFF724FA20
:1014E00010BD00000008006C18000020204C434490
:1014F0002049443A25780D0A0000000010B540F25A
:1015000025510D4800F09CF888B10B4800F054F9C3
:10151000C4B20A480088B0F55C4F08DA08480749A9
:101520000988445405480088401C0449088040212B
:10153000014800F063F810BD00380140320000207F
:101540000010002010B586B0044601210420FFF7EA
:1015500011FC01218803FFF70DFC01210846FFF76C
:1015600009FC4FF40070ADF8140003208DF816004C
:1015700018208DF8170005A91E48FFF7D4F84FF47E
:101580008060ADF8140004208DF8170005A91948F3
:10159000FFF7C9F801940020ADF80800ADF80A0083
:1015A000ADF80C00ADF810000C20ADF80E0001A94C
:1015B000114800F095F801210F4800F028F840216B
:1015C0000D4800F01BF8012240F225510A4800F0B6
:1015D00061F825208DF8000003208DF801008DF8BA
:1015E000020001208DF803006846FFF76FFB06B08C
:1015F00010BD0000000801400038014001F40072F5
:10160000B2F5007F00D100BFCA430280704721B10C
:10161000828942F40052828104E082894DF6FF7390
:101620001A408281704702460020B1F5007F00D148
:1016300000BF13880B400BB1012000E00020704771
:1016400070B50246002400230025002040F66A16EB
:10165000B14200D100BFC1F3421501F01F030126C2
:1016600006FA03F3012D02D19689334006E0022DDC
:1016700002D1168A334001E0968A33400C120126CB
:1016800006FA04F41688344013B10CB1012000E0CE
:10169000002070BDF0B50346002400260025002080
:1016A00040F66A17B94200D100BF1846C1F3421490
:1016B00001F01F06012707FA06F5012C01D10C30B5
:1016C00004E0022C01D1103000E014301AB1076898
:1016D0002F43076002E00768AF430760F0BD0000DA
:1016E0002DE9F04786B005460E460024A24600BF0D
:1016F000A1460027B08900B100BF2F462C8A4CF6C6
:10170000FF700440F08804432C82AC894EF6F3103D
:101710000440B08831890843718908430443AC818F
:10172000AC8A4FF6FF400440B0890443AC8201A864
:10173000FFF730FB1F48874202D1DDF810A001E01F
:10174000DDF80CA0A88900F4004040B10AEBCA0003
:1017500000EB0A1031684900B0FBF1F807E00AEB32
:10176000CA0000EB0A1031688900B0FBF1F8642070
:10177000B8FBF0F004012009642101FB1089A8895D
:1017800000F4004040B1322000EBC900B0FBF1F0A2
:1017900000F00700044308E0322000EB0910642148
:1017A000B0FBF1F000F00F0004432C8106B0BDE85F
:1017B000F08700000038014001468888C0F3080027
:1017C0007047C1F308028280704700BFFEE7014600
:1017D00000BF70470146114A12884A434FF0E02388
:1017E0005A6100229A611A46126942F001021A6196
:1017F00000BF4FF0E022106900F001021AB100F4BE
:101800008032002AF5D04FF0E022126922F0010266
:101810004FF0E0231A6100229A6170472A000020ED
:1018200070B504460D46E1B20548FFF7CAFF00BF98
:1018300080210348FFF7F7FE0028F9D0204670BD4D
:101840000038014010B50446206807490840B0F14F
:10185000005F08D16068054908602068FEF7BEFC9B
:1018600002480068804710BD0000FE2F24000020C1
:101870002DE9F05F06460F4690460024B3463D46EC
:10188000A1461CE068784FEA002A287850441FFAE5
:1018900080FAAD1C2046611C8CB20E4921F810A0C4
:1018A000B4F5806F07D100244FF480625846FFF7EB
:1018B000EFFA0BF5006B09F102001FFA80F9C14540
:1018C000E0D324B1224603495846FFF7E1FABDE8C8
:1018D000F09F000000EC00201CB54FF00008002530
:1018E00000264820FFF7E6FB4FF4A060FFF726FA3A
:1018F000FFF7CEF94FF4E130FFF724FEFFF7A0FC2D
:10190000FEF7A0FF00209949088099A01021CDE999
:1019100000109B48438802880A210846FFF772F9A5
:1019200098A01021CDE900109548438802881E2117
:101930000A20FFF767F997A01021CDE90010904821
:101940004388028832210A20FFF75CF994A0102115
:10195000CDE900108A484388028846210A20FFF713
:1019600051F994A01021CDE90010854843880288E0
:101970005A210A20FFF746F994A01021CDE9001062
:101980007F48438802886E210A20FFF73BF995A023
:101990001021CDE900107A484388028882210A206C
:1019A000FFF730F94FF4784070490880DCE0934845
:1019B0000088A8B19148008880450ED18F480588DD
:1019C0004FF0000800208D4908808DA0FEF72CFC08
:1019D000294690A0FEF728FC02E08848B0F8008075
:1019E000781CC7B20A20FFF7F5FE1E2F15D18E48CE
:1019F000006808B9012000E000208B49086000273A
:101A00005EB1701EC6B246B94FF6FF70E223F022F7
:101A1000D22100900A20FEF7DFFF0020FEF736FFFC
:101A20000446012C44D1002D34D080A0FEF7FCFBED
:101A300083A010210B46C822CDE90010D2210A2034
:101A4000FFF7E0F88448406800F07F40B0F1006F95
:101A500012D12A4681498248FFF70AFF81A010214E
:101A60000B46C822CDE90010D2210A20FFF7CAF8A0
:101A700082A0FEF7D9FB1AE084A010210B46C822F1
:101A8000CDE90010D2210A20FFF7BCF885A0FEF7AF
:101A9000CBFB0CE088A0FEF7C7FB8DA010210B4606
:101AA000C822CDE90010D2210A20FFF7ABF80726A3
:101AB000022C1DD175B188A0FEF7B6FB8AA01021BB
:101AC0000B46C822CDE90010D2210A20FFF79AF870
:101AD00000250CE08AA0FEF7A7FB7DA010210B4695
:101AE000C822CDE90010D2210A20FFF78BF8072683
:101AF000032C1BD188A0FEF797FB5948406800F0E3
:101B00007F40B0F1006F03D15548FFF79BFE0CE01A
:101B100088A0FEF789FB8EA010210B46C822CDE9D4
:101B20000010D2210A20FFF76DF80726042C1BD1E4
:101B30008CA0FEF779FB4848406800F07F40B0F188
:101B4000005F03D14448FFF77DFE0CE08CA0FEF758
:101B50006BFB92A010210B46C822CDE90010D221C8
:101B60000A20FFF74FF8072621E7000014000020A5
:101B70005052454348494E2053544D33324631006C
:101B8000180000207777772E7072656368696E2E73
:101B90006E65740049415020546573740000000064
:101BA0004B5F55503A436F70792041505032464C4C
:101BB000415348004B5F444F574E3A45726173653D
:101BC000205352414D204150500000004B5F4C4586
:101BD00046543A52756E20464C415348204150506D
:101BE000000000004B5F52494748543A52756E203E
:101BF0005352414D2041505000000000320000205F
:101C0000D3C3BBA7B3CCD0F2BDD3CAD5CDEAB3C939
:101C1000210D0A00B4FAC2EBB3A4B6C83A25644257
:101C2000797465730D0A000080012242BFAACABC04
:101C3000B8FCD0C2B9CCBCFE2E2E2E0D0A0000007E
:101C4000436F7079696E672041505032464C415362
:101C5000482E2E2E00000000001000200010002052
:101C600000000108436F7079204150502053756384
:101C7000636573736564212100000000B9CCBCFE6C
:101C8000B8FCD0C2CDEAB3C9210D0A00496C6C651D
:101C900067616C20464C4153482041505021202020
:101CA00000000000B7C7464C415348D3A6D3C3B386
:101CB000CCD0F2210D0A0000C3BBD3D0BFC9D2D40F
:101CC000B8FCD0C2B5C4B9CCBCFE210D0A000000DE
:101CD0004E6F204150502100B9CCBCFEC7E5B3FD8A
:101CE000CDEAB3C9210D0A004150502045726173FD
:101CF000652053756363657373656421000000009C
:101D0000C3BBD3D0BFC9D2D4C7E5B3FDB5C4B9CC2A
:101D1000BCFE210D0A000000BFAACABCD6B4D0D0B8
:101D2000464C415348D3C3BBA7B4FAC2EB21210DA3
:101D30000A000000B7C7464C415348D3A6D3C3B3EB
:101D4000CCD0F22CCEDEB7A8D6B4D0D0210D0A006C
:101D5000496C6C6567616C20464C4153482041508A
:101D600050210000BFAACABCD6B4D0D05352414DB6
:101D7000D3C3BBA7B4FAC2EB21210D0A00000000B7
:101D8000B7C75352414DD3A6D3C3B3CCD0F22CCE58
:101D9000DEB7A8D6B4D0D0210D0A0000496C6C651E
:101DA00067616C205352414D20415050210000008A
:101DB0000000000000000000000000000000000023
:101DC0003F400000000000000000300040003000F4
:101DD0004000000009000BC03D000BC03D000900A1
:101DE00018C024407FE0224031800000180024C049
:101DF0001B000D803240018003801C4027401C8066
:101E000007400040100060000000000000000000DB
:101E10000000000000001F80204040200000402003
:101E200020401F8000000000090006001F800600FF
:101E300009000000040004003F80040004000000CA
:101E4000001000600000000000000000040004001A
:101E50000400040004000000000000400000000036
:101E600000000000002001C0060038004000000013
:101E70001F802040204020401F80000000001040B4
:101E80003FC000400000000018C021402240244014
:101E90001840000010802040244024401B80000097
:101EA00002000D0011003FC0014000003C802440B2
:101EB00024402440238000001F80244024403440DC
:101EC000038000003000200027C038002000000000
:101ED0001B802440244024401B8000001C0022C0A2
:101EE000224022401F800000000000000840000047
:101EF000000000000000000004600000000000007E
:101F0000000004000A001100208040400900090080
:101F10000900090009000000000040402080110075
:101F20000A000400180020002340240018000000CC
:101F30001F802040274029401F400000004007C06C
:101F400039000F0001C0004020403FC02440244021
:101F50001B8000001F802040204020403080000077
:101F600020403FC0204020401F80000020403FC054
:101F700024402E4030C0000020403FC024402E00AE
:101F8000300000000F00108020402240338002000B
:101F900020403FC0040004003FC0204020402040BB
:101FA0003FC02040204000000060202020203FC093
:101FB0002000200020403FC024400B0030C02040C3
:101FC00020403FC020400040004000C03FC03C00D7
:101FD00003C03C003FC0000020403FC00C40230035
:101FE0003FC020001F802040204020401F80000074
:101FF00020403FC024402400180000001F802140E2
:10200000214020E01FA0000020403FC024402600C7
:1020100019C0004018C024402440224031800000F4
:10202000300020403FC020403000000020003F80B2
:10203000004000403F80200020003E0001C007001B
:1020400038002000380007C03C0007C038000000FE
:10205000204039C0060039C0204000002000384030
:1020600007C0384020000000304021C026403840E2
:1020700020C00000000000007FE040204020000061
:10208000000070000C0003800040000000004020B1
:1020900040207FE000000000000020004000200001
:1020A00000000000001000100010001000100010D0
:1020B000000000004000000000000000000002805E
:1020C0000540054003C0004020003FC004400440DC
:1020D000038000000000038004400440064000002C
:1020E00000000380044024403FC000400000038003
:1020F0000540054003400000000004401FC024408C
:1021000024402000000002E0055005500650042045
:1021100020403FC00440040003C0004000000440D1
:1021200027C000400000000000100010041027E04D
:102130000000000020403FC00140070004C00440F0
:10214000204020403FC000400040000007C0040085
:1021500007C0040003C00000044007C0044004009E
:1021600003C00040000003800440044003800000DE
:10217000041007F0045004400380000000000380B6
:102180000440045007F00010044007C0024004005F
:1021900004000000000006400540054004C00000A7
:1021A000000004001F80044000400000040007807D
:1021B0000040044007C000400400070004C0018044
:1021C00006000400060001C0070001C00600000070
:1021D000044006C0010006C00440000004100710BF
:1021E00004E00180060004000000044005C0064031
:1021F000044000000000000004007BE040200000DC
:10220000000000000000FFF000000000000040207F
:102210007BE004000000000040008000400020003F
:10222000200040000000000000000000000000004E
:10223000000000000000000000001FCC000C0000A7
:1022400000000000000008003000600008003000BE
:1022500060000000022003FC1E20022003FC1E2060
:102260000220000000000E1811043FFF10840C78BB
:10227000000000000F0010840F3800C00778188499
:102280000078000000780F8410C411240E9800E438
:1022900000840008080068007000000000000000D2
:1022A0000000000000000000000007E018182004F3
:1022B00040020000000040022004181807E000005F
:1022C000000000000240024001800FF00180024047
:1022D000024000000080008000800FF80080008035
:1022E000008000000001000D000E00000000000052
:1022F000000000000000008000800080008000805E
:10230000008000800000000C000C000000000000B5
:1023100000000000000000060018006001800600B8
:1023200018002000000007F0080810041004080836
:1023300007F000000000080408041FFC000400046B
:102340000000000000000E0C101410241044118432
:102350000E0C000000000C18100411041104128867
:102360000C700000000000E00320042408241FFC7F
:102370000024000000001F9810841104110410882C
:1023800010700000000007F008881104110418887C
:102390000070000000001C00100010FC13001C0066
:1023A0001000000000000E38114410841084114405
:1023B0000E38000000000700088C10441044088804
:1023C00007F00000000000000000030C030C0000F8
:1023D00000000000000000000001010600000000F5
:1023E00000000000000000800140022004100808E6
:1023F00010040000022002200220022002200220FD
:10240000022000000000100408080410022001400F
:102410000080000000000E001200100C106C1080F4
:102420000F00000003E00C1813E4142417C408285C
:1024300007D000000004003C03C41C40074000E437
:10244000001C000410041FFC1104110411040E8868
:102450000070000003E00C181004100410041008B1
:102460001C10000010041FFC1004100410040808C5
:1024700007F0000010041FFC1104110417C410041D
:102480000818000010041FFC1104110017C01000F0
:102490000800000003E00C181004100410441C781D
:1024A0000040000010041FFC108400800080108495
:1024B0001FFC10040000100410041FFC1004100482
:1024C0000000000000030001100110011FFE1000B9
:1024D0001000000010041FFC110403801464181C79
:1024E0001004000010041FFC100400040004000489
:1024F000000C000010041FFC1F0000FC1F001FFC4C
:102500001004000010041FFC0C04030000E010186D
:102510001FFC100007F0080810041004100408083D
:1025200007F0000010041FFC108410801080108041
:102530000F00000007F0081810241024101C080ACF
:1025400007F2000010041FFC1104110011C011302B
:102550000E0C000400000E1C1104108410841044A2
:102560001C3800001800100010041FFC100410009C
:102570001800000010001FF81004000400041004EC
:102580001FF8100010001E0011E0001C00701380E6
:102590001C0010001FC0103C00E01F0000E0103CB9
:1025A0001FC000001004180C163401C001C01634FE
:1025B000180C100410001C00130400FC13041C0071
:1025C000100000000804101C1064108413041C0484
:1025D000101800000000000000007FFE40024002D2
:1025E00040020000000030000C0003800060001C6E
:1025F0000003000000004002400240027FFE000095
:1026000000000000000000002000400040004000EA
:102610002000000000010001000100010001000194
:102620000001000100004000400020000000000008
:10263000000000000000009801240144014401440E
:1026400000FC000410001FFC008801040104008845
:102650000070000000000070008801040104010403
:1026600000880000000000700088010401041108C7
:102670001FFC0004000000F801440144014401442F
:1026800000C800000000010401040FFC1104110443
:1026900011001800000000D601290129012901C9F3
:1026A0000106000010041FFC008401000100010469
:1026B00000FC000400000104190419FC00040004DB
:1026C000000000000000000300010101190119FED3
:1026D0000000000010041FFC0024004001B4010CA5
:1026E000010400000000100410041FFC000400049A
:1026F00000000000010401FC0104010001FC0104D0
:10270000010000FC010401FC00840100010001043F
:1027100000FC0004000000F80104010401040104AD
:1027200000F80000010101FF008501040104008898
:102730000070000000000070008801040104010521
:1027400001FF00010104010401FC008401040100F7
:1027500001800000000000CC012401240124012498
:102760000198000000000100010007F801040104C5
:1027700000000000010001F800040004000401084A
:1027800001FC0004010001800170000C00100160D8
:102790000180010001F0010C003001C00030010C8B
:1027A00001F0010000000104018C00740170018C33
:1027B00001040000010101810171000E0018016097
:1027C0000180010000000184010C013401440184F6
:1027D000010C0000000000000000000001003EFCB1
:1027E000400240020000000000000000FFFF000067
:1027F000000000000000400240023EFC010000001A
:1028000000000000000060008000800040004000E8
:102810002000200000000000000000000000000078
:1028200000000000000000000000000000000000A8
:102830000000000000000000000000000000000098
:10284000000000000000000F80380FFE380F8038B5
:102850000000000000000000000000000000000078
:1028600000000100000600000C00003800003100EC
:10287000000600000C0000380000300000000000DE
:102880000000000061800067F807F98000618000A7
:1028900061800061800061800067F807F980006155
:1028A0008000000000000000000001C0E003E0F034
:1028B0000630080418081FFFFE040E080787F003FF
:1028C00081E000000000000001F000060C0004049C
:1028D00008060C7001F9C0000E00003BE000EC1887
:1028E000070808040C180003E00000000001E000E5
:1028F00007F003F818041C0804170807E1D003C008
:10290000E00023B0003C0800200800001000000098
:102910000000000100003100003200001C00000037
:1029200000000000000000000000000000000000A7
:102930000000000000000000000000000000000097
:10294000000000007F0001FFC00780F00C0018109D
:10295000000420000200000000000020000210001F
:10296000040C00180780F001FFC0007F0000000089
:102970000000000000000000000000000000000057
:102980004200006600006600003C0000180003FFE3
:10299000C0001800003C0000660000660000420015
:1029A0000000000008000008000008000008000007
:1029B000080001FFC000080000080000080000082F
:1029C000000008000000000000010000310000329B
:1029D00000001C00000000000000000000000000DB
:1029E00000000000000000000000000008000008D7
:1029F00000000800000800000800000800000800AF
:102A000000080000080000080000000000000000AE
:102A1000000000003800003800003800000000000E
:102A200000000000000000000000000000000000A6
:102A300000000000000600001C0000700001800083
:102A40000E0000380000C0000700001C000030002D
:102A500000000000000000007F8001FFE0038070A4
:102A6000060018040008040008060018038070011E
:102A7000FFE0007F80000000000000000000010077
:102A80000801000801000803FFF807FFF80000082C
:102A90000000080000080000000000000000000125
:102AA000C03802C058040098040118040218040435
:102AB00018061C1803F81801E0F8000000000000D8
:102AC00000000001C0E003C0F0040008040808048E
:102AD000080806180803F41801E7F00001E00000F8
:102AE00000000000000000000300000D00001100C5
:102AF00000610000810803010807FFF80FFFF800DC
:102B000001080001080000000000000000E007FCD0
:102B1000D00608080610080610080610080618381F
:102B2000060FF00607C000000000000000000000D3
:102B30003F8001FFE00384300208180410080410ED
:102B400008041008071810030FF00007C000000069
:102B500000000000000003C000070000060000069F
:102B600000F80607F806180006E000070000060057
:102B70000000000000000001E1E003F7F00634105F
:102B8000041808041808040C08040C080616180396
:102B9000F3F001C1E000000000000000F80003FCB9
:102BA0003003063804020804020804020804041072
:102BB0000308F001FFC0007F0000000000000000DB
:102BC00000000000000000000000000070380070ED
:102BD0003800703800000000000000000000000015
:102BE00000000000000000000000000000000000E5
:102BF000301A00301C00000000000000000000003F
:102C000000000000000000000000000800001400A8
:102C100000220000410000808001004002002004EA
:102C20000010080008000000000000002100002142
:102C300000002100002100002100002100002100EF
:102C40000021000021000021000000000000000021
:102C5000000008000804001002002001004000806D
:102C60008000410000220000140000080000000065
:102C700000000003C00004C0000400000800380881
:102C80000F380808380810000C300007E00003C0B7
:102C900000000000000000003F8000FFE0038070A3
:102CA000020F1006708804C088048308047F88021D
:102CB000C09003012000FE40000008000018000141
:102CC000F8003E0801C20007020007E20000FE0013
:102CD000001FC80001F800003800000804000807C1
:102CE000FFF807FFF80408080408080408080408A7
:102CF0000806180803F41801E7F00001E0000000DE
:102D0000000000003F8001FFE00380700200180413
:102D100000080400080400080400100600200780D2
:102D2000C000000004000807FFF807FFF8040008CF
:102D30000400080400080400180200100380700159
:102D4000FFE0007F8000000004000807FFF807FF95
:102D5000F8040808040808040808040808043E08E1
:102D600004000806001801006000000004000807C5
:102D7000FFF807FFF8040808040800040800040826
:102D800000043E0006000006000001800000000074
:102D9000000000003F8001FFE0038070060018047F
:102DA00000080402080402080203F00783F000028E
:102DB0000000020004000807FFF807FFF8040808F5
:102DC00000080000080000080000080004080807C8
:102DD000FFF807FFF80400080000000000000400EE
:102DE0000804000804000807FFF807FFF8040008BB
:102DF00004000804000800000000000000000000BB
:102E000000060000070000010400010400010400A6
:102E10000307FFFE07FFFC0400000400000400009D
:102E200004000807FFF807FFF8040C08001800006A
:102E30003E0004C7800503C80600F80400380400FB
:102E40001800000804000807FFF807FFF80400084E
:102E5000000008000008000008000008000008004A
:102E6000001800006000000004000807FFF8078059
:102E70000807FC00007FC00003F80007C0007800CE
:102E800007800807FFF807FFF80400080400080798
:102E9000FFF807000803C00000E000003800001E33
:102EA000000007000001C00400F007FFF804000064
:102EB000000000007F8001FFE0038070060018041E
:102EC000000804000806001803003001FFE0007F3E
:102ED0008000000004000807FFF807FFF80404085A
:102EE000040400040400040400040400060C0003AD
:102EF000F80001F000000000000000007F8001FFEA
:102F0000E00380700600880400880400C806003CC6
:102F100003003E01FFE6007F840000000400080774
:102F2000FFF807FFF8040808040800040C00040F69
:102F300000040BC00610F003F03801E008000008A0
:102F400000000001E0F803F0300630100418080417
:102F50001808040C08040C080206180207F0078180
:102F6000E0000000018000060000040000040000F2
:102F700004000807FFF807FFF80400080400000435
:102F8000000006000001800004000007FFE007FFCA
:102F9000F004001800000800000800000800000805
:102FA00000000804001007FFE00400000400000611
:102FB000000007E00007FE00041FE00001F8000029
:102FC000380001E0043E0007C000060000040000D5
:102FD00004000007E00007FFC0041FF80007C00757
:102FE000F80007FF80043FF80007C004F80007005E
:102FF0000004000000000004000806001807C07864
:1030000005F1C8003E00001F800463E80780F80651
:1030100000180400080000000400000600000780FB
:103020000007E008047C08001FF80007F8001808F3
:1030300004E0080700000600000400000000000192
:1030400000080600380400F80403E8040F08047CB4
:103050000805F00807C00807001804006000000019
:103060000000000000000000000000000000003F21
:10307000FFFE2000022000022000022000022000AB
:10308000020000000000000000000800000700002F
:1030900000C0000038000006000001C00000300041
:1030A000000E0000010000000000000000002000F1
:1030B000022000022000022000022000023FFFFE4A
:1030C0000000000000000000000000000000000000
:1030D0000000000000080000100000300000200088
:1030E0000030000010000008000000000000000098
:1030F00000000100000100000100000100000100CB
:1031000000010000010000010000010000010000BA
:10311000010000010000000000000000002000008D
:10312000200000100000100000000000000000005F
:1031300000000000000000000000000000F0001986
:10314000F8001B180022080026080024080024109C
:10315000003FF8001FF800000800001800000004FD
:10316000000007FFF80FFFF00018180010080020FB
:1031700008002008003018001FF0000FC0000000F9
:103180000000000007C0001FF000183000200800F9
:103190002008002008003C08001C1000006000000F
:1031A000000000000000000007C0001FF0003818F9
:1031B00000200800200800200804101007FFF80F66
:1031C000FFF00000100000000000000000000007F9
:1031D000C0001FF000123000221800220800220850
:1031E000003208001E10000E200000000000000049
:1031F000200000200800200801FFF803FFF8062047
:103200000804200804200807200003000000000034
:1032100000000000000E000E6E001FF30031B10030
:1032200020B10020B1003191001F13002E1E00209C
:103230000E00300000000004000807FFF80FFFF840
:10324000001008002000002000002008003FF800C7
:103250001FF800000800000000000000000000202F
:1032600008002008002008063FF8063FF800000884
:10327000000008000008000000000000000000003E
:1032800000000000030000030020010020010020D6
:1032900003063FFE063FFC000000000000000000A7
:1032A00000000004000807FFF80FFFF80001880085
:1032B0000300002FC00038F800203800200800006C
:1032C00008000000000000000000040008040008DE
:1032D00004000807FFF80FFFF800000800000800CE
:1032E0000008000000000000002008003FF8003F38
:1032F000F8001008002000003FF8003FF800100818
:10330000002000003FF8003FF80000080000000027
:103310002008003FF8003FF80010080010000020CF
:1033200000002008003FF8001FF80000080000001F
:103330000000000007C0000FF00018300030080047
:103340002008002008003008001830000FF00007A7
:10335000C0000000000000002001003FFF003FFF10
:10336000001011002009002008002008003038005B
:103370001FF0000FC00000000000000007C0001F89
:10338000F000381800200800200800200900101163
:10339000001FFF003FFF00000100000000200800A8
:1033A0002008002008003FF8003FF800080800103F
:1033B000080020080020000030000030000000005D
:1033C000000000000000000C78001E180033080008
:1033D00023080021080021880021980030F00038DF
:1033E000600000000000000020000020000020001D
:1033F00000FFF003FFF8002008002008002008006C
:103400000030000000000000000000002000003F2D
:10341000F0007FF8000018000008000008002010ED
:10342000003FF8007FF000001000000000000000E6
:103430002000003000003C00003F800023F000002E
:1034400078000070002380003C0000300000200065
:10345000002000003C00003FE00023F80000E000F6
:103460002700003E00003FE00021F80001E0003EA0
:10347000000020000000000020080020080038386C
:10348000003E680027800003C8002CF80038380090
:10349000201800200800000000000000200000307C
:1034A00003003C01003F830023EC000070002380F8
:1034B000003C000020000020000000000000000090
:1034C00000000038080020380020F80023E8002F12
:1034D00088003E0800380800201800007000000036
:1034E00000000000000000000000000000000000DC
:1034F00008000014001FF7FC300006200002000046
:1035000000000000000000000000000000000000BB
:10351000000000000000FFFFFF00000000000000AE
:10352000000000000000000000000000000020007B
:10353000023000061FF7FC00140000080000000025
:103540000000000000000000000000000000001863
:10355000000060000040000040000020000010005B
:10356000000800000400000400000C00001000002F
:10357000C6D50000000000E0380000783C00003CA8
:103580007800003C70C0001CE1E01FFFFFF0001C51
:10359000E3000E1CE7C0079CE78003DCEF0003DCC0
:1035A000EE0001DCFC60009CF9F07FFFFFF80000FA
:1035B000000001C00E0001FFFF0001C00E0001C0AD
:1035C0000E0001C00E0001FFFE0001C00E0001C090
:1035D0000E0001C00E0001FFFE0001C00E0001C080
:1035E0000E0000000000D6D0000000000007000020
:1035F000000780000007000000070000000700002F
:10360000000701801FFFFFE01FFFFFE01E0701C052
:103610001E0701C01E0701C01E0701C01E0701C012
:103620001E0701C01FFFFFC01FFFFFC01E0701C014
:103630001C070180000700000007000000070000D1
:10364000000700000007000000070000000700005E
:10365000000700000007000000000000BFC60000D7
:10366000000000000780003C07C001FC07803FE02D
:10367000078039C1C78001C0E78001C0F78001C061
:10368000778001DE77807FFE078001C0078003C35B
:10369000C78003E1E78003F8F78007FCE7F00FDE5F
:1036A00067F80FDC07F81FC0FF801DDFE78039CC0B
:1036B000078071C0078061C0078001C0078001C01A
:1036C000078001E0078001E0078001C007000000DB
:1036D0000000BCBC000000000380300003C03C00C0
:1036E00003C03C0003C0380003C0380003C038608A
:1036F00003F838F07FFFFFF003C0380003C0380044
:1037000003C0380003DC39C003FFFFE007E383C0D8
:103710003FC183C07FC1C3803BC1C78003C0EF00EE
:1037200003C0EF0003C07E0003C07C0003C07C0028
:1037300003C0FE003BC3EF803F8787F80FBF03F84D
:10374000077800E000000000C4EA0000000000C0AC
:10375000000001F0000001E0000003C000C003C051
:1037600001E007FFFFF00703C0000E03C0001E03C7
:10377000C0003C03C3007303C78063FFFFC0038323
:10378000C0000383C0000383C0000383C000038321
:10379000C0600383C0F07FFFFFF80003C000000398
:1037A000C0000003C0000003C0000003C00000030D
:1037B000C0000003C0000003C00000000000D4C22D
:1037C000000000000000000000E0070000FFFF8094
:1037D00000F0078000F0070000F0070000F007008D
:1037E00000F0070000FFFF0000FFFF0000F00700EF
:1037F00000F0070000F0070000F0070000E00700FD
:1038000000FFFF0000E0070000E0070000E0070005
:1038100001E0070001C0070001C0070003800700A6
:103820000780F7000F007F001E001F0038001C00FB
:1038300000000000C8D500000000000000000300E8
:10384000030003FFFF8003FFFF8003800700038066
:103850000700038007000380070003800700038040
:103860000700038007000380070003FFFF000380B9
:103870000700038007000380070003800700038020
:103880000700038007000380070003800700038010
:10389000070003FFFF000380070003800700038089
:1038A00007000300000000000000D0C70000000077
:1038B000000000000380070003FFFF800380070073
:1038C000038007000380070003FFFF000380070059
:1038D0000380070003FFFF0003FFFF0003870700CB
:1038E0000387C00003C7810003C7838007FFFFC0B1
:1038F000070780000F0780001E0786001C078F0047
:103900003BFFFF807007800000078000000780E019
:10391000000781F07FFFFFF80000000000000000BA
:10392000C6DA0000000006000000079E0000079EA7
:103930007FF0079E7FF0079FF8F03FFFF8F01F9E93
:1039400078F0079E78F0079E78F007FE7FF0079EDC
:1039500078F0079E78F0079E70F007FE70F0079EE3
:1039600070F0079E7FF0079FFFF03FFFF0F011908F
:1039700070F003DCF0F003DEE0F0078FE0F00F0FF3
:10398000E0F00E07C0F01C038FF0380F03E0201C9E
:1039900001C0000000003031323334353637383959
:1039A000414243444546403058003031323334358B
:1039B00036373839616263646566403078000000EC
:1039C000E039000800000020340000006C0100080D
:1039D000143A000834000020CCF3000088010008ED
:1039E00000000000010203040102030406070809A5
:1039F000020406080000FFFF0000000000000000B5
:103A000001000000000000000000000000000000B5
:043A100000000000B2
:0400000508000131BD
:00000001FF
