:020000040800F2
:10000000A0B50120A5010008F1170008AF01000804
:10001000ED1700085B030008273E00080000000001
:10002000000000000000000000000000453500084E
:100030005507000800000000811800085D36000820
:10004000BF010008BF010008BF010008BF01000890
:10005000BF010008BF010008BF010008BF01000880
:10006000BF010008BF010008BF010008BF01000870
:10007000BF010008BF010008BF010008BF01000860
:10008000BF010008BF010008BF010008BF01000850
:10009000BF010008BF010008BF010008BF01000840
:1000A000BF010008BF010008BF010008BF01000830
:1000B000BF010008BF010008BF010008BF01000820
:1000C000BF010008BF010008BF010008BF01000810
:1000D000BF0100086D3B0008BF010008BF01000818
:1000E000BF010008BF010008BF010008BF010008F0
:1000F000BF010008BF010008BF010008BF010008E0
:10010000BF010008151B0008BF010008BF0100085F
:10011000BF010008BF010008BF010008BF010008BF
:10012000BF010008BF010008BF010008BF010008AF
:10013000BF010008BF010008BF010008BF0100089F
:10014000BF010008BF010008BF010008BF0100088F
:10015000BF010008BF010008BF010008BF0100087F
:10016000BF010008BF010008BF010008BF0100086F
:10017000BF010008BF010008BF010008BF0100085F
:10018000BF010008BF010008DFF80CD000F0B4F890
:100190000048004795650008A0B5012072B6704779
:1001A00062B670470648804706480047FEE7FEE70C
:1001B000FEE7FEE7FEE7FEE7FEE7FEE7FEE7FEE717
:1001C0009D360008890100082DE9F0410024061B36
:1001D000254671F1000605DA01240027D0EB07005F
:1001E00067EB0101161E73F1000605DA0027D2EB5A
:1001F0000702012567EB030300F04CF886460E4624
:1002000017469C46AC4204D00025D0EB050E65EBAA
:10021000010624B10020D2EB000760EB030C70460E
:1002200031463A466346BDE8F08140EA01039B0748
:1002300003D009E008C9121F08C0042AFAD203E05B
:1002400011F8013B00F8013B521EF9D27047421EE3
:1002500012F8013F002BFBD111F8013B02F8013BE2
:10026000002BF9D1704710B5002200E0521C835CCE
:100270008C5CA34201D1002BF8D1D8B2E1B2401A74
:1002800010BD034611F8012B00F8012B002AF9D10B
:10029000184670472DE9F05F0546002092469B46C0
:1002A00088460646814640241BE02846414647468C
:1002B000224600F042F853465A46C01A914110D3E4
:1002C00011461846224600F029F82D1A67EB01085E
:1002D0004F4622460120002100F020F817EB0009CC
:1002E0004E41201EA4F10104DFDC484631462A4677
:1002F0004346BDE8F09F0000064C074D06E0E0686D
:1003000040F0010394E8070098471034AC42F6D35C
:10031000FFF73EFF386C0308586C0308202A04DB03
:10032000203A00FA02F1002070479140C2F1200308
:1003300020FA03F3194390407047202A04DB203A47
:1003400021FA02F00021704721FA02F3D040C2F1F5
:100350002002914008431946704700BFFEE770B580
:1003600000254FF4803404E0802001F0BFFB00B191
:1003700003E02000A4F10104F6D100BF0CB9032072
:1003800070BD40F2FF5001F087FB2846F8E70000FF
:1003900070B5044605E01648056805F0450000B153
:1003A00000E0F8E700BF042001F0A0FB20B104202A
:1003B00001F072FB032070BD012001F097FB20B11A
:1003C000012001F069FB0120F5E7094824380068A5
:1003D000A04201D01020EEE740F2FF5001F05CFB9C
:1003E00003482038006808210840C0B2E3E7000055
:1003F000342C014070B500264FF4803505E01148DB
:10040000046804F0450000B103E02800A5F10105EF
:10041000F5D100BF15B104F0040028B10326042073
:1004200001F03AFB304670BD012001F05FFB18B1CE
:100430000126012001F030FB40F2FF5001F02CFBBF
:100440003046F0E7342C014010B505E00B48046855
:1004500004F0450000B100E0F8E700BF042001F01F
:1004600045FB20B1042001F017FB032010BD40F232
:10047000FF5001F011FB0020F8E70000342C014090
:100480002DE9F04105460E464FF0000805E02048F2
:10049000076807F0450000B100E0F8E700BF04205E
:1004A00001F024FB28B1042001F0F6FA0320BDE896
:1004B000F081012001F01AFB20B1012001F0ECFADB
:1004C0000120F4E7124824380068A84201D0102027
:1004D000EDE740F2FF5001F0DFFA0D4820380468E4
:1004E00004F4604018B9200C30804046DFE704F483
:1004F000005008B11320DAE704F4804008B110205E
:10050000D5E704F4004008B10F20D0E74046CEE71D
:10051000342C014070B500264FF4803505E00F48BB
:10052000046804F0450000B103E02800A5F10105CE
:10053000F5D100BF15B104F0040028B10326042052
:1005400001F0AAFA304670BD04F0400018B1002650
:10055000402001F0A1FA3046F5E70000342C0140BC
:1005600021B1026842F00102026003E0026822F059
:100570000102026070470000016821F00101016082
:100580000021016041608160C16001612121416100
:100590004A49884204D13D21484A103A91608CE092
:1005A00046491831884205D14FF47461434A103AE4
:1005B000916082E041493031884205D14FF4741195
:1005C0003E4A103A916078E03C494831884205D172
:1005D0004FF07461394A103A91606EE037496031EA
:1005E000884204D13649354A103AD16065E0334932
:1005F0007831884204D13349304A103AD1605CE006
:100600002E499031884204D12F492C4A103AD160AA
:1006100053E02A49A831884205D14FF03D51274A7D
:10062000103AD16049E02949884204D13D21274A46
:10063000083A116041E025491831884205D14FF44C
:100640007461224A083A116037E02049303188420B
:1006500005D14FF474111D4A083A11602DE01B4971
:100660004831884205D14FF07461184A083A116048
:1006700023E016496031884204D11149134A121F00
:1006800011601AE011497831884204D10D490F4AAE
:10069000121F116011E00D499031884204D10A49BE
:1006A0000A4A121F116008E00849A831884204D1A3
:1006B0004FF03D51054A121F116070471060024013
:1006C0003D000020400F002000003D20106402404B
:1006D00021B1026842F02002026003E0026822F0C9
:1006E000200202607047014600200A6802F0010201
:1006F0000AB1012000E000207047000010B5002280
:100700000268134B1A40CC680B6823434C6923439F
:100710008C692343CC6923430C6A23434C6A2343EB
:100720008C6A23434C6B23438C6B23431A43026034
:10073000426922F00702D1E90B3423431A43426194
:100740000B6943604B6883608B68C36010BD000019
:100750003F801CF07047000010B50446214610A0F1
:1007600003F038FF240300F033F900F0C1F8002053
:100770000D490860202002F07DFEC4F3074002F01E
:1007800079FEC4F3072002F075FEE0B202F072FEBB
:1007900001200649C1F8B80200F0AAF810BD000017
:1007A00066653A25780D0A00B882404200804042D2
:1007B0001CB50121022001F065F80121402001F063
:1007C00061F84FF48040009001208DF80400002073
:1007D0008DF8060003208DF8050001208DF8070034
:1007E00069460D4800F064FB8020009069460B4884
:1007F00000F05EFB8021094800F0C5FB012008499C
:10080000086002F0D5FD382002F050FE00F036F806
:10081000044908801CBD000000040240001802408A
:10082000B8824042300000202DE9F04106460C46D7
:10083000174600201049086002F038FE032002F03D
:1008400019FEC4F3074002F015FEC4F3072002F0BE
:1008500011FEE0B202F00EFE002505E0FF2002F0DE
:1008600009FE7055681C85B2BD42F7DB01200249C4
:100870000860BDE8F0810000B882404210B5002455
:1008800000200E490860902002F0F4FD002002F0E4
:10089000F1FD002002F0EEFD002002F0EBFDFF2054
:1008A00002F0E8FD44EA0024FF2002F0E3FD0443E7
:1008B00001200349C1F8B802204610BDB882404269
:1008C0000080404210B50024002007490860052040
:1008D00002F0D0FDFF2002F0CDFD044601200349C7
:1008E000C1F8B802204610BDB882404200804042A4
:1008F00010B500BFFFF7E6FF00F001000028F9D1B6
:1009000010BD2DE9F05F8346894616464FF48051AD
:10091000002006F071FB8046B8F1000F01D1BDE860
:10092000F09F002002F0C2FD4FEA1937C9F30B0A0D
:10093000CAF58054A64200DC344641E039034FF446
:1009400080524046FFF770FF002508E00AEB0500E3
:1009500018F80000FF2800D003E0681C85B2A5420B
:10096000F4DB00BFA54215DA3846FFF7F5FE002597
:1009700007E01BF8050005EB0A0108F80100681CF8
:1009800085B2A542F5DB39034FF48052404600F0B2
:100990002FF804E022464946584600F029F8A642BE
:1009A00000D10EE07F1C4FF0000AA344A144301B8D
:1009B00086B2B6F5805F02DD4FF4805400E0344625
:1009C000BCE700BF4146002006F004FB00BFA6E7DD
:1009D00010B5002004490860062002F04BFD0120FC
:1009E0000249C1F8B80210BDB882404200804042BE
:1009F0002DE9F04107460E461446F0B2C0F5807569
:100A0000AC4200DC254612E02A463146384600F06A
:100A100013F8AC4200D10BE02F442E44601B84B28B
:100A2000B4F5807F02DD4FF4807500E02546EBE7EA
:100A300000BFBDE8F08100002DE9F04106460C46FC
:100A40001746FFF7C5FF00200F490860022002F09B
:100A500011FDC4F3074002F00DFDC4F3072002F0BE
:100A600009FDE0B202F006FD002504E0705D02F031
:100A700001FD681C85B2BD42F8DB01200249086017
:100A8000FFF736FFBDE8F081B882404210B5002480
:100A90000EE04FF40C71002006F0AEFA184941F850
:100AA0002400084650F8240000B903E0601CC4B2DA
:100AB000032CEEDB00BF4FF40A71002006F09CFA15
:100AC000104908604FF40A71002006F095FA0E49AB
:100AD00008604FF40071002006F08EFA0B490860A0
:100AE000032C0AD10748006838B10748006820B1D4
:100AF0000846006808B1002010BD0120FCE7000096
:100B00004CAC0120680000206C0000207800002020
:100B10002DE9FC4105460027002405E0601CC4B215
:100B2000287800B902E06D1CFA2CF7DB00BFFA2C24
:100B300002D1FF20BDE8FC81002408E06D1E28786A
:100B40002E2802D16D1C2F4603E0601CC4B2052C78
:100B5000F4DB00BF39466846FFF793FB002407E04B
:100B60001DF8040003F087FF0DF80400601CC4B2F8
:100B7000042CF5DB00241DE0002616E00F4800EBF6
:100B8000041050F82600007800B910E00B4901EB82
:100B9000041151F826006946FFF765FB18B946EACB
:100BA0000410C0B2C6E7701CC6B2042EE6DB00BF5C
:100BB000601CC4B2072CDFDBFF20BBE7846B03089B
:100BC00051B18200A2F1C042126842F001038200DA
:100BD000A2F1C042136009E08200A2F1C042126893
:100BE000034B1A408300A3F1C0431A607047000012
:100BF000FEFF0F0030B50021002200230468A4008E
:100C0000A4F1C0442168444C2140D0E901452C4363
:100C1000C5682C4305692C4345692C4385692C43E1
:100C2000C5692C43056A2C43456A2C43856A2C43CD
:100C3000C56A2C43056B2C4321430468A400A4F12E
:100C4000C04421608468082C0BD10468A400A4F17E
:100C5000C044246844F040050468A400A4F1C044E2
:100C600025600468641CA400A4F1C044226802F05A
:100C70004042446B2468456B6D6844EA0514456B3B
:100C8000AD6844EA0524456BAD8944EA0544456BEB
:100C90002D8A44EA0554456B2D7D44EA0564456B75
:100CA000AD692C4322430468641CA400A4F1C04431
:100CB0002260C46AB4F5804F24D10468A400A4F172
:100CC000C044D4F8043103F04043846B2468856B3E
:100CD0006D6844EA0514856BAD6844EA0524856BAC
:100CE0002D8A44EA0554856B2D7D44EA0564856BA5
:100CF000AD692C4323430468A400A4F1C044C4F8A4
:100D0000043107E06FF070450468A400A4F1C0440A
:100D1000C4F8045130BD00008000F7FF2DE9FC410C
:100D200007460D4600260024002000900190082070
:100D30005B49086010204860402088600020C8603F
:100D40004FF480600861084600F01CFF1020FFF798
:100D50001FFB044614B12046BDE8FC8151480088C1
:100D600000044F4908603720486040208860002018
:100D7000C8604FF480600861084600F003FF372028
:100D8000FFF706FB04460CB12046E5E74FF0FF30C5
:100D90004549086008204860302088600220C8600B
:100DA0000020086101204861084600F085FE00200F
:100DB0003B49086033204860402088600020C860BC
:100DC0004FF480600861084600F0DCFE3320FFF736
:100DD000DFFA04460CB12046BEE70CE04FF40010E9
:100DE00000F084FE38B1314800684DF82600761CCA
:100DF000022E00D307E02D484C38006840F22A61EB
:100E000008400028EAD000BF082000F06FFE20B1A3
:100E1000082000F041FE04209EE7022000F066FE5C
:100E200020B1022000F038FE022095E7202000F0DB
:100E30005DFE20B1202000F02FFE06208CE74FF44D
:100E4000007000F053FE28B14FF4007000F024FE53
:100E5000072081E740F2FF5000F01EFE00980006D8
:100E6000009901F47F4140EA0120009901F47F01DB
:100E700040EA1120009940EA11606860019800067C
:100E8000019901F47F4140EA0120019901F47F01B9
:100E900040EA1120019940EA1160286020465BE792
:100EA0009800002024000020AC000020802C01408D
:100EB000F0B50A4600210023002400BF3DE00125D3
:100EC00005FA01F3156805EA03049C4234D105686C
:100ED0004F000326BE40B543056015794E00B5406E
:100EE0000668354305601579012D02D01579022D6C
:100EF00016D185684F000326BE40B54385605579FD
:100F00004E00B540866835438560456801268E40B1
:100F1000B5434560456896798E40B6B23543456025
:100F2000C5684F000326BE40B543C560D5794E0065
:100F3000B540C6683543C560491C1029BFD3F0BD14
:100F4000F0B5002300244D07ED0E02FA05F3CE1094
:100F500000F1200555F826504E07F70E0F26BE402B
:100F6000B543CF1000F1200646F82750CE1000F10F
:100F7000200555F8265045EA0304CE1000F120055F
:100F800045F82640F0BD0183704700001CB50446BB
:100F90000020019000902248008800042149086048
:100FA0000D204860402088600020C8604FF48060B9
:100FB0000861084600F0E6FD1B480068009002E06A
:100FC000194800680090009800F045000028F7D00C
:100FD000012000F08BFD20B1012000F05DFD01201B
:100FE0001CBD042000F082FD20B1042000F054FD5F
:100FF0000320F5E70C48243800680D2801D01020A4
:10100000EEE740F2FF5000F047FD07482038006847
:1010100001900198C0F3432020700020E0E7000019
:101020002400002098000020342C01401CB5012130
:10103000112000F027FC00208DF804001C200090F7
:1010400001208DF8070069460748FFF731FF0020AF
:101050008DF804000120009002208DF807006946F9
:101060000248FFF725FF1CBD0010024000000240AF
:1010700010B5044622480078012826D1214800688E
:1010800001280AD02048006838B11F48001D0068B8
:1010900018B11D48001F0068B8B90A2003F06CFFA2
:1010A00000201749087017480068012800D110BDBA
:1010B0001548006808B90220F9E71348001D0068C8
:1010C00008B90320F3E70420F1E70E48006878B977
:1010D0000D48006801280BD10B48001D006801284D
:1010E00006D10948001F0068012801D10449087091
:1010F000012C02D10120024908700020D7E700002E
:1011000032000020000240420C02424270B5064606
:101110000F484088401E83B20D480088401E82B2AE
:101120000021084600F083F800240CE0002504E0CC
:10113000304600F035FB681C85B205484088A8425F
:10114000F6DC601C84B202480088A042EEDC70BD70
:101150001800002000B502467AB9362000F014FBD2
:10116000002000F017FB4FF4F0700C4948804FF45A
:10117000A0700880002088710EE0362000F004FB8B
:10118000602000F007FB4FF4A070044948804FF442
:10119000F07008800120887100BD00001800002058
:1011A00070B504460D4616462B4622462946204673
:1011B00000F03DF8304600F0F3FA70BD2DE9F04341
:1011C00004460D4616461F46DDF81C80B44201DC7D
:1011D000BD4201DDBDE8F0833B463246294620464C
:1011E00000F025F8301B401C84B2781B401C85B2EF
:1011F0000BE0A94602E0404600F0D2FA5FEA09009F
:10120000A9F101011FFA81F9F5D12000A4F1010132
:101210008CB2EED100BFDDE710B50246012000E040
:1012200050430B00A1F10104E1B2F9D110BD70B53A
:1012300004460D462A2000F0A7FA2646E11704EBE3
:101240001161C1F30F2000F0A5FAE11704EB116161
:101250000912A4EB012188B200F09CFA1646D117BE
:1012600002EB1161C1F30F2000F094FA1646D1177A
:1012700002EB11610912A2EB012188B200F08AFA97
:101280002B2000F081FA2E46E91705EB1161C1F31E
:101290000F2000F07FFAE91705EB11610912A5EBA9
:1012A000012188B200F076FA1E46D91703EB1161CE
:1012B000C1F30F2000F06EFA1E46D91703EB11613F
:1012C0000912A3EB012188B200F064FA2C2000F08F
:1012D0005BFA70BD2DE9F84F80460E4617461C4656
:1012E000B3462046E31704EB5373DB1021464FEA65
:1012F000E47C04EB5C7C4FEAEC0CA4EBCC0CBCF182
:10130000000F02D04FF0010C01E04FF0000C6344DD
:10131000224604EBD27C4FEA6C0C03FB0CF3DBB2ED
:101320000093A7F12000C7B2002556E00C2C07D18E
:1013300007EB47002B4901EB800010F8059013E004
:10134000102C05D1284800EB071010F805900BE091
:10135000182C07D107EBC700244901EB800010F8D7
:10136000059001E0BDE8F88F4FF0000A2FE009F08A
:10137000800030B11E48028831464046FFF710FF1A
:1013800007E00A9828B91B48028831464046FFF713
:1013900007FF4FEA49604FEA1069701C86B2164891
:1013A0004088B04200DCDDE7A6EB0B00A0420AD18A
:1013B0005E4608F101001FFA80F80F48008840459A
:1013C00000DCCFE706E00AF1010000F0FF0ABAF105
:1013D000080FCCDB00BF681CC5B200988542A5DBB6
:1013E00000BFBFE7CA7300083E7800082E7E0008E1
:1013F0001400002016000020180000202DE9F04FF6
:1014000089B005460F4614460026A9E020788028BA
:1014100049DA2078A0F1200636015548064410220A
:10142000314601A8FFF700FA07F10F0083B2E81D6B
:1014300082B239462846FFF7FAFE4FF0000921E054
:1014400001A810F809B04FF0000814E00BF080007C
:10145000802804D14748008800F0A2F903E04648FC
:10146000008800F09DF94FEA4B604FEA106B08F1DD
:10147000010000F0FF08B8F1080FE7DB09F10100F7
:1014800000F0FF09B9F1100FDADB641C05F1080068
:1014900085B23A4800880838A84261DA002507F189
:1014A000100087B25CE0207881381FFA80FABE20F5
:1014B0000AFB00F694F801A0BAF17F0F04DAAAF152
:1014C00040001FFA80FA03E0AAF141001FFA80FAF7
:1014D000564476012A4806442022314601A8FFF7E7
:1014E000A3F907F10F0083B205F10F0082B239466C
:1014F0002846FFF79CFE4FF0000821E001A810F8F5
:1015000008B04FF0000914E00BF08000802804D1EF
:101510001848008800F044F903E01748008800F0FC
:101520003FF94FEA4B604FEA106B09F1010000F000
:10153000FF09B9F1080FE7DB08F1010000F0FF082F
:10154000B8F1200FDADB05F1100085B20B480088F6
:101550000F38A84203DA002507F1100087B2A41C57
:10156000207800287FF452AF09B0BDE8F08F00006A
:101570004E46DD0014000020160000201800002058
:10158000004CDD002DE9F04F91B007468846144627
:10159000002659E02078813885B2BE2005FB00F690
:1015A00065787F2D03DAA5F1400085B202E0A5F150
:1015B000410085B22E44C6EB8616264806443F22DB
:1015C000314601A8FFF730F908F1140083B207F1A2
:1015D000170082B241463846FFF729FE4FF0000956
:1015E00021E001A810F809B04FF0000A14E00BF058
:1015F0008000802804D11848008800F0D1F803E06A
:101600001648008800F0CCF84FEA4B604FEA106BA8
:101610000AF1010000F0FF0ABAF1080FE7DB09F157
:10162000010000F0FF09B9F13F0FDADB07F1150007
:1016300087B20B4800881538B84204DA002708F151
:1016400015001FFA80F8A41C20780028A2D111B040
:10165000BDE8F08F82FCE800140000201600002096
:10166000180000202DE9F84704460D46904699469B
:10167000DDE9096704F0FF0A08EB04001FFA80F8AF
:1016800009EB05001FFA80F916E0444502DB5446D9
:10169000A81985B24D4500DB14E0002000903A788F
:1016A000334629462046FFF715FE304606EBD0713B
:1016B00004EB61018CB27F1C38787E2802DC38781C
:1016C0002028E2DA00BFBDE8F8872DE9FF4F82B09D
:1016D000064692461F46DDE90F480020019000258E
:1016E0004DE0781B401EC1B20A20FFF795FDBAFB02
:1016F000F0F00A21B0FBF1F201FB1209019850BB96
:10170000781EA84227DDB9F1000F22D108F0800031
:1017100078B108F00100A34604EBDB71491001FB2E
:101720000561009088B2234630220399FFF7D2FD6D
:101730000EE008F00100A34604EBDB71491001FB49
:101740000561009088B2234620220399FFF7C2FD6D
:1017500013E00120019008F00100A34604EBDB71C7
:10176000491001FB0561009088B209F13001CAB24D
:1017700023460399FFF7AEFD00BF681CC5B2BD420A
:10178000AFDB06B0BDE8F08F01490880704700006C
:101790007E00006C01490880704700008000006CEA
:1017A00001490880704700008000006C1CB50121D1
:1017B000202000F067F801208DF804004FF4C0608D
:1017C000009003208DF8050000208DF80600012010
:1017D0008DF8070069460448FFF76AFB4FF4C061C3
:1017E0000148FFF7D0FB1CBD0014024000BFFEE71C
:1017F0007047000070B5002100230F22C4781CB38D
:10180000174C246804F4E064C4F5E064C4F30721D1
:10181000C1F10404E3B20A4144789C40E1B2847807
:10182000144021430C07210E0E4C057861550478B5
:1018300004F01F050124AC4005786D11AD0005F1E1
:10184000E025C5F8004109E0047804F01F050124F3
:10185000AC40054D0678761145F8264070BD000075
:101860000CED00E000E400E080E100E0024901430B
:10187000024A1160704700000000FA050CED00E01C
:101880007047000029B1064A12680243044B1A60EF
:1018900004E0034A12688243014B1A60704700005B
:1018A0003038024029B1064A12680243044B1A60DC
:1018B00004E0034A12688243014B1A60704700003B
:1018C0003838024029B1064A12680243044B1A60B4
:1018D00004E0034A12688243014B1A60704700001B
:1018E0004438024029B1064A12680243044B1A6088
:1018F00004E0034A12688243014B1A6070470000FB
:1019000024380240F0B500210022002402250026E0
:101910000223324F3F6807F00C0121B1042905D0A2
:10192000082937D105E02E4F076036E02D4F0760BC
:1019300033E02A4F3F1F3F68C7F38056274F3F1FB2
:101940003F6807F03F036EB1264FB7FBF3F7DFF8B0
:101950008CC0ACF1040CDCF800C0CCF3881C07FB95
:101960000CF40CE01E4FB7FBF3F7DFF870C0ACF1DE
:10197000040CDCF800C0CCF3881C07FB0CF4174FF8
:101980003F1F3F68C7F301477F1C7D00B4FBF5F79D
:10199000076002E0124F076000BF00BF0F4F3F68B3
:1019A00007F0F0010909104F7A5C0768D7404760DB
:1019B0000A4F3F6807F4E051890A0B4F7A5C476889
:1019C000D7408760054F3F6807F46041490B064FD9
:1019D0007A5C4768D740C760F0BD00000838024015
:1019E0000024F40000127A00000000207CB50546B7
:1019F000002400200090019000260DB1022600E096
:101A000000262248006800F0007008B10E207CBD5E
:101A10001F49098888B26946FFF780F904460CB16E
:101A20002046F4E7019800F4802060B3184800884D
:101A30000004184908603720486040208860002072
:101A4000C8604FF480600861084600F09BF83720BA
:101A5000FEF79EFC04460CB12046D8E70D48066010
:101A600006200C494860402088600020C8604FF480
:101A700080600861084600F085F80620FEF788FCC3
:101A800004462046C3E72520C1E70000142C01408E
:101A900024000020980000200149086070470000E1
:101AA000382C01400146034A106820F0FF0008432B
:101AB00010607047042C014000210B4B02681A6033
:101AC0001B1D42681A601A1D116821F0F701D0E948
:101AD00002231A4303691A4343691A431143024A12
:101AE0000832116070470000242C0140014600209C
:101AF000034A12680A400AB1012000E00020704742
:101B0000342C01400248006800F0030070470000D8
:101B1000002C014010B500F08BFC10BD00210A4ADA
:101B2000116847F6FF629143027D83681A43436858
:101B30001A43C3681A4303681A4303691A431143DB
:101B4000014A116070470000042C014000200B493D
:101B50000860091D0860091D0860091D0860074923
:101B600024310860091D0860091D08600448034904
:101B7000383108600020091D08607047002C0140C2
:101B8000FF07C0000021094B02681A601A1D116886
:101B90006FF30A01D0E901231A43C3681A430369AA
:101BA0001A431143014A121D11607047082C01406D
:101BB0000149086070470000002C014070B590B0EA
:101BC00004460E46154600BF1A48FEF78CFD002855
:101BD000FAD11848FEF7D0FC4FF00060019016488B
:101BE0000290039404950020059006904FF48060C5
:101BF0000790800008908000099000200A904FF420
:101C000040300B9004200C9003200D904FF4000006
:101C10000E9080100F9001A90648FEF76FFD20215D
:101C20000448FEF755FD01210248FEF799FC10B06B
:101C300070BD000058640240802C014070B504461D
:101C4000002516480078032802D12725284670BDB4
:101C50001248007838B111480078012803D00F48A5
:101C60000078022817D1B4F5805F02D127252846D5
:101C7000EDE7E0B2FFF7BAFE054665B9084800682F
:101C800020F4C050064908600846006820430860F8
:101C90000846006808602846D9E7000020000020B8
:101CA000042C0140F0B5014600200022BE4B1B78F9
:101CB00081F85630BD4B1B88A1F85430BC4B1B68D3
:101CC0001A0E93090B70C2F383034B7002F00303E7
:101CD0008B70B74B1B68C3F30742CA70B44B1B88A9
:101CE000C3F307220A71B24B1A784A715B681A0E65
:101CF0001301CB80AE4B5B68C3F30742CB8843EA4A
:101D00001213CB8002F00F030B72A94B9B88C3F315
:101D10000722D3094B72C2F380138B72C2F34013B4
:101D2000CB72C2F300130B7300234B739E4B1B78D3
:101D30003BB19D4B1B78012B03D09B4B1B78032B96
:101D40004FD193071B0D0B61994B1A790B6943EA2D
:101D500082030B61964B9B681A0E0B6943EA921340
:101D60000B61C2F3C2030B7502F007034B75904B76
:101D70009B68C3F3074253098B75C2F38203CB758B
:101D800093075B0F0B768A4B1B89C3F307220B7EED
:101D900043EAD2130B760B695B1C0024C1E91234B1
:101DA0000B7E9B1C012404FA03F3DC17D1E91256C5
:101DB000A5FB037C06FB03C305FB0433C1E91273D7
:101DC0000C7A0123A3400B650024D1E912650B6D49
:101DD000A6FB037C05FB03C306FB0433C1E91273B6
:101DE0002EE0714B1B78022B2AD1714B1A79930686
:101DF0009B0A0B616E4B9B681A0E0B6943EA022328
:101E00000B616B4B9B68C3F307420B6913430B6178
:101E1000674B1B89C3F307220B695B1C4FF40074EB
:101E2000A3FB04464FF480630025A4FB037C06FB60
:101E300003C304FB0533C1E912734FF400730B6550
:101E4000C2F3801301F8193F93065B0E4B70584B99
:101E50001A7A4B7843EAD2134B7002F07F038B70EF
:101E6000534BDB681A0ED309CB70C2F341130B71CD
:101E7000C2F382034B7193071B0F8B714C4BDB68D2
:101E8000C3F307428B7943EA92138B71C2F3401379
:101E9000CB7100230B7202F001034B72444B9B8900
:101EA000C3F30722D3098B72C2F38013CB72C2F340
:101EB00040130B73C2F300134B73C2F381038B7394
:101EC00002F00303CB733A4B1A7B53080B740123C4
:101ED0004B74384B1B681A0ECA741939354B1B6882
:101EE000C3F307421402CC85324B1B88C3F307228D
:101EF000CB8D1343CB852F4B1A7814060C635B688C
:101F00001A0E0B6B43EA02440C632A4B5B68C3F363
:101F100007420B6B43EA02240C63264B9B88C3F3F6
:101F200007220B6B13430B63224B1A7934235A5449
:101F3000204B9B681A0E35235A541E4B9B68C3F3E3
:101F4000074214068C631B4B1B89C3F307228B6B60
:101F500043EA02448C63174B1A7A8B6B43EA0224E0
:101F60008C63144BDB681A0E8B6B13438B63114B22
:101F7000DB68C3F307423C235B5C43EA12143C2357
:101F80005C5413071C0DCC870A4B9B89C3F30722B3
:101F9000CB8F1343CB87074B1A7B540840235C54E9
:101FA000012441235C54F0BD2000002024000020C7
:101FB000C4000020D40000203EB5002400250121EB
:101FC0004448FFF75FFC0121C802FFF77BFC0121B9
:101FD000C802FFF787FC4FF4F850019002208DF8FB
:101FE00008008DF8090000208DF80A0001208DF806
:101FF0000B0001A93848FEF75BFF0420019001A9FE
:102000003648FEF755FF0C2208213348FEF798FFAB
:102010000C2209213048FEF793FF0C220A212E489A
:10202000FEF78EFF0C220B212B48FEF789FF0C22B6
:1020300011462948FEF784FF0C2202212748FEF7AB
:102040007FFF00214FF40060FFF74CFCFFF77EFD9F
:1020500031208DF8000000208DF801008DF802007D
:1020600001208DF803006846FFF7C4FB00F0EEF88E
:10207000044614B900F038F804461CB91848FFF7B4
:1020800011FE044634B91649B1F85410080400F0A2
:1020900073FD044624B94FF40060FFF7CFFD0446FA
:1020A0001CB110480078032812D10D4890F8560052
:1020B00020B10B4890F85600012801D1022500E01C
:1020C00000252846FFF7EEFC002000F06DFD0446D9
:1020D00020463EBD0C00400000080240000C0240BB
:1020E000E80000202000002038B5002401200090E6
:1020F000FFF708FD10B92524204638BD4D4800786B
:10210000042824D000204C49086002204860C020E8
:1021100088600020C8604FF4806008610846FFF7BF
:1021200031FDFEF767F904460CB12046E5E7434868
:102130000068434908604148001D006848603F4806
:102140000830006888603D480C300068C860394835
:10215000007858B137480078012807D03548007812
:10216000062803D033480078022816D100203249CF
:10217000086003204860402088600020C8604FF459
:10218000806008610846FFF7FDFC69460320FEF702
:1021900077F904460CB12046AFE7264800780328BB
:1021A00016D1BDF8000000042349086003204860F0
:1021B000402088600020C8604FF4806008610846B5
:1021C000FFF7E0FCFEF716F904460CB1204694E751
:1021D0001848007804282AD0BDF800001949086082
:1021E000BDF8000000041449086009204860C020C0
:1021F00088600020C8604FF4806008610846FFF7DF
:10220000C1FCFEF7F7F804460CB1204675E70B4811
:1022100000680D4908600948001D006848600748CB
:1022200008300068886005480C300068C8600020ED
:1022300063E700002000002098000020142C0140DB
:10224000D400002024000020C40000202DE9F04725
:102250000027002400260025A046A14676206E49CE
:1022600008750020086048608860C86008610846FA
:10227000FFF754FC0320FFF79BFC6848006840F41C
:1022800080706649086000BF12E000206449086061
:1022900048608860C8604FF4806008610846FFF7B6
:1022A00071FCFEF75CF8044604B903E0781CC7B281
:1022B0004A2FEADB00BF14B12046BDE8F0874FF497
:1022C000D570574908600820486040208860002089
:1022D000C8604FF4806008610846FFF753FCFEF7C2
:1022E00019F9044624B901204E4908704FF080497D
:1022F00000204B490860372048604020886000205B
:10230000C8604FF4806008610846FFF73BFC372047
:10231000FEF73EF80446002C4CD135E00020404941
:10232000086037204860402088600020C8604FF473
:10233000806008610846FFF725FC3720FEF728F883
:1023400004460CB12046B8E7374849EA0000344952
:10235000086029204860402088600020C8604FF451
:10236000806008610846FFF70DFCFEF76DF8044633
:102370000CB12046A1E7294810300668012080EA08
:10238000D67080F001086D1CB8F1000F03D14FF634
:10239000FF708542C2D34FF6FF70854202D31B24E3
:1023A00020468AE706F08040060033D002201D490F
:1023B00008702FE01DE01D481949086001204860A1
:1023C000402088600020C8604FF4806008610846A3
:1023D000FFF7D8FBFEF738F804460CB120466CE74F
:1023E0000E4810300668012080EAD67080F001089F
:1023F0006D1CB8F1000F03D14FF6FF708542DAD3A0
:102400004FF6FF70854202D31B24204655E7032078
:1024100004490870204650E780000020042C014049
:102420009800002020000020000010800080FF8025
:1024300010B54FF48070FFF759FB78B34C48007823
:10244000012814D100204B4908600C20486040202E
:1024500088600020C8604FF4806008610846FFF77C
:1024600091FB0C20FDF794FF4349087002E0002027
:10247000414908704148006840F480703F49086055
:10248000081D00684CF23A3188433C49091D086038
:1024900001203B4908703848007810BDFFE7022052
:1024A000FFF724FB78B10220FFF7F6FA3348001D4E
:1024B00000684CF23A3188433049091D0860022017
:1024C0002D490870E9E70820FFF710FB78B10820D4
:1024D000FFF7E2FA2948001D00684CF23A318843C0
:1024E0002649091D0860042023490870D5E72020EB
:1024F000FFF7FCFA78B12020FFF7CEFA1F48001D45
:1025000000684CF23A3188431C49091D08600620D6
:1025100019490870C1E71020FFF7E8FA78B11020D8
:10252000FFF7BAFA1548001D00684CF23A318843AB
:102530001249091D086005200F490870ADE74FF4E6
:102540000070FFF7D3FA80B14FF40070FFF7A4FAE0
:102550000A48001D00684CF23A3188430749091DBA
:10256000086007200449087097E7002095E70000FD
:1025700029000020980000202A000020382C01406B
:102580002B0000202DE9F84F8146174698460A9CFB
:102590004FF0000AD3464D464FF0FF36B9F1000F19
:1025A00002D12620BDE8F88F0020864908608648C1
:1025B0000078022805D10402780A40EAC8574FEA99
:1025C00068280020814988604860401E086001201A
:1025D00048610020C86008610846FFF76DFA794835
:1025E0001838006800F0007008B10E20DAE7002CFF
:1025F00021DDB4F5006F1EDC601E2040D8B92046F6
:1026000002F00EFB00907248046010207049486090
:10261000402088600020C8604FF480600861084650
:10262000FFF7B0FA1020FDF7B3FE8246BAF1000FB3
:1026300003D05046B6E72620B4E70098000163496E
:102640008860084644604FF0FF3008600120486110
:102650000220C860002008610846FFF72DFA5C4898
:10266000076011205A494860402088600020C860F7
:102670004FF4806008610846FFF784FA1120FDF7E7
:1026800087FE8246BAF1000F01D050468AE75148D2
:10269000007800285CD1FDF781FD18E04FF4004080
:1026A000FFF724FA78B14FF0000B06E045485430AC
:1026B000006845F82B000BF1010BBBF1080FF5D3B7
:1026C0002035454E03E00EB904206BE7761E3D48E9
:1026D0000830006840F22A6108400028DED0082057
:1026E000FFF704FA20B10820FFF7D6F9042059E7D4
:1026F0000220FFF7FBF920B10220FFF7CDF90220FD
:1027000050E72020FFF7F2F920B12020FFF7C4F9AD
:10271000062047E74FF40070FFF7E8F928B14FF4BF
:102720000070FFF7B9F907203CE704E02548543072
:10273000006828602D1D4FF40010FFF7D7F900281E
:10274000F4D1FDF72DFD40F2FF50FFF7A5F936E07B
:1027500020480078012832D1002020490870204903
:1027600008702049087017481030006840F22A317C
:1027700008431449103108601248006840F008000E
:1027800010490860002221464846FFF717FA00E08A
:10279000761E1548006800F0006038B911480078CE
:1027A00020B90E48007808B9002EF1D10EB90420E6
:1027B000F8E60A48007810B1084890F800A05046A2
:1027C000F0E600002C2C014020000020AC0000208E
:1027D0009800002028000020FFFF7F002A00002032
:1027E000290000202B000020006402402DE9FE4F4C
:1027F00083460C46914600200290002625462C4632
:10280000700240EAD5566D020BF00300F0B14FF0B4
:10281000000A18E04FF4007000904FEA4A20471970
:1028200046EBE0733A461648FFF7ACFE02904FF4D1
:10283000007213495846FDF7F8FC0BF5007B0AF1CE
:10284000010000F0FF0ACA45E4DB16E0B9F1010F10
:1028500009D14FF400702A46334600905846FFF7DE
:1028600091FE029009E04FF400702A463346CDE90C
:102870000009584600F006F802900298BDE8FE8F65
:10288000400100202DE9FF5F17469846DDE90E461E
:102890004FF00009CA464FF0FF35AC490098086078
:1028A0000020AB490860AB480078022805D104023B
:1028B000780A40EAC8574FEA68280020A64988608D
:1028C0004860401E0860012048610020C86008611F
:1028D0000846FFF7F1F89E481838006800F00070CD
:1028E00018B10E2004B0BDE8F09F002C21DDB4F536
:1028F000006F1EDC601E2040D8B9204602F090F91F
:1029000083469648046010209449486040208860BF
:102910000020C8604FF4806008610846FFF732F974
:102920001020FDF735FD8146B9F1000F03D0484670
:10293000D8E72620D6E7012E71D906FB04F0B0F1C6
:10294000007F01D32620CDE74FEA0B108249886033
:1029500006FB04F048604FF0FF300860012048613A
:102960000220C860002008610846FFF7A5F87B48F0
:102970000760122079494860402088600020C860C4
:102980004FF4806008610846FFF7FCF81220FDF75D
:10299000FFFC8146B9F1000F01D04846A2E770481C
:1029A000007800287ED1FDF7F9FB1EE04FF40040CF
:1029B000FFF79CF8A8B14FF0000A08E064485430D3
:1029C00000686249096841F82A000AF1010ABAF16F
:1029D000080FF3D35D48006820305C490860614D02
:1029E00003E00DB904207DE76D1E594808300068EA
:1029F00040F22A3108400028D8D00820FFF776F8A6
:102A000020B10820FFF748F804206BE70220FFF709
:102A10006DF828B10220FFF73FF8022062E792E04C
:102A20002020FFF763F820B12020FFF735F80620BB
:102A300058E74FF40070FFF759F828B14FF40070D1
:102A4000FFF72AF807204DE70AE0414854300068B4
:102A50003E49096808603D480068001D3B49086020
:102A60004FF40010FFF742F80028EED14FF48070C9
:102A7000FFF73CF820B33748007838B13548007884
:102A8000012803D033480078022819D100203349A7
:102A900008600C204860402088600020C8604FF427
:102AA000806000E013E008610846FFF76BF80C2037
:102AB000FDF76EFC8146B9F1000F01D0484611E7E1
:102AC000FDF76EFB40F2FF50FEF7E6FF3BE02448C7
:102AD0000078012837D100202349087001202349BC
:102AE000087000202249087019481030006840F230
:102AF0002A3108431649103108601548006840F033
:102B000008001349086006FB04F100220098FFF753
:102B100055F800E06D1E1748006800F0006008B925
:102B2000002DF7D10DB90420DCE600BF1048007875
:102B300018B90D4800780028F8D00B48007810B17B
:102B4000094890F800904846CCE600002C00002090
:102B50002C2C014020000020AC0000209800002018
:102B600028000020FFFF7F002A000020290000200D
:102B70002B0000200064024010B5044609480460A0
:102B8000072008494860402088600020C8604FF452
:102B9000806008610846FEF7F5FF0720FDF7F8FBA7
:102BA00010BD00009800002001460020012900D03F
:102BB00011B9024B197000E0262070472800002050
:102BC0002DE9FF5F86B017469846149D0026002029
:102BD000059004900024814603908246029001955E
:102BE000DDF818B0DDF818B0BBF1000F03D12620D6
:102BF0000AB0BDE8F09F0020C9490860C949886053
:102C00004860401E0860012048610020C8600861DB
:102C10000846FEF751FFC2481838006800F00070FF
:102C200008B10E20E4E7C0480078022805D105026B
:102C3000780A40EAC8574FEA6828002D1FDDB5F52D
:102C4000006F1CDC681E2840C8B9284601F0E8FF68
:102C50000590B64805601020B4494860402088605F
:102C60000020C8604FF4806008610846FEF78AFFC4
:102C70001020FDF78DFB06461EB13046B8E7262032
:102C8000B6E7AB4800880004A84908600D204860FA
:102C9000402088600020C8604FF4806008610846CA
:102CA000FEF770FF0D20FDF773FB06460EB13046B0
:102CB0009EE79B481838006803904FF0FF341CE0F3
:102CC000641E9B4800880004984908600D204860F5
:102CD000402088600020C8604FF48060086108468A
:102CE000FEF750FF0D20FDF753FB06460EB13046B0
:102CF0007EE78B48183800680390039800F48070D2
:102D000008B9002CDCD10CB9292071E7874807608D
:102D1000182086494860402088600020C8604FF431
:102D2000806008610846FEF72DFF1820FDF730FB94
:102D300006460EB130465BE700207E4908700598D4
:102D4000000178498860084645604FF0FF30086010
:102D5000012048610020C86008610846FEF7ACFE0B
:102D60004FF0FF347448007800287ED1FDF716FA42
:102D700045E04FF48040FEF7B9FED8B30198A0EBD0
:102D80000900202822D20198A0EB090000F00300DE
:102D900020B90198A0EB0900800804E00198A0EB9D
:102DA00009008008401C02904FF0000A0AE05C49CC
:102DB0005431DBF8000008600AF1010A0BF1040B42
:102DC00009F1040902988245F1D310E04FF0000A9E
:102DD00006E05BF82A005249543108600AF1010A02
:102DE000BAF1080FF5D30BF1200B09F120096FF0B0
:102DF000404404E0FFE70CB90420F9E6641E4848AB
:102E00000830006840F21A6108400028B1D008205C
:102E1000FEF76CFE20B10820FEF73EFE0420E7E638
:102E20000220FEF763FE20B10220FEF735FE0220ED
:102E3000DEE61020FEF75AFE20B11020FEF72CFE31
:102E40000520D5E64FF40070FEF750FE30B14FF488
:102E50000070FEF721FE0720CAE606E0FDF7A0F9A4
:102E600040F2FF50FEF718FE41E033480078012899
:102E70003DD10020314908702E4908703049087052
:102E800027481030006840F21A31084324491031B5
:102E90000860402229460698FEF790FE2048006808
:102EA00040F008001E49086000E0641E25480068E4
:102EB00000F0006008B9002CF7D11CB9FFF77CF8CE
:102EC000042095E64FF0FF3400E0641E1C480078B3
:102ED00020B91A48007808B9002CF6D10CB90420A2
:102EE00086E61648007810B11448007880E640F273
:102EF000FF50FEF7D1FD04A8FEF748F8064603E0B0
:102F000004A8FEF743F806463EB99DF810000728CE
:102F1000F6D09DF810000628F2D0304668E6000092
:102F20002C2C0140AC000020200000209800002044
:102F30002400002029000020280000202A00002072
:102F40002B000020006402402DE9FE4F81460C4614
:102F5000924600200290002625462C46700240EA48
:102F6000D5566D0209F00300F0B14FF0000B18E0E8
:102F70004FF4007249461948FDF757F94FF40070B5
:102F800000904FEA4B20471946EBE0733A4613484E
:102F9000FFF716FE029009F500790BF1010000F031
:102FA000FF0BD345E4DB16E0BAF1010F09D14FF472
:102FB00000702A46334600904846FFF701FE029013
:102FC00009E04FF400702A463346CDE9000A48462E
:102FD00000F006F802900298BDE8FE8F4001002044
:102FE0002DE9FF5F84B0DDE9124700260020039041
:102FF0000290002580468146019007FB04FBDDF826
:1030000010A0DDF810A0BAF1000F03D1262008B0FF
:10301000BDE8F09F0020DC490860DC49886048601A
:10302000401E0860012048610020C8600861084611
:10303000FEF742FDD4481838006800F0007008B16F
:103040000E20E4E7D2480078022808D10402DDE926
:103050000601400A40EAC1504912CDE90601002CA0
:103060001FDDB4F5006F1CDC601E2040C8B920468F
:1030700001F0D6FD0390C74804601020C5494860A0
:10308000402088600020C8604FF4806008610846D6
:10309000FEF778FD1020FDF77BF906461EB130469D
:1030A000B5E72620B3E7012F6FD907FB04F0B0F195
:1030B000007F01D32620AAE7B548007838B1B4488C
:1030C0000078012803D0B248007802282DD1B248F8
:1030D00000880004AF4908603720486040208860BD
:1030E0000020C8604FF4806008610846FEF74AFD82
:1030F0003720FDF74DF906460EB1304687E7A54863
:1031000007601720A3494860402088600020C860FD
:103110004FF4806008610846FEF734FD1720FDF784
:1031200037F906460EB1304671E79A4906980860AD
:1031300019204860402088600020C8604FF48060FB
:1031400008610846FEF71EFD1920FDF721F9064625
:103150000EB130465BE7039800018C49886007FB9D
:1031600004F048604FF0FF30086001204861002003
:10317000C86008610846FEF79FFC88480078002870
:1031800074D1451EFDF70AF842E0E4E04FF48040B8
:10319000FEF7ACFCB8B3ABEB080020281FD2ABEBBA
:1031A000080000F0030018B9ABEB0800800803E04A
:1031B000ABEB08008008401C01904FF000090AE0CA
:1031C00071495431DAF80000086009F101090AF187
:1031D000040A08F1040801988145F1D310E04FF08A
:1031E000000906E05AF8290067495431086009F1DE
:1031F0000109B9F1080FF5D30AF1200A08F12008F6
:103200006FF0404504E0FFE70DB90420FFE66D1EB6
:103210005D480830006840F21A3108400028B5D0F7
:103220000820FEF763FC20B10820FEF735FC0420DF
:10323000EDE60220FEF75AFC20B10220FEF72CFC3E
:103240000220E4E61020FEF751FC20B11020FEF72A
:1032500023FC0520DBE64FF40070FEF747FC30B19D
:103260004FF40070FEF718FC0720D0E62CE04FF476
:103270008070FEF73BFC00B34548007838B1444805
:103280000078012803D042480078022815D1002098
:10329000404908600C204860402088600020C860D9
:1032A0004FF4806008610846FEF76CFC0C20FDF7C7
:1032B0006FF806460EB13046A9E6FCF771FF40F202
:1032C000FF50FEF7E9FB46E034480078012842D180
:1032D000002033490870012032490870002032492B
:1032E000087029481030006840F21A310843264916
:1032F0001031086007FB04F140220498FEF75EFCE1
:103300002148006840F008001F4908604FF0FF3571
:1033100000E06D1E2548006800F0006008B9002D2F
:10332000F7D11DB9FEF748FE042070E64FF0FF35D7
:1033300000E06D1E1C48007820B91948007808B9D3
:10334000002DF6D10DB9042061E61548007810B1C2
:10335000134800785BE640F2FF50FEF79DFB02A8A1
:10336000FDF714FE064603E002A8FDF70FFE064631
:103370003EB99DF808000728F6D09DF808000628F9
:10338000F2D0304643E600002C2C0140AC00002077
:1033900020000020980000202400002028000020A9
:1033A0002A000020290000202B0000200064024099
:1033B00000B587B001210220FEF764FA012108035D
:1033C000FEF780FA052203212848FDF7B9FD052202
:1033D00004212648FDF7B4FD052211462348FDF7D8
:1033E000AFFD3820059002208DF8180000208DF8E0
:1033F0001A0003208DF8190001208DF81B0005A983
:103400001A48FDF755FD01210803FEF76BFA00216C
:103410004FF48050FEF766FA0020ADF800004FF43C
:103420008270ADF802000020ADF804000220ADF873
:1034300006000120ADF808004002ADF80A0038206F
:10344000ADF80C000020ADF80E000720ADF810001C
:103450006946074800F058F80121054800F03AF89D
:10346000FF2000F007F807B000BD00000004024094
:103470000030014010B5044600BF02210A4800F0A8
:1034800035F80028F9D02146074800F03BF800BF86
:103490000121054800F02AF80028F9D0024800F080
:1034A0002EF8C0B210BD00000030014010B5044637
:1034B000074800884FF6C77108400549088008464C
:1034C0000088204308800121014800F003F810BD66
:1034D0000030014021B1028842F04002028004E045
:1034E00002884FF6BF731A400280704702460020E0
:1034F00013890B400BB1012000E00020704701460A
:10350000888970478181704710B50022028802F4D3
:1035100041520B884C8823438C882343CC88234317
:103520000C8923434C8923438C892343CC8923432F
:103530001A430280838B4FF2FF74234083830B8AEC
:10354000038210BD704700000CB500200190009070
:103550003448006840F480303249086000BF314888
:10356000006800F4003000900198401C0190009821
:1035700018B90198B0F5A04FF1D12A48006800F4BD
:10358000003010B10120009001E000200090009870
:10359000012846D123484030006840F0805021493E
:1035A000403108602048006840F440401E490860EF
:1035B0001C48083000681B4908310860084600684C
:1035C00040F4004008600846006840F4A0500860DD
:1035D0001648091F0860081F006840F08070091F26
:1035E000086000BF0F48006800F000700028F9D0A4
:1035F00040F205700E4908600A480830006820F063
:1036000003000849083108600846006840F00200DD
:10361000086000BF03480830006800F00C0008286C
:10362000F8D10CBD0038024000700040085440073B
:10363000003C0240042808D14FF0E021096941F024
:1036400004014FF0E022116107E04FF0E021096929
:1036500021F004014FF0E022116170477047000033
:1036600010B504466FF00400FFF7E4FFE11704EB28
:103670005171C1F3C701074A11701046007800EB81
:103680004001C1EBC0104FF6FF7101EAC0000249D2
:10369000088010BD100000201200002010B5154851
:1036A000006840F47000134908601348006840F057
:1036B00001001149086000200F49083108600E48D8
:1036C00000680E4908400C4908600D48091D086053
:1036D000081F006820F48020091F086000200649A8
:1036E0000C310860FFF730FF4FF00060014980396E
:1036F000086010BD88ED00E000380240FFFFF6FED4
:103700001030002400B59DB001210846FEF7CAF82C
:1037100001200790002008900F20099000200A90B7
:103720000B900C900D9010200090019018200290AA
:103730000020039004900590069006200E90002033
:103740000F90109010201190002012901490139060
:10375000159016904FF480501790002018904FF459
:103760008040199000201A9007A81B90CDF870D0C7
:103770000EA8FDF73FFA01210620FDF721FA1DB042
:1037800000BD00001CB501217820FEF77BF80C225B
:103790000E215748FDF7D4FB0C220F215448FDF7AA
:1037A000CFFB0C2200215248FDF7CAFB0C2201215D
:1037B0004F48FDF7C5FB0C2207214E48FDF7C0FB23
:1037C0000C2208214B48FDF7BBFB0C22092149487C
:1037D000FDF7B6FB0C220A214648FDF7B1FB0C228F
:1037E0000B214448FDF7ACFB0C2211464148FDF784
:1037F000A7FB0C220D213F48FDF7A2FB0C220E2156
:103800003C48FDF79DFB0C220F213A48FDF798FB41
:103810000C2208213648FDF793FB0C22092134487D
:10382000FDF78EFB0C220A213148FDF789FB0C22A3
:1038300004212F48FDF784FB0C2205212C48FDF7BD
:103840007FFB0C2211462C48FDF77AFB0C22114617
:103850002A48FDF775FB4CF23370009002208DF87A
:10386000040000208DF8060003208DF805000120DB
:103870008DF8070069461E48FDF71AFB4FF6807069
:10388000009002208DF8040000208DF8060003202F
:103890008DF8050001208DF8070069461548FDF7F1
:1038A00007FB4FF48050009002208DF804000020A8
:1038B0008DF8060003208DF8050001208DF8070023
:1038C00069460D48FDF7F4FA4FF48050009002204D
:1038D0008DF8040000208DF8060003208DF8050007
:1038E00001208DF8070069460448FDF7E1FA1CBD88
:1038F000000C024000100240001402400018024078
:1039000010B5FFF73FFFFFF7FDFE322001F034FB5B
:10391000D320FDF739FF8F4800888F4988808D4874
:10392000008888808B4800888880084680884FF609
:10393000FF7101EA002088498880084680884FF09E
:10394000D841B1F8801008438349888008468188AF
:1039500082A000F03FFEB020FDF716FF0020FDF72B
:1039600019FF1120FDF710FF142001F005FBB32013
:10397000FDF70AFF0220FDF70DFF0020FDF70AFF0B
:103980000020FDF707FF0020FDF704FFC020FDF732
:10399000FBFE1020FDF7FEFE3B20FDF7FBFE0020A6
:1039A000FDF7F8FE0220FDF7F5FE0020FDF7F2FE20
:1039B0000120FDF7EFFE0020FDF7ECFE4320FDF7B0
:1039C000E9FEC120FDF7E0FE1020FDF7E3FE102028
:1039D000FDF7E0FE0820FDF7DDFE0820FDF7DAFE2A
:1039E000C420FDF7D1FE1120FDF7D4FE0720FDF71E
:1039F000D1FE0320FDF7CEFE0320FDF7CBFEC6204F
:103A0000FDF7C2FE0020FDF7C5FEC820FDF7BCFE95
:103A10000320FDF7BFFE0320FDF7BCFE1320FDF7DA
:103A2000B9FE5C20FDF7B6FE0320FDF7B3FE0720CC
:103A3000FDF7B0FE1420FDF7ADFE0820FDF7AAFE4D
:103A40000020FDF7A7FE2120FDF7A4FE0820FDF7CA
:103A5000A1FE1420FDF79EFE0720FDF79BFE5320DC
:103A6000FDF798FE0C20FDF795FE1320FDF792FE62
:103A70000320FDF78FFE0320FDF78CFE2120FDF7CC
:103A800089FE0020FDF786FE3520FDF77DFE002033
:103A9000FDF780FE3620FDF777FE0020FDF77AFE69
:103AA0003A20FDF771FE5520FDF774FE4420FDF726
:103AB0006BFE0020FDF76EFE0120FDF76BFEB620C9
:103AC000FDF762FE0020FDF765FE2220FDF762FE95
:103AD0003B20FDF75FFED020FDF756FE0720FDF7E7
:103AE00059FE0720FDF756FE1D20FDF753FED1209D
:103AF000FDF74AFE0020FDF74DFE0320FDF74AFECC
:103B00000020FDF747FED220FDF73EFE0320FDF723
:103B100041FE1420FDF73EFE0420FDF73BFE292068
:103B2000FDF732FE142001F027FAB420FDF72CFE39
:103B30000020FDF72FFE142001F01EFA2C20FDF7C7
:103B400023FE0020FDF706FB4FF6FF70FDF7DEFABF
:103B500010BD00008000006C18000020204C434481
:103B60002049443A25780D0A0000000010B540F2C3
:103B700025510C4800F094F870B10A4800F04AF959
:103B8000C4B22146074800F04AF900BF4021054869
:103B900000F079F80128F9D14021024800F05EF8E0
:103BA00010BD00000010014010B588B0044601218E
:103BB0000846FDF767FE01211020FDF783FE07226E
:103BC00009212448FDF7BCF907220A212148FDF705
:103BD000B7F94FF4C060069002208DF81C008DF8F4
:103BE0001D0000208DF81E0001208DF81F0006A981
:103BF0001848FDF75DF902940020ADF80C00ADF80F
:103C00000E00ADF81000ADF814000C20ADF8120055
:103C100002A9114800F094F801210F4800F027F89C
:103C200040210D4800F01AF8012240F225510A48BF
:103C300000F060F825208DF8040003208DF80500C1
:103C40008DF8060001208DF8070001A8FDF7D2FDD0
:103C500008B010BD000002400010014001F40072E5
:103C6000B2F5007F00D100BFCA430280704721B186
:103C7000828942F40052828104E082894DF6FF730A
:103C80001A408281704702460020B1F5007F00D1C2
:103C900000BF13880B400BB1012000E000207047EB
:103CA00070B50246002400230025002040F66A1665
:103CB000B14200D100BFC1F3421501F01F0301263C
:103CC00006FA03F3012D02D19689334006E0022D56
:103CD00002D1168A334001E0968A33400C12012645
:103CE00006FA04F41688344013B10CB1012000E048
:103CF000002070BDF0B503460024002600250020FA
:103D000040F66A17B94200D100BF1846C1F3421409
:103D100001F01F06012707FA06F5012C01D10C302E
:103D200004E0022C01D1103000E014301AB1076811
:103D30002F43076002E00768AF430760F0BD000053
:103D40002DE9FF4705460E460024A14600BFA046C8
:103D5000B08900B100BF2C8A24F44054F088044399
:103D60002C82AC8941F20C608443B08831890843CD
:103D7000718908430443AC81AC8A24F44074B0894F
:103D80000443AC826846FDF7BDFD2048854202D061
:103D90001F48854202D1DDF80C9001E0DDF8089063
:103DA000A88900F4004040B109EBC90000EB0910FC
:103DB00031684900B0FBF1F707E009EBC90000EBFF
:103DC000091031688900B0FBF1F76420B7FBF0F00F
:103DD00004012009642101FB1078A88900F4004047
:103DE00040B1322000EBC800B0FBF1F000F007005A
:103DF000044308E0322000EB08106421B0FBF1F02E
:103E000000F00F0004432C81BDE8FF870010014043
:103E10000014014001468888C0F308007047C1F3D0
:103E200008028280704700BFFEE710B5002404201E
:103E300000F01AF90446204610BD10B541F60660A0
:103E400000F07CFB10BD000070B5082000F00CF9FC
:103E50000546092000F008F9044644F66771601A27
:103E60008C421DD00DDCA4F58040A0F5A270A8B155
:103E7000102812D0B0F53F6F11D0B0F5416F27D1A7
:103E80000AE0A0F2E67060B1A0F6FF6050B1A0F5C4
:103E900080501938E0B900BF00BF00BF00BF00BFAD
:103EA00000BF00BF68001921B0FBF1F40A20B4FB89
:103EB000F0F100FB1140052805D90A20B4FBF0F011
:103EC000401C80B270BD0A20B4FBF0F080B2F9E76C
:103ED000E40804F00304032C01D1012400E00024D1
:103EE000034800EB4410290B30F81100EAE700000A
:103EF00022BA000810B500240020114908601420DF
:103F000001F03AF801200F49C1F898020E49086003
:103F10000C49C1F8A00204E0601CC4B2322001F0D8
:103F20006DF80A48006808B9C82CF5DB142001F0C8
:103F300023F8C82C01DB012010BD0020FCE70000A5
:103F4000A002434200004342980242423C82404267
:103F50001CB501215220FDF795FC40200090012066
:103F60008DF8040000208DF8060003208DF8050070
:103F700001208DF8070069461C48FCF799FF4FF4B3
:103F8000A070009069461A48FCF792FF00208DF857
:103F900004004FF40040009069461648FCF788FF83
:103FA0004FF48040009001208DF8040000208DF82F
:103FB000060003208DF8050001208DF807006946F2
:103FC0000C48FCF775FF4FF480410A48FCF7DBFF13
:103FD0008020009069460648FCF76AFF802104486B
:103FE000FCF7D1FFFFF7E4F91CBD00000010024010
:103FF00000180240000402402DE9F04704468846BC
:1040000000252DE02846691C8DB234F81070284632
:10401000691C8DB234F8106006F4004088B1C6F314
:104020000E062846691C8DB234F8109003E0F8B2F1
:10403000494600F0A3FA3000A6F101018EB20FD07C
:10404000F5E708E02846691C8DB234F81090F8B204
:10405000494600F093FA3000A6F101018EB2F1D189
:104060004545CFDBBDE8F08770B50546002400BFAD
:10407000134800680028FBD000F0D6F80120114951
:10408000086000201049C1F89802032000F0C1F830
:10409000284600F0BEF8FF2000F0BBF804464FF6BB
:1040A000FF7000EA0424FF2000F0B3F8204484B23B
:1040B00001200649086000F0B2F8204670BD0000FB
:1040C0003C824042980243420000424298024242EF
:1040D00010B5FFF70FFF4FF40261002000F04EFA19
:1040E00000BF164800680028FBD000F09DF80020B3
:1040F000134908604D2000F08CF8EA2000F089F8A0
:104100006D2000F086F8542000F083F8002000F0C5
:1041100080F8002000F07DF8002000F07AF8002000
:1041200000F077F8962000F027FF01200549C1F83C
:1041300098020820FFF798FF10BD00003C82404223
:10414000980243420000434210B50021042000F0D1
:1041500015FA0021042000F011FA10BD70B588B0E6
:10416000002604E000200DF80600701CC6B2202EC8
:10417000F8DB0020FFF778FF044644F0080444F021
:1041800004042146002000F0F9F900250EE06846FD
:1041900000F05CF850B905F1200085B20020FFF76F
:1041A00063FF044604F0080000B902E0B5F5006FB3
:1041B000EDDB00BFB5F5006F19DAFFF73EFEC4B2C4
:1041C000002604E0E0B20DF80600701CC6B2202EF6
:1041D000F8DB002506E0684600F038F810B905F174
:1041E000200085B240F604008542F4DB01E000F0D7
:1041F00065F90820FFF738FF04460920FFF734FF70
:10420000204484B21CB1FFF775FE00F057F908B0E6
:1042100070BD10B504462046FFF72CF910BD10B54F
:104220001020FFF743F910BD10B52020FFF73EF92D
:1042300010BD10B5044610214CF2170000F08AF9A9
:1042400021014CF2190000F085F910BD70B505464A
:104250000B48006878B100200A490860002404E097
:10426000285DFFF7D6FF601CC4B2202CF8DB0120CC
:104270000449086001E0012070BD0020FCE7000057
:104280003C8240429802434210B50A49087800F047
:1042900061F8084C2379E278A178607800F00CF896
:1042A0002146487900F03BF821468879FFF7C1FFA5
:1042B00010BD0000380000202DE9F04706460F46EB
:1042C00090461D460024A14605B90AE0082D04DDEC
:1042D000A5F108004FFA80F903E0A5F109004FFAB3
:1042E00080F909F00F044FF6FF7000EA041408F09B
:1042F0000F0004444FF6FF7000EA041407F00F00AB
:1043000004444FF6FF7000EA041406F00F00204446
:1043100084B22146022000F031F9BDE8F08770B583
:1043200005460020FFF7A0FE044605F0010010B18D
:1043300044F0100401E024F0200405F0020010B164
:1043400044F0800401E024F080042146002000F0C5
:1043500015F970BD70B505460024C5F1FE0084B2A4
:104360004FF6FF7000EA0424C5F1FE00204484B239
:1043700021460B2000F002F970BD000010B5FFF7D8
:10438000B9FD42F220010B2000F0F8F84FF4026171
:10439000002000F0F3F800BF454800680028FBD07B
:1043A000FFF742FF0020434908605320FFF731FF29
:1043B000EF20FFF72EFF6E20FFF72BFF2420FFF7E3
:1043C00028FF0020FFF725FF0020FFF722FF002035
:1043D000FFF71FFF0020FFF71CFF642000F0CCFD5B
:1043E00001203549C1F89802002032490860452073
:1043F000FFF70FFF7820FFF70CFF6920FFF709FF99
:104400007420FFF706FF0020FFF703FF0020FFF7EF
:1044100000FF0020FFF7FDFE0020FFF7FAFE6420FA
:1044200000F0AAFD01202349086000200860532005
:10443000FFF7EFFEEF20FFF7ECFE6E20FFF7E9FE3F
:104440004420FFF7E6FE0020FFF7E3FE0020FFF721
:10445000E0FE0020FFF7DDFE0020FFF7DAFE64201B
:1044600000F08AFD01201349086000200860452003
:10447000FFF7CFFE7820FFF7CCFE6920FFF7C9FEDB
:104480007420FFF7C6FE0020FFF7C3FE0020FFF7F1
:10449000C0FE0020FFF7BDFE0020FFF7BAFE64203B
:1044A00000F06AFD01200449C1F8980210BD000027
:1044B0003C824042980243420000434210B500242F
:1044C00000BF1D4800680028FBD0FF20FFF7A1FEB9
:1044D00000240DE040F60401002000F04FF8022017
:1044E00000F04AFD2046611CCCB2642800DD05E0E6
:1044F0000020FFF7B9FDB0F5006FEBD100BF00BFA2
:104500000D4800680028FBD000240AE04FF4184151
:10451000032000F033F82046611CCCB2642800DD93
:1045200005E00320FFF7A0FDB0F5184FEED100BF66
:10453000142000F021FD10BD3C82404270B50446BD
:104540002146072000F01AF80620FFF78DFD0546EA
:10455000284670BD70B504460D462146072000F080
:104560000DF800BF044800680028FBD0294606204B
:1045700000F004F870BD00003C82404270B5054672
:104580000C4600BF0F4800680028FBD0FFF74CFE28
:1045900001200D49086000200C49C1F89802022052
:1045A000FFF737FE2846FFF734FE2012FFF731FEF3
:1045B000E0B2FFF72EFE012005490860FFF72FFE4D
:1045C00070BD00003C8240429802434200004242DB
:1045D000980242420FB4054B10B503A9044A029851
:1045E00000F018F810BC5DF814FB000035620008FC
:1045F0007C00002002E008C8121F08C1002AFAD17E
:1046000070477047002001E001C1121F002AFBD152
:10461000704700002DE9FF4F8DB00F46054600267C
:1046200006E025280BD0DDE90F1290476D1C761CA3
:1046300028780028F5D111B03046BDE8F08F00246D
:10464000A246A1460122EC4900E0044315F8013FCF
:10465000203B02FA03F00842F7D128782A2810D02C
:104660006FF02F022878A0F13001092914D80AEB45
:104670008A0102EB410144F0020400EB010A6D1CC7
:10468000F0E701CF5FEA000A03D544F40054CAF111
:10469000000A44F002046D1C28782E2817D115F862
:1046A000010F44F004042A280ED06FF02F0228785E
:1046B000A0F1300109290AD809EB890102EB410177
:1046C00000EB01096D1CF2E757F8049B6D1C28787C
:1046D0006C280FD006DC4C2817D068280DD06A282B
:1046E00014D104E0742810D07A280FD10DE044F4DE
:1046F00000140AE044F4801401E044F440146978A2
:10470000814202D104F580146D1C6D1C2A786E2A3A
:104710001FD00CDC632A31D004DC002A8BD0582A4D
:1047200011D1A3E0642A68D0692A0CD165E0732A0C
:104730002ED004DC6F2A73D0702A04D19BE0752A36
:104740006FD0782A6ED01046DDE90F129047761CA4
:1047500050E1C4F30250022806D0032809D00428EF
:1047600001CF09D0066045E101CFF117C0E9006132
:1047700040E101CF06803DE106703BE117F8040BF4
:104780008DF8000000208DF80100EB46012003E0C9
:1047900057F804BB4FF0FF3061074FF0000102D41F
:1047A0000DE008F10101884649450FDA8045F8DB44
:1047B0001BF808100029F4D108E008F1010188462F
:1047C0008142FADB1BF808100029F6D1DDE90F233E
:1047D000AAEB08008146214600F036F9304400EB90
:1047E000080604E0DDE90F121BF8010B9047B8F151
:1047F0000108F7D221464846F7E00A21C4F30253E4
:104800004FF0000B0891022B04D001CFC117032BEE
:1048100009D00AE0FF1D27F00707F7E8020108E0CA
:1048200032E01FE020E000B2C117042B01D140B2FA
:10483000C117031E71F1000307DA4FF0000CD0EB33
:104840000C006CEB01012D2302E0230504D52B2382
:104850008DF82430012303E0E30701D02023F7E79C
:10486000984658E00A2110E010210EE010204FF089
:10487000000B08900CE010214FF0000B44F00404F2
:104880004FF00809089103E008214FF0000B089150
:10489000C4F30253022B04D001CF0021032B06D016
:1048A00006E0FF1D27F00707F7E8020103E080B2EA
:1048B000042B00D1C0B24FF0000823072BD5702A7B
:1048C00007D0DDF820C08CF0100C5CEA0B0C05D092
:1048D0000EE040238DF82430012308E050EA010364
:1048E00006D030238DF824308DF8252002239846F9
:1048F000DDF820C08CF0080C5CEA0B0C0BD150EA00
:10490000010301D1630706D530238DF824304FF021
:104910000108A9F10109582A04D038A20B9208AA6B
:104920000A920BE03AA2F9E75B46089AFBF7B2FC61
:104930000B9B9B5C0A9A521E0A92137050EA01026A
:10494000F2D10A98ADEB000000F1200B600702D510
:1049500024F4803401E04FF00109D94502DDA9EBD0
:104960000B0000E0002000EB0B0141440890AAEB93
:10497000010AE00306D4DDE90F232146504600F08A
:1049800063F806444FF0000908E009A911F809008E
:10499000DDE90F12904709F10109761CC145F4DBEE
:1049A000E0030CD5DDE90F232146504600F04CF81A
:1049B000064404E0DDE90F1230209047761C089988
:1049C000481E08900029F5DC08E00A980A9900784A
:1049D000491C0A91DDE90F129047761CBBF10001DA
:1049E000ABF1010BF1DC21465046DDE90F2300F06D
:1049F00019F806446D1C1BE60928010030313233DA
:104A0000343536373839616263646566000000000A
:104A100030313233343536373839414243444546F4
:104A2000000000002DE9F041044600251E4617460F
:104A3000880404D405E039462020B0476D1C641E6C
:104A4000F9D52846BDE8F0812DE9F041044600255E
:104A50001E469046C80301D5302700E02027880471
:104A600004D505E041463846B0476D1C641EF9D5B3
:104A70002846BDE8F0810146412901DA0846704721
:104A8000612903DBA1F12000C0B2F8E70846F6E790
:104A900070B504460D4600202071401EE062294694
:104AA000204601F091FE08B1032070BD94F82E124B
:104AB00094F82F0241EA00204AF65521884201D09D
:104AC0000220F2E794F86900010694F8680041EAD0
:104AD000004194F8670041EA002094F8661008430A
:104AE00020F07F400D49884201D10020DDE794F895
:104AF0008500010694F8840041EA004194F883009F
:104B000041EA002094F88210084320F07F400349D6
:104B1000884201D10020C8E70120C6E74641540081
:104B2000024600E0521C107810B110788842F9D18A
:104B30001078704770B503460D46586A021D680A22
:104B40001E68B678B0FBF6F400BF02CA09B90020AF
:104B500070BD8C4200D202E0641A121DF5E700BF5E
:104B600010682044F4E70246891E5069801E88427E
:104B700001D8002070479378906A01FB0300F9E7A1
:104B80002DE9F04780460C46A17EE07E41EA0020F8
:104B900010B10020BDE8F087207800F03F00401EF3
:104BA00000EB800101EBC0064FF00109002524E075
:104BB0001A48405D205C1949495D2144497840EA22
:104BC0000127B9F1000F11D0FF2E0BD2384601F0AA
:104BD000B1F882463146761C38F8110001F0AAF887
:104BE000824501D00020D5E7B94605E04FF6FF70B9
:104BF000874201D00020CDE76D1C0D2DD8D3207841
:104C000000F0400038B1B9F1000F04D038F81600B8
:104C100008B10020BEE70120BCE7000088BA000808
:104C20000146002002E04910421CD0B20129FAD10D
:104C300070472DE9F04704468946B9F1000F06D1C7
:104C4000E76817B16069B84215D8012713E04946F3
:104C5000204601F067FB0646022E02D20120BDE885
:104C6000F087701C08B93046F9E76069B04201D995
:104C70003046F4E74F463D4600BF6D1C6069A842D0
:104C800004D80225BD4201D90020E8E72946204684
:104C900001F048FB064606B909E0701C08B1012E78
:104CA00001D13046DBE7BD42E7D10020D7E700BFA6
:104CB0006FF070422946204602F0F2F98046B8F1C2
:104CC000000F08D1B9F1000F05D02A464946204609
:104CD00002F0E6F98046B8F1000F0BD1E5602069DB
:104CE000401C78B12069401E2061607940F00100CD
:104CF000607107E0B8F1010F02D14FF0FF3000E022
:104D0000012005462846AAE72DE9F34F83B08146E6
:104D100004980068019002E00198401C01900198FD
:104D200000782F28F8D0019800785C28F4D0D9F8C2
:104D30001CA000252F4600BF38467F1C01990C5C43
:104D4000202C03DB2F2C01D05C2C00D132E0FF2D76
:104D500003D3062005B0BDE8F08FE4B2812C13DB4D
:104D6000E0B2FE2810DC38467F1C01990E5C06EB91
:104D7000042084B2402E01DB7E2E05DD802E01DB77
:104D8000FE2E01DD0620E5E70121204600F086FF2A
:104D900004460CB90620DDE7802C06DA214671A016
:104DA000FFF7BEFE08B10620D4E728466D1C2AF89E
:104DB0001040C1E700BF0198C11904980160202C80
:104DC00001DA042000E00020804608E0681E3AF87E
:104DD0001040202C02D02E2C00D002E06D1E002DA1
:104DE000F4D100BF0DB90620B4E700202AF8150061
:104DF0000B222021D9F8180001F0DCFC002700E08C
:104E00007F1C3AF817002028FAD03AF817002E280D
:104E1000F6D00FB148F0030800E06D1E25B1681E02
:104E20003AF810002E28F8D10020064602904FF0E4
:104E3000080B00BF38467F1C3AF8104004B963E005
:104E4000202C03D02E2C04D1AF4202D048F003080E
:104E5000F0E70298584501D2AF4214D1BBF10B0FD5
:104E600002D148F003084FE0AF4201D048F00308F8
:104E7000AF4200D948E02F46082002904FF00B0BBC
:104E8000B006060ED6E7802C09DB204600F052FF64
:104E90000021009000F002FF044648F00208FF2CB9
:104EA00011DDABF101000299884204D848F00308F3
:104EB000CDF808B0BEE72212D9F818300298411C8C
:104EC00002911A5419E024B1214629A0FFF728FEC7
:104ED00018B15F2448F003080FE0412C04DB5A2C82
:104EE00002DC46F0020608E0612C06DB7A2C04DCCA
:104EF00046F00106A4F1200084B2D9F818300298D7
:104F0000411C02911C5495E700BFD9F818000078A5
:104F1000E52803D10520D9F818100870BBF1080F57
:104F200001D1B006060E06F00C000C2803D006F0E6
:104F30000300032801D148F0020808F0020058B924
:104F400006F00300012801D148F0100806F00C001B
:104F5000042801D148F00808D9F8180080F80B801F
:104F60000020F7E6222A3A3C3E3F7C7F000000000A
:104F70002B2C3B3D5B5D000070B504464FF4077081
:104F800094FBF0F0C6B24FF4077094FBF0F100FB15
:104F9000114085B205E04FF4077000F009F8701E6B
:104FA000C6B2002EF7D115B1284600F001F870BD49
:104FB0000146114A12884A434FF0E0235A61002209
:104FC0009A611A46126942F001021A6100BF4FF05D
:104FD000E022106900F001021AB100F48032002AC8
:104FE000F5D04FF0E022126922F001024FF0E023E9
:104FF0001A6100229A617047120000200146114A8E
:1050000012784A434FF0E0235A6100229A611A460F
:10501000126942F001021A6100BF4FF0E0221069EC
:1050200000F001021AB100F48032002AF5D04FF0EE
:10503000E022126922F001024FF0E0231A610022FF
:105040009A617047100000202DE9F04104460E4699
:105050000021204600F01AFA0546EDB9002700BFEE
:105060002169206801F0B0FB054605B113E06069D5
:105070000078E52802D06069007820B9781C0746DE
:10508000B04201D107E000270121204600F07FF85F
:105090000546002DE4D000BF042D00D10725284689
:1050A000BDE8F0812DE9F04704460021204600F0DC
:1050B000EDF9074617B13846BDE8F0874FF0FF0914
:1050C000CA464FF6FF70208400BF2169206801F0B6
:1050D0007BFB074607B157E065692E780EB90427B8
:1050E00052E0E87A00F03F08E52E05D008F008000D
:1050F00040B1B8F10F0F05D04FF0FF094FF6FF7028
:1051000020843AE0B8F10F0F1CD1E06978B306F0C3
:10511000400030B195F80DA026F04006B146E08879
:1051200020844E450AD1687B504507D12946E06965
:10513000FFF726FD10B1A9F1010000E0FF2000F00B
:10514000FF091AE0B9F1000F05D1284602F087F8EF
:10515000504500D118E0A069C07A00F0010038B9CC
:105160000B222846A16901F005FB08B90CE004E018
:105170004FF0FF094FF6FF7020840021204600F019
:1051800006F80746002FA0D000BF384694E72DE967
:10519000F04104468846E088461CB0B208B1206958
:1051A00010B90420BDE8F08106F00F0000286BD193
:1051B0002069401C2061E06828B920680089B0425D
:1051C00062D80420EEE720688078401E00EA1610BE
:1051D000002859D1E168206801F0A4F80546012DA6
:1051E00001D80220DEE7681C08B90120DAE7206850
:1051F0004069A84242D8B8F1000F01D10420D1E79C
:10520000E1682068FFF715FD05460DB90720C9E7DD
:10521000012D01D10220C5E7681C08B90120C1E7B2
:10522000206802F090F808B10120BBE7216801F185
:1052300030004FF40072002101F0BCFA29462068CA
:10524000FFF791FC2168C86200270EE00120216869
:105250000871206802F077F808B10120A2E7206801
:10526000C06A401C2168C8627F1C20688078B842F0
:10527000ECD82068C06AC01B2168C862E560294676
:105280002068FFF770FC2061E6802068303006F06F
:105290000F0100EB41106061002083E72DE9F05F12
:1052A00004468A464FF0FF09CB4604274FE02169A8
:1052B000206801F089FA074607B14BE06669357846
:1052C0000DB9042746E0F07A00F03F08E52D0AD03A
:1052D0002E2D08D028F02000082801D1012000E060
:1052E0000020504502D04FF0FF0929E0B8F10F0F20
:1052F0001AD105F0400030B196F80DB025F0400508
:10530000A946E08820844D450AD1707B584507D1D5
:105310003146E06901F084FE10B1A9F1010000E01E
:10532000FF2000F0FF090BE0B9F1000F04D1304677
:1053300001F095FF584502D04FF6FF70208409E038
:1053400000212046FFF723FF074607B102E020694E
:105350000028ACD100BF0FB1002020613846BDE865
:10536000F09F2DE9FE4F0446D4F81880D4F81C9025
:105370000C224146684601F010FA00BF9DF80B0070
:1053800000F0010020B3002088F80B00E061012646
:105390000CE033464A466946404600F05DFF204631
:1053A000FFF780FE054605B102E0761C642EF0D3BF
:1053B00000BF642E02D10720BDE8FE8F042D01D06E
:1053C0002846F9E79DF80B0088F80B00C4F81C90FC
:1053D0009DF80B0000F0020060B1002600E0761C92
:1053E00039F816000028FAD106F119000D21B0FB9A
:1053F000F1F700E0012739462046FFF725FE054674
:1054000045BB781E070025D0E088C11B204600F070
:105410003DF80546F5B9A06901F021FF824600BFBD
:105420002169206801F0D0F9054605B111E0FAB212
:1054300053466169E06900F075FE0120216808713A
:1054400000212046FFF7A3FE054615B9781E070088
:10545000E6D100BFC5B92169206801F0B5F905465C
:1054600095B920220021606901F0A4F90B22D4E94A
:10547000050101F092F9A069C07A00F01800616995
:105480000873012021680871284695E72DE9F0414D
:1054900004460E46E680A568012D03D020684069C9
:1054A000A84202D80220BDE8F0812DB9206800781A
:1054B000032801D12068456A45B920680089B042B7
:1054C00001D80220EFE72068476A1EE02068807854
:1054D0004FEA001812E02946206800F023FF054635
:1054E000681C08B90120DEE7022D03D3206840695B
:1054F000A84201D80220D6E7A6EB08064645EAD224
:1055000029462068FFF72FFB0746E5600FB9022008
:10551000C9E707EB161020612068303006F00F0154
:1055200000EB411060610020BDE7000070B505464A
:1055300025B1012D06D0022D0CD10AE0FCF73CFD6F
:10554000044609E0FBF734F94FF4C04005490880F0
:1055500002E001E0012400BF00BF0CB1012070BDDA
:105560000020FCE7640000202DE9F04781460E464C
:105570001446B9F1000F06D0B9F1010F28D0B9F1E6
:10558000020F42D140E036B1012E11D0022E04D0DC
:10559000032E19D106E0002518E04FF400702060BA
:1055A000002513E01B48B0F85000208000250DE0D6
:1055B00018484FF400720023D0E912713846FAF708
:1055C00003FE2060002501E0042500BF00BF00BFEE
:1055D00036B1012E0FD0022E04D0032E10D106E0DA
:1055E00000250FE04FF40070208000250AE008201D
:1055F0002080002506E0084800882060002501E0A2
:10560000042500BF00BF00BF00BF00BF2846BDE8A3
:10561000F0870000E8000020640000202DE9F04140
:1056200080460F4616461C4614B90420BDE8F0819A
:10563000B8F1000F06D0B8F1010F15D0B8F1020F84
:1056400022D120E0E2B231463846FDF7CFF80546D8
:1056500007E0FCF7B1FCE2B231463846FDF7C6F888
:105660000546002DF5D111E009E071024FF40072FA
:105670003846FBF7D9F8761C07F50077641E002C36
:10568000F3D1002502E001E0012500BF00BF0DB904
:105690000020CBE70120C9E7014621B1012904D050
:1056A000022906D103E0104670471046FCE7104679
:1056B000FAE70120F8E72DE9F04180460F4616464B
:1056C0001C4614B90420BDE8F081B8F1000F06D0E3
:1056D000B8F1010F15D0B8F1020F22D120E0E2B2EB
:1056E00031463846FDF730FC054607E0FCF764FC20
:1056F000E2B231463846FDF727FC0546002DF5D1CC
:105700000FE009E071024FF400723846FBF7F9F838
:10571000761C07F50077641E002CF3D1002500E00D
:1057200000BF00BF0DB90020CDE70120CBE770B569
:105730000546284600F05AFA044634B9284601F0D6
:105740002BFE04460CB900202860204670BD0000E6
:10575000F7B582B016460398019001A800F0E5FE67
:105760000546002D02DA0B2005B0F0BD0E4850F8BA
:1057700025400CB100202070029810B10020029941
:1057800008700949029841F82500029808B1012ED5
:1057900001D00020E8E7002203A902A800F0F8FAEF
:1057A00007463846E0E7000040AC01202DE9F74706
:1057B0008DB0054616461DB9092010B0BDE8F0872A
:1057C0000020286006F01F0626F001020EA904A89A
:1057D00000F0DEFA0746002F77D14FF4007000F09A
:1057E0009BFA8146B9F1000F01D11120E5E7CDF810
:1057F0002C9001A80A9004A80E9900F0D3FC07464B
:10580000099C0FB904B9062706F01C0000285DD0DA
:105810004FB1042F03D104A8FFF7A3FD074646F0BC
:105820000806099C09E0E07A00F0110008B107279A
:1058300003E006F0040000B10827002F55D106F060
:105840000800002851D000F0E6FD804684F80E8064
:105850004FEA1821E1734FEA184121744FEA1861A9
:10586000617484F816804FEA1821E1754FEA1841F7
:1058700021764FEA186161760020E07220770021DE
:105880006177A177E1772146049800F073FE8246A4
:105890000021204601F0DBFC012004990871BAF1D7
:1058A000000F22D00498D0F82C805146049801F0C3
:1058B00098FC0746CFB9AAF101000499C860414697
:1058C000049800F081FF07460FE038E06FB9E07AF6
:1058D00000F0100008B1042707E006F0020020B134
:1058E000E07A00F0010000B1072747B906F0080090
:1058F00008B146F020060498C06AE8612C62484668
:1059000000F011FADFB9AE710020E8712146049869
:1059100000F030FE2861E07F0106A07F41EA0041EF
:10592000607F41EA0020217F0843E8600020A860F2
:10593000A8616862049828602868C088A8803846F2
:105940003BE773B584B0044614B9092006B070BDB6
:10595000002205A903A800F01BFA0546002D2FD14F
:10596000039820604FF4007000F0D6F906460EB997
:105970001120EBE7E661C4F818D02046059900F045
:1059800011FC0546304600F0CEF9B5B9606958B152
:105990006069C07A00F0100028B16169039800F0D6
:1059A000E9FDA06000E005253DB90398C088A0800E
:1059B00000212046FFF76AFD0546042D00D105258C
:1059C0000DB1002020602846C0E72DE9FF4F83B0CD
:1059D000044615469A46DDF810B00020CAF80000CB
:1059E000204601F0D9FC0290029818B1029807B045
:1059F000BDE8F08FE07908B1E079F8E7A07900F030
:105A0000010008B90720F2E7D4E90210401A00901B
:105A10000098854200D9009DAAE02089C0F30800C3
:105A2000002876D120688078401EA16800EA5120C5
:105A300000F0FF09B9F1000F1FD1A06810B920696B
:105A400001900CE0606A28B12046A168FFF772F867
:105A5000019004E06169206800F064FC0190019805
:105A6000022802D20220E071C1E70198401C10B95F
:105A70000120E071BBE70198606161692068FFF770
:105A800072F8064616B90220E071B0E74E444FEABC
:105A90005528B8F1000F29D009EB08002168897852
:105AA000884203D920688078A0EB090821684878EB
:105AB000434632465946FFF7B1FD10B10120E0716F
:105AC00095E7A07900F0400068B1A069801B4045CF
:105AD00009D2A169891B0BEB41204FF4007204F13C
